:020000040000fa
:10000000f07f00200de5000077d6000037df00000c
:1000100000000000000000000000000000000000e0
:10002000000000000000000000000000c7cc00003d
:100030000000000000000000c7cc0000adef000091
:10004000c7cc0000c7cc0000c7cc0000c5e400004e
:10005000c7cc0000c7cc0000c7cc0000c7cc000054
:10006000c7cc000029a300000da10000e5aa0000f4
:10007000c7cc000000000000000000005d89000007
:1000800000000000c7cc0000c7cc0000c7cc0000b7
:10009000c7cc0000c7cc0000c7cc0000c7cc000014
:1000a000c7cc0000c7cc0000c7cc0000c7cc000004
:0c00b000c7cc0000c7cc0000c7cc00008b
:020000040000fa
:1000bc00f8b5c046f8bc08bc9e46704785e3000006
:1000cc00f8b5c046f8bc08bc9e4670475de300001e
:020000040000fa
:0800dc00b0c3000001000000a8
:020000040000fa
:1000e400f0b5b44ca544b44b5b88b44a934201d1f7
:1000f40002f0d3f801d900f011fcb14a934201d1c6
:1001040001f098fc3dd9af4a934201d101f06afe57
:1001140000d878e2ac4a934201d101f02aff00d919
:10012400cae3043a934201d101f0bffe00d999e336
:10013400023a934201d101f076fe01d901f094fe16
:10014400a24c1522a249203120000ff07bfa200096
:100154000ff0e8fa010020000bf01efc9d4a9e4bb4
:100164001a80f932944b5a809c4b1a689c4b1a6043
:1001740020000ff0d7fa81b220000ff070fb01f0dd
:1001840074f8984a934201d101f010fa00d947e17a
:10019400fd3a934201d101f0d5f800d883e0924aa8
:1001a400934201d101f0b8f900d9d9e0023a93425f
:1001b40001d101f04bf901d901f072f9013a9342ee
:1001c40001d001f052f889495c3189480ef08afc6b
:1001d400002801d101f010f90222864b1a70844cd8
:1001e40020000ff09ffa0200210083480ff02afa42
:1001f40080229200002120000ff06efa00227f4b33
:100204001a607c4b1b78022b01d101f015f9794b54
:100214001b78032b01d101f014f9704b1b68784a49
:1002240012689b1a774a934201d801f024f8624b72
:1002340075495a5c01325a5400225a806d4b1a7027
:1002440084ac6a4b6c33220023cb23c223cb23c25e
:1002540023cb23c220000ff065fa81b220000ff0f7
:10026400fefa6a4b1033220003cb03c21b881380af
:10027400564920000ff062f820000ff053fa81b2c3
:1002840020000ff0ecfa5c4c20000ff04bfa81b226
:1002940020000ff0e4fa80229200002120000ff0e9
:1002a4001bfa00f0e2ff043a934201d100f0e7ffa9
:1002b4002ad982225200934201d101f001f801d9d6
:1002c40001f01ff8414c0b224849243120000ff063
:1002d400b9f920000ff026fa010020000bf05cfbb6
:1002e4000422ff324a4b1a80f932334b5a803b4b7b
:1002f4001a68434b1a6020000ff014fa81b22000f0
:100304000ff0adfa00f0b1ff023a934201d100f0d0
:100314008dff0132934201d000f0a7ff2b4c07223e
:100324003249083120000ff08df920000ff0faf95e
:10033400010020000bf030fb0222ff32344b1a8004
:10034400fb321d4b5a80254b1a682d4b1a60200036
:100354000ff0e8f981b220000ff081fa00f085ff78
:100364002c4a934201d101f0e1f801d901f0fef8e1
:10037400164c05221d4920000ff064f920000ff0ef
:10038400d1f9010020000bf007fb80229200224be0
:100394001a80fc32084b5a80104b1a681f4b1a60a3
:1003a40020000ff0bff981b220000ff058fa00f0de
:1003b4005cffc046ecfcffff740000200207000055
:1003c40003040000020600000a06000030110020a9
:1003d4006c5d000003060000602800204028002017
:1003e400f027002003020000ff010000ec5a000087
:1003f40030130020e40c0020301500202c280020ad
:100404000828002010270000310c00006c5b00005d
:100414006c28002001020000d2270020e0270020e1
:10042400ea4a934201d101f01cfa00d883e0e84a79
:10043400934201d101f0b6fa00d9bae0023a9342ec
:1004440001d101f056fa01d901f071fa013a93424f
:1004540001d000f00affdf495c31df480ef042fbb7
:10046400002801d101f01dfa0222dc4b1a70da4c8b
:1004740020000ff057f902002100d9480ff0e2f8ec
:1004840080229200002120000ff026f90022d54b93
:100494001a60d24b1b78022b01d101f022facf4b08
:1004a4001b78032b01d101f020facf4b1b68cf4af4
:1004b40012689b1ace4a934201d800f0dcfecd4b61
:1004c400cd495a5c01325a5400225a80c34b1a70e7
:1004d40084acca4b3033220023cb23c223cb23c2a8
:1004e40023cb23c220000ff01df981b220000ff0ae
:1004f400b6f9c34b1033220003cb03c21b8813800d
:10050400c04920000ef01aff20000ff00bf981b251
:1005140020000ff0a4f9b24c20000ff003f981b2cf
:1005240020000ff09cf980229200002120000ff09f
:10053400d3f800f09afe043a934201d101f0e9f8ad
:1005440010d9c0229200934201d101f049f901d996
:1005540001f067f9802292000021a1480ff0bcf855
:1005640000f089fe023a934201d101f03ff80132d2
:10057400934201d000f079fe994c20000ff0d2f89c
:1005840081b220000ff06bf980229200002120003c
:100594000ff0a2f89c4b1b889c4a934201d101f0b6
:1005a400b3f80133934a538000228c4b1a7000f045
:1005b4005cfe974a934201d101f0fbf901d901f0a5
:1005c40018fa904c11228349103120000ff03af8a8
:1005d40020000ff0a7f8010020000bf0ddf98022c5
:1005e400d2008c4b1a80fc32824b5a807e4b1a68a4
:1005f400894b1a6020000ff095f881b220000ff0ab
:100604002ef900f032fe043aff3a934201d101f090
:1006140033fb29d9814a934201d101f07dfb00d9f2
:1006240004e1023a934201d101f02efb01d901f019
:100634004ffb744c1e227a49503120000ff002f80f
:1006440020000ff06ff8010020000bf0a5f9694ab3
:1006540053880133538020000ff064f881b22000e6
:100664000ff0fdf800f001fef93a934201d101f0d8
:1006740023fa00d87ee06b4a934201d101f067fa75
:1006840001d901f0bdfa013a934201d000f0edfd29
:1006940050495c3150480ef025fa002801d101f090
:1006a4002cfa02224d4b1a704b4c20000ff03af8f2
:1006b400020021004a480ef0c5ff8022920000216a
:1006c40020000ff009f80022464b1a60434b1b78b8
:1006d400022b01d101f031fa404b1b78032b01d1dd
:1006e40001f030fa404b1b684b4a12689b1a404a8f
:1006f400934201d800f0bffd3e4b3f495a5c0132a2
:100704005a5400225a80354b1a7084ac444b14332b
:10071400220023cb23c223cb23c2196811609b88f8
:10072400938020000ef0feff81b220000ff097f8b6
:10073400334b1033220003cb03c21b88138031498f
:1007440020000ef0fbfd20000ef0ecff81b2200033
:100754000ff085f8224c20000ef0e4ff81b2200057
:100764000ff07df880229200002120000ef0b4ffeb
:1007740000f07bfd023a934201d101f07cf9013291
:10078400934201d000f071fd1e4c10221b497431bc
:1007940020000ef057ff20000ef0c4ff01002000df
:1007a4000bf0faf8204a1b4b1a80f732114b5a808f
:1007b4000d4b1a68184b1a6020000ef0b3ff81b27b
:1007c40020000ff04cf800f050fdc046020300007a
:1007d400ff030000ec5a000030130020e40c00205a
:1007e400301500202c28002040280020fc27002061
:1007f4008813000074000020310c0000ec5b000042
:100804006c5b000030110020d2270020030200009e
:10081400010400006a2800200428002003050000c9
:100824006c5c0000fd04000005040000c022d2003e
:10083400934201d101f093fa01d901f0b2fa023adc
:10084400934201d000f011fdd94b1b78012b01d04c
:1008540000f011fd0022d64b1a70d64ad64b5a80ae
:1008640000f009fdc122d200934201d101f03efb08
:1008740001d901f05dfbd14c2622d1497c31200005
:100884000ef0e0fe20000ef04dff010020000bf002
:1008940083f8cc4acc4b1a80f532c74b5a80cb4be9
:1008a4001a68cb4b1a6020000ef03cff81b2200086
:1008b4000ef0d5ff00f0d9fcc64a934201d101f0f5
:1008c4006bfc1ad8023a934201d101f09dfb01d985
:1008d40001f031fc013a934201d000f0c6fcb44b64
:1008e4001b78012b01d000f0c6fc0022b04b1a701b
:1008f400b94ab14b5a8000f0befce022d2009342c8
:1009040001d101f08bfc01d901f0a3fc80229200fb
:100914000021b2480ef0e0fe00f0adfcb04a934274
:1009240001d102f075f83fd9ae4a934201d102f0e9
:10093400dcfa00d816e2ac4a934201d102f0edfb96
:1009440001d900f011fcfa3a934201d102f019fbeb
:1009540000d95de3023a934201d102f0d1fa01d900
:1009640002f0effa954c0d22a049603120000ef000
:1009740069fe20000ef0d6fe010020000bf00cf8fa
:10098400b02212019a4b1a80fc328b4b5a808f4b47
:100994001a68984b1a6020000ef0c4fe81b2200041
:1009a4000ef05dff00f061fc093aff3a934201d179
:1009b40001f0fbfd00d9c9e0f43aff3a934201d1ba
:1009c40001f04afd36d98c4a934201d101f0b0fdc1
:1009d40000d98ce0f33a934201d101f085fd01d2b4
:1009e40001f05efd0132934201d000f03efc704bf9
:1009f4001b78012b01d000f03efc00226c4b1a70d6
:100a04006e4c0e227d49503120000ef01bfe20005a
:100a14000ef088fe010020000af0beff764a664b05
:100a24005a8020000ef07efe81b220000ef017ffe7
:100a340000f01bfc043a934201d101f075fc2bd960
:100a44006f4a934201d101f093fc01d901f0e0fc1b
:100a5400574b1b78012b01d000f00dfc0022544ba6
:100a64001a70564c0f225649483120000ef0eafd08
:100a740020000ef057fe010020000af08dff4e4ac0
:100a840053880133538020000ef04cfe81b22000c5
:100a94000ef0e5fe00f0e9fb023a934201d101f0c9
:100aa40020fc0132934200d0dfe3414b1b78012b41
:100ab40000d0e0e300223e4b1a70404c1e22514904
:100ac400243120000ef0befd20000ef02bfe0100ac
:100ad40020000af061ff384a538801335380200014
:100ae4000ef020fe81b220000ef0b9febde3464aae
:100af400934201d101f02afdfa32934201d101f06f
:100b040046fdfb3a934200d0afe32c4c0f223f4901
:100b1400143120000ef096fd20000ef003fe0100bb
:100b240020000af039ff80221201394b1a80fc326e
:100b3400214b5a80254b1a68364b1a6020000ef060
:100b4400f1fd81b220000ef08afe8ee3324a934218
:100b540001d101f05dfe65d9a0221201934201d1b9
:100b640001f034ff00d9d5e0023a934201d101f0fb
:100b7400e7fe01d901f022ff184c20000ef0d2fd4f
:100b840081b220000ef06bfe802292000021200032
:100b94000ef0a2fd214b1b88214a934201d101f0a2
:100ba400cafe0133044a53800022014b1a705ce3ed
:100bb400e40c0020ff050000740000203011002028
:100bc4006c5d00000706000060280020402800201b
:100bd400f0270020fe060000ff060000301500206c
:100be400040a0000ff0a0000fd0b0000ec60000096
:100bf4005c280020e8270020fe070000ec5d0000d0
:100c040007070000ec5e0000010800006c5f0000b4
:100c140062280020f4270020fc090000da270020c5
:100c240001090000fd3a934201d101f072fd2bd974
:100c3400d74a934201d101f096fd01d201f071fd32
:100c44000132934200d010e3d24c0e22d2495031eb
:100c540020000ef0f7fc20000ef064fd01002000df
:100c64000af09afecd4ace4b1a80fa32cd4b5a8006
:100c7400cd4b1a68cd4b1a6020000ef053fd81b2a3
:100c840020000ef0ecfdf0e2023a934201d101f0b3
:100c940021fd0132934200d0e7e2c24bc4495a5cc1
:100ca40001325a5400225a80c24b1a7084acc24b8f
:100cb4006033220023cb23c223cb23c223cb23c202
:100cc4001b78137020000ef02dfd81b220000ef071
:100cd400c6fdb14b1033220003cb03c21b88138023
:100ce400ac4920000ef02afb20000ef01bfd81b25f
:100cf40020000ef0b4fdb14c20000ef013fd81b2c3
:100d040020000ef0acfd80229200002120000ef0a5
:100d1400e3fcaae2aa4a934201d101f03fff01d9c0
:100d240001f098ff9b4c0f22a649043120000ef0dd
:100d340089fc20000ef0f6fc010020000af02cfed5
:100d4400a14aa24b1a80fb32964b5a80964b1a68e2
:100d54009f4b1a6020000ef0e5fc81b220000ef0db
:100d64007efd82e2f43a934201d101f0f6fe3bd9d2
:100d7400984a934201d102f010f800d98be0023a6c
:100d8400934201d101f087ff01d901f0c0ff814cea
:100d94000e229149503120000ef054fc20000ef038
:100da400c1fc010020000af0f7fd8c4a874b1a8031
:100db400f0327c4b5a807c4b1a68854b1a602000b9
:100dc4000ef0b0fc81b220000ef049fd0ef0c4fb21
:100dd40083480df0b1fc0ef0bffbfa20c0000df00b
:100de400abfc0ef0b9fb40e2043a934201d101f0ae
:100df40093fe27d97b4a934201d101f02afe01d9ff
:100e040001f048fe634c19227749183120000ef096
:100e140019fc20000ef086fc010020000af0bcfd45
:100e2400724a6a4b1a80f4325e4b5a805e4b1a68df
:100e3400674b1a6020000ef075fc81b220000ef0a2
:100e44000efd12e2023a934201d101f044fe013256
:100e5400934200d009e24f4c1922654960312000c9
:100e64000ef0f0fb20000ef05dfc010020000af003
:100e740093fd604a554b1a80f6324a4b5a804a4bce
:100e84001a68534b1a6020000ef04cfc81b220000b
:100e94000ef0e5fce9e1584a934201d101f0c8ffa4
:100ea40001d901f0e4ff013a934200d0dde1534956
:100eb4005c3153480df016fe002801d101f08eff7d
:100ec40002223c4b1a704e4c20000ef02bfc020008
:100ed40021003a480ef0b6fb802292000021200047
:100ee4000ef0fafb0022474b1a60324b1b78022ba0
:100ef40001d101f093ff2f4b1b78032b01d101f09b
:100f040092ff294b1b68324a12689b1a3e4a93424d
:100f140000d8b0e1234b26495a5c01325a540022ce
:100f24005a80244b1a7084ac384b0433220023cbf0
:100f340023c223cb23c223cb23c223cb23c220002f
:100f44000ef0f0fb81b220000ef089fc124b10333e
:100f5400220003cb03c21b8813800e4920000ef02d
:100f6400edf920000ef0defb81b220000ef077fcdc
:100f7400124c20000ef0d6fb81b220000ef06ffc64
:100f840080229200002120000ef0a6fb6de1c046f5
:100f940001090000301100206c5b00000209000010
:100fa400da2700207400002040280020e4270020d5
:100fb400310c0000e40c00206c5f000030150020b0
:100fc400020a00006c5c0000010a00005e28002098
:100fd400ec2700200f0a0000ec5d00000c0a000062
:100fe400b80b0000090a00006c600000080a000049
:100ff400ec5f0000060a0000fd0a0000ec5a000045
:10100400301300202c280020204e0000ec6000004b
:10101400dd4a934201d102f035f801d201f0d2ff4a
:10102400f732934200d020e1d8495c31d8480df022
:1010340059fd002801d102f046f80222d54b1a705e
:10104400d34c20000ef06efb0200d34d210028008b
:101054000ef0f8fa80229200002120000ef03cfbf2
:101064000022ce4b1a60ce49303128000df03afdf3
:10107400041e29d008300ef0c9fbca4dca4be854ef
:1010840020000b300ef0c2fbc84be85420000e3099
:101094000ef0bcfbc64be854200011300ef0b6fb3a
:1010a400c44be854200014300ef0b0fbc24be8549b
:1010b400200017300ef0aafbc04be854053be8189b
:1010c4000af05efbbe4be850b24b1b78022b01d1f9
:1010d40002f019f8af4b1b78032b01d102f018f87a
:1010e400b84b1b68b84a12689b1ab84a934200d896
:1010f400bbe0ac4bb6495a5c01325a5400225a80c8
:10110400a44b1a7084aca64b3c33220023cb23c2dd
:1011140023cb23c21b78137020000ef003fb81b293
:1011240020000ef09cfbab4b1033220003cb03c218
:101134001b881380a84920000ef000f920000ef04f
:10114400f1fa81b220000ef08afb934c20000ef0dd
:10115400e9fa81b220000ef082fb80229200002185
:1011640020000ef0b9fa80e09c4a934201d102f0cb
:10117400ebf84bd8fd3a934201d102f0d5f801d2f5
:1011840002f096f8013293426fd1934c8022920080
:10119400002120000ef0a0fa914e310028311f22c8
:1011a40020000ef04ffa20000ef0bcfa00197d4d1d
:1011b400a91d20220ef046fa33004833b26c049283
:1011c4009a8804a98a809b798b7120000ef0b6f866
:1011d4002900273120000ef0b1f820000ef0a2fa09
:1011e400010020000af0d8fbc02212017d4b1a80b6
:1011f4007a4b6b80734b1a687b4b1a6020000ef09d
:1012040091fa81b220000ef02afb2ee0774a934235
:1012140001d102f087f901d202f060f90132934260
:1012240023d100225b4b1a7002f087f86a4c052226
:10123400564920000ef006fa20000ef073fa010061
:1012440020000af0a9fb80225200694b1a80fc326c
:10125400544b5a805b4b1a68664b1a6020000ef0a0
:1012640061fa81b220000ef0fafa4e4b1b78022b81
:1012740001d102f098f9c5239b009d44f0bd564c62
:1012840011224249103120000ef0dcf920000ef04a
:1012940049fa010020000af07ffb81225200544bde
:1012a4001a80fa323f4b5a80464b1a68514b1a60e7
:1012b40020000ef037fa81b220000ef0d0fad4e705
:1012c400454c0b223149303120000ef0bbf920008f
:1012d4000ef028fa010020000af05efb8222520080
:1012e400434b1a80f8322f4b5a80364b1a68414bc5
:1012f4001a6020000ef016fa81b220000ef0affa48
:10130400b3e7354c092221493c3120000ef09af90b
:1013140020000ef007fa010020000af03dfb06222f
:10132400ff32334b1a80f7321e4b5a80254b1a6812
:10133400304b1a6020000ef0f5f981b220000ef057
:101344008efa92e7244c12221049483120000ef004
:1013540079f920000ef0e6f9010020000af01cfbe8
:1013640083225200224b1a80f6320e4b5a80154bc0
:101374001a68204b1a6020000ef0d4f981b22000c4
:101384000ef06dfa71e7c046050b0000ec5a000040
:1013940030130020e40c0020301500202c280020fd
:1013a4006c61000074000020640c0000650c0000f7
:1013b400660c0000670c0000680c0000690c00005b
:1013c4006c0c000040280020e8270020881300004f
:1013d400310c00006c5b000030110020fc0c00009c
:1013e400ec61000064280020f8270020fe0c0000b7
:1013f4006c28002008280020e3496431e3480df0fc
:1014040071fb002801d1fef7fcfe0322e04b1a70a9
:10141400de4c20000ef086f902002100dd480ef0bb
:1014240011f980229200002120000ef055f90022cb
:10143400d94b1a60fef7e5fefe22ff32d74b5a80e5
:1014440019e7ff225200d54b5a8014e7d14c2000f3
:101454000ef068f981b220000ef001fad04b1b881f
:101464008322520093420cd00133cc4a5380802211
:1014740092000021c7480ef02ff90022c44b1a70c5
:10148400f3e6c8491c31c3480df02cfb0100c34ce2
:10149400a01d053120220ef0d5f8c34b6380e6e78a
:1014a400be4bc2495a5c01325a5400225a80b84b8e
:1014b4001a7084acbb4d2b002433220043cb43c2af
:1014c40043cb43c203cb03c220000ef02bf981b2fd
:1014d40020000ef0c4f92b001033220003cb03c20a
:1014e4001b881380b24920000df028ff20000ef065
:1014f40019f981b220000ef0b2f9a64c20000ef0ca
:1015040011f981b220000ef0aaf980229200002184
:1015140020000ef0e1f8a8e68022920000219d4808
:101524000ef0daf800229a4b1a70a4e6a04c0c22b2
:101534009c49443120000ef085f820000ef0f2f8aa
:10154400010020000af028fa9a4a9b4b1a80fb32c9
:10155400924b5a80994b1a68994b1a6020000ef0ee
:10156400e1f881b220000ef07af97ee6904c0e226a
:101574008c49503120000ef065f820000ef0d2f8ae
:10158400010020000af008fa8e4a8b4b1a80fa32c6
:10159400824b5a80894b1a68894b1a6020000ef0de
:1015a400c1f881b220000ef05af95ee6804c0b229d
:1015b4007c49603120000ef045f820000ef0b2f8ae
:1015c400010020000af0e8f97f4a7b4b1a80f932c7
:1015d400724b5a80794b1a68794b1a6020000ef0ce
:1015e400a1f881b220000ef03af93ee666495c317a
:1015f40066480df077fa002861d00222644b1a7015
:10160400624c20000ef08ef80200210061480ef0ba
:1016140019f880229200002120000ef05df80022cb
:101624005d4b1a605a4b1b78022b65d0584b1b78c4
:10163400032b65d0614b1b68614a12689b1a634a8d
:10164400934200d817e6554b58495a5c01325a5414
:1016540000225a804e4b1a7084ac524d2b006c33ce
:10166400220043cb43c243cb43c243cb43c22000fb
:101674000ef058f881b220000ef0f1f82b00103370
:10168400220003cb03c21b881380494920000df0bc
:1016940055fe20000ef046f881b220000ef0dff86f
:1016a4003c4c20000ef03ef881b220000ef0d7f83a
:1016b40080229200002120000ef00ef8d5e5324978
:1016c400643132480df00efa0028abd00322304bbf
:1016d4001a702e4c20000ef025f8020021002d482f
:1016e4000df0b0ff80229200002120000df0f4ffe5
:1016f4000022294b1a6095e7354a284b5a80bae5ef
:10170400344a264b5a80b6e5334a244b5a80fef7b6
:101714004bff224b25495a5c01325a5400225a800d
:101724001b4b1a7084ac2d4b1033220023cb23c2e5
:1017340023cb23c203cb03c220000df0f3ff81b2fd
:1017440020000ef08cf8174b1033220003cb03c299
:101754001b881380164920000df0f0fd20000df0c9
:10176400e1ff81b220000ef07af80a4c20000df05f
:10177400d9ff81b220000ef072f88022920000217d
:1017840020000df0a9ff70e5ec5a00003013002092
:10179400e40c0020301500202c28002074000020c8
:1017a4006c2800206c5b0000ff010000310c00007d
:1017b4003011002001020000d22700204028002020
:1017c400e02700200202000003020000881300004a
:1017d400fd020000fe020000ff020000ec5b0000be
:1017e400ea4c0b22ea49303120000df02bff200097
:1017f4000df098ff010020000af0cef8c0229200fc
:10180400e44b1a80fc32e44b5a80e44b1a68e44bf4
:101814001a6020000df086ff81b220000ef01ff840
:1018240023e5da4c0922da493c3120000df00affa5
:1018340020000df077ff010020000af0adf8d94a2e
:10184400d44b1a80fb32d44b5a80d44b1a68d44bf5
:101854001a6020000df066ff81b220000df0ffff3a
:1018640003e5ca4c0c22d049443120000df0eafeb5
:1018740020000df057ff010020000af08df8cb4a3c
:10188400c44b1a80fa32c44b5a80c44b1a68c44bf6
:101894001a6020000df046ff81b220000df0dfff3a
:1018a400e3e4bb496431c2480df01cf9002801d1be
:1018b400fef7effd0322bf4b1a70bd4c20000df064
:1018c40031ff02002100bc480df0bcfe80229200d2
:1018d400002120000df000ff0022b84b1a60fef733
:1018e400d8fdb74aac4b5a80c5e4b64aaa4b5a80d5
:1018f400c1e4b14c20000df015ff81b220000df0c1
:10190400aeff80229200002120000df0e5fea14be5
:101914001b88a64a934206d001339f4a5380002273
:10192400a44b1a70a1e4a84a9b4b5a80f7e79a4b40
:10193400a6495a5c01325a5400225a809d4b1a70af
:1019440084aca34b5433220023cb23c223cb23c226
:1019540003cb03c220000df0e5fe81b220000df0a0
:101964007eff914b1033220003cb03c21b881380ec
:10197400864920000df0e2fc20000df0d3fe81b278
:1019840020000df06cff8c4c20000df0cbfe81b2da
:1019940020000df064ff80229200002120000df051
:1019a4009bfe62e480229200002183480df094fea5
:1019b40061e4764c0b227649243120000df042fe7e
:1019c40020000df0affe0100200009f0e5ff814a80
:1019d400814b1a80fb32704b5a80704b1a687f4bd4
:1019e4001a6020000df09efe81b220000df037ff3a
:1019f4003be4664c0b226649303120000df022fe98
:101a040020000df08ffe0100200009f0c5ff744a8c
:101a1400714b1a80fa32604b5a80604b1a686f4bd4
:101a24001a6020000df07efe81b220000df017ff39
:101a3400fff71bfc554c092255493c3120000df0a1
:101a440001fe20000df06efe0100200009f0a4ff4d
:101a5400644a614b1a80f9324f4b5a804f4b1a68d3
:101a64005e4b1a6020000df05dfe81b220000df087
:101a7400f6fefff7fafb454c0c224b49443120009b
:101a84000df0e0fd20000df04dfe0100200009f0f6
:101a940083ff554a504b1a80f8323f4b5a803f4bd4
:101aa4001a684e4b1a6020000df03cfe81b22000f3
:101ab4000df0d5fefff7d9fb344c0f224b4904310e
:101ac40020000df0bffd20000df02cfe01002000d1
:101ad40009f062ff464a404b1a80f6322e4b5a8078
:101ae4002e4b1a683d4b1a6020000df01bfe81b28c
:101af40020000df0b4fefff7b8fb254964312c48f3
:101b04000cf0f0ff002801d1fef7e0fd0322294b81
:101b14001a70274c20000df005fe02002100264813
:101b24000df090fd80229200002120000df0d4fde4
:101b34000022224b1a60fef7c9fd2e4a164b5a802a
:101b4400fff799fb2c4a144b5a80fff794fb1a4c6d
:101b540020000df0e7fd81b220000df080fe802210
:101b64009200002120000df0b7fd1b4b1b88204a7a
:101b7400934207d00133084a538000220d4b1a7058
:101b8400fff773fb1d4a044b5a80f6e7301100201f
:101b9400ec5a000066280020740000204028002031
:101ba400fc270020010300006c5b0000020300001e
:101bb40030130020e40c0020301500202c280020d5
:101bc400fd030000fe030000ff030000310c0000d1
:101bd400ec5b0000010400006a28002004280020b7
:101be4000204000003040000040400006c5c000014
:101bf40006040000fd040000fe040000ff040000d1
:101c0400ec4bed495a5c01325a5400225a80eb4b9a
:101c14001a7084acea4b3433220023cb23c223cb87
:101c240023c21b88138020000df07cfd81b22000ac
:101c34000df015fee34b1033220003cb03c21b88c7
:101c44001380e14920000df079fb20000df06afdbe
:101c540081b220000df003fedc4c20000df062fd8b
:101c640081b220000df0fbfd8022920000212000b3
:101c74000df032fdfff7f9fa802292000021d348db
:101c84000df02afdfff7f7facc4b1b78012b01d09e
:101c9400fff7f1fa0022c94b1a70cb4c1e22c84937
:101ca400703120000df0cefc20000df03bfd010052
:101cb400200009f071febf4a53880133538020008d
:101cc4000df030fd81b220000df0c9fdfff7cdfa13
:101cd400ba4b1b78012b01d0fff7cdfa0022b74b8a
:101ce4001a70b94c1e22ba49103120000df0aafc1a
:101cf40020000df017fd0100200009f04dfead4a53
:101d040053880133538020000df00cfd81b2200074
:101d14000df0a5fdfff7a9faa84b1b78012b01d004
:101d2400fff7a9fa0022a54b1a70a74c0f22a84965
:101d3400303120000df086fc20000df0f3fc010092
:101d4400200009f029fea34a9a4b5a8020000df086
:101d5400e9fc81b220000df082fdfff786fa9a4c6f
:101d640012229d49483120000df06cfc20000df03a
:101d7400d9fc0100200009f00ffec022d200974bcd
:101d84001a80fc328b4b5a80954b1a68954b1a601b
:101d940020000df0c7fc81b220000df060fdfff7bc
:101da40064fa894c30228a49403120000df04afc03
:101db40020000df0b7fc0100200009f0edfd8a4a77
:101dc400864b1a80fb327b4b5a80854b1a68854bb5
:101dd4001a6020000df0a6fc81b220000df03ffd3a
:101de400fff743fa784c2e227949703120000df028
:101df40029fc20000df096fc0100200009f0ccfd28
:101e04007a4a764b1a80fa326a4b5a80744b1a68b3
:101e1400744b1a6020000df085fc81b220000df097
:101e24001efdfff722fa684c0f2271493831200059
:101e34000df008fc20000df075fc0100200009f0f5
:101e4400abfd6c4a654b1a80f8325a4b5a80644b8e
:101e54001a68644b1a6020000df064fc81b2200003
:101e64000df0fdfcfff701fa574c0f226049483191
:101e740020000df0e7fb20000df054fc01002000d1
:101e840009f08afd5c4a554b1a80f732494b5a8057
:101e9400534b1a68534b1a6020000df043fc81b277
:101ea40020000df0dcfcfff7e0f9474c21225049fb
:101eb400583120000df0c6fb20000df033fc01006a
:101ec400200009f069fd4d4a444b1a80f632394b23
:101ed4005a80434b1a68434b1a6020000df022fcd1
:101ee40081b220000df0bbfcfff7bff9364c16227f
:101ef4004349243120000df0a5fb20000df012fc15
:101f04000100200009f048fdc122d200334b1a80a1
:101f1400f432284b5a80324b1a68324b1a60200034
:101f24000df000fc81b220000df099fcfff79df943
:101f3400254c122232493c3120000df083fb200055
:101f44000df0f0fb0100200009f026fd2d4a234b83
:101f54001a80f332174b5a80214b1a68214b1a60ae
:101f640020000df0dffb81b220000df078fcfff7bc
:101f74007cf9154c0e222249503120000df062fbf1
:101f840020000df0cffb0100200009f005fd164aea
:101f9400124b1a80fb32074b5a80114b1a68114bb3
:101fa4001a6020000df0befb81b220000df057fc3a
:101fb400fff75bf974000020310c0000e40c0020f2
:101fc4006c5c00006c5b00003011002030150020b8
:101fd400ec5c0000fe050000ec5a000060280020c4
:101fe40040280020f027002001060000020600001f
:101ff4006c5d0000040600000506000006060000f3
:10200400ec5d000009060000eb495c31eb480cf084
:1020140069fd002868d00222e94b1a70e74c2000c1
:102024000df080fb02002100e6480df00bfb80223e
:102034009200002120000df04ffb0022e24b1a60b9
:10204400df4b1b78022b6cd0dd4b1b78032b6dd040
:10205400de4b1b68de4a12689b1ade4a934201d8a3
:10206400fff709f9dc4bdd495a5c01325a5400226e
:102074005a80d34b1a7084acd94b6033220023cbe3
:1020840023c223cb23c223cb23c203cb03c219888d
:1020940011809b78937020000df044fb81b22000e6
:1020a4000df0ddfbcf4b1033220003cb03c21b88a2
:1020b4001380cd4920000df041f920000df032fbd2
:1020c40081b220000df0cbfbbe4c20000df02afbaa
:1020d40081b220000df0c3fb802292000021200079
:1020e4000df0fafafff7c1f8b3496431b3480cf0c4
:1020f400f9fc0028a4d00322b14b1a70af4c200085
:102104000df010fb02002100ae480df09bfa802276
:102114009200002120000df0dffa0022aa4b1a6081
:102124008ee7b24aac4b5a80fff7a5f8b04aaa4be7
:102134005a80fff7a0f8c023db00ae4a12889a4207
:102144001ad0a04c20000df0edfa81b220000df061
:1021540086fb80229200002120000df0bdfaa54be1
:102164001b88a54a934213d001339b4a5380002213
:10217400934b1a70fff779f89a491c3191480cf087
:10218400b1fc411d2022944806300df05bfad8e7db
:102194009a4a914b5a80eae78f4b90495a5c013234
:1021a4005a5400225a80864b1a7084ac944b1033d4
:1021b400220023cb23c223cb23c223cb23c21968ff
:1021c4001160998891809b79937120000df0aafa8f
:1021d40081b220000df043fb824b1033220003cb6d
:1021e40003c21b881380804920000df0a7f820004b
:1021f4000df098fa81b220000df031fb714c2000f3
:102204000df090fa81b220000df029fb802292009b
:10221400002120000df060fafff727f8724c3022fd
:102224007849403120000df00dfa20000df07afac3
:102234000100200009f0b0fb674a53880133538042
:1022440020000df06ffa81b220000df008fbfff7bb
:102254000cf85b4b1b78012b01d0fff70cf8002224
:10226400574b1a70604c122265493c3120000df026
:10227400e9f920000df056fa0100200009f08cfb6a
:10228400554a53880133538020000df04bfa81b234
:1022940020000df0e4fafef7e8ff494b1b78012b10
:1022a40001d0fef7e8ff0022454b1a704e4c2e2257
:1022b4005349503120000df0c5f920000df032fad9
:1022c4000100200009f068fb434a5388023353801d
:1022d40020000df027fa81b220000df0c0fafef7bd
:1022e400c4ff374b1b78012b01d0fef7c4ff00223b
:1022f400334b1a703c4c2422434920000df0a2f9c0
:1023040020000df00ffa0100200009f045fb324acd
:1023140053880133538020000df004fa81b2200069
:102324000df09dfafef7a1ff254b1b78012b01d080
:10233400fef7a1ff0022224b1a702b4c0f223349c7
:10234400383120000df07ef920000df0ebf901008a
:10235400200009f021fb204a5388013353802000d8
:102364000df0e0f981b220000df079fafef77dff5f
:10237400134b1b78012b01d0fef77dff0022104b7d
:102384001a70194c3d222049443120000df05af9ad
:1023940020000df0c7f90100200009f0fdfa0e4af3
:1023a40053880133538020000df0bcf981b2200022
:1023b4000df055fafef759ffec5a000030130020d7
:1023c400e40c0020301500202c2800204028002098
:1023d400f02700208813000074000020310c000056
:1023e400ec5d00006c5b000030110020fd06000075
:1023f400fe0600006028002009060000ff06000019
:102404006c5e0000ec5c0000ec5e00006c5d0000a3
:10241400e54b1b78012b01d0fef72dff0022e24b88
:102424001a70e24c2622e2497c3120000df00af9b0
:1024340020000df077f90100200009f0adfadd4a23
:1024440053880133538020000df06cf981b22000d1
:102454000df005fafef709ffd34b1b78012b01d0d1
:10246400fef709ff0022d04b1a70d04c1622d24935
:10247400243120000df0e6f820000df053f901009e
:10248400200009f089facb4a538801335380200095
:102494000df048f981b220000df0e1f9fef7e5fef8
:1024a400c14b1b78012b01d0fef7e5fe0022be4b89
:1024b4001a70be4c1022c149043120000df0c2f83c
:1024c40020000df02ff90100200009f065fab94a47
:1024d40053880133538020000df024f981b2200089
:1024e4000df0bdf9fef7c1feaf4b1b78012b01d0f7
:1024f400fef7c1fe0022ac4b1a70ac4c0f22af4960
:10250400143120000df09ef820000df00bf90100ad
:10251400200009f041faa74a538801335380200070
:102524000df000f981b220000df099f9fef79dfe3f
:102534009d4b1b78012b01d0fef79dfe00229a4b88
:102544001a709f4a9b4b5a80fef795fe974c0f22b8
:102554009a49243120000df075f820000df0e2f8be
:102564000100200009f018fa964a974b1a80fb32b2
:10257400904b5a80954b1a68954b1a6020000df0c9
:10258400d1f881b220000df06af9fef76efe864b99
:102594001b78012b01d0fef76efe0022824b1a70cd
:1025a4008c4a844b5a80fef766fe8b495c318b481b
:1025b4000cf098fa002866d002227b4b1a70874ce4
:1025c40020000df0aff80200210085480df03af824
:1025d40080229200002120000df07ef80022814b21
:1025e4001a60714b1b78022b6ad06f4b1b78032b3c
:1025f4006bd0764b1b68764a12689b1a7a4a9342d0
:1026040001d8fef738fe6b4b78495a5c01325a54b4
:1026140000225a80644b1a7084ac684b3433220015
:1026240023cb23c223cb23c223cb23c2196811603b
:102634001b79137120000df075f881b220000df0a4
:102644000ef96b4b1033220003cb03c21b8813809b
:10265400564920000cf072fe20000df063f881b2a0
:1026640020000df0fcf85e4c20000df05bf881b208
:1026740020000df0f4f880229200002120000df0db
:102684002bf8fef7f2fd5449643154480cf02afa51
:102694000028a6d00322444b1a70504c20000df0a1
:1026a40041f8020021004e480cf0ccff8022920039
:1026b400002120000df010f800224a4b1a6090e728
:1026c4004c4a3c4b5a80fef7d6fd4b4a394b5a8054
:1026d400fef7d1fd424c20000df024f881b2200019
:1026e4000df0bdf880229200002120000cf0f4ffd0
:1026f400354b1b88334a934207d001332d4a53800c
:102704000022294b1a70fef7b0fd324a294b5a8039
:10271400f6e780229200002131480cf0ddfffef73d
:10272400aafd224c10223549743120000cf08aff96
:1027340020000cf0f7ff0100200009f02df9902291
:1027440012012f4b1a80fc321a4b5a801f4b1a6805
:102754002c4b1a6020000cf0e5ff81b220000df034
:102764007ef8fef782fd114c0f2227490431200028
:102774000cf068ff20000cf0d5ff0100200009f0e8
:102784000bf9224a1e4b1a80fb320a4b5a800f4b1c
:102794001a681c4b1a6020000cf0c4ff81b22000a0
:1027a4000df05df8fef761fde40c0020301100200f
:1027b4006c5d000074000020ec5d00006c5f0000a4
:1027c400ff070000010800006228002040280020c4
:1027d400f4270020ff080000ec5a0000301300200a
:1027e400301500202c28002088130000310c000034
:1027f4006c5b0000fd080000fe080000ec5b0000bc
:10280400da270020e42700206c5c000001090000a6
:10281400f3495c31f3480cf065f9002864d00222d6
:10282400f14b1a70ef4c20000cf07cff02002100e9
:10283400ee480cf007ff80229200002120000cf0eb
:102844004bff0022ea4b1a60e74b1b78022b68d03f
:10285400e54b1b78032b69d0e64b1b68e64a1268ec
:102864009b1ae64a934201d8fef705fde44be5497d
:102874005a5c01325a5400225a80db4b1a7084ace1
:10288400e14b0833220023cb23c223cb23c203cb47
:1028940003c21b88138020000cf044ff81b2200087
:1028a4000cf0ddffd94b1033220003cb03c21b888d
:1028b4001380d74920000cf041fd20000cf032ffba
:1028c40081b220000cf0cbffc84c20000cf02aff92
:1028d40081b220000cf0c3ff80229200002120006e
:1028e4000cf0fafefef7c1fcbd496431bd480cf0a2
:1028f400f9f80028a8d00322bb4b1a70b94c200069
:102904000cf010ff02002100b8480cf09bfe80225e
:102914009200002120000cf0dffe0022b44b1a606c
:1029240092e7bc4ab64b5a80fef7a5fcba4ab44bb0
:102934005a80fef7a0fcb94ab14b5a80fef734f92d
:10294400af4bb0495a5c01325a5400225a80a64b0c
:102954001a7084acac4b2c33220023cb23c223cb80
:1029640023c2196811609b88938020000cf0dafe62
:1029740081b220000cf073ffa44b1033220003cb70
:1029840003c21b881380a24920000cf0d7fc20004e
:102994000cf0c8fe81b220000cf061ff934c2000c3
:1029a4000cf0c0fe81b220000cf059ff802292008e
:1029b400002120000cf090fefef757fc80229200cc
:1029c40000218a480cf088fefef755fc904c10223a
:1029d4009349743120000cf035fe20000cf0a2fe67
:1029e4000100200008f0d8ffa02212018d4b1a80ac
:1029f400fc32834b5a807f4b1a688b4b1a60200041
:102a04000cf090fe81b220000cf029fffef72dfca3
:102a14007f4c0e227d49503120000cf013fe200023
:102a24000cf080fe0100200008f0b6ff7f4a7d4bc9
:102a34001a80f832724b5a806e4b1a687a4b1a60bd
:102a440020000cf06ffe81b220000cf008fffef7ae
:102a54000cfc6f4c0f227649143120000cf0f2fd6f
:102a640020000cf05ffe0100200008f095ff714a81
:102a74006c4b1a80f332624b5a805e4b1a686a4b75
:102a84001a6020000cf04efe81b220000cf0e7fe2c
:102a9400fef7ebfb5e4c0f226549243120000cf05d
:102aa400d1fd20000cf03efe0100200008f074ff70
:102ab400614a5c4b1a80f232514b5a804d4b1a6872
:102ac400594b1a6020000cf02dfe81b220000cf04e
:102ad400c6fefef7cafb4e4c13224b494c31200074
:102ae4000cf0b0fd20000cf01dfe0100200008f0e9
:102af40053ff524a4b4b1a80f732414b5a803d4b9d
:102b04001a68494b1a6020000cf00cfe81b22000b8
:102b14000cf0a5fefef7a9fb3d4c19223a497c3185
:102b240020000cf08ffd20000cf0fcfd01002000c3
:102b340008f032ff424a3b4b1a80f532304b5a8040
:102b44002c4b1a68384b1a6020000cf0ebfd81b254
:102b540020000cf084fefef788fb2d4c0d22394931
:102b6400343120000cf06efd20000cf0dbfd010080
:102b7400200008f011ff344a2a4b1a80f132204b0e
:102b84005a801c4b1a68284b1a6020000cf0cafdae
:102b940081b220000cf063fefef767fb1c4c2e2272
:102ba4002a49703120000cf04dfd20000cf0bafdd4
:102bb4000100200008f0f0fe254a1a4b1a80fa3270
:102bc4000f4b5a800b4b1a68174b1a6020000cf0fd
:102bd400a9fd81b220000cf042fefef746fbc04680
:102be400ec5a000030130020e40c002030150020c3
:102bf4002c28002040280020e4270020881300000f
:102c040074000020310c0000ec5f00006c5b0000dd
:102c140030110020fd090000fe090000ff0900003a
:102c2400ec5b00005e280020ec270020040a000072
:102c34006c5f0000090a00000a0a0000050a00008f
:102c4400070a00006c6000000b0a0000ec5c000046
:102c5400020a0000ec4c1222ec493c3120000cf03a
:102c6400f1fc20000cf05efd0100200008f094fe51
:102c7400e74ae84b1a80f932e74b5a80e74b1a6867
:102c8400e74b1a6020000cf04dfd81b220000cf0df
:102c9400e6fdfef7eafadc4ce24d290044311a2243
:102ca40020000cf0cffc20000cf03cfd0019da4ea3
:102cb400b11d20220cf0c6fc04a92b0060330a00cd
:102cc40021cb21c21b78137020000cf037fb2000ad
:102cd4000cf028fd0100200008f05efed24acd4b26
:102ce4001a80d24b7380cd4b1a68cd4b1a602000ea
:102cf4000cf018fd81b220000cf0b1fd0cf02cfc9e
:102d0400cb480bf019fd0cf027fcfef7aefabe4cd5
:102d140080229200002120000cf0defc04ae64222c
:102d2400002130000cf0d8fcbe4d290044311a2299
:102d340020000cf087fc20000cf0f4fc0019b64fc6
:102d4400b91d20220cf07efc2b006c33320003cb27
:102d540003c2310020000cf0f1fa20000cf0e2fc78
:102d64000100200008f018feb24aaa4b1a80af4bab
:102d74007b80aa4b1a68aa4b1a6020000cf0d2fc84
:102d840081b220000cf06bfd0cf0e6fba8480bf0c0
:102d9400d3fc0cf0e1fbfef768fa9b4c0e22a14930
:102da400743120000cf04efc20000cf0bbfc010040
:102db400200008f0f1fda04a964b1a80ed32964ba4
:102dc4005a80964b1a68964b1a6020000cf0aafca5
:102dd40081b220000cf043fdfef747fa97496431b5
:102de40097480bf07ffe002801d1fef77ef80322fe
:102df400944b1a70924c20000cf094fc02002100b9
:102e040091480cf01ffc80229200002120000cf05d
:102e140063fc00228d4b1a60fef767f88c4a7e4be8
:102e24005a80fef728fa8b4a7b4b5a80fef723fa26
:102e3400854c20000cf076fc81b220000cf00ffdd4
:102e440080229200002120000cf046fc714b1b886c
:102e5400784a934207d001336f4a53800022794b5a
:102e64001a70fef702fa7c4a6b4b5a80f6e76a4bfb
:102e74007a495a5c01325a5400225a80714b1a70b2
:102e840084ac774b3433220023cb23c223cb23c21d
:102e940023cb23c203cb03c220000cf043fc81b23a
:102ea40020000cf0dcfc6f4b1033220003cb03c278
:102eb4001b881380544920000cf040fa20000cf0c9
:102ec40031fc81b220000cf0cafc5f4c20000cf0f5
:102ed40029fc81b220000cf0c2fc80229200002167
:102ee40020000cf0f9fbfef7c0f900215b4b4a4ac5
:102ef400d1548022920054480cf0eefbfef7bbf94b
:102f0400414c0d225649703120000cf09bfb2000ef
:102f14000cf008fc0100200008f03efd524a534b1f
:102f24001a80fb323c4b5a803c4b1a68504b1a6057
:102f340020000cf0f7fb81b220000cf090fcfef7af
:102f440094f9314c11224b4920000cf07bfb2000fa
:102f54000cf0e8fb0100200008f01efd464a434b3c
:102f64001a80fa322c4b5a802c4b1a68404b1a6048
:102f740020000cf0d7fb81b220000cf070fcfef7af
:102f840074f9214c0f223b49143120000cf05afbf8
:102f940020000cf0c7fb0100200008f0fdfc374abc
:102fa400324b1a80f9321c4b5a801c4b1a68304b36
:102fb4001a6020000cf0b6fb81b220000cf04ffc2c
:102fc400fef753f9104c0b222649603120000cf017
:102fd40039fb20000cf0a6fb0100200008f0dcfc0b
:102fe400274a224b1a80f8320b4b5a800b4b1a6833
:102ff4001f4b1a6020000cf095fb81b220000cf0ee
:103004002efcfef732f9c04630110020ec5d0000c2
:10301400030a00005e2800207400002040280020dd
:10302400ec2700206c6000000d0a0000fc0a000080
:10303400b80b00000e0a00000f0a0000ec5a000052
:1030440030130020e40c0020301500202c28002030
:10305400fd0a0000fe0a0000ff0a0000310c000017
:10306400ec6000006c5b0000010b00005c28002099
:10307400e82700206c610000020b0000030b000035
:10308400040b0000e84c0c22e849243120000cf029
:10309400d9fa20000cf046fb0100200008f07cfc6b
:1030a400e34ae44b1a80f732e34b5a80e34b1a6845
:1030b400e34b1a6020000cf035fb81b220000cf0c9
:1030c400cefbfef7d2f8df496431df480bf00afd8e
:1030d400002801d1fdf7f8ff0322dc4b1a70da4c0b
:1030e40020000cf01ffb02002100d9480cf0aafac2
:1030f40080229200002120000cf0eefa0022d54b31
:103104001a60fdf7e1ffd44acb4b5a80fef7b3f8bf
:10311400d24ac94b5a80fef7aef8cd4c20000cf0d1
:1031240001fb81b220000cf09afbc24b1b88c04a01
:10313400934207d00133c04a53800022c34b1a7014
:10314400fef793f8b9495831c1480bf0cbfc00287d
:1031540000d180e003300cf07dfb08f039ff051c42
:10316400b2495c31ba480bf0bdfc00287dd0033075
:103174000cf070fb08f02cff041cac496431b4481b
:103184000bf0b0fc002800d18de0b54e14220021d4
:1031940030000cf0a1fa14220021b2480cf09cfa81
:1031a400b149281c07f0bcfb0bf026fb0300642785
:1031b40001907b4318000af09bf9011c281c06f0bf
:1031c40091fb0290a849201c07f0aafb0bf014fb0a
:1031d4000500474338000af08bf9011c201c06f057
:1031e40081fb0390a149029807f09afb041c019803
:1031f4000af07ef9011c201c06f0eefc09f0a0fe8a
:1032040002000b00894f3c006834210030000bf0b1
:10321400d3fa9649039807f083fb019028000af03b
:1032240067f9011c019806f0d7fc09f089fe020039
:103234000b0021008b480bf0bffa39007031894b29
:10324400320084a80bf0b8fa84a80cf06bfa81b2af
:1032540084a80cf004fb8022920000217c480cf02e
:103264003bfa834a744b5a8067e780231b069c46cb
:1032740065446e4e31006031754f38000bf032fcfe
:1032840003300cf0e7fa08f0a3fe041c31006431ab
:1032940038000bf027fc002800d076e780231b06bb
:1032a4009c46644471e780231b069c4664446ce797
:1032b400614b70495a5c01325a5400225a80634b64
:1032c4001a7084ac6c4b1033220023cb23c203cb83
:1032d40003c21b78137020000cf024fa81b2200082
:1032e4000cf0bdfa654b1033220003cb03c21b88dc
:1032f40013804d4920000cf021f820000cf012fa44
:1033040081b220000cf0abfa514c20000cf00afa08
:1033140081b220000cf0a3fa802292000021200048
:103324000cf0daf9fdf7a1ff802292000021484851
:103334000cf0d2f9524a404b5a803f4b1b78022b77
:1033440001d0fdf798ff35e13e495c313e480bf072
:10335400c9fb002800d199e002223c4b1a703a4c78
:1033640020000cf0dff90200210039480cf06af962
:1033740080229200002120000cf0aef90022354b8f
:103384001a60324b1b78022b00d19de02f4b1b7827
:10339400032b00d19de0294b1b683a4a12689b1a03
:1033a400394a934201d8fdf766ff234b31495a5cf1
:1033b40001325a54324a5a800022244b1a7084ac87
:1033c4002d4b5033220023cb23c223cb23c223cb48
:1033d40023c21b88138020000cf0a4f981b22000c2
:1033e4000cf03dfa254b1033220003cb03c21b889b
:1033f40013800d4920000bf0a1ff20000cf092f97e
:1034040081b220000cf02bfa114c20000cf08af948
:1034140081b220000cf023fa8022920000212000c7
:103424000cf05af9fdf721ff301100206c61000007
:10343400050b00005c2800207400002040280020b8
:10344400e8270020ec5a000030130020e40c002090
:10345400301500202c280020fd0b0000fe0b00007e
:10346400b00c0020c40c00200000c84200007042d0
:10347400ff0b0000310c0000ec6100006c5b0000ed
:10348400ff0c0000f827002010270000c449643115
:10349400c4480bf027fb002800d172e70322c24b7b
:1034a4001a70c04c20000cf03df902002100bf4806
:1034b4000cf0c8f880229200002120000cf00cf9d6
:1034c4000022bb4b1a605ce7ba4abb4b5a80fdf73b
:1034d400d2feba4ab84b5a80fdf7cdfe0021b84b54
:1034e400b54ad154b14c20000cf01cf981b2200033
:1034f4000cf0b5f9b34b1b88c022120193420dd0d6
:103504000133ad4a5380802292000021a7480cf079
:10351400e3f80022a44b1a70fdf7a7feaa4aa64bb3
:103524005a80f0e7a44ba6495a5c01325a54a64a81
:103534005a8000229c4b1a7084aca44b783322002e
:1035440023cb23c223cb23c21968116099889180ad
:103554009b79937120000cf0e5f881b220000cf007
:103564007ef99b4b1033220003cb03c21b881380cc
:10357400984920000bf0e2fe20000cf0d3f881b251
:1035840020000cf06cf9894c20000cf0cbf881b2cf
:1035940020000cf064f980229200002120000cf03d
:1035a4009bf8fdf762fe884b834a52889a4201d009
:1035b400fdf761fe804b9b88874a93425dd015d905
:1035c400864a934200d1cbe100d21de101329342fd
:1035d40001d0fdf750fe80229200002173480cf0c8
:1035e4007bf80022704b1a70fdf745fefc3a9342bb
:1035f40025d00132934201d0fdf73dfe754c0e22d9
:1036040077492c3120000cf01df820000cf08af8ca
:103614000100200008f0c0f9724a734b1a80fb3293
:10362400654b9a80714b1a68714b1a6020000cf03c
:1036340079f881b220000cf012f9fdf71cfe6849fc
:10364400183158480bf04efa002801d1fdf713fe4b
:103654000c300400624928310bf044fa002801d1ef
:10366400fdf709fe20000cf0d1f8534b8a2292009a
:1036740098525c4a9a80fdf7fefd49495c314948fd
:103684000bf030fa002863d00222474b1a70454ce5
:1036940020000cf047f80200210044480bf0d2ff50
:1036a40080229200002120000cf016f80022404bea
:1036b4001a603d4b1b78022b67d03b4b1b78032bc6
:1036c40068d04a4b1b684a4a12689b1a494a93427b
:1036d40001d8fdf7d0fd0022334b1a70364b464912
:1036e4005a5c01325a54454a9a8084ac3c4b3c3370
:1036f400220023cb23c223cb23c21b8813802000a8
:103704000cf010f881b220000cf0a9f8304b103303
:10371400220003cb03c21b8813802e4920000bf028
:103724000dfe20000bf0feff81b220000cf097f894
:103734001e4c20000bf0f6ff81b220000cf08ff835
:1037440080229200002120000bf0c6fffdf793fdbc
:103754001349643113480bf0c5f90028a9d003229a
:10376400114b1a700f4c20000bf0dcff02002100fb
:103774000e480bf067ff80229200002120000bf01e
:10378400abff00220a4b1a6093e71d4a0a4b9a804a
:10379400fdf771fd1b4a084b9a80fdf76cfdc0468e
:1037a400ec5a000030130020e40c002030150020f7
:1037b4002c280020fd0c000074000020fe0c0000ea
:1037c400310c000064280020ff0c0000ec610000b4
:1037d4006c5b000030110020fc800000fe800000c3
:1037e4006c6200000180ffff682800204028002050
:1037f4000028002010270000320c00000080ffff8a
:10380400fd80fffffe80ffff734c21005831734d94
:1038140028000bf067f906002100603128000bf046
:1038240061f9002e00d183e06d4b6e4a9a5c9b18bf
:103834006d4a9446634401221a70002808d0684bec
:10384400684a9a5c9b18684a9446634402221a7038
:10385400614c21006831614e30000bf043f9c51c06
:1038640021006c3130000bf03df907005c4c5d4edb
:10387400a05d40025d4b9c4660440019802292008a
:1038840000210bf029ffa05d4002584b9c46604488
:1038940000197a1b29000bf0d5fea35d0133dbb2be
:1038a400042b48d84e498b554d4b0121504a99540d
:1038b4000021504a995404aa474b743303cb03c2e2
:1038c4001b781370474b464ad35c0421002b01d06c
:1038d400013bd9b24902454b9c466144404bc9184f
:1038e40004a80bf02bfd04a80bf01cff04ab9c46b2
:1038f40060440322384928310bf0a4fe04a80bf0dd
:1039040011ff81b204a80bf0aaff3b4b1b883b4a72
:10391400934215d00133324a9380802292000021d1
:103924002e480bf0d9fe0022354b1a70fdf7a3fc8c
:10393400002884d1bfe700212a4b294ad154b3e798
:1039440027498a2292008b5a013b9bb28b52002b4f
:1039540002d12c4a8a80e0e72b4a214b9a80dce78b
:103964000022274b1a701e4b22495a5c01325a54ca
:10397400244a9a8084ac254b220023cb23c203cb58
:1039840003c21b88138020000bf0ccfe81b2200000
:103994000bf065ff1e4b1033220003cb03c21b88c0
:1039a40013801c4920000bf0c9fc20000bf0bafe68
:1039b40081b220000bf053ff084c20000bf0b2fe44
:1039c40081b220000bf04bff8022920000212000e6
:1039d4000bf082fefdf74ffc6c62000030150020f6
:1039e400740000202f0200002a02000031020000af
:1039f40027020000320c000068280020018000002b
:103a0400e40c00200080ffff0180ffffec62000057
:083a14006c5b00003011002082
:020000040000fa
:103a1c00f0b5a5b007930023049007982093069166
:103a2c001a920bf055ff050000680bf077fe00268c
:103a3c000027069b05901f931f9b1a780d2a39d8d7
:103a4c00092a3dd2002a44d00023129300221f9c45
:103a5c000c922378302b00d07ee06378582b02d068
:103a6c00782b00d06ee0079bb74a0293129b1fa9dc
:103a7c00019320ab0093049821ab04f041fd072582
:103a8c000590054005d0062d2fd1002301341f943d
:103a9c0012931a9b002b02d01a9b1f9a1a60129b2e
:103aac00002b1dd0802332001b06fb1810001900c0
:103abc0025b0f0bd2b2a05d02d2a14d0202ac3d135
:103acc000133b8e7002212925a1c1f925b78002b2c
:103adc00bcd1069b1f93002312931a9b002bdbd1a6
:103aec0032003b00e2e70122ede7209a002a07d0e2
:103afc00352122a80bf0d4f8209904980af08cfff9
:103b0c00681e042806d80bf055fd0c0317190c0081
:103b1c00229e239f059b1b07bbd580231b061f439f
:103b2c00b7e7239b894a8a491a40219b229e5b183e
:103b3c001b051a431700ede7864febe70126864f6e
:103b4c007642e7e71f9b5a1c1f925b78302bf9d00b
:103b5c00002b9ed001230c931f9b0a22139300234e
:103b6c000b930a9308931f9804782300303bd9b227
:103b7c00092926d9059a29680bf0c3fa002832d0f6
:103b8c00002023008446089a0790059220221900f1
:103b9c0091430a000021452a00d0a7e0059b0c9a0e
:103bac00034313438b4294d01f9b069301331f9303
:103bbc00069b5b782b2b71d00c002d2b74d1012420
:103bcc006de00899082909dc0a9951435b180a939e
:103bdc00089b0130013308931f90c4e70b995143a4
:103bec005b180b93f4e71f9a059b9446089a634461
:103bfc001f931b78002a49d11000302b28d01a00b3
:103c0c00313a082a46d8844600201f9a0590139210
:103c1c00303b421c002b0fd00a219444059a1018fb
:103c2c0082421bd1511c0591082a25dc0a220a99d3
:103c3c004a439b1800220a9310001f9b591c1f918a
:103c4c005b781a00303a092ae2d9012207929de7e3
:103c5c001f9b01305a1c1f925b78cee70132541e19
:103c6c00082c03dc0a9c4c430a94d9e7102ad7dcb5
:103c7c000b9c4c430b94d3e7059900221029dbdcf9
:103c8c000a210b9841435b180b93d5e7089a84469d
:103c9c000592d6e7002294460592d6e70c00069bc7
:103cac0002331f93069b9b781a00303a092a60d87e
:103cbc00302b43d01a00313a0021082a16d8303b59
:103ccc001f9d0e931f9b591c1f915b781a00303a55
:103cdc00092a47d94a1b214d2900082a03dc0e99d1
:103cec00a94200dd2900002c00d04942059a002a87
:103cfc0063d10c9a104300d0cbe6079a002a00d06f
:103d0c00e7e64e2b3ed038dc492b00d0e1e6144cd4
:103d1c001fa821000bf096f8002800d1d9e61f9bb4
:103d2c00e11c013b1fa81f930bf08cf8002802d15b
:103d3c001f9b01331f93074f0026aae61f9b5a1c9b
:103d4c001f925b78b4e7c046e8f50000ffffefff79
:103d5c00330400000000f07fffffff7f1f4e0000c8
:103d6c001cf800000a220e994a43d218303a0e92df
:103d7c00a8e7069a00211f92b8e7692bc7d06e2bd3
:103d8c0000d0a6e68b491fa809310bf05bf8002880
:103d9c0000d19ee61f9b1b78282b0cd122aa8649aa
:103dac001fa807f0abfa052805d1239b834a229e56
:103dbc001a4317006de6824fbee76346cb1a079392
:103dcc00089b002b01d1059b0893059c102c00dd52
:103ddc0010240a980af018f806000f00092c15ddbb
:103dec002200784b093ad2009b181a685b6805f0e0
:103dfc00e5f906000b980f000af006f802000b001c
:103e0c003000390003f050fb06000f00059b0f2b10
:103e1c0039dc079b002b00d13be626dd162b0bdc97
:103e2c006849db00c9183200086849683b0005f096
:103e3c00c5f906000f002ce62523059a9b1a079a54
:103e4c009a4220dc0f24059b5e4de41ae1006918b0
:103e5c003200086849683b0005f0b0f9079b1c1b51
:103e6c00e4002c1922686368e1e7079b16330adb30
:103e7c00079b3000da00534b39009b1a1a685b68b9
:103e8c0004f09cf8d5e7059b1c1b079be418002c41
:103e9c006edd0f2323400ad04a49db00c9183200db
:103eac00086849683b0005f089f906000f000f23ec
:103ebc009c4348d02633ff339c4221dd00240594db
:103ecc000a94079422230026049a3c4f13600a9b01
:103edc00b34200d1dde5209904980af09dfd0799c5
:103eec0004980af099fd059904980af095fd0a9931
:103efc0004980af091fd210004980af08dfdc8e5a4
:103f0c000023300039001d002411012c1edc002b75
:103f1c0001d006000f002c4bed00ff182b4b32008c
:103f2c005d19286869683b0005f048f9234b0f00c0
:103f3c000b40274906008b42c0d826498b4213d927
:103f4c000126254f76420023069373e0012214428a
:103f5c0007d01e4aeb009b181a685b6805f02ef917
:103f6c00012301356410d0e7d4239b04ff18eae742
:103f7c00002ce8d00f23644223400ad0114adb0006
:103f8c00d31830001a685b68390004f017f8060083
:103f9c000f002411d7d01f2c20dd002405940a9487
:103fac0007942223049a002613600a9b0027002bf7
:103fbc0091d16ee51cf80000fcf500000000f07fcc
:103fcc000000f8ffe0c700000000b0fc78ee000035
:103fdc000000a07c0000907cffffef7f10232340ab
:103fec00069301d06a230693300039000023ca4d92
:103ffc00002c00dd03e1002b01d006000f00069b16
:10400c00002b0fd06b237900490d3a005b1a002b63
:10401c0008dd1f2b00dc04e10026342b00dcf9e06a
:10402c00dc27bf04002200233000390009f026fcf5
:10403c000028b2d10a9b089a00931399059b049807
:10404c0009f0d4fa0a90002800d137e7079b002426
:10405c00da175b421a40079b1592db43079adb1772
:10406c001a40139205940a9b0498596809f08efd26
:10407c000790002800d125e70a9b0a991b690c318f
:10408c009a1c92000c3008930bf0d8fa22ab0193d7
:10409c0021ab009332003b0004980e960f9708f06a
:1040ac0013fd2090002800d10ce7012104980bf09f
:1040bc00cefa0590002800d104e7219b002b00daf2
:1040cc00b4e0159ad518139a94460699229a5b1a5d
:1040dc0036219b189148013b8a1a0121834200db4f
:1040ec00b0e0c01a121a1f2800dda4e081400023a2
:1040fc0014910c93ab1808931300069a6344d318cd
:10410c00089a0b932b00954200dd13000b9a9342f7
:10411c0000dd1300002b06dd089aed1ad21a089266
:10412c000b9ad21a0b92159b002b17d01a000599db
:10413c00049808f013fe0590002800d1c2e6010097
:10414c00209a049807f071f91b90002800d1b9e669
:10415c00209904980af060fc1b9b2093089b002b71
:10416c0073dc139b002b79d10b9b002b08dd1a0001
:10417c000799049808f050fd0790002800d1a1e69b
:10418c00002d08dd2a000599049808f045fd0590de
:10419c00002800d196e6079a2099049808f0b4fa02
:1041ac00041e00d18ee60025c3680599c5600b93eb
:1041bc000af04bfca8425bda0b9bab421bd1ae4224
:1041cc0019d13b03ab4216d1d622554bd2043b40fe
:1041dc00934210d96369ab4202d12369012b0addea
:1041ec0021000122049808f017fd059904000af03b
:1041fc002cfc00286cdc069b002b78d16be6012292
:10420c00144204d02a686b6804f0d8ff01236410b0
:10421c000835ede60121203b494299400a40170040
:10422c0000e7012252429a401640fbe6139a159d74
:10423c00d21a944649e73b48c31a080098400c90a0
:10424c00149157e700230c93fae7089a20990498e5
:10425c0008f0e2fc2090002883d133e6139a0799ea
:10426c00049808f07bfd0790002800d07ce729e635
:10427c00002800d095e00b9a3b03002a24d02a4951
:10428c003a001b0b8b425ed1069b0138b4460100f1
:10429c00002b0ad0d425224bed043b40ab4204d872
:1042ac006b211b0dcb1a0100994061454bd11f4b63
:1042bc009a4202d14b1c00d104e6194b00261a403d
:1042cc0080235b03d71896e7002b3cd1002e3ad104
:1042dc00069a134b002a2dd01a00d6213a40c90455
:1042ec008a4227dcdc239b049a4200dc59e6104b03
:1042fc0030001193002310933900109a119b04f095
:10430c005dff06000f1e00d0e5e5002800d0e2e5b9
:10431c002223049a1360dee500ee000002fcffff8e
:10432c000000f07fe2fbffffffff0f00ffffef7fbe
:10433c00000050390126a94a3b409b18a84a7642f6
:10434c001a43170057e70c9b002b13d03b4200d1ac
:10435c0051e70b9b069a30003900002b0fd00af066
:10436c00d5fb02000b000e980f9903f09df8060088
:10437c000f0040e7149b334200d13ce7e9e70af019
:10438c00c5fb02000b000e980f9902f0b5fd002240
:10439c00002306000f0009f071fa002800d000e697
:1043ac0029e70599200009f013ff80230022db0583
:1043bc000890099109f072fa002875d00b9b002b1c
:1043cc0043d00022874b0c920d93864b0893864b5f
:1043dc003b401493149a854b9a4200d0b1e00e9a4c
:1043ec000f9b10921193824b3000ff18390009f08b
:1043fc0063ff02000b000c980d9904f0dffe3200f5
:10440c003b0003f051f8784a7a4b06000a409a4276
:10441c0062d9794b119a9a4203d1109a013200d188
:10442c0050e501261f007642209904980af0f4fa10
:10443c00079904980af0f0fa059904980af0ecfa36
:10444c00210004980af0e8fa0de6002e1dd13b037a
:10445c0020d1089809990022624b09f015fa00281e
:10446c001ed1089809990022644b04f0a7fe0500a0
:10447c000891802212069446089b1c9563441d9358
:10448c001c9a1d9b0c920d93a1e7012e02d1002fbb
:10449c0000d186e500225a4b00250c920d9394e72f
:1044ac00564b0b9d0893e4e7544b0898099900224e
:1044bc0004f084fe0b9b05000891002b07d1802390
:1044cc001b06cb1816901793169a179bdae7020067
:1044dc00089b16921793f7e7d4239b04cf18069bdf
:1044ec00002ba1d1404b149a0c973b409a429bd184
:1044fc000899280009f022fc09f09efa0b00020032
:10450c000899280002f0f8fc0b9b08900991002bed
:10451c0004d1002e02d10c9b1b0358d0089809998a
:10452c00384a394b09f0b0f9002800d0d3e4089888
:10453c000999364a314b09f0bbf9002800d173e7d1
:10454c00c9e4069b002b2ad0d423149adb049a428c
:10455c0025d82f4a2f4b2800089909f09ff90028dd
:10456c0016d0280008990af0d3f9002800d10120b0
:10457c0009f04afc0b9b05000891002b22d18023eb
:10458c001b06cb1818901993189a199b0c920d9323
:10459c00d6220d9bd2049b18149a9b1a0d930e983d
:1045ac000f990c9e0d9f09f087fe02000b00300046
:1045bc00390004f003fe0e9a0f9b02f075ff060003
:1045cc000f008ce70200089b18921993dce70d4a48
:1045dc00114b0898099909f057f9aee70000f0ff64
:1045ec00ffff0f000000f03f0000f07f0000e07fb5
:1045fc000000b0fcffff9f7cffffef7f0000e03f5f
:10460c000000f0bf9535a094ffffdf3f35e5af35d7
:0c461c000000c0ffffffdf41ffffcf3fa9
:020000040000fa
:10462800f0b516001f00446a9db00490259d0696bb
:104638000797002c08d110200af0e6ff049b586267
:10464800446084600460c460049b5b6a1968002944
:104658000bd05a68012393404a608b6004980af093
:10466800ddf90022049b5b6a1a60079b002b1cdaa9
:1046780001232b607b005b080793079cba4b220041
:1046880019931a409a421cd1b84b249a1360069a7f
:10469800b74b002a03d1240301d100f08cfd269ae0
:1046a800002a05d109330a9308e000232b60e4e7c8
:1046b8001a0009320a920c33269a13600a981db020
:1046c800f0bd069e079f002200233000390009f044
:1046d800d7f8051e0ed00123249a1360a44b1a00a4
:1046e8000d320a92269a002ae8d01a0026990e322c
:1046f8000a60e3e71aab01931bab009332003b005f
:10470800049808f0e3f9630005905b0d00d17fe0a1
:104718003a03984c120b14432100974a300018951d
:104728009e180022954b02f0e9fb954a954b04f040
:1047380047fd954a954b02f0b9fe040030000d0084
:1047480009f07cf9924a934b04f03afd02000b0001
:104758002000290002f0aafe04000d0009f0f0fa7a
:104768000022039000232000290009f08ff8002878
:104778000ed0039809f062f90b000200290020000e
:1047880009f07ef8030058425841039b1b1a039313
:1047980001231693039b162b0fd87f49db00c918fa
:1047a80008684968069a079b09f084f800284bd0e6
:1047b800039b013b0393002316931a9b9e1b002324
:1047c8000b933300013b0c9304d501239b1b0b93e4
:1047d80000230c93039b002b38db039a0c9b944615
:1047e80063440c9300230f920893229b0125092b05
:1047f80000d991e0052b02dd0025043b2293229b82
:10480800981e032800d991e00af0d6fe8284297602
:104818001a9b1b9a9e18614bf218202a0fdd203b29
:104828000698f318d84040239b1a9c40204309f06f
:10483800edfa01235a4c013e0919189371e7202318
:1048480006989b1a9840f2e71690b6e70b9b039ad6
:104858009b1a0b935342089300230f93c5e7012338
:104868000e93239b002b65dd1f000d93049a546a59
:104878000022626004221100143199425fd96168f4
:10488800049809f085f9049b20605b6a1b680a9309
:104898000e2f00d9fce0002d00d1f9e0069b079c03
:1048a80014931594039b002b00dc7de01a000f2164
:1048b800394b0a40d2009b185c681b68109311940e
:1048c800039b02241d11eb060ad5364b0d401a6acc
:1048d8005b6a1498159903f073fb032406900791fb
:1048e800304e002d30d1109a119b0698079903f08d
:1048f80067fb0690079171e00123239a0e93944673
:10490800039b63445f1c0d933b1eafdc0123ade7a3
:104918000023a5e70023f0e700230e952293013b2f
:104928000d931f000022122323929fe701230e9369
:10493800023bf5e701230d931f001a00f4e76168b5
:1049480052000131616096e701231d4208d010989a
:104958001199e4183268736804f032fc10901191d0
:104968006d100836bde7c0460000f07f0f27000035
:10497800fcf600000000f03f01fcffff0000f83fdc
:1049880061436f63a787d23fb3c8608b288ac63f4d
:10499800fb799f501344d33fe0c700003204000066
:1049a800000010fe78ee0000039b0224002b15d0b7
:1049b800149815995d420f23c94a2b40db00d31880
:1049c8001a685b6804f0fcfb002306900791c54e4b
:1049d8002d11002d00d08be0002b8ad1169b002bc7
:1049e80000d191e0069a079b1092119310981199a3
:1049f8000022bd4b08f04aff002800d184e0002fb8
:104a080000d181e00d9b002b3edd10981199039b8e
:104a180000225e1eb54b04f0d3fb069007910d9d56
:104a28000134200009f00af8069a079b04f0c8fb35
:104a38000022af4b02f03afd12901391129b139c87
:104a4800ac4a10931194139b9c181194002d5ed1bd
:104a5800069807990022a84b02f050fa109a2300f2
:104a68000690079108f026ff002800d000e3a3482d
:104a78001399844661440b0006980799109a08f028
:104a880005ff002800d0e7e2149b159c06930794c5
:104a98001b9b002b00da56e1039a0e2a00dd52e137
:104aa8008f4bd2009b185c681b6808930994239b62
:104ab800002b00dbcee0002f00ddcbe000d0cee203
:104ac8000898099900228c4b04f07afb069a079bf8
:104ad80008f0fafe3e000897002800d0a3e20a9bdf
:104ae8000a9a5d1c31231370039b013303939ee2e2
:104af8000122154205d0a4183268736804f060fbdf
:104b080001236d10083664e7039e3d0089e70a9a81
:104b1800691e521917920e9a714bc900002a4ad081
:104b28005b181a685b680020754903f049fa109a07
:104b3800119b02f0e3f90a9b1090119112930698c9
:104b4800079909f0fdf8040008f078ff02000b004f
:104b58000698079902f0d2f9129b30345d1c1c703c
:104b6800109a119b0690079108f090fe002865d1d5
:104b7800069a079b00205c4902f0c0f9109a119b25
:104b880008f084fe002800d0bde0179b9d4200d1ac
:104b98007ae7109811990022544b04f011fb002277
:104ba8001090119106980799504b04f009fb129543
:104bb80006900791c3e7591808684968109a119b2d
:104bc80004f0fefa109011910a9c179d0698079917
:104bd80009f0b6f8129008f031ff02000b000698b1
:104be800079902f08bf9129b0690079130332370d6
:104bf800179b01340022a34224d1414b10981199ec
:104c080002f054fc02000b000698079908f052fec7
:104c1800002800d077e0109a119b0020384902f054
:104c28006df902000b000698079908f02ffe00287e
:104c380000d129e76b1e1a78302a01d003963fe08d
:104c48001d00f7e706980799284b04f0b9fa069073
:104c58000791bbe70a9e089a099b0698079903f0f3
:104c6800aff909f06df8040008f0e8fe089a099b0e
:104c780004f0a6fa0b0002000698079902f03ef924
:104c88002300303333700a9b751ceb1a9f424bd1bb
:104c980002000b0002f00afc06000f0002000b00e5
:104ca8000898099908f0f2fd00282bd1089809996d
:104cb80032003b0008f0e4fd002801d0e30721d4ce
:104cc8000599049809f0aafe00232b70039b249ae7
:104cd80001331360269b002b00d1efe41d60ede447
:104ce800e0c7000078ee00000000f03f000024401c
:104cf80000001c400000c0fc000014400000c07c04
:104d08000000e03f039e6b1e1a78392a06d10a9ae2
:104d18009a4207d130231370130001361a780132f2
:104d28001a708be71d00eee70022cf4b04f048fa1b
:104d380000220023069007912e0008f0a1fd00280c
:104d480000d188e7bce70e9a002a00d187e0229ab2
:104d5800012a6edc189a002a67d0c44a9b18089d5d
:104d68000b9c0b9a0121d2180b920c9a0498d31819
:104d78000c930af06efc0600002c0edd0c9b002b39
:104d88000bdd0c9a2300944200dd13000b9ae41a01
:104d9800d21a0b920c9ad31a0c93089b002b1ed094
:104da8000e9b002b5fd0002d11dd31002a000498e6
:104db80007f0d6ff059a01000600049806f037fbb5
:104dc80005991090049809f029fe109b0593089bfb
:104dd8005a1b04d00599049807f0c2ff05900121d9
:104de80004980af036fc0f9b0890002b3ddd1a0052
:104df8000100049807f0b4ff229b08900025012bbe
:104e08003bdc0025069bab4233d1079b1b03ab421f
:104e18002fd1199b079a13422bd00b9b01250133e5
:104e28000b930c9b01330c9323e036231a9a9b1a9d
:104e380095e7089b7d1eab4206db5d1b002f0bda56
:104e48000b9bdc1b00238ce7089b0895ea1a0f9b39
:104e580000259b180f93f1e70b9c3b0081e7089d09
:104e68000b9c0e9e88e7089ab4e7229b0025012b2d
:104e7800c7dd0f9b0120002b0bd0089b089a1b69ec
:104e88000f9303339b00d318586809f093fd202330
:104e9800181a0c9bc0181f23184000d1abe0202320
:104ea8001b1a042b00dc9be01c23181a0b9b2418ec
:104eb8001b180b930c9b1b180c930b9b002b05dded
:104ec8001a000599049807f0a9fe05900c9b002b81
:104ed80005dd1a000899049807f0a0fe0890169bb3
:104ee800002b00d189e00899059809f0b0fd002849
:104ef80000db82e0039b0a22013b03930599002310
:104f0800049808f0ebfc0e9b0590002b00d15be1a8
:104f1800002331000a22049808f0e0fc0d9b0600eb
:104f2800002b02dc229b022b6ddc002c05dd3100fe
:104f38002200049807f072fe06003000002d11d000
:104f48007168049808f024fe3100040033690c31bc
:104f58009a1c92000c300af073fb0122210004987d
:104f680007f05cfe0d9f0a9b013f0b93db1937008e
:104f780006000f930899059806f022ff39000d9056
:104f88000400059809f063fd32000e900899049812
:104f980007f0bcfb01230c93c36830340500002bd9
:104fa80004d10100059809f052fd0c9029000498dd
:104fb80009f034fd0c9b229a134300d089e00123a9
:104fc800069a134200d084e0392c00d1a3e00e9b4e
:104fd800002b01dd0d9c31340b9b5d1c1c7027e000
:104fe800042b00d169e70b9a1c33d2180b920c9a48
:104ff800e418d31860e70300f5e7002f3cdc229b98
:10500800022b39dd0d970d9b002b0cd10899052239
:10501800049808f063fc08900100059809f017fd52
:10502800002800dd5be5239b0a9ddb4303930027f3
:105038000899049809f0f2fc002e00d140e6002ff0
:1050480005d0b74203d03900049809f0e7fc3100d5
:10505800049809f0e3fc33e608952e00e3e7002303
:1050680008931e00dfe7c046000024403304000018
:10507800039608952e0032e50e9b0d97002b00d065
:1050880053e70a9d0899059806f09afe0a9b303066
:105098000d9a287001350400eb1a9a4278dc151e27
:1050a80000dc012500270a9b5d1905990122049857
:1050b80007f0b4fd0899059009f0c9fc00282fdc19
:1050c80001d1e3072cd46b1e1a78302ab0d11d0009
:1050d800f9e70e9b002b07db1d00229b1d4326d101
:1050e8000123069a134222d10c9b002b00dc73e7a4
:1050f80005990122049807f091fd0899059009f097
:10510800a6fc002804dc00d066e7e30700d463e7c8
:10511800392c00d05ee70b9b0b9a5d1c392313706a
:105128006b1e1a78392a3bd001321a7080e70b9b24
:1051380001330d930c9b002b05dd392cebd00d9d15
:1051480001340b9b4ae70b9b0f9a0d9d1c709342f1
:10515800abd000230a220599049808f0bffb00236e
:1051680005900a2239000498b74206d108f0b6fb28
:10517800070006000d9b0b93fce608f0affb31001f
:10518800070000230a22049808f0a8fb0600f1e7ac
:1051980000230a220599049808f0a0fb059071e7fe
:1051a8000a9a9a4205d1039b013303933123137062
:1051b8003ee71d00b4e7269a0a930833002a01d077
:1051c800fff77afafff77afa0d9b002b00dd58e714
:0c51d800229b022b00dc54e715e7c046c8
:020000040000fa
:1051e400f0b5c64600b592b0042800d909e18000a4
:1051f400e94b1b589f46e94d80229200002128006c
:105204000af06afae64e0222310028000af01afa7d
:1052140028000af087fa2a00213a311d0004000c04
:105224002c00273c281809f0c7fa28000af07afa5b
:10523400dc4be35cdc4aa25cfa21c9008c46624484
:10524400310014310004000c27300019d74fe75dfa
:105254000397d74fe75d0297d64fe75d0197d64f87
:10526400e75d009709f0a8fa28000af05bfa000449
:10527400000c2730001931003c3116220af0e2f903
:1052840028000af04ffa0004000c273000193100fe
:1052940054310b220af0d6f928000af043fa3100ff
:1052a40060310004000c27300019c44a09f084fa64
:1052b40028000af037fa310074310004000c27305a
:1052c4000019bf4a09f078fa28000af02bfa000402
:1052d400000c27300019bb4e311d10220af0b2f920
:1052e40028000af01ffa0004000c273000193100ce
:1052f400143111220af0a6f928000af013fa000466
:10530400000c27300019310028310c220af09af9d8
:1053140028000af007faac4be318c5221201a218c0
:10532400310034310004000c2730001909f044fa2c
:1053340028000af0f7f90004000c273000193100a6
:1053440048310d220af07ef928000af0ebf9000436
:10535400000c2730001909f023f828000af0e2f9bc
:105364000004000c2730001907f09cfa28000af00a
:10537400d9f90004000c2730001909f003fb2800b8
:105384000af0d0f90004000c2730001909f0f0ffee
:1053940028000af0c7f90004000c2730001909f0ae
:1053a400f3ff28000af0bef90004000c27300019ae
:1053b40009f0cefa28000af0b5f90004000c2730f1
:1053c400001909f055fa28000af0acf90004000ca1
:1053d4002730001909f008f828000af0a3f900049e
:1053e400000c2730001909f023f828000af09af974
:1053f4000004000c273000193100583107220af04c
:1054040021f912b004bc9046f0bd644d8022920094
:10541400002128000af060f9614b98460222190025
:1054240028000af00ff928000af07cf9040032225f
:10543400002105a80af050f9644f791c102205a830
:105444000af000f95f4e310060312004000c2c009a
:10545400273c281805aa09f0aff928000af062f9d8
:10546400a21d310070310004000c2730001909f02e
:10547400a3f928000af056f94a4be35c4a4aa25cb5
:10548400fa21c9008c466244414614310004000ce0
:1054940027300019454ea65d0396454ea65d02963b
:1054a400444ea65d0196444ea65d009609f084f92b
:1054b40028000af037f90004000c27300019444e84
:1054c400192231000af0bef828000af02bf9000472
:1054d400000c27300019414654310b220af0b2f86f
:1054e40028000af01ff9414660310004000c2730ff
:1054f4000019324a09f060f928000af013f941460c
:1055040074310004000c273000192d4a09f054f9b5
:1055140028000af007f93123fa5c31001c31000439
:10552400000c2730001909f047f928000af0faf8ae
:105534003223fa5c31002c310004000c27300019ae
:1055440009f03af928000af0edf83323fa5c310047
:1055540040310004000c2730001909f02df928000f
:105564000af0e0f8184be318c5221201a218310022
:1055740050310004000c2730001909f01df92800ef
:105584000af0d0f80004000c27300019310064310f
:1055940006220af057f834e7a8f400009b00002024
:1055a400ec950000650c0000640c0000690c000020
:1055b400680c0000670c0000660c0000d427002073
:1055c400cc2700206c9600003c0c00000400002056
:1055d400ec960000c54d80229200002128000af0bc
:1055e4007bf80222c24928000af02cf828000af0ad
:1055f40099f804003222002105a80af06df8bd4e86
:10560400711c102205a80af01df82004000c2818ab
:1056140005aab949603109f0cff828000af082f8e8
:1056240081b23423f35c022b00d181e0b34cb44b40
:10563400e35cb44aa25cfa20c00084466244273189
:105644000819b149615c0391b049615c0291b049a8
:10565400615c0191af49615c0091a549143109f085
:10566400abf8200027300af05df83423a14ad35c5c
:10567400012b6dd00004000c2730a04bc0181b2256
:10568400a549083109f0deff984c20000af04af8d9
:105694000004000c2600273e20180b2294495431a4
:1056a40009f0d0ff20000af03df8924f3123fa5c54
:1056b4009a4d29001c310004000c2730801909f090
:1056c4007bf820000af02ef83223fa5c29002c31f2
:1056d4000004000c2730801909f06ef820000af04d
:1056e40021f83323fa5c290040310004000c2730f0
:1056f400801909f061f820000af014f8884bf318b7
:10570400c5221201b218290050310004000c2730c0
:10571400801909f051f820000af004f80004000c84
:105724002730801929006431062209f08bff68e6ce
:105734007c4a0004000c2730941f00196e49703114
:1057440009f03af82000273009f0ecff81b26de748
:105754000004000c2730694bc01819226f496c31c2
:1057640009f070ff90e7614d80229200002128002b
:1057740009f0b2ff5e4f02223900280009f062ffef
:10578400280009f0cfff04003222002105a809f007
:10579400a3ff584e711c102205a809f053ff564b65
:1057a4009846190060312004000c2c00273c28186e
:1057b40005aa09f001f8280009f0b4ffa21d41462a
:1057c40070310004000c2730001908f0f5ff2800a0
:1057d40009f0a8ff4a4be35c4a4aa25cfa21c900db
:1057e4008c466244390014310004000c273000193f
:1057f400454fe75d0397454fe75d0297444fe75deb
:105804000197444fe45d009408f0d6ff280009f0a6
:1058140089ff3523f35c012b5dd00004000c273095
:10582400364bc01819223c493c3109f00bff2f4c70
:10583400200009f077ff0004000c2600273e201802
:105844000b222b49543109f0fdfe200009f06affb8
:10585400284f3123fa5c314d29001c310004000c1f
:105864002730801908f0a8ff200009f05bff3223dd
:10587400fa5c29002c310004000c2730801908f050
:105884009bff200009f04eff3323fa5c29004031ce
:105894000004000c2730801908f08eff200009f066
:1058a40041ff1f4bf318c5221201b21829005031d1
:1058b4000004000c2730801908f07eff200009f056
:1058c40031ff0004000c27308019290064310622be
:1058d40009f0b8fe95e50004000c2730074bc0180a
:1058e40017220d49243109f0adfea0e79b000020ea
:1058f400ec950000040000206c9600007400002069
:10590400650c0000640c0000690c0000680c0000c9
:10591400670c0000660c00006c970000ec96000019
:105924003c0c00007a000020614d8022920000218e
:10593400280009f0d1fe5f4f02223900280009f047
:1059440081fe280009f0eefe04003222002105a8a1
:1059540009f0c2fe584e711c102205a809f072fe0f
:10596400564b9846190060312004000c2c00273c4b
:10597400281805aa08f020ff280009f0d3fea21d6c
:10598400414670310004000c2730001908f014ff60
:10599400280009f0c7fe4a4be35c4a4aa25cfa219c
:1059a400c9008c466244390014310004000c2730cd
:1059b4000019454fe75d0397444fe75d0297444f55
:1059c400e75d0197434fe45d009408f0f5fe28007d
:1059d40009f0a8fe3623f35c012b5dd00004000c13
:1059e40027303d4bc0181c223c49743109f02afe73
:1059f4002f4c200009f096fe0004000c2600273ee0
:105a040020180b222b49543109f01cfe200009f008
:105a140089fe294f3123fa5c314d29001c310004e1
:105a2400000c2730801908f0c7fe200009f07afe28
:105a34003223fa5c29002c310004000c2730801931
:105a440008f0bafe200009f06dfe3323fa5c290049
:105a540040310004000c2730801908f0adfe20000e
:105a640009f060fe1f4bf318c5221201b218290079
:105a740050310004000c2730801908f09dfe2000ee
:105a840009f050fe0004000c27308019290064310d
:105a9400062209f0d7fdb4e40004000c27300e4bb5
:105aa400c0181a220d49583109f0ccfda0e7c046b0
