:020000040000fa
:10000000f07f0020eddf0000e7d10000c3d9000041
:1000100000000000000000000000000000000000e0
:1000200000000000000000000000000037c80000d1
:10003000000000000000000037c80000b5ea000022
:1000400037c8000037c8000037c80000a5df00002f
:1000500037c8000037c8000037c8000037c80000a4
:1000600037c80000c59f0000a99d000081a70000bf
:1000700037c80000000000000000000029820000d6
:100080000000000037c8000037c8000037c8000073
:1000900037c8000037c8000037c8000037c8000064
:1000a00037c8000037c8000037c8000037c8000054
:0c00b00037c8000037c8000037c8000047
:020000040000fa
:1000bc00f8b5c046f8bc08bc9e46704765de00002b
:1000cc00f8b5c046f8bc08bc9e4670473dde000043
:020000040000fa
:0800dc0024bf00000100000038
:020000040000fa
:1000e400f0b5e64ca544e64b5b88e64a934201d161
:1000f40001f0f0ff01d900f06bfce34a934201d117
:1001040001f056fc00d93ce2e04a934201d101f0ef
:1001140005fa00d910e1fd3a934201d101f0d9f872
:1001240000d883e0da4a934201d101f083f900d97f
:10013400d9e0023a934201d101f016f901d901f054
:100144003df9013a934201d001f056f8d1495c31ae
:10015400d1480ef037fa002801d101f0dbf8022271
:10016400ce4b1a70cc4c20000ff060f80200210036
:10017400cb480ef0ebff80229200002120000ff00c
:100184002ff80022c74b1a60c44b1b78022b01d1f5
:1001940001f0e0f8c14b1b78032b01d101f0dff82b
:1001a400c14b1b68c14a12689b1ac14a934201d8c9
:1001b40001f028f8b24bbf495a5c01325a5400226c
:1001c4005a80b64b1a7084acb24b6c33220023cbea
:1001d40023c223cb23c223cb23c220000ff026f853
:1001e40081b220000ff0bff8b34b1033220003cbd1
:1001f40003c21b881380b14920000ef023fe2000a7
:100204000ff014f881b220000ff0adf8a44c2000d8
:100214000ff00cf881b220000ff0a5f880229200b4
:10022400002120000ef0dcff00f0e6ff043a9342c8
:1002340001d100f0ebff2ad982225200934201d16e
:1002440001f005f801d901f023f89c4c0b229149e7
:10025400243120000ef07aff20000ef0e7ff0100a9
:1002640020000bf0d3f80422ff32954b1a80f932a8
:10027400834b5a808c4b1a688c4b1a6020000ef00a
:10028400d5ff81b220000ff06ef800f0b5ff023afe
:10029400934201d100f091ff0132934201d000f06a
:1002a400abff864c07227b49083120000ef04eff3d
:1002b40020000ef0bbff010020000bf0a7f8022283
:1002c400ff327f4b1a80fb326d4b5a80764b1a6893
:1002d400764b1a6020000ef0a9ff81b220000ff0c7
:1002e40042f800f089ff774a934201d101f0acf85b
:1002f40001d901f0c9f8714c0522664920000ef0bd
:1003040025ff20000ef092ff010020000bf07ef884
:10031400802292006c4b1a80fc32594b5a80624bfb
:100324001a686a4b1a6020000ef080ff81b2200028
:100334000ff019f800f060ff654a934201d101f013
:100344001cfa00d883e0634a934201d101f0b6fa63
:1003540000d9ece0023a934201d101f056fa01d9f6
:1003640001f071fa013a934201d000f045ff494986
:100374005c3149480ef026f9002801d101f01dfa3c
:100384000222464b1a70444c20000ef04fff02002c
:10039400210043480ef0dafe802292000021200062
:1003a4000ef01eff00223f4b1a603c4b1b78022bc1
:1003b40001d101f022fa394b1b78032b01d101f052
:1003c40020fa394b1b68444a12689b1a384a9342f4
:1003d40001d800f017ff2a4b36495a5c01325a54af
:1003e40000225a802d4b1a7084ac3c4b30332200cf
:1003f40023cb23c223cb23c223cb23c220000ef062
:1004040015ff81b220000ef0aeff2b4b10332200fb
:1004140003cb03c21b881380284920000ef012fd71
:1004240020000ef003ff81b220000ef09cff1c4c54
:1004340020000ef0fbfe81b220000ef094ff80221b
:100444009200002120000ef0cbfe00f0d5fe043a0d
:10045400934201d101f015f942d9c022920093428e
:1004640001d101f049f901d901f067f98022920024
:1004740000210b480ef0b4fe00f0c4feecfcffffbc
:1004840068000020010700000304000003020000cc
:10049400ff010000cc590000100b0020cc04002008
:1004a400100d00200c20002020200020e81f002038
:1004b400881300002b0400004c5a0000100900208f
:1004c4004c20002001020000b21f0020c01f0020a9
:1004d40002030000ff030000dc1f0020cc5a0000d0
:1004e400023a934201d101f039f80132934201d02a
:1004f40000f082fef04c20000ef098fe81b2200045
:100504000ef031ff80229200002120000ef068fee0
:10051400ea4b1b88ea4a934201d101f0adf801335a
:10052400e84a53800022e84b1a7000f065fee74a5f
:10053400934201d101f0fcf901d901f019fae44c1c
:100544001122e449103120000ef000fe20000ef0cc
:100554006dfe010020000af059ff8022d200de4b1c
:100564001a80fc32d74b5a80dc4b1a68dc4b1a6079
:1005740020000ef05bfe81b220000ef0f4fe00f0cd
:100584003bfed84a934201d101f0e4fb00d9fde0df
:10059400043aff3a934201d101f0f2fa29d9d24a3e
:1005a400934201d101f03cfb00d9d3e0023a9342db
:1005b40001d101f0edfa01d901f00efbc44c1e2269
:1005c400ca49503120000ef0c1fd20000ef02efe6d
:1005d400010020000af01affba4a538801335380fd
:1005e40020000ef023fe81b220000ef0bcfe00f0cd
:1005f40003fef93a934201d101f01cfa00d87ee0df
:10060400bb4a934201d101f060fa01d901f07cfaae
:10061400013a934201d000f0effdae495c31b54898
:100624000df0d0ff002801d101f025fa0222a64bdb
:100634001a70b04c20000ef0f9fd020021009e4813
:100644000ef084fd80229200002120000ef0c8fdef
:100654000022a94b1a609c4b1b78022b01d101f09c
:100664002afa994b1b78032b01d101f029fa9b4bf1
:100674001b689b4a12689b1aa04a934201d800f057
:10068400c1fd904b9e495a5c01325a5400225a8053
:100694008d4b1a7084ac954b1433220023cb23c2a8
:1006a40023cb23c2196811609b88938020000ef02d
:1006b400bdfd81b220000ef056fe924b1033220095
:1006c40003cb03c21b881380814920000ef0bafbc0
:1006d40020000ef0abfd81b220000ef044fe764cfb
:1006e40020000ef0a3fd81b220000ef03cfe80221b
:1006f4009200002120000ef073fd00f07dfd023a0f
:10070400934201d101f075f90132934201d000f016
:1007140073fd6f4c10227c49743120000ef016fddd
:1007240020000ef083fd010020000af06ffe774ade
:10073400694b1a80f732634b5a80684b1a68684bce
:100744001a6020000ef072fd81b220000ef00bfe44
:1007540000f052fdc022d200934201d101f083fa8d
:1007640001d901f0a2fa023a934201d000f044fd0b
:10077400554b1b78012b01d000f044fd0022524b55
:100784001a70634a4f4b5a8000f03cfd614a934211
:1007940001d101f085fb34d95f4a934201d101f0c4
:1007a40045fc00d9cae0023a934201d101f099fb19
:1007b40001d901f0a4fbf13a934201d000f01cfdf1
:1007c400434c0e225549503120000ef0bffc20004e
:1007d4000ef02cfd010020000af018fe504a514b87
:1007e4001a80fb32374b5a803c4b1a684e4b1a60c6
:1007f40020000ef01bfd81b220000ef0b4fd00f0cd
:10080400fbfc043a934201d101f0e6fa28d9474aa5
:10081400934201d101f001fb01d901f01ffb2c4ce3
:1008240021224349583120000ef090fc20000ef0a4
:10083400fdfc010020000af0e9fd3e4a394b1a8014
:10084400f632204b5a80254b1a68374b1a60200029
:100854000ef0ecfc81b220000ef085fd00f0ccfc23
:10086400023a934201d101f096fa0132934201d047
:1008740000f0c2fc164c0f222d49383120000ef036
:1008840065fc20000ef0d2fc010020000af0befd41
:10089400294a244b1a80f8320a4b5a800f4b1a68a3
:1008a400214b1a6020000ef0c1fc81b220000ef032
:1008b4005afd00f0a1fcc046100d0020b21f00201c
:1008c4000302000068000020cc04002001040000a2
:1008d40010090020cc5900004a20002020200020cc
:1008e400e41f002002060000030500004c5b00002a
:1008f400fd040000100b00200c20002088130000d1
:100904002b0400004c5a0000cc5a000005040000df
:10091400ff05000009060000fd060000cc5c000095
:100924000106000040200020d01f00200706000020
:100934004c5c00000606000004060000e54a9342f1
:1009440001d101f0a4fb01d901f0a9fbe24be34979
:100954005a5c01325a5400225a80e14b1a7084ac1a
:10096400e04b1033220023cb23c223cb23c223cb5f
:1009740023c219681160998891809b799371200032
:100984000ef054fc81b220000ef0edfcd64b103377
:10099400220003cb03c21b881380d44920000ef02d
:1009a40051fa20000ef042fc81b220000ef0dbfc74
:1009b400cf4c20000ef03afc81b220000ef0d3fca4
:1009c40080229200002120000ef00afc00f014fcaa
:1009d400c84a934201d102f060f800d9d7e1093a3c
:1009e400ff3a934201d101f02dfd00d9ade0f43a74
:1009f400ff3a934201d101f053fc31d9be4a9342ec
:100a040001d101f0b9fc00d984e0023a934201d14a
:100a140001f06afc01d901f08bfcb14b1b78012b6e
:100a240001d000f0effb0022ad4b1a70af4c162240
:100a3400b249243120000ef089fb20000ef0f6fbb1
:100a4400010020000af0e2fca34a538801335380da
:100a540020000ef0ebfb81b220000ef084fccbe30f
:100a6400043a934201d101f0affb29d9a44a93423d
:100a740001d101f0cdfb01d901f0eefb984b1b78bd
:100a8400012b00d0bee30022954b1a70974c0f2225
:100a94009c49383120000ef059fb20000ef0c6fbb3
:100aa400010020000af0b2fc8b4a538801335380c2
:100ab40020000ef0bbfb81b220000ef054fc9be33f
:100ac400023a934201d101f05bfb0132934200d020
:100ad40092e3834b1b78012b00d093e30022804bdd
:100ae4001a70824c2422884920000ef02ffb20002b
:100af4000ef09cfb010020000af088fc764a538823
:100b04000133538020000ef091fb81b220000ef0df
:100b14002afc71e380221201934201d101f04ffcbf
:100b24000132934201d101f06cfc033a934200d0ac
:100b340062e36b4b1b78012b00d063e30022684b0c
:100b44001a70724a644b5a805ce3714a934201d131
:100b540001f0d0fd00d882e06e4a934201d101f049
:100b640071fe00d9eae0023a934201d101f00dfe90
:100b740001d901f029fe013a934200d03ce36649d1
:100b84005c3166480df01efd002801d101f0d3fd53
:100b94000222534b1a70614c20000ef047fb0200f6
:100ba400210053480ef0d2fa802292000021200046
:100bb4000ef016fb00225a4b1a60494b1b78022b8d
:100bc40001d101f0d8fd464b1b78032b01d101f074
:100bd400d7fd544b1b68544a12689b1a534a9342dc
:100be40000d80fe33c4b3d495a5c01325a54002271
:100bf4005a803b4b1a7084ac4d4b0833220023cbf4
:100c040023c223cb23c203cb03c21b88138020003f
:100c14000ef00cfb81b220000ef0a5fb324b10331a
:100c2400220003cb03c21b881380304920000ef03e
:100c340009f920000ef0fafa81b220000ef093fbbd
:100c44002b4c20000ef0f2fa81b220000ef08bfb48
:100c540080229200002120000ef0c2facce2043a75
:100c6400934201d101f0c5fc0fd9902212019342a5
:100c740001d101f0fcfc01d901f01bfd802292009e
:100c840000211b480ef0acfabce2023a934201d1b7
:100c940001f0e6fb0132934200d0ade2144c200097
:100ca4000ef0c4fa81b220000ef05dfb80229200a7
:100cb400002120000ef094fa1e4b1b881e4a93421a
:100cc40001d101f091fc0133034a53800022044b0b
:100cd4001a7091e2ff060000680000202b04000057
:100ce400cc0400204c5d00004c5a00001009002088
:100cf400100d0020030a00000c070000cc5c00006b
:100d0400060700004c5c0000cc5d0000ff070000fb
:100d140002090000ff090000cc590000100b00205c
:100d24000c20002020200020c41f00208813000075
:100d3400cc5e00004220002001080000e14a9342fa
:100d440001d101f087fd01d901f086fede4c1022ad
:100d5400de49743120000ef0f9f920000ef066fa35
:100d6400010020000af052fba0221201d84b1a8085
:100d7400fc32d84b5a80d84b1a68d84b1a602000e2
:100d84000ef054fa81b220000ef0edfa34e2d44aa7
:100d9400934201d102f030f800d9b7e0f43a93421b
:100da40001d101f0bafd2ed9ce4a934201d101f00e
:100db400f1fe00d97ee0023a934201d101f08efea9
:100dc40001d901f0affec04c0d22c74934312000d7
:100dd4000ef0bcf920000ef029fa010020000af000
:100de40015fbc24aba4b1a80f132ba4b5a80ba4b3d
:100df4001a68ba4b1a6020000ef018fa81b220006b
:100e04000ef0b1faf8e1043a934201d101f0e2fda7
:100e140027d9b74a934201d101f0fdfd01d901f070
:100e24005bfda94c1922b3497c3120000ef08ef9e8
:100e340020000ef0fbf9010020000af0e7faae4aa8
:100e4400a34b1a80f532a34b5a80a34b1a68a34bc9
:100e54001a6020000ef0eaf981b220000ef083fa45
:100e6400cae1023a934201d101f015fd01329342e5
:100e740000d0c1e1944c13229e494c3120000ef065
:100e840065f920000ef0d2f9010020000af0befa44
:100e94009a4a8f4b1a80f7328e4b5a808e4b1a68bf
:100ea4008e4b1a6020000ef0c1f981b220000ef0c2
:100eb4005afaa1e1924a934201d101f0adfe01d95f
:100ec40001f03dffed3a934200d095e17e4c0e22b5
:100ed4008549743120000ef039f920000ef0a6f98e
:100ee400010020000af092fa864a794b1a80ed320a
:100ef400784b5a80784b1a68784b1a6020000ef0b1
:100f040095f981b220000ef02efa75e17e4a9342e3
:100f140001d102f046f853d97c4a934201d102f040
:100f2400e2f900d939e1fd3a934201d102f0cbf95b
:100f340001d202f08cf90132934200d05ce1624ca0
:100f440080229200002120000ef04af9704e3100f8
:100f540014311f2220000ef0f9f820000ef066f97b
:100f640000195c4da91d20220ef0f0f83300726bbd
:100f74000492328f343304a98a809b798b712000c8
:100f84000df060ff2900273120000df05bff2000e9
:100f94000ef04cf9010020000af038fac0221201c8
:100fa4005c4b1a80594b6b804b4b1a685a4b1a6036
:100fb40020000ef03bf981b220000ef0d4f91be1c1
:100fc400fc3a934201d101f060ff00d8bce0534adf
:100fd400934201d101f09aff01d201f077fff93277
:100fe400934200d008e14e495c314e480df0eafad4
:100ff400002801d101f0abff02224b4b1a70494c7f
:1010040020000ef013f90200210048480ef09ef86b
:1010140080229200002120000ef0e2f80022444bce
:101024001a60414b1b78022b01d101f0b0ff3e4bfb
:101034001b78032b01d101f0afff274b1b683d4afe
:1010440012689b1a3c4a934200d8dbe0214b3b498f
:101054005a5c01325a5400225a80334b1a7084acc1
:10106400374b2033220023cb23c223cb23c21b784c
:10107400137020000ef0daf881b220000ef073f93c
:10108400304b1033220003cb03c21b8813800e495c
:1010940020000df0d7fe20000ef0c8f881b2200029
:1010a4000ef061f9214c20000ef0c0f881b220004e
:1010b4000ef059f980229200002120000ef090f8e1
:1010c4009ae0c046010a000010090020cc5a000032
:1010d4003e2000206800002020200020cc1f00209b
:1010e400fe0a00000e0a00004c5f00000b0a00001c
:1010f400080a0000cc5e0000070a0000050a000090
:10110400fc0a00000f0a0000fd0b0000fc0c0000ac
:10111400cc60000044200020d81f0020030b0000f6
:10112400cc590000100b0020cc040020100d00202e
:101134000c200020c81f0020881300002b0400008e
:101144004c6000004c5a0000023a934201d101f075
:1011540091fe013293424fd1db4c0d22db496031c9
:1011640020000df0f3ff20000ef060f801002000d5
:101174000af04cf9b0221201d54b1a80fc32d54b3f
:101184005a80d54b1a68d54b1a6020000ef04ef8e1
:1011940081b220000ef0e7f82ee0d14a934201d14b
:1011a40002f059f901d202f032f90132934223d10b
:1011b4000022cc4b1a7002f08ff8c34c0522ca49a6
:1011c40020000df0c3ff20000ef030f801002000d5
:1011d4000af01cf980225200c44b1a80fc32bd4b29
:1011e4005a80bd4b1a68c24b1a6020000ef01ef8dc
:1011f40081b220000ef0b7f8b64b1b78022b01d158
:1012040002f06af9c5239b009d44f0bdae4c112247
:10121400b549103120000df099ff20000ef006f8ba
:10122400010020000af0f2f881225200af4b1a802c
:10123400fa32a84b5a80a84b1a68ad4b1a602000aa
:101244000df0f4ff81b220000ef08df8d4e79e4c2f
:101254000b22a549303120000df078ff20000df05d
:10126400e5ff010020000af0d1f8822252009f4bd2
:101274001a80f832974b5a80974b1a689c4b1a6025
:1012840020000df0d3ff81b220000ef06cf8b3e71c
:101294008d4c092294493c3120000df057ff200069
:1012a4000df0c4ff010020000af0b0f80622ff325e
:1012b4008e4b1a80f732874b5a80874b1a688c4bb7
:1012c4001a6020000df0b2ff81b220000ef04bf83e
:1012d40092e77d4c12228449483120000df036fffc
:1012e40020000df0a3ff010020000af08ff88322f4
:1012f40052007e4b1a80f632764b5a80764b1a682f
:101304007b4b1a6020000df091ff81b220000ef09b
:101314002af871e77449643176480df053f90028ce
:1013240001d1fef731ff03226e4b1a70714c20007d
:101334000df07cff020021006f480df007ff8022b2
:101344009200002120000df04bff00226b4b1a602d
:10135400fef71afffe22ff325e4b5a8052e7ff224d
:1013640052005c4b5a804de7634c20000df05eff49
:1013740081b220000df0f7ff5c4b1b8883225200e2
:1013840093420cd00133534a5380802292000021af
:1013940059480df025ff0022524b1a702ce758498a
:1013a4001c3155480df00ef901004a4ca01d0531c1
:1013b40020220df0cbfe534b6380e6e7454b5249a8
:1013c4005a5c01325a5400225a80464b1a7084ac3b
:1013d4004b4d2b002433220043cb43c243cb43c2a7
:1013e40003cb03c220000df021ff81b220000df0d9
:1013f400baff2b001033220003cb03c21b881380d7
:10140400314920000df01efd20000df00fff81b2c8
:1014140020000df0a8ff384c20000df007ff81b22a
:1014240020000df0a0ff80229200002120000df08a
:10143400d7fee1e68022920000212f480df0d0fe75
:101444000022284b1a70dde61f4c0c222c49443133
:1014540020000df07bfe20000df0e8fe01002000ce
:1014640009f0d4ff294a2a4b1a80fb32194b5a80bf
:10147400194b1a68274b1a6020000df0d7fe81b271
:1014840020000df070ffb7e60f4c0e221c495031be
:1014940020000df05bfe20000df0c8fe01002000ce
:1014a40009f0b4ff1c4a1a4b1a80fa32094b5a80cd
:1014b400094b1a68174b1a6020000df0b7fe81b271
:1014c40020000df050ff97e610090020cc5f0000cb
:1014d4003c2000206800002020200020c81f00209d
:1014e400fe0c0000cc040020cc5900004c2000204d
:1014f400e81f0020100b0020100d00200c200020fd
:101504004c5a0000ff0100002b04000001020000ff
:10151400b21f0020c01f002002020000eb4c0b226f
:10152400eb49603120000df011fe20000df07efe2d
:101534000100200009f06affe64ae74b1a80f932fd
:10154400e64b5a80e64b1a68e64b1a6020000df011
:101554006dfe81b220000df006ff4de6e2495c31dc
:10156400e2480df02ff8002861d00222e04b1a70f7
:10157400de4c20000df05afe02002100dd480df083
:10158400e5fd80229200002120000df029fe0022ba
:10159400d94b1a60d64b1b78022b65d0d44b1b78e1
:1015a400032b65d0ce4b1b68ce4a12689b1ad34ad4
:1015b400934200d826e6c94bd1495a5c01325a54a9
:1015c40000225a80ca4b1a7084acc14d2b006c3374
:1015d400220043cb43c243cb43c243cb43c220008c
:1015e4000df024fe81b220000df0bdfe2b0010335f
:1015f400220003cb03c21b881380b44920000df0e2
:1016040021fc20000df012fe81b220000df0abfe93
:10161400b84c20000df00afe81b220000df0a3feac
:1016240080229200002120000df0dafde4e5ae49ad
:101634006431ae480cf0c6ff0028abd00322ac4b9b
:101644001a70aa4c20000df0f1fd02002100a948f7
:101654000df07cfd80229200002120000df0c0fde1
:101664000022a54b1a6095e7a64a9c4b5a80c9e50f
:10167400a54a9a4b5a80c5e5a44a984b5a80fef76e
:1016840051ff964b9e495a5c01325a5400225a80ab
:10169400974b1a7084ac9e4b1033220023cb23c289
:1016a40023cb23c203cb03c220000df0bffd81b2c4
:1016b40020000df058fe864b1033220003cb03c2ea
:1016c4001b881380814920000df0bcfb20000df025
:1016d400adfd81b220000df046fe864c20000df0d9
:1016e400a5fd81b220000df03efe80229200002173
:1016f40020000df075fd7fe5744c0b227a493031e2
:1017040020000df023fd20000df090fd01002000cd
:1017140009f07cfec02292007e4b1a80fc326f4b93
:101724005a806f4b1a687c4b1a6020000df07efdc6
:1017340081b220000df017fe5ee5644c09226a496f
:101744003c3120000df002fd20000df06ffd010082
:10175400200009f05bfe714a6e4b1a80fb325f4b2e
:101764005a805f4b1a686c4b1a6020000df05efdc6
:1017740081b220000df0f7fd3ee5544c0c22544993
:10178400443120000df0e2fc20000df04ffd01007b
:10179400200009f03bfe624a5e4b1a80fa324f4b3e
:1017a4005a804f4b1a685c4b1a6020000df03efdc6
:1017b40081b220000df0d7fd1ee54b4964314b4842
:1017c4000cf000ff002801d1fef7effd0322484b87
:1017d4001a70464c20000df029fd020021004548f6
:1017e4000df0b4fc80229200002120000df0f8fce2
:1017f4000022414b1a60fef7d8fd4a4a374b5a8003
:1018040000e5494a354b5a80fce43a4c20000df07f
:101814000dfd81b220000df0a6fd80229200002172
:1018240020000df0ddfc3b4b1b883d4a934206d063
:1018340001332a4a538000222d4b1a70dce43b4ac0
:10184400264b5a80f7e7254b2d495a5c01325a54ee
:1018540000225a80264b1a7084ac2d4b543322003c
:1018640023cb23c223cb23c203cb03c220000df01e
:10187400ddfc81b220000df076fd154b1033220003
:1018840003cb03c21b881380104920000df0dafa41
:1018940020000df0cbfc81b220000df064fd154c4e
:1018a40020000df0c3fc81b220000df05cfd80220d
:1018b4009200002120000df093fc9de48022920010
:1018c40000210c480df08cfc9ce4c046100900205b
:1018d4004c5a000003020000b21f002068000020e0
:1018e40020200020c01f0020cc590000100b002035
:1018f400cc040020100d00200c20002088130000d0
:101904002b040000fd020000fe020000ff020000a4
:10191400cc5a000046200020dc1f002001030000f8
:1019240002030000fd030000fe030000ff030000ab
:10193400ee4c0b22ee49243120000df007fc200070
:101944000df074fc0100200009f060fde94aea4b47
:101954001a80fb32e94b5a80e94b1a68e94b1a604a
:1019640020000df063fc81b220000df0fcfc43e488
:10197400de4c0b22de49303120000df0e7fb200065
:101984000df054fc0100200009f040fdde4ada4b62
:101994001a80fa32d94b5a80d94b1a68d94b1a603b
:1019a40020000df043fc81b220000df0dcfc23e4a8
:1019b400ce4c0922ce493c3120000df0c7fb20005b
:1019c4000df034fc0100200009f020fdcf4aca4b81
:1019d4001a80f932c94b5a80c94b1a68c94b1a602c
:1019e40020000df023fc81b220000df0bcfcfff7b9
:1019f40003fcbe4c0c22c649443120000df0a6fb6a
:101a040020000df013fc0100200009f0fffcc14a86
:101a1400b94b1a80f832b94b5a80b94b1a68b94b92
:101a24001a6020000df002fc81b220000df09bfc36
:101a3400fff7e2fbad4c0f22b749043120000df053
:101a440085fb20000df0f2fb0100200009f0defc14
:101a5400b24aa94b1a80f632a84b5a80a84b1a688e
:101a6400a84b1a6020000df0e1fb81b220000df0bc
:101a74007afcfff7c1fb9e496431a9480cf0a2fd32
:101a8400002801d1fef7e7fd0322a64b1a70a44cef
:101a940020000df0cbfb02002100a3480df056fb03
:101aa40080229200002120000df09afb00229f4b1f
:101ab4001a60fef7d0fd9e4a904b5a80fff7a2fbb6
:101ac4009c4a8e4b5a80fff79dfb974c20000df0eb
:101ad400adfb81b220000df046fc80229200002173
:101ae40020000df07dfb844b1b888c4a934207d069
:101af4000133824a538000228a4b1a70fff77cfb21
:101b04008d4a7e4b5a80f6e77c4b8c495a5c0132f5
:101b14005a5400225a80834b1a7084ac7e4b34335f
:101b2400220023cb23c223cb23c21b881380200093
:101b34000df07cfb81b220000df015fc744b1033ca
:101b4400220003cb03c21b881380684920000df0d8
:101b540079f920000df06afb81b220000df003fc3e
:101b6400714c20000df062fb81b220000df0fbfbf4
:101b740080229200002120000df032fbfff73cfb95
:101b840080229200002168480df02afbfff73afbff
:101b9400644b1b78012b01d0fff734fb0022614b0f
:101ba4001a70524c1e225c49703120000df0cefa9e
:101bb40020000df03bfb0100200009f027fc4f4af8
:101bc40053880133538020000df030fb81b2200094
:101bd4000df0c9fbfff710fb524b1b78012b01d012
:101be400fff710fb00224f4b1a70404c1e22544941
:101bf400103120000df0aafa20000df017fb0100af
:101c0400200009f003fc3d4a53880133538020002f
:101c14000df00cfb81b220000df0a5fbfff7ecfaf0
:101c2400404b1b78012b01d0fff7ecfa00223d4b0f
:101c34001a702e4c0f224249303120000df086fae2
:101c440020000df0f3fa0100200009f0dffb3d4a0b
:101c54002a4b5a8020000df0e9fa81b220000df0e1
:101c640082fbfff7c9fa214c122221494831200096
:101c74000df06cfa20000df0d9fa0100200009f0f3
:101c8400c5fbc022d200304b1a80fc321b4b5a8059
:101c94001b4b1a682d4b1a6020000df0c7fa81b255
:101ca40020000df060fbfff7a7fa104c3022244906
:101cb400403120000df04afa20000df0b7fa01007f
:101cc400200009f0a3fb224a1f4b1a80fb320b4b66
:101cd4005a800b4b1a681d4b1a6020000df0a6faaf
:101ce40081b220000df03ffbfff786fa10090020b7
:101cf400cc590000010400004a20002068000020a4
:101d040020200020e41f002002040000030400003f
:101d14004c5a0000040400004c5b00000604000060
:101d2400100b0020cc040020100d00200c200020fb
:101d3400fd040000fe040000ff0400002b0400006a
:101d4400cc5b0000fe05000040200020d01f0020d6
:101d540001060000f14c2e22f149703120000df0f3
:101d6400f5f920000df062fa0100200009f04efba5
:101d7400ec4aed4b1a80fa32ec4b5a80ec4b1a6861
:101d8400ec4b1a6020000df051fa81b220000df0e6
:101d9400eafafff731fae14c1522e7492031200035
:101da4000df0d4f920000df041fa0100200009f0f3
:101db4002dfbe24adc4b1a80f932dc4b5a80dc4bb7
:101dc4001a68dc4b1a6020000df030fa81b2200052
:101dd4000df0c9fafff710fad04c0f22d64948315a
:101de40020000df0b3f920000df020fa01002000ce
:101df40009f00cfbd24acc4b1a80f732cb4b5a80f9
:101e0400cb4b1a68cb4b1a6020000df00ffa81b24d
:101e140020000df0a8fafff7eff9c04c2622c649be
:101e24007c3120000df092f920000df0fff9010043
:101e3400200009f0ebfac34abb4b1a80f532bb4bc6
:101e44005a80bb4b1a68bb4b1a6020000df0eef9a8
:101e540081b220000df087fafff7cef9af4c1622bd
:101e6400b949243120000df071f920000df0def99c
:101e74000100200009f0cafac122d200aa4b1a803c
:101e8400f432aa4b5a80aa4b1a68aa4b1a60200053
:101e94000df0ccf981b220000df065fafff7acf932
:101ea4009e4c1222a8493c3120000df04ff920002d
:101eb4000df0bcf90100200009f0a8faa34a9a4bde
:101ec4001a80f332994b5a80994b1a68994b1a60cd
:101ed40020000df0abf981b220000df044fafff7b9
:101ee4008bf99b4b1b78012b01d0fff78bf9002258
:101ef400974b1a70974a8d4b5a80fff783f996498e
:101f04005c3196480cf05efb002868d00222904bae
:101f14001a70924c20000df089f9020021009048bb
:101f24000df014f980229200002120000df058f9e0
:101f340000228c4b1a60864b1b78022b6cd0844b8e
:101f44001b78032b6dd07a4b1b687a4a12689b1a54
:101f5400854a934201d8fff755f9744b83495a5c7b
:101f640001325a5400225a80794b1a7084ac764b51
:101f74006033220023cb23c223cb23c223cb23c22f
:101f840003cb03c2198811809b78937020000df055
:101f94004df981b220000df0e6f9754b10332200a3
:101fa40003cb03c21b8813805c4920000cf04aff5a
:101fb40020000df03bf981b220000df0d4f9684cfb
:101fc40020000df033f981b220000df0ccf980220d
:101fd4009200002120000df003f9fff70df95e498e
:101fe40064315e480cf0eefa0028a4d00322584b6a
:101ff4001a705a4c20000df019f9020021005848bb
:102004000df0a4f880229200002120000df0e8f8e1
:102014000022544b1a608ee7564a444b5a80fff70d
:10202400f1f8554a414b5a80fff7ecf8c023db0026
:102034003d4a12889a421ad0494c20000df0f6f815
:1020440081b220000df08ff980229200002120003f
:102054000df0c6f8344b1b883c4a934213d001332d
:10206400324a538000223a4b1a70fff7c5f84049b0
:102074001c313b480cf0a6fa411d20222b480630a7
:102084000df064f8d8e7334a284b5a80eae78022f7
:102094009200002132480df0a3f8fff7b3f81f4c6b
:1020a40030221f49403120000df050f820000df07f
:1020b400bdf80100200009f0a9f91c4a5388013336
:1020c400538020000df0b2f881b220000df04bf9de
:1020d400fff792f81e4b1b78012b01d0fff792f803
:1020e40000221b4b1a700d4c122224493c31200053
:1020f4000df02cf820000df099f80100200009f0f3
:1021040085f90a4a53880133538020000df08ef874
:1021140081b220000df027f9fff76ef810090020b6
:10212400cc5b000002060000402000206800002074
:1021340020200020d01f00204c5c0000030600007b
:102144000506000007060000cc5c0000090600003c
:10215400cc040020ff060000cc590000100b002026
:10216400100d00200c200020881300002b04000018
:102174004c5a0000fd060000fe0600004c5d000005
:10218400f04b1b78012b01d0fff73cf80022ed4bfc
:102194001a70ed4c2e22ed49503120000cf0d6ff80
:1021a40020000df043f80100200009f02ff9e84a5f
:1021b40053880233538020000df038f881b2200098
:1021c4000df0d1f8fff718f8de4b1b78012b01d086
:1021d400fff718f80022db4b1a70db4c1e22dd4996
:1021e400243120000cf0b2ff20000df01ff8010094
:1021f400200009f00bf9d64a53880133538020009c
:102204000df014f881b220000df0adf8fef7f4ffe4
:10221400cc4b1b78012b01d0fef7f4ff0022c94bf5
:102224001a70c94c0f22cc49483120000cf08effa3
:1022340020000cf0fbff0100200009f0e7f8c44a7d
:1022440053880133538020000cf0f0ff81b220004a
:102254000df089f8fef7d0ffba4b1b78012b01d0a3
:10226400fef7d0ff0022b74b1a70b74c3d22b94994
:10227400443120000cf06aff20000cf0d7ff01006d
:10228400200009f0c3f8b24a538801335380200078
:102294000cf0ccff81b220000df065f8fef7acff26
:1022a400a84b1b78012b01d0fef7acff0022a54bf5
:1022b4001a70a54c2622a8497c3120000cf046ff58
:1022c40020000cf0b3ff0100200009f09ff8a04aa1
:1022d40053880133538020000cf0a8ff81b2200002
:1022e4000df041f8fef788ff964b1b78012b01d0c7
:1022f400fef788ff0022934b1a70934c10229749e3
:10230400043120000cf022ff20000cf08fff0100ac
:10231400200009f07bf88e4a538801335380200053
:102324000cf084ff81b220000df01df8fef764ff6d
:10233400844b1b78012b01d0fef764ff0022814bf4
:102344001a70814c0f228549143120000cf0fefed6
:1023540020000cf06bff0100200009f057f87c4ac4
:1023640053880133538020000cf060ff81b22000b9
:102374000cf0f9fffef740ff724b1b78012b01d0e4
:10238400fef740ff00226f4b1a706f4c0e22744907
:10239400503120000cf0dafe20000cf047ff010061
:1023a400200009f033f86f4a694b5a8020000cf082
:1023b4003dff81b220000cf0d6fffef71dff624cfa
:1023c4000f226649143120000cf0c0fe20000cf0ee
:1023d4002dff0100200009f019f880221201624b40
:1023e4001a80fc325a4b5a80604b1a68604b1a6050
:1023f40020000cf01bff81b220000cf0b4fffef7ac
:10240400fbfe514c0f225549243120000cf09efe56
:1024140020000cf00bff0100200008f0f7ff554ae4
:10242400514b1a80fb324a4b5a80504b1a68504b1e
:102434001a6020000cf0fafe81b220000cf093ff29
:10244400fef7dafe3f4b1b78012b01d0fef7dafed4
:1024540000223c4b1a70484a3d4b5a80fef7d2fe8c
:1024640046495c3146480cf0adf8002800d193e0b1
:102474000222344b1a70424c20000cf0d7fe0200aa
:10248400210040480cf062fe8022920000212000ce
:102494000cf0a6fe00223c4b1a602a4b1b78022b40
:1024a40000d197e0274b1b78032b00d197e02f4beb
:1024b4001b682f4a12689b1a344a934201d8fef7cc
:1024c400a1fe234b32495a5c01325a5400225a80ed
:1024d4001c4b1a7084ac214b3433220023cb23c20f
:1024e40023cb23c223cb23c2196811601b79137138
:1024f40020000cf09bfe81b220000cf034ff254b31
:102504001033220003cb03c21b8813800e49200022
:102514000cf098fc20000cf089fe81b220000cf035
:1025240022ff184c20000cf081fe81b220000cf038
:102534001aff80229200002120000cf051fefef7c9
:102544005bfec046cc040020100900204c5d000056
:1025540068000020cc5d00004c5c00004c5e000074
:10256400cc5c0000fe070000422000202020002058
:10257400d41f002001080000ff080000cc5900000f
:10258400100b0020100d00200c20002088130000e8
:102594002b0400004c5a0000f0496431f0480cf060
:1025a40011f8002800d178e70322ee4b1a70ec4ca6
:1025b40020000cf03bfe02002100eb480cf0c6fdad
:1025c40080229200002120000cf00afe0022e74b3a
:1025d4001a6062e7e64ae74b5a80fef713fee64ac2
:1025e400e44b5a80fef70efee44ae24b5a80fef7b3
:1025f4006dfbe04be2495a5c01325a5400225a8086
:10260400d84b1a7084acdf4b6033220023cb23c237
:1026140023cb23c223cb23c21b78137020000cf0de
:1026240005fe81b220000cf09efed74b1033220031
:1026340003cb03c21b881380d44920000cf002fc96
:1026440020000cf0f3fd81b220000cf08cfec64c8f
:1026540020000cf0ebfd81b220000cf084fe8022ff
:102664009200002120000cf0bbfdfef7c5fdc74c15
:102674001022c749743120000cf068fd20000cf0d2
:10268400d5fd0100200008f0c1fe90221201c14bcb
:102694001a80fc32b74b5a80bf4b1a68bf4b1a6082
:1026a40020000cf0c3fd81b220000cf05cfefef7ac
:1026b400a3fdb64c0f22ba49043120000cf046fdac
:1026c40020000cf0b3fd0100200008f09ffeb54a85
:1026d400b04b1a80fb32a74b5a80af4b1a68af4bf2
:1026e4001a6020000cf0a2fd81b220000cf03bfe29
:1026f400fef782fda54c0e22a349503120000cf0b8
:1027040025fd20000cf092fd0100200008f07efe63
:10271400a54aa04b1a80fa32964b5a809e4b1a68ef
:102724009e4b1a6020000cf081fd81b220000cf059
:102734001afefef761fd8949643189480bf042ffb6
:10274400002801d1fef739fa0322864b1a70844c13
:1027540020000cf06bfd0200210083480cf0f6fc15
:1027640080229200002120000cf03afd00227f4bd1
:102774001a60fef722fa8d4a7e4b5a80fef742fd1c
:102784008b4a7c4b5a80fef73dfd774c20000cf0c1
:102794004dfd81b220000cf0e6fd80229200002164
:1027a40020000cf01dfd7b4b1b887e4a934207d012
:1027b4000133704a538000226a4b1a70fef71cfde5
:1027c4007c4a6c4b5a80f6e76a4b6d495a5c01327d
:1027d4005a5400225a80634b1a7084ac764b2c33c3
:1027e400220023cb23c223cb23c2196811609b8808
:1027f400938020000cf01afd81b220000cf0b3fd90
:10280400614b1033220003cb03c21b8813805f4942
:1028140020000cf017fb20000cf008fd81b2200012
:102824000cf0a1fd504c20000cf000fd81b2200002
:102834000cf099fd80229200002120000cf0d0fcc5
:10284400fef7dafc80229200002147480cf0c8fc15
:10285400fef7d8fc4d4c0f225149043120000cf0f6
:1028640075fc20000cf0e2fc0100200008f0cefd15
:10287400524a534b1a80fb323e4b5a80464b1a68dd
:10288400504b1a6020000cf0d1fc81b220000cf0f7
:102894006afdfef7b1fc3d4c0e223b49503120004d
:1028a4000cf054fc20000cf0c1fc0100200008f0e6
:1028b400adfd454a424b1a80f8322e4b5a80364bb6
:1028c4001a68404b1a6020000cf0b0fc81b2200062
:1028d4000cf049fdfef790fc2c4c0f2229491431d1
:1028e40020000cf033fc20000cf0a0fc01002000c0
:1028f40008f08cfd354a324b1a80f3321d4b5a8056
:10290400254b1a682f4b1a6020000cf08ffc81b203
:1029140020000cf028fdfef76ffc1c4c0f22194917
:10292400243120000cf012fc20000cf07ffc01008c
:10293400200008f06bfd264a214b1a80f2320d4b21
:102944005a80154b1a681f4b1a6020000cf06efc5d
:1029540081b220000cf007fdfef74efccc590000bc
:10296400100b0020cc040020100d00200c200020af
:10297400fd08000068000020fe080000ff080000b9
:102984002b0400004c5e00004c5a0000100900208b
:10299400cc5a0000ba1f002020200020c41f0020b1
:1029a4004c5b00000109000002090000fd09000061
:1029b400fe090000ff090000cc5e0000010a0000cf
:1029c4003e200020cc1f0020040a0000090a000059
:1029d4000a0a0000e94c1922e949603120000cf090
:1029e400b5fb20000cf022fc0100200008f00efdd5
:1029f400e44ae54b1a80f632e44b5a80e44b1a68f9
:102a0400e44b1a6020000cf011fc81b220000cf0a1
:102a1400aafcfef7f1fbd94c1922df49183120003a
:102a24000cf094fb20000cf001fc0100200008f0e5
:102a3400edfcda4ad44b1a80f432d44b5a80d44b8e
:102a44001a68d44b1a6020000cf0f0fb81b220000d
:102a54000cf089fcfef7d0fbc84c2e22d049703113
:102a640020000cf073fb20000cf0e0fb01002000c0
:102a740008f0ccfccb4ac44b1a80fa32c34b5a80c0
:102a8400c34b1a68c34b1a6020000cf0cffb81b211
:102a940020000cf068fcfef7affbb84c1222c249d0
:102aa4003c3120000cf052fb20000cf0bffb010075
:102ab400200008f0abfcbd4ab34b1a80f932b34b8b
:102ac4005a80b34b1a68b34b1a6020000cf0aefb6b
:102ad40081b220000cf047fcfef78efba74c0e22bf
:102ae400b149503120000cf031fb20000cf09efb6a
:102af4000100200008f08afcad4aa34b1a80f03292
:102b0400a24b5a80a24b1a68a24b1a6020000cf008
:102b14008dfb81b220000cf026fca6480bf07cfb58
:102b2400fef76afb954c9c4d290044311a22200083
:102b34000cf00cfb20000cf079fb0019934eb11d36
:102b440020220cf003fb04a92b0060330a0021cbe4
:102b540021c21b78137020000cf074f920000cf0d3
:102b640065fb0100200008f051fc934a864b1a8053
:102b7400924b7380864b1a68864b1a6020000cf0c7
:102b840055fb81b220000cf0eefb8d480bf044fbaa
:102b9400fef732fb794c80229200002120000cf0d9
:102ba4001ffb04ae6422002130000cf019fb7a4da7
:102bb400290044311a2220000cf0c8fa20000cf03d
:102bc40035fb0019714fb91d20220cf0bffa2b0000
:102bd4006c33320003cb03c2310020000cf032f915
:102be40020000cf023fb0100200008f00ffc754ac4
:102bf400654b1a80714b7b80654b1a68654b1a6074
:102c040020000cf013fb81b220000cf0acfb6c48ec
:102c14000bf002fbfef7f0fa6b495c316b480bf0ea
:102c2400d1fc002864d00222694b1a70674c200042
:102c34000cf0fcfa0200210066480cf087fa8022ae
:102c44009200002120000cf0cbfa0022624b1a60a3
:102c54005f4b1b78022b68d05d4b1b78032b69d02c
:102c64004b4b1b684b4a12689b1a5c4a934201d82f
:102c7400fef7c8fa454b5a495a5c01325a540022ad
:102c84005a80534b1a7084ac564b0433220023cb26
:102c940023c223cb23c223cb23c223cb23c22000b2
:102ca4000cf0c4fa81b220000cf05dfb4e4b1033e3
:102cb400220003cb03c21b881380304920000cf090
:102cc400c1f820000cf0b2fa81b220000cf04bfbea
:102cd400404c20000cf0aafa81b220000cf043fb17
:102ce40080229200002120000cf07afafef784fa88
:102cf4003549643135480bf065fc0028a8d003221f
:102d0400334b1a70314c20000cf090fa0200210071
:102d140030480cf01bfa80229200002120000cf0b5
:102d24005ffa00222c4b1a6092e7304a174b5a8004
:102d3400fef768fa2e4a154b5a80fef763fa254cc3
:102d440020000cf073fa81b220000cf00cfb8022fe
:102d54009200002120000cf043fa0b4b1b88194a07
:102d6400934207d00133094a53800022184b1a704a
:102d7400fef742fa1f4a054b5a80f6e71009002075
:102d8400cc5e0000060a00003e20002068000020ff
:102d940020200020cc1f00204c5f0000080a000007
:102da400cc5b0000020a0000cc5c0000030a0000b7
:102db4000c0a0000881300000d0a0000fc0a000041
:102dc400b80b00000e0a0000cc590000100b0020c4
:102dd400cc040020100d00200c200020102700003f
:102de4002b040000cc5f00004c5a0000fd0a0000d8
:102df400fe0a0000ff0a0000e54be6495a5c013276
:102e04005a5400225a80e44b1a7084ace34b343396
:102e1400220023cb23c223cb23c223cb23c203cb45
:102e240003c220000cf002fa81b220000cf09bfadd
:102e3400db4b1033220003cb03c21b881380d94918
:102e440020000bf0ffff20000cf0f0f981b220000d
:102e54000cf089fad44c20000cf0e8f981b220007f
:102e64000cf081fa80229200002120000cf0b8f9c5
:102e7400fef7c2f90021c74bc54ad1548022920003
:102e8400c9480cf0adf9fef7bdf9c64c0d22c34993
:102e9400703120000cf05af920000cf0c7f9010041
:102ea400200008f0b3fac14ac14b1a80fb32b84b78
:102eb4005a80c04b1a68c04b1a6020000cf0b6f957
:102ec40081b220000cf04ffafef796f9b54c1122ae
:102ed400ba4920000cf03af920000cf0a7f90100df
:102ee400200008f093fab64ab14b1a80fa32a84b84
:102ef4005a80b04b1a68b04b1a6020000cf096f957
:102f040081b220000cf02ffafef776f9a54c0c22c2
:102f1400aa49143120000cf019f920000cf086f9ac
:102f24000100200008f072faa64aa14b1a80f93277
:102f3400974b5a809f4b1a689f4b1a6020000cf0e5
:102f440075f981b220000cf00efafef755f99e498e
:102f540064319e480bf036fb002801d1fef761f87e
:102f640003228d4b1a70994c20000cf05ff902007b
:102f740021008d480cf0eaf8802292000021200004
:102f84000cf02ef90022924b1a60fef74af8914a8f
:102f94007f4b5a80fef736f98f4a7d4b5a80fef7f5
:102fa40031f9814c20000cf041f981b220000cf081
:102fb400daf97f4b1b88834a934207d00133744a62
:102fc40053800022744b1a70fef716f97b493c318a
:102fd40075480bf0f7fac3792c2b44d0c41d20009c
:102fe4000cf098f906006a4d64210af02ff87b4b27
:102ff400e9546421300009f0edff64210af026f859
:103004008c23db00e9547649300009f0e3ff6421a6
:103014000af01cf8734be954002202e00134072a39
:1030240005d823782c2bf9d10132082af6d1601c5b
:103034000cf070f90500564c64210af007f86a4b4d
:10304400e1546421280009f0c5ff642109f0feff62
:10305400664be1546249280009f0bcff642109f081
:10306400f5ff634be154554944314f480bf0aafa3c
:10307400002800d181e003300cf070f908f062fd03
:10308400051c4e49483148480bf09cfa002800d1f1
:10309400bae003300cf062f908f054fd041c47490f
:1030a400503141480bf08efa002800d1cae0514e4d
:1030b4001422002130000cf093f8142200214e4811
:1030c4000cf08ef84d49281c07f078fa0bf004f93f
:1030d4000300642701907b43180009f0c1ff011c21
:1030e400281c06f003f902904449201c07f066faf4
:1030f4000bf0f2f805004743380009f0b1ff011c5a
:10310400201c06f0f3f803903d49029807f056faa4
:10311400041c019809f0a4ff011c201c06f060faad
:1031240009f0c6fc02000b00244f3c00543421007b
:1031340030000bf0b1f83249039807f03ffa0190e0
:10314400280009f08dff011c019806f049fa09f0e6
:10315400affc02000b00210027480bf09df839005a
:103164005c31254b320084a80bf096f884a80cf04f
:103174005df881b284a80cf0f6f880229200002158
:1031840009480cf02df81f4a014b5a8019e7c04634
:10319400680000202b040000cc040020cc5f000059
:1031a4004c5a000010090020100d0020010b0000f3
:1031b4003c20002020200020c81f00204c6000007c
:1031c400020b0000030b0000cc590000100b002080
:1031d4000c200020fd0b0000fe0b00006104000029
:1031e400102700005f0400005c0400005d04000080
:1031f4005e0400009c040020b00400200000c842cb
:1032040000007042ff0b000080231b069c466544af
:10321400e74e31004c31e74f38000bf0d3f903305f
:103224000cf09cf808f08efc041c3100503138007e
:103234000bf0c8f9002800d039e780231b069c4610
:10324400644434e780231b069c4664442fe7da4b2e
:10325400da495a5c01325a5400225a80d84b1a7007
:1032640084acd34b7c33220023cb23c203cb03c2d5
:103274001b78137020000bf0d9ff81b220000cf0f2
:1032840072f8d04b1033220003cb03c21b88138087
:10329400cd4920000bf0d6fd20000bf0c7ff81b212
:1032a40020000cf060f8c34c20000bf0bfff81b28b
:1032b40020000cf058f880229200002120000bf02e
:1032c4008ffffdf799ff802292000021b9480bf08f
:1032d40087ffbe4ab84b5a80b74b1b78022b01d0ec
:1032e400fdf790ffffe0ba495c31ba480bf06af988
:1032f400002865d00222b24b1a70b64c20000bf0a5
:1033040095ff02002100ab480bf020ff80229200c1
:10331400002120000bf064ff0022af4b1a60a84b81
:103324001b78022b69d0a64b1b78032b6ad0ab4bbe
:103334001b68ab4a12689b1aaa4a934201d8fdf74c
:1033440061ff9d4b9d495a5c01325a549f4a5a80f1
:1033540000229b4b1a7084aca34b3c33220023cb3a
:1033640023c223cb23c223cb23c21b881380200078
:103374000bf05cff81b220000bf0f5ff914b103392
:10338400220003cb03c21b8813808f4920000bf05b
:1033940059fd20000bf04aff81b220000bf0e3ff3f
:1033a400844c20000bf042ff81b220000bf0dbffc5
:1033b40080229200002120000bf012fffdf71cff79
:1033c4008349643183480bf0fdf80028a7d0032219
:1033d4007b4b1a707f4c20000bf028ff0200210069
:1033e40074480bf0b3fe80229200002120000bf001
:1033f400f7fe0022784b1a6091e77c4a6e4b5a80a4
:10340400fdf700ff7a4a6c4b5a80fdf7fbfe002162
:103414006a4b694ad154674c20000bf007ff81b214
:1034240020000bf0a0ff734b1b88c02212019342b3
:103434000dd00133604a53808022920000215d4800
:103444000bf0cefe00225e4b1a70fdf7d5fe5f4aec
:10345400594b5a80f0e7584b58495a5c01325a5438
:103464005a4a5a800022564b1a7084ac5e4b64331d
:10347400220023cb23c223cb23c21968116099886d
:1034840091809b79937120000bf0d0fe81b22000d3
:103494000bf069ff4b4b1033220003cb03c21b8894
:1034a4001380494920000bf0cdfc20000bf0befe38
:1034b40081b220000bf057ff3e4c20000bf0b6fe0b
:1034c40081b220000bf04fff8022920000212000e7
:1034d4000bf086fefdf790fe3c4b374a52889a4229
:1034e40001d0fdf78ffe344b9b88434a934200d1b1
:1034f4008ee015d9414a934200d193e100d219e1fb
:103504000132934201d0fdf77dfe8022920000211a
:1035140028480bf065fe0022294b1a70fdf772fe55
:10352400fc3a934225d00132934201d0fdf76afe62
:10353400254c0e223249183120000bf007fe2000e2
:103544000bf074fe0100200007f060ff2d4a2e4ba3
:103554001a80fb32184b9a80204b1a682b4b1a6046
:1035640020000bf063fe81b220000bf0fcfefdf79f
:1035740049fe2349043117480bf024f8002801d1ef
:10358400fdf740fe0c3004001d4914310bf01af80d
:10359400002801d1fdf736fe20000bf0bbfe064be0
:1035a4008a2292009852174a9a80fdf72bfec04651
:1035b4004c600000100d0020680000202b04000067
:1035c400cc0400204c5a000010090020ff0c00001d
:1035d400cc590000100b00200c20002020200020db
:1035e400d81f002010270000cc600000fd0c000054
:1035f400fe0c000044200020fc800000fe8000003f
:103604004c6100000180ffff48200020e01f0020e3
:10361400a3495c31a3480af0d5ff002863d00222f5
:10362400a14b1a709f4c20000bf000fe02002100f9
:103634009e480bf08bfd80229200002120000bf0ad
:10364400cffd00229a4b1a60974b1b78022b67d050
:10365400954b1b78032b68d0964b1b68964a1268cf
:103664009b1a964a934201d8fdf7ccfd00228e4b5b
:103674001a70934b93495a5c01325a54924a9a8075
:1036840084ac924b2833220023cb23c223cb23c206
:103694001b88138020000bf0c9fd81b220000bf0c1
:1036a40062fe8b4b1033220003cb03c21b881380b2
:1036b400884920000bf0c6fb20000bf0b7fd81b257
:1036c40020000bf050fe794c20000bf0affd81b2ce
:1036d40020000bf048fe80229200002120000bf015
:1036e4007ffdfdf78ffd6e4964316e480af06aff75
:1036f4000028a9d003226c4b1a706a4c20000bf0ee
:1037040095fd0200210069480bf020fd8022920003
:10371400002120000bf064fd0022654b1a6093e742
:103724006d4a674b9a80fdf76dfd6c4a644b9a8035
:10373400fdf768fd654c210044315c4d28000af01a
:1037440041ff060021004c3128000af03bff002e07
:1037540055d00121624b5a4ad154002803d002218a
:103764005f4b574ad154594c210054314f4e3000cd
:103774000af028ffc51c2100583130000af022ff4e
:10378400584c421b290020000bf0e0fc564b9c4691
:1037940064440122554be25400224a4be25404ace7
:1037a4004a4d2b006033220003cb03c21b781370f5
:1037b4004c4920000bf046fb20000bf037fd20188d
:1037c4002900143103220bf0c1fc20000bf02efd64
:1037d40081b220000bf0c7fd454b1b88454a93423c
:1037e40010d00133364a93808022920000212f4862
:1037f4000bf0f6fc00222c4b1a70fdf703fd002899
:10380400add1cce72e498a2292008b5a013b9bb260
:103814008b52002b02d12c4a8a80e5e7364a284b8a
:103824009a80e1e70022204b1a70254b25495a5c07
:1038340001325a54244a9a8084ac244b6c332200bb
:1038440023cb23c203cb03c21b88138020000bf0bd
:10385400edfc81b220000bf086fd1d4b10332200dd
:1038640003cb03c21b8813801a4920000bf0eafa29
:1038740020000bf0dbfc81b220000bf074fd0b4c3c
:1038840020000bf0d3fc81b220000bf06cfd8022f1
:103894009200002120000bf0a3fcfdf7b3fcc0460e
:1038a400cc590000100b0020cc040020100d002087
:1038b4000c20002020200020e01f00201027000002
:1038c400680000202c0400000080ffff4c61000011
:1038d4004c5a000010090020fd80fffffe80ffff0e
:1038e4002a02000093020020d5fdffff27020000fa
:0c38f40048200020018000000180ffff40
:020000040000fa
:10390000f0b5a5b007930023049007982093069183
:103910001a920bf069fd050000680bf089fc002687
:103920000027069b05901f931f9b1a780d2a39d8f4
:10393000092a3dd2002a44d00023129300221f9c62
:103940000c922378302b00d07ee06378582b02d085
:10395000782b00d06ee0079bb74a0293129b1fa9f9
:10396000019320ab0093049821ab04f035fa0725ae
:103970000590054005d0062d2fd1002301341f945a
:1039800012931a9b002b02d01a9b1f9a1a60129b4b
:10399000002b1dd0802332001b06fb1810001900dd
:1039a00025b0f0bd2b2a05d02d2a14d0202ac3d152
:1039b0000133b8e7002212925a1c1f925b78002b49
:1039c000bcd1069b1f93002312931a9b002bdbd1c3
:1039d00032003b00e2e70122ede7209a002a07d0ff
:1039e000352122a80af0d2fe209904980af08afd17
:1039f000681e042806d80bf067fb0c0317190c008f
:103a0000229e239f059b1b07bbd580231b061f43bc
:103a1000b7e7239b894a8a491a40219b229e5b185b
:103a20001b051a431700ede7864febe70126864f8b
:103a30007642e7e71f9b5a1c1f925b78302bf9d028
:103a4000002b9ed001230c931f9b0a22139300236b
:103a50000b930a9308931f9804782300303bd9b244
:103a6000092926d9059a29680bf0d5f8002832d003
:103a7000002023008446089a07900592202219000e
:103a800091430a000021452a00d0a7e0059b0c9a2b
:103a9000034313438b4294d01f9b069301331f9320
:103aa000069b5b782b2b71d00c002d2b74d101243d
:103ab0006de00899082909dc0a9951435b180a93bb
:103ac000089b0130013308931f90c4e70b995143c1
:103ad0005b180b93f4e71f9a059b9446089a63447e
:103ae0001f931b78002a49d11000302b28d01a00d0
:103af000313a082a46d8844600201f9a059013922e
:103b0000303b421c002b0fd00a219444059a101818
:103b100082421bd1511c0591082a25dc0a220a99f0
:103b20004a439b1800220a9310001f9b591c1f91a7
:103b30005b781a00303a092ae2d9012207929de700
:103b40001f9b01305a1c1f925b78cee70132541e36
:103b5000082c03dc0a9c4c430a94d9e7102ad7dcd2
:103b60000b9c4c430b94d3e7059900221029dbdc16
:103b70000a210b9841435b180b93d5e7089a8446ba
:103b80000592d6e7002294460592d6e70c00069be4
:103b900002331f93069b9b781a00303a092a60d89b
:103ba000302b43d01a00313a0021082a16d8303b76
:103bb0001f9d0e931f9b591c1f915b781a00303a72
:103bc000092a47d94a1b214d2900082a03dc0e99ee
:103bd000a94200dd2900002c00d04942059a002aa4
:103be00063d10c9a104300d0cbe6079a002a00d08c
:103bf000e7e64e2b3ed038dc492b00d0e1e6144cf2
:103c00001fa821000af0a8fe002800d1d9e61f9bba
:103c1000e11c013b1fa81f930af09efe002802d161
:103c20001f9b01331f93074f0026aae61f9b5a1cb8
:103c30001f925b78b4e7c046f0f00000ffffefff93
:103c4000330400000000f07fffffff7f1f4e0000e5
:103c500024f300000a220e994a43d218303a0e92f9
:103c6000a8e7069a00211f92b8e7692bc7d06e2bf0
:103c700000d0a6e68b491fa809310af06dfe002886
:103c800000d19ee61f9b1b78282b0cd122aa8649c7
:103c90001fa807f087f9052805d1239b834a229e98
:103ca0001a4317006de6824fbee76346cb1a0793af
:103cb000089b002b01d1059b0893059c102c00dd6f
:103cc00010240a9809f0ecfd06000f00092c15dd00
:103cd0002200784b093ad2009b181a685b6805f0fd
:103ce000f5f806000b980f0009f0dafd02000b0052
:103cf0003000390003f044f806000f00059b0f2b3d
:103d000039dc079b002b00d13be626dd162b0bdcb4
:103d10006849db00c9183200086849683b0005f0b3
:103d2000d5f806000f002ce62523059a9b1a079a62
:103d30009a4220dc0f24059b5e4de41ae1006918cd
:103d40003200086849683b0005f0c0f8079b1c1b5f
:103d5000e4002c1922686368e1e7079b16330adb4d
:103d6000079b3000da00534b39009b1a1a685b68d6
:103d700003f090fdd5e7059b1c1b079be418002c66
:103d80006edd0f2323400ad04a49db00c9183200f8
:103d9000086849683b0005f099f806000f000f23fa
:103da0009c4348d02633ff339c4221dd00240594f8
:103db0000a94079422230026049a3c4f13600a9b1e
:103dc000b34200d1dde5209904980af09bfb0799e6
:103dd00004980af097fb059904980af093fb0a9956
:103de00004980af08ffb210004980af08bfbc8e5c9
:103df0000023300039001d002411012c1edc002b93
:103e000001d006000f002c4bed00ff182b4b3200a9
:103e10005d19286869683b0005f058f8234b0f00ce
:103e20000b40274906008b42c0d826498b4213d944
:103e30000126254f76420023069373e001221442a7
:103e400007d01e4aeb009b181a685b6805f03ef825
:103e5000012301356410d0e7d4239b04ff18eae75f
:103e6000002ce8d00f23644223400ad0114adb0023
:103e7000d31830001a685b68390003f00bfd0600a8
:103e80000f002411d7d01f2c20dd002405940a94a4
:103e900007942223049a002613600a9b0027002b14
:103ea00091d16ee524f3000004f100000000f07fe2
:103eb0000000f8ff50c300000000b0fc80e90000e3
:103ec0000000a07c0000907cffffef7f10232340c8
:103ed000069301d06a230693300039000023ca4daf
:103ee000002c00dd03e1002b01d006000f00069b33
:103ef000002b0fd06b237900490d3a005b1a002b81
:103f000008dd1f2b00dc04e10026342b00dcf9e087
:103f1000dc27bf04002200233000390009f06cface
:103f20000028b2d10a9b089a00931399059b049824
:103f300009f01af90a90002800d137e7079b0024fe
:103f4000da175b421a40079b1592db43079adb178f
:103f50001a40139205940a9b0498596809f062fb71
:103f60000790002800d125e70a9b0a991b690c31ac
:103f70009a1c92000c3008930bf0eaf822ab0193e4
:103f800021ab009332003b0004980e960f9708f087
:103f900059fb2090002800d10ce7012104980bf078
:103fa000e0f80590002800d104e7219b002b00daff
:103fb000b4e0159ad518139a94460699229a5b1a7a
:103fc00036219b189148013b8a1a0121834200db6c
:103fd000b0e0c01a121a1f2800dda4e081400023bf
:103fe00014910c93ab1808931300069a6344d318ea
:103ff000089a0b932b00954200dd13000b9a934215
:1040000000dd1300002b06dd089aed1ad21a089283
:104010000b9ad21a0b92159b002b17d01a000599f8
:10402000049808f059fc0590002800d1c2e6010070
:10403000209a049807f04df81b90002800d1b9e6ab
:10404000209904980af05efa1b9b2093089b002b92
:1040500073dc139b002b79d10b9b002b08dd1a001e
:104060000799049808f096fb0790002800d1a1e674
:10407000002d08dd2a000599049808f08bfb0590b7
:10408000002800d196e6079a2099049808f0fcf8d9
:10409000041e00d18ee60025c3680599c5600b9308
:1040a0000af049faa8425bda0b9bab421bd1ae4245
:1040b00019d13b03ab4216d1d622554bd2043b401b
:1040c000934210d96369ab4202d12369012b0add07
:1040d00021000122049808f05dfb059904000af014
:1040e0002afa00286cdc069b002b78d16be60122b3
:1040f000144204d02a686b6804f0e8fe01236410bf
:104100000835ede60121203b494299400a4017005d
:1041100000e7012252429a401640fbe6139a159d91
:10412000d21a944649e73b48c31a080098400c90bd
:10413000149157e700230c93fae7089a2099049802
:1041400008f028fb2090002883d133e6139a0799c2
:10415000049808f0c1fb0790002800d07ce729e60e
:10416000002800d095e00b9a3b03002a24d02a496e
:104170003a001b0b8b425ed1069b0138b44601000e
:10418000002b0ad0d425224bed043b40ab4204d88f
:104190006b211b0dcb1a0100994061454bd11f4b80
:1041a0009a4202d14b1c00d104e6194b00261a405a
:1041b00080235b03d71896e7002b3cd1002e3ad121
:1041c000069a134b002a2dd01a00d6213a40c90472
:1041d0008a4227dcdc239b049a4200dc59e6104b20
:1041e00030001193002310933900109a119b04f0b2
:1041f0006dfe06000f1e00d0e5e5002800d0e2e5c8
:104200002223049a1360dee508e9000002fcffffa8
:104210000000f07fe2fbffffffff0f00ffffef7fdb
:10422000000050390126a94a3b409b18a84a764213
:104230001a43170057e70c9b002b13d03b4200d1c9
:1042400051e70b9b069a30003900002b0fd00af083
:10425000d3f902000b000e980f9902f091fd0600b1
:104260000f0040e7149b334200d13ce7e9e70af036
:10427000c3f902000b000e980f9902f0a9fa002270
:10428000002306000f0009f0b7f8002800d000e670
:1042900029e70599200009f011fd80230022db05a4
:1042a0000890099109f0b8f8002875d00b9b002bf5
:1042b00043d00022874b0c920d93864b0893864b7c
:1042c0003b401493149a854b9a4200d0b1e00e9a69
:1042d0000f9b10921193824b3000ff18390009f0a8
:1042e00061fd02000b000c980d9904f0effd320007
:1042f0003b0002f045fd784a7a4b06000a409a429c
:1043000062d9794b119a9a4203d1109a013200d1a5
:1043100050e501261f007642209904980af0f2f831
:10432000079904980af0eef8059904980af0eaf85b
:10433000210004980af0e6f80de6002e1dd13b039b
:1043400020d1089809990022624b09f05bf80028f7
:104350001ed1089809990022644b04f0b7fd0500ae
:104360000891802212069446089b1c9563441d9375
:104370001c9a1d9b0c920d93a1e7012e02d1002fd8
:1043800000d186e500225a4b00250c920d9394e74c
:10439000564b0b9d0893e4e7544b0898099900226b
:1043a00004f094fd0b9b05000891002b07d180239e
:1043b0001b06cb1816901793169a179bdae7020084
:1043c000089b16921793f7e7d4239b04cf18069bfc
:1043d000002ba1d1404b149a0c973b409a429bd1a1
:1043e0000899280009f0f6f909f0aaf80b00020074
:1043f0000899280002f0ecf90b9b08900991002b1a
:1044000004d1002e02d10c9b1b0358d008980999a7
:10441000384a394b08f0f6ff002800d0d3e408985a
:104420000999364a314b09f001f8002800d173e7a9
:10443000c9e4069b002b2ad0d423149adb049a42a9
:1044400025d82f4a2f4b2800089908f0e5ff0028af
:1044500016d02800089909f0d1ff002800d10120ca
:1044600009f01efa0b9b05000891002b22d1802336
:104470001b06cb1818901993189a199b0c920d9340
:10448000d6220d9bd2049b18149a9b1a0d930e985a
:104490000f990c9e0d9f09f085fc02000b00300067
:1044a000390004f013fd0e9a0f9b02f069fc060020
:1044b0000f008ce70200089b18921993dce70d4a65
:1044c000114b0898099908f09dffaee70000f0ff36
:1044d000ffff0f000000f03f0000f07f0000e07fd2
:1044e0000000b0fcffff9f7cffffef7f0000e03f7c
:1044f0000000f0bf9535a094ffffdf3f35e5af35f5
:0c4500000000c0ffffffdf41ffffcf3fc6
:020000040000fa
:10450c00f0b516001f00446a9db00490259d0696d8
:10451c000797002c08d110200af0f8fd049b586274
:10452c00446084600460c460049b5b6a1968002961
:10453c000bd05a68012393404a608b60049809f0b1
:10454c00dbff0022049b5b6a1a60079b002b1cdac2
:10455c0001232b607b005b080793079cba4b22005e
:10456c0019931a409a421cd1b84b249a1360069a9c
:10457c00b74b002a03d1240301d100f08cfd269afd
:10458c00002a05d109330a9308e000232b60e4e7e5
:10459c001a0009320a920c33269a13600a981db03d
:1045ac00f0bd069e079f002200233000390008f062
:1045bc001dff051e0ed00123249a1360a44b1a0074
:1045cc000d320a92269a002ae8d01a0026990e3249
:1045dc000a60e3e71aab01931bab009332003b007c
:1045ec00049808f029f8630005905b0d00d17fe07a
:1045fc003a03984c120b14432100974a300018953b
:10460c009e180022954b02f0ddf8954a954b04f06c
:10461c0057fc954a954b02f0adfb040030000d00a1
:10462c0008f088ff924a934b04f04afc02000b00fe
:10463c002000290002f09efb04000d0009f0c4f8d4
:10464c000022039000232000290008f0d5fe00284a
:10465c000ed0039808f06eff0b000200290020001a
:10466c0008f0c4fe030058425841039b1b1a0393e5
:10467c0001231693039b162b0fd87f49db00c91817
:10468c0008684968069a079b08f0cafe00284bd0b8
:10469c00039b013b0393002316931a9b9e1b002341
:1046ac000b933300013b0c9304d501239b1b0b9301
:1046bc0000230c93039b002b38db039a0c9b944632
:1046cc0063440c9300230f920893229b0125092b22
:1046dc0000d991e0052b02dd0025043b2293229b9f
:1046ec00981e032800d991e00af0e8fc8284297610
:1046fc001a9b1b9a9e18614bf218202a0fdd203b47
:10470c000698f318d84040239b1a9c40204309f08c
:10471c00c1f801235a4c013e0919189371e7202363
:10472c0006989b1a9840f2e71690b6e70b9b039af3
:10473c009b1a0b935342089300230f93c5e7012355
:10474c000e93239b002b65dd1f000d93049a546a76
:10475c000022626004221100143199425fd9616811
:10476c00049808f059ff049b20605b6a1b680a934d
:10477c000e2f00d9fce0002d00d1f9e0069b079c20
:10478c0014931594039b002b00dc7de01a000f2181
:10479c00394b0a40d2009b185c681b68109311942b
:1047ac00039b02241d11eb060ad5364b0d401a6ae9
:1047bc005b6a1498159903f067f803240690079127
:1047cc00304e002d30d1109a119b0698079903f0aa
:1047dc005bf80690079171e00123239a0e9394469f
:1047ec00039b63445f1c0d933b1eafdc0123ade7c1
:1047fc000023a5e70023f0e700230e952293013b4d
:10480c000d931f000022122323929fe701230e9386
:10481c00023bf5e701230d931f001a00f4e76168d2
:10482c0052000131616096e701231d4208d01098b7
:10483c001199e4183268736804f042fb10901191de
:10484c006d100836bde7c0460000f07f0f27000052
:10485c0004f200000000f03f01fcffff0000f83ff5
:10486c0061436f63a787d23fb3c8608b288ac63f6a
:10487c00fb799f501344d33f50c300003204000017
:10488c00000010fe80e90000039b0224002b15d0d1
:10489c00149815995d420f23c94a2b40db00d3189d
:1048ac001a685b6804f00cfb002306900791c54e58
:1048bc002d11002d00d08be0002b8ad1169b002be4
:1048cc0000d191e0069a079b1092119310981199c0
:1048dc000022bd4b08f090fd002800d184e0002f91
:1048ec0000d181e00d9b002b3edd10981199039bac
:1048fc0000225e1eb54b04f0e3fa069007910d9d65
:10490c000134200008f016fe069a079b04f0d8fa32
:10491c000022af4b02f02efa12901391129b139cb3
:10492c00ac4a10931194139b9c181194002d5ed1da
:10493c00069807990022a84b01f044ff109a230017
:10494c000690079108f06cfd002800d000e3a34806
:10495c001399844661440b0006980799109a08f045
:10496c004bfd002800d0e7e2149b159c069307949e
:10497c001b9b002b00da56e1039a0e2a00dd52e154
:10498c008f4bd2009b185c681b6808930994239b7f
:10499c00002b00dbcee0002f00ddcbe000d0cee220
:1049ac000898099900228c4b04f08afa069a079b06
:1049bc0008f040fd3e000897002800d0a3e20a9bb7
:1049cc000a9a5d1c31231370039b013303939ee2ff
:1049dc000122154205d0a4183268736804f070faed
:1049ec0001236d10083664e7039e3d0089e70a9a9f
:1049fc00691e521917920e9a714bc900002a4ad09f
:104a0c005b181a685b680020754902f03dff109a2c
:104a1c00119b01f0d7fe0a9b1090119112930698ee
:104a2c00079908f0d1fe040008f084fd02000b0089
:104a3c000698079901f0c6fe129b30345d1c1c7061
:104a4c00109a119b0690079108f0d6fc002865d1ae
:104a5c00069a079b00205c4901f0b4fe109a119b4a
:104a6c0008f0cafc002800d0bde0179b9d4200d185
:104a7c007ae7109811990022544b04f021fa002285
:104a8c001090119106980799504b04f019fa129551
:104a9c0006900791c3e7591808684968109a119b4a
:104aac0004f00efa109011910a9c179d0698079924
:104abc0008f08afe129008f03dfd02000b000698eb
:104acc00079901f07ffe129b0690079130332370fb
:104adc00179b01340022a34224d1414b1098119909
:104aec0002f048f902000b000698079908f098fcb0
:104afc00002800d077e0109a119b0020384901f073
:104b0c0061fe02000b000698079908f075fc00285e
:104b1c0000d129e76b1e1a78302a01d003963fe0aa
:104b2c001d00f7e706980799284b04f0c9f9069081
:104b3c000791bbe70a9e089a099b0698079902f011
:104b4c00a3fe08f041fe040008f0f4fc089a099b4f
:104b5c0004f0b6f90b0002000698079901f032fe3a
:104b6c002300303333700a9b751ceb1a9f424bd1d8
:104b7c0002000b0002f0fef806000f0002000b0012
:104b8c000898099908f038fc00282bd10898099945
:104b9c0032003b0008f02afc002801d0e30721d4a6
:104bac000599049809f0a8fc00232b70039b249a08
:104bbc0001331360269b002b00d1efe41d60ede464
:104bcc0050c3000080e900000000f03f00002440ca
:104bdc0000001c400000c0fc000014400000c07c21
:104bec000000e03f039e6b1e1a78392a06d10a9a00
:104bfc009a4207d130231370130001361a78013210
:104c0c001a708be71d00eee70022cf4b04f058f929
:104c1c0000220023069007912e0008f0e7fb0028e5
:104c2c0000d188e7bce70e9a002a00d187e0229acf
:104c3c00012a6edc189a002a67d0c44a9b18089d7a
:104c4c000b9c0b9a0121d2180b920c9a0498d31836
:104c5c000c930af080fa0600002c0edd0c9b002b46
:104c6c000bdd0c9a2300944200dd13000b9ae41a1e
:104c7c00d21a0b920c9ad31a0c93089b002b1ed0b1
:104c8c000e9b002b5fd0002d11dd31002a00049803
:104c9c0007f01cfe059a01000600049806f013fab2
:104cac0005991090049809f027fc109b0593089b1c
:104cbc005a1b04d00599049807f008fe05900121b1
:104ccc0004980af048fa0f9b0890002b3ddd1a005f
:104cdc000100049807f0fafd229b08900025012b97
:104cec003bdc0025069bab4233d1079b1b03ab423d
:104cfc002fd1199b079a13422bd00b9b0125013303
:104d0c000b930c9b01330c9323e036231a9a9b1aba
:104d1c0095e7089b7d1eab4206db5d1b002f0bda73
:104d2c000b9bdc1b00238ce7089b0895ea1a0f9b56
:104d3c0000259b180f93f1e70b9c3b0081e7089d26
:104d4c000b9c0e9e88e7089ab4e7229b0025012b4a
:104d5c00c7dd0f9b0120002b0bd0089b089a1b6909
:104d6c000f9303339b00d318586809f091fb202351
:104d7c00181a0c9bc0181f23184000d1abe020233d
:104d8c001b1a042b00dc9be01c23181a0b9b241809
:104d9c001b180b930c9b1b180c930b9b002b05dd0a
:104dac001a000599049807f0effc05900c9b002b5a
:104dbc0005dd1a000899049807f0e6fc0890169b8c
:104dcc00002b00d189e00899059809f0aefb00286a
:104ddc0000db82e0039b0a22013b0393059900232d
:104dec00049808f031fb0e9b0590002b00d15be181
:104dfc00002331000a22049808f026fb0d9b0600c4
:104e0c00002b02dc229b022b6ddc002c05dd31001b
:104e1c002200049807f0b8fc06003000002d11d0d9
:104e2c007168049808f0f8fb3100040033690c3108
:104e3c009a1c92000c300af085f90122210004988a
:104e4c0007f0a2fc0d9f0a9b013f0b93db19370067
:104e5c0006000f930899059806f0eafc39000d90ae
:104e6c000400059809f061fb32000e900899049833
:104e7c0007f004fa01230c93c36830340500002baf
:104e8c0004d10100059809f050fb0c9029000498fe
:104e9c0009f032fb0c9b229a134300d089e00123ca
:104eac00069a134200d084e0392c00d1a3e00e9b6b
:104ebc00002b01dd0d9c31340b9b5d1c1c7027e01d
:104ecc00042b00d169e70b9a1c33d2180b920c9a65
:104edc00e418d31860e70300f5e7002f3cdc229bb5
:104eec00022b39dd0d970d9b002b0cd10899052257
:104efc00049808f0a9fa08900100059809f015fb30
:104f0c00002800dd5be5239b0a9ddb430393002710
:104f1c000899049809f0f0fa002e00d140e6002f11
:104f2c0005d0b74203d03900049809f0e5fa3100f6
:104f3c00049809f0e1fa33e608952e00e3e7002324
:104f4c0008931e00dfe7c046000024403304000035
:104f5c00039608952e0032e50e9b0d97002b00d082
:104f6c0053e70a9d0899059806f062fc0a9b3030bd
:104f7c000d9a287001350400eb1a9a4278dc151e44
:104f8c0000dc012500270a9b5d1905990122049874
:104f9c0007f0fafb0899059009f0c7fa00282fdcf6
:104fac0001d1e3072cd46b1e1a78302ab0d11d0026
:104fbc00f9e70e9b002b07db1d00229b1d4326d11e
:104fcc000123069a134222d10c9b002b00dc73e7c1
:104fdc0005990122049807f0d7fb0899059009f070
:104fec00a4fa002804dc00d066e7e30700d463e7ea
:104ffc00392c00d05ee70b9b0b9a5d1c3923137088
:10500c006b1e1a78392a3bd001321a7080e70b9b41
:10501c0001330d930c9b002b05dd392cebd00d9d32
:10502c0001340b9b4ae70b9b0f9a0d9d1c7093420e
:10503c00abd000230a220599049808f005fa002346
:10504c0005900a2239000498b74206d108f0fcf901
:10505c00070006000d9b0b93fce608f0f5f93100f8
:10506c00070000230a22049808f0eef90600f1e785
:10507c0000230a220599049808f0e6f9059071e7d7
:10508c000a9a9a4205d1039b01330393312313707f
:10509c003ee71d00b4e7269a0a930833002a01d094
:1050ac00fff77afafff77afa0d9b002b00dd58e731
:0c50bc00229b022b00dc54e715e7c046e5
:020000040000fa
:1050c800f0b5c64600b592b0042800d90ae18000c0
:1050d800ea4b1b589f46ea4d802292000021280087
:1050e8000af07cf8e74e0222310028000af02cf87a
:1050f80028000af099f82a00213a311d0004000c12
:105108002c00273c281809f0c5f828000af08cf86c
:10511800dd4be35cdd4aa25cfa21c9008c4662449f
:10512800310014310004000c27300019d84fe75d16
:1051380003978c27ff00e75d0297d64fe75d01973d
:10514800d54fe75d009709f0a5f828000af06cf83c
:105158000004000c2730001931003c31162209f0f8
:10516800f3ff28000af060f80004000c273000194b
:10517800310054310b2209f0e7ff28000af054f8f7
:10518800310060310004000c27300019c34a09f0cf
:1051980081f828000af048f8310074310004000c46
:1051a80027300019be4a09f075f828000af03cf8c3
:1051b8000004000c27300019ba4e311d102209f0e6
:1051c800c3ff28000af030f80004000c273000194b
:1051d80031001431112209f0b7ff28000af024f831
:1051e8000004000c27300019310028310c2209f086
:1051f800abff28000af018f8ab4be3188922d2005d
:10520800a218310034310004000c2730001909f0cd
:1052180041f828000af008f80004000c27300019ab
:10522800310048310d2209f08fff280009f0fcfffa
:105238000004000c2730001908f020fe280009f0af
:10524800f3ff0004000c2730001907f0e1f82800ec
:1052580009f0eaff0004000c2730001909f000f9f2
:10526800280009f0e1ff0004000c2730001909f0bc
:1052780001fe280009f0d8ff0004000c27300019af
:1052880009f004fe280009f0cfff0004000c2730c5
:10529800001909f0cbf8280009f0c6ff0004000c3b
:1052a8002730001909f052f8280009f0bdff000462
:1052b800000c2730001908f005fe280009f0b4ff9b
:1052c8000004000c2730001908f020fe280009f01f
:1052d800abff0004000c27300019310058310722b9
:1052e80009f032ff12b004bc9046f0bd644d802234
:1052f80092000021280009f071ff624b98460222b3
:105308001900280009f020ff280009f08dff04008b
:105318003222002105a809f061ff644f791c102290
:1053280005a809f011ff5f4e310060312004000c20
:105338002c00273c281805aa08f0acff280009f023
:1053480073ffa21d310070310004000c27300019d2
:1053580008f0a0ff280009f067ff4b4be35c4b4abd
:10536800a25cfa21c9008c4662444146143100040b
:10537800000c27300019464ea65d03968c26f600d1
:10538800a65d0296434ea65d0196434ea65d009625
:1053980008f080ff280009f047ff0004000c2730c0
:1053a8000019434e1922310009f0cefe280009f0f9
:1053b8003bff0004000c27300019414654310b22f2
:1053c80009f0c2fe280009f02fff414660310004b1
:1053d800000c27300019314a08f05cff280009f05a
:1053e80023ff414674310004000c273000192c4a71
:1053f80008f050ff280009f017ff3123fa5c31004c
:105408001c310004000c2730001908f043ff280065
:1054180009f00aff3223fa5c31002c310004000c39
:105428002730001908f036ff280009f0fdfe332365
:10543800fa5c310040310004000c2730001908f0f4
:1054480029ff280009f0f0fe174be3188922d20043
:10545800a218310050310004000c2730001908f060
:1054680019ff280009f0e0fe0004000c273000199d
:1054780031006431062209f067fe33e7b0ef00001f
:105488008f000020c89800005d0400005c04000044
:10549800610400005f0400005e040000b41f0020e7
:1054a800ac1f0020489900003404000004000020cc
:1054b800c8990000c64d802292000021280009f0fa
:1054c8008dfe0222c349280009f03efe280009f09b
:1054d800abfe04003222002105a809f07ffebe4e73
:1054e800711c102205a809f02ffe2004000c2818b2
:1054f80005aaba49603108f0cdfe280009f094feeb
:1055080081b23423f35c022b00d182e0b44cb54b5a
:10551800e35cb54aa25cfa20c000844662442731a5
:105528000819b249615c03918c21c900615c029140
:10553800af49615c0191af49615c0091a5491431a3
:1055480008f0a8fe2000273009f06efe3423a24a96
:10555800d35c012b6dd00004000c2730a04bc01881
:105568001b22a549083109f0effd994c200009f0ec
:105578005bfe0004000c2600273e20180b229549ec
:10558800543109f0e1fd200009f04efe924f31231d
:10559800fa5c9a4d29001c310004000c2730801950
:1055a80008f078fe200009f03ffe3223fa5c29005b
:1055b8002c310004000c2730801908f06bfe200005
:1055c80009f032fe3323fa5c290040310004000c54
:1055d8002730801908f05efe200009f025fe884b70
:1055e800f3188922d200b218290050310004000ca7
:1055f8002730801908f04efe200009f015fe00043f
:10560800000c2730801929006431062209f09cfd1e
:1056180068e67c4a0004000c2730941f00196f4983
:10562800703108f037fe2000273009f0fdfd81b207
:105638006ce70004000c2730694bc01819226f4929
:105648006c3109f081fd90e7614d802292000021c4
:10565800280009f0c3fd5f4f02223900280009f035
:1056680073fd280009f0e0fd04003222002105a89e
:1056780009f0b4fd584e711c102205a809f064fd0c
:10568800564b9846190060312004000c2c00273c2a
:10569800281805aa08f0fefd280009f0c5fda21d7e
:1056a800414670310004000c2730001908f0f2fd63
:1056b800280009f0b9fd4b4be35c4b4aa25cfa2188
:1056c800c9008c466244390014310004000c2730ac
:1056d8000019464fe75d03978c27ff00e75d0297a7
:1056e800434fe75d0197434fe45d009408f0d2fd16
:1056f800280009f099fd3523f35c012b5dd00004e7
:10570800000c2730364bc01819223b493c3109f0b0
:105718001bfd2f4c200009f087fd0004000c26001b
:10572800273e20180b222b49543109f00dfd20008b
:1057380009f07afd284f3123fa5c304d29001c31dd
:105748000004000c2730801908f0a4fd200009f09f
:105758006bfd3223fa5c29002c310004000c273041
:10576800801908f097fd200009f05efd3323fa5cec
:10577800290040310004000c2730801908f08afd08
:10578800200009f051fd1e4bf3188922d200b218ef
:10579800290050310004000c2730801908f07afde8
:1057a800200009f041fd0004000c27308019290071
:1057b8006431062209f0c8fc94e50004000c273087
:1057c800074bc01817220c49243109f0bdfca0e78b
:1057d8008f000020c89800000400002048990000ad
:1057e800680000205d0400005c0400006104000003
:1057f8005f0400005e040000489a0000c899000099
:10580800340400006e000020614d802292000021c7
:10581800280009f0e3fc5f4f02223900280009f054
:1058280093fc280009f000fd04003222002105a89d
:1058380009f0d4fc584e711c102205a809f084fc0c
:10584800564b9846190060312004000c2c00273c68
:10585800281805aa08f01efd280009f0e5fca21d7d
:10586800414670310004000c2730001908f012fd81
:10587800280009f0d9fc4a4be35c4a4aa25cfa21a9
:10588800c9008c466244390014310004000c2730ea
:105898000019454fe75d03978c27ff00e75d0297e6
:1058a800424fe75d0197424fe45d009408f0f2fc37
:1058b800280009f0b9fc3623f35c012b5dd0000405
:1058c800000c27303b4bc0181c223b49743109f0af
:1058d8003bfc2f4c200009f0a7fc0004000c26001c
:1058e800273e20180b222b49543109f02dfc2000ab
:1058f80009f09afc284f3123fa5c304d29001c31fd
:105908000004000c2730801908f0c4fc200009f0be
:105918008bfc3223fa5c29002c310004000c273060
:10592800801908f0b7fc200009f07efc3323fa5cec
:10593800290040310004000c2730801908f0aafc27
:10594800200009f071fc1e4bf3188922d200b2180e
:10595800290050310004000c2730801908f09afc07
:10596800200009f061fc0004000c27308019290090
:105978006431062209f0e8fbb4e40004000c273087
:105988000c4bc0181a220c49583109f0ddfba0e76e
:105998008f000020c89800000400002048990000eb
:1059a8005d0400005c040000610400005f04000066
:1059b8005e04000068000020489a0000c8990000b2
:0459c80034040000a3
:020000040000fa
:1059cc0041540d0a00000000415445300d0a0000fe
:1059dc0041542b434c434b3d225343222c320d0a52
:1059ec000000000041542b4350494e3f0d0a00006b
:1059fc0041542b434f50533f0d0a000041542b434d
:105a0c0053510d0a0000000041542b555244464995
:105a1c004c453d225030220d0a0000004f4b0d0a20
:105a2c00000000004552524f520d0a005f41545f76
:105a3c004d4f44554c455f434f4e4e4543542020eb
:105a4c004572726f725f74696d656f75740d0a00c3
:105a5c0074785f4552524f523a0000002c33322c6e
:105a6c00000000005f41545f4d4f44554c455f436f
:105a7c004f4e4e45435420204572726f725f6d65d8
:105a8c00670d0a0041542b43455245473f0d0a0010
:105a9c0041542b434744434f4e543f0d0a000000e2
