:020000040000fa
:10000000f07f0020d5d10000c7b200001fba000069
:1000100000000000000000000000000000000000e0
:100020000000000000000000000000000fb1000010
:1000300000000000000000000fb10000d5dc00004f
:100040000fb100000fb100000fb100008dd1000012
:100050000fb100000fb100000fb100000fb10000a0
:100060000fb10000f58e0000d98c0000ad980000a3
:100070000fb1000000000000000000001578000033
:10008000000000000fb100000fb100000fb1000030
:100090000fb100000fb100000fb100000fb1000060
:1000a0000fb100000fb100000fb100000fb1000050
:0c00b0000fb100000fb100000fb1000004
:020000040000fa
:1000bc00f8b5c046f8bc08bc9e4670474dd0000051
:1000cc00f8b5c046f8bc08bc9e46704725d0000069
:020000040000fa
:0800dc0050af0000010000001c
:020000040000fa
:1000e400f0b5e64ca544e64b5b88e64a934201d161
:1000f40001f0f0ff01d900f06bfce34a934201d117
:1001040001f056fc00d93ce2e04a934201d101f0ef
:1001140005fa00d910e1fd3a934201d101f0d9f872
:1001240000d883e0da4a934201d101f083f900d97f
:10013400d9e0023a934201d101f016f901d901f054
:100144003df9013a934201d001f056f8d1495c31ae
:10015400d1480df049fb002801d101f0dbf802225f
:10016400ce4b1a70cc4c20000ef066f90200210030
:10017400cb480ef0f1f880229200002120000ef00e
:1001840035f90022c74b1a60c44b1b78022b01d1ee
:1001940001f0e0f8c14b1b78032b01d101f0dff82b
:1001a400c14b1b68c14a12689b1ac14a934201d8c9
:1001b40001f028f8b24bbf495a5c01325a5400226c
:1001c4005a80b64b1a7084acb24b6c33220023cbea
:1001d40023c223cb23c223cb23c220000ef02cf94d
:1001e40081b220000ef0c5f9b34b1033220003cbcb
:1001f40003c21b881380b14920000df033ff200097
:100204000ef01af981b220000ef0b3f9a44c2000cc
:100214000ef012f981b220000ef0abf980229200a8
:10022400002120000ef0e2f800f0e6ff043a9342c9
:1002340001d100f0ebff2ad982225200934201d16e
:1002440001f005f801d901f023f89c4c0b229149e7
:10025400243120000ef080f820000ef0edf80100ab
:1002640020000af069f90422ff32954b1a80f93212
:10027400834b5a808c4b1a688c4b1a6020000ef00a
:10028400dbf881b220000ef074f900f0b5ff023af9
:10029400934201d100f091ff0132934201d000f06a
:1002a400abff864c07227b49083120000ef054f83e
:1002b40020000ef0c1f8010020000af03df90222ee
:1002c400ff327f4b1a80fb326d4b5a80764b1a6893
:1002d400764b1a6020000ef0aff881b220000ef0c9
:1002e40048f900f089ff774a934201d101f0acf854
:1002f40001d901f0c9f8714c0522664920000ef0bd
:100304002bf820000ef098f8010020000af014f9f0
:10031400802292006c4b1a80fc32594b5a80624bfb
:100324001a686a4b1a6020000ef086f881b2200029
:100334000ef01ff900f060ff654a934201d101f00d
:100344001cfa00d883e0634a934201d101f0b6fa63
:1003540000d9ece0023a934201d101f056fa01d9f6
:1003640001f071fa013a934201d000f045ff494986
:100374005c3149480df038fa002801d101f01dfa2a
:100384000222464b1a70444c20000ef055f802002d
:10039400210043480df0e0ff80229200002120005c
:1003a4000ef024f800223f4b1a603c4b1b78022bc2
:1003b40001d101f022fa394b1b78032b01d101f052
:1003c40020fa394b1b68444a12689b1a384a9342f4
:1003d40001d800f017ff2a4b36495a5c01325a54af
:1003e40000225a802d4b1a7084ac3c4b30332200cf
:1003f40023cb23c223cb23c223cb23c220000ef062
:100404001bf881b220000ef0b4f82b4b10332200fd
:1004140003cb03c21b881380284920000df022fe61
:1004240020000ef009f881b220000ef0a2f81c4c56
:1004340020000ef001f881b220000ef09af880221c
:100444009200002120000df0d1ff00f0d5fe043a07
:10045400934201d101f015f942d9c022920093428e
:1004640001d101f049f901d901f067f98022920024
:1004740000210b480df0baff00f0c4feecfcffffb6
:100484003400002001070000030400000302000000
:10049400ff010000f44f0000d00a00209004002067
:1004a400d00c0020bc1f0020d01f0020981f00206b
:1004b400881300002a04000074500000d0080020b3
:1004c4000020002001020000ec1f0020701f00200b
:1004d40002030000ff0300008c1f0020f450000002
:1004e400023a934201d101f039f80132934201d02a
:1004f40000f082fef04c20000df09eff81b220003f
:100504000ef037f880229200002120000df06effdb
:10051400ea4b1b88ea4a934201d101f0adf801335a
:10052400e84a53800022e84b1a7000f065fee74a5f
:10053400934201d101f0fcf901d901f019fae44c1c
:100544001122e449103120000df006ff20000df0c7
:1005540073ff0100200009f0efff8022d200de4b80
:100564001a80fc32d74b5a80dc4b1a68dc4b1a6079
:1005740020000df061ff81b220000df0faff00f0c1
:100584003bfed84a934201d101f0e4fb00d9fde0df
:10059400043aff3a934201d101f0f2fa29d9d24a3e
:1005a400934201d101f03cfb00d9d3e0023a9342db
:1005b40001d101f0edfa01d901f00efbc44c1e2269
:1005c400ca49503120000df0c7fe20000df034ff61
:1005d4000100200009f0b0ffba4a53880133538068
:1005e40020000df029ff81b220000df0c2ff00f0c1
:1005f40003fef93a934201d101f01cfa00d87ee0df
:10060400bb4a934201d101f060fa01d901f07cfaae
:10061400013a934201d000f0effdae495c31b54898
:100624000df0e2f8002801d101f025fa0222a64bd0
:100634001a70b04c20000df0fffe020021009e480d
:100644000df08afe80229200002120000df0cefee3
:100654000022a94b1a609c4b1b78022b01d101f09c
:100664002afa994b1b78032b01d101f029fa9b4bf1
:100674001b689b4a12689b1aa04a934201d800f057
:10068400c1fd904b9e495a5c01325a5400225a8053
:100694008d4b1a7084ac954b1433220023cb23c2a8
:1006a40023cb23c2196811609b88938020000df02e
:1006b400c3fe81b220000df05cff924b1033220088
:1006c40003cb03c21b881380814920000df0cafcb0
:1006d40020000df0b1fe81b220000df04aff764cef
:1006e40020000df0a9fe81b220000df042ff80220f
:1006f4009200002120000df079fe00f07dfd023a09
:10070400934201d101f075f90132934201d000f016
:1007140073fd6f4c10227c49743120000df01cfed7
:1007240020000df089fe0100200009f005ff774a42
:10073400694b1a80f732634b5a80684b1a68684bce
:100744001a6020000df078fe81b220000df011ff38
:1007540000f052fdc022d200934201d101f083fa8d
:1007640001d901f0a2fa023a934201d000f044fd0b
:10077400554b1b78012b01d000f044fd0022524b55
:100784001a70634a4f4b5a8000f03cfd614a934211
:1007940001d101f085fb34d95f4a934201d101f0c4
:1007a40045fc00d9cae0023a934201d101f099fb19
:1007b40001d901f0a4fbf13a934201d000f01cfdf1
:1007c400434c0e225549503120000df0c5fd200048
:1007d4000df032fe0100200009f0aefe504a514bec
:1007e4001a80fb32374b5a803c4b1a684e4b1a60c6
:1007f40020000df021fe81b220000df0bafe00f0c1
:10080400fbfc043a934201d101f0e6fa28d9474aa5
:10081400934201d101f001fb01d901f01ffb2c4ce3
:1008240021224349583120000df096fd20000df09f
:1008340003fe0100200009f07ffe3e4a394b1a8076
:10084400f632204b5a80254b1a68374b1a60200029
:100854000df0f2fd81b220000df08bfe00f0ccfc17
:10086400023a934201d101f096fa0132934201d047
:1008740000f0c2fc164c0f222d49383120000df037
:100884006bfd20000df0d8fd0100200009f054fe9e
:10089400294a244b1a80f8320a4b5a800f4b1a68a3
:1008a400214b1a6020000df0c7fd81b220000df02d
:1008b40060fe00f0a1fcc046d00c0020ec1f00201c
:1008c4000302000034000020900400200104000012
:1008d400d0080020f44f0000fe1f0020d01f00208d
:1008e400941f00200206000003050000745100005c
:1008f400fd040000d00a0020bc1f00208813000063
:100904002a04000074500000f450000005040000a4
:10091400ff05000009060000fd060000f452000077
:1009240001060000f41f0020801f002007060000bd
:10093400745200000606000004060000e54a9342d3
:1009440001d101f0a4fb01d901f0a9fbe24be34979
:100954005a5c01325a5400225a80e14b1a7084ac1a
:10096400e04b1033220023cb23c223cb23c223cb5f
:1009740023c219681160998891809b799371200032
:100984000df05afd81b220000df0f3fdd64b10336b
:10099400220003cb03c21b881380d44920000df02e
:1009a40061fb20000df048fd81b220000df0e1fd57
:1009b400cf4c20000df040fd81b220000df0d9fd98
:1009c40080229200002120000df010fd00f014fca4
:1009d400c84a934201d102f060f800d9d7e1093a3c
:1009e400ff3a934201d101f02dfd00d9ade0f43a74
:1009f400ff3a934201d101f053fc31d9be4a9342ec
:100a040001d101f0b9fc00d984e0023a934201d14a
:100a140001f06afc01d901f08bfcb14b1b78012b6e
:100a240001d000f0effb0022ad4b1a70af4c162240
:100a3400b249243120000df08ffc20000df0fcfca5
:100a44000100200009f078fda34a53880133538044
:100a540020000df0f1fc81b220000df08afdcbe303
:100a6400043a934201d101f0affb29d9a44a93423d
:100a740001d101f0cdfb01d901f0eefb984b1b78bd
:100a8400012b00d0bee30022954b1a70974c0f2225
:100a94009c49383120000df05ffc20000df0ccfca7
:100aa4000100200009f048fd8b4a5388013353802c
:100ab40020000df0c1fc81b220000df05afd9be333
:100ac400023a934201d101f05bfb0132934200d020
:100ad40092e3834b1b78012b00d093e30022804bdd
:100ae4001a70824c2422884920000df035fc200025
:100af4000df0a2fc0100200009f01efd764a538887
:100b04000133538020000df097fc81b220000df0da
:100b140030fd71e380221201934201d101f04ffcb8
:100b24000132934201d101f06cfc033a934200d0ac
:100b340062e36b4b1b78012b00d063e30022684b0c
:100b44001a70724a644b5a805ce3714a934201d131
:100b540001f0d0fd00d882e06e4a934201d101f049
:100b640071fe00d9eae0023a934201d101f00dfe90
:100b740001d901f029fe013a934200d03ce36649d1
:100b84005c3166480cf030fe002801d101f0d3fd41
:100b94000222534b1a70614c20000df04dfc0200f0
:100ba400210053480df0d8fb802292000021200040
:100bb4000df01cfc00225a4b1a60494b1b78022b87
:100bc40001d101f0d8fd464b1b78032b01d101f074
:100bd400d7fd544b1b68544a12689b1a534a9342dc
:100be40000d80fe33c4b3d495a5c01325a54002271
:100bf4005a803b4b1a7084ac4d4b0833220023cbf4
:100c040023c223cb23c203cb03c21b88138020003f
:100c14000df012fc81b220000df0abfc324b10330e
:100c2400220003cb03c21b881380304920000df03f
:100c340019fa20000df000fc81b220000df099fc9f
:100c44002b4c20000df0f8fb81b220000df091fc3c
:100c540080229200002120000df0c8fbcce2043a6f
:100c6400934201d101f0c5fc0fd9902212019342a5
:100c740001d101f0fcfc01d901f01bfd802292009e
:100c840000211b480df0b2fbbce2023a934201d1b1
:100c940001f0e6fb0132934200d0ade2144c200097
:100ca4000df0cafb81b220000df063fc802292009b
:100cb400002120000df09afb1e4b1b881e4a934214
:100cc40001d101f091fc0133034a53800022044b0b
:100cd4001a7091e2ff060000340000202a0400008c
:100ce400900400207453000074500000d0080020c9
:100cf400d00c0020030a00000c070000f45200008e
:100d04000607000074520000f4530000ff070000bf
:100d140002090000ff090000f44f0000d00a00207f
:100d2400bc1f0020d01f0020741f00208813000067
:100d3400f4540000f61f002001080000e14a934229
:100d440001d101f087fd01d901f086fede4c1022ad
:100d5400de49743120000df0fffa20000df06cfb29
:100d64000100200009f0e8fba0221201d84b1a80f0
:100d7400fc32d84b5a80d84b1a68d84b1a602000e2
:100d84000df05afb81b220000df0f3fb34e2d44a9b
:100d9400934201d102f030f800d9b7e0f43a93421b
:100da40001d101f0bafd2ed9ce4a934201d101f00e
:100db400f1fe00d97ee0023a934201d101f08efea9
:100dc40001d901f0affec04c0d22c74934312000d7
:100dd4000df0c2fa20000df02ffb0100200009f0f5
:100de400abfbc24aba4b1a80f132ba4b5a80ba4ba7
:100df4001a68ba4b1a6020000df01efb81b2200065
:100e04000df0b7fbf8e1043a934201d101f0e2fda1
:100e140027d9b74a934201d101f0fdfd01d901f070
:100e24005bfda94c1922b3497c3120000df094fae2
:100e340020000df001fb0100200009f07dfbae4a0b
:100e4400a34b1a80f532a34b5a80a34b1a68a34bc9
:100e54001a6020000df0f0fa81b220000df089fb39
:100e6400cae1023a934201d101f015fd01329342e5
:100e740000d0c1e1944c13229e494c3120000df066
:100e84006bfa20000df0d8fa0100200009f054fba1
:100e94009a4a8f4b1a80f7328e4b5a808e4b1a68bf
:100ea4008e4b1a6020000df0c7fa81b220000df0bd
:100eb40060fba1e1924a934201d101f0adfe01d958
:100ec40001f03dffed3a934200d095e17e4c0e22b5
:100ed4008549743120000df03ffa20000df0acfa82
:100ee4000100200009f028fb864a794b1a80ed3274
:100ef400784b5a80784b1a68784b1a6020000df0b2
:100f04009bfa81b220000df034fb75e17e4a9342d6
:100f140001d102f046f853d97c4a934201d102f040
:100f240089f900d939e1fd3a934201d102f040f93f
:100f340001d202f001f90132934200d05ce1624c2b
:100f440080229200002120000df050fa704e3100f2
:100f54000c311f2220000df0fff920000df06cfa77
:100f640000195c4da91d20220df0f6f93300f26a38
:100f74000492328e2c3304a98a809b798b712000d1
:100f84000df070f82900273120000df06bf82000d7
:100f94000df052fa0100200009f0cefac02212012d
:100fa4005c4b1a80594b6b804b4b1a685a4b1a6036
:100fb40020000df041fa81b220000df0dafa1be1b5
:100fc400fc3a934201d101f060ff00d8bce0534adf
:100fd400934201d101f09aff01d201f077fff93277
:100fe400934200d008e14e495c314e480cf0fcfbc2
:100ff400002801d101f0abff02224b4b1a70494c7f
:1010040020000df019fa0200210048480df0a4f95f
:1010140080229200002120000df0e8f90022444bc8
:101024001a60414b1b78022b01d101f0b0ff3e4bfb
:101034001b78032b01d101f0afff274b1b683d4afe
:1010440012689b1a3c4a934200d8dbe0214b3b498f
:101054005a5c01325a5400225a80334b1a7084acc1
:10106400374b2033220023cb23c223cb23c21b784c
:10107400137020000df0e0f981b220000df079fa30
:10108400304b1033220003cb03c21b8813800e495c
:1010940020000cf0e7ff20000df0cef981b2200013
:1010a4000df067fa214c20000df0c6f981b2200042
:1010b4000df05ffa80229200002120000df096f9d5
:1010c4009ae0c046010a0000d0080020f450000055
:1010d400f21f002034000020d01f00207c1f0020bd
:1010e400fe0a00000e0a0000745500000b0a0000fe
:1010f400080a0000f4540000070a0000050a000072
:10110400fc0a00000f0a0000fd0b0000fc0c0000ac
:10111400f4560000f81f0020881f0020030b000075
:10112400f44f0000d00a002090040020d00c0020ce
:10113400bc1f0020781f0020881300002a04000030
:101144007456000074500000023a934201d101f039
:1011540091fe013293424fd1db4c0d22db496031c9
:1011640020000df0f9f820000df066f901002000d0
:1011740009f0e2f9b0221201d54b1a80fc32d54baa
:101184005a80d54b1a68d54b1a6020000df054f9db
:1011940081b220000df0edf92ee0d14a934201d145
:1011a40002f000f901d202f0d9f80132934223d1be
:1011b4000022cc4b1a7002f004f8c34c0522ca4931
:1011c40020000df0c9f820000df036f901002000d0
:1011d40009f0b2f980225200c44b1a80fc32bd4b94
:1011e4005a80bd4b1a68c24b1a6020000df024f9d6
:1011f40081b220000df0bdf9b64b1b78022b01d152
:1012040002f011f9c5239b009d44f0bdae4c1122a0
:10121400b549103120000df09ff820000df00cf9b5
:101224000100200009f088f981225200af4b1a8096
:10123400fa32a84b5a80a84b1a68ad4b1a602000aa
:101244000df0faf881b220000df093f9d4e79e4c2a
:101254000b22a549303120000df07ef820000df05e
:10126400ebf80100200009f067f9822252009f4b3d
:101274001a80f832974b5a80974b1a689c4b1a6025
:1012840020000df0d9f881b220000df072f9b3e717
:101294008d4c092294493c3120000df05df820006a
:1012a4000df0caf80100200009f046f90622ff32c9
:1012b4008e4b1a80f732874b5a80874b1a688c4bb7
:1012c4001a6020000df0b8f881b220000df051f939
:1012d40092e77d4c12228449483120000df03cf8fd
:1012e40020000df0a9f80100200009f025f983225f
:1012f40052007e4b1a80f632764b5a80764b1a682f
:101304007b4b1a6020000df097f881b220000df09d
:1013140030f971e77449643176480cf065fa0028b5
:1013240001d1fef731ff03226e4b1a70714c20007d
:101334000df082f8020021006f480df00df88022b4
:101344009200002120000df051f800226b4b1a602e
:10135400fef71afffe22ff325e4b5a8052e7ff224d
:1013640052005c4b5a804de7634c20000df064f84a
:1013740081b220000df0fdf85c4b1b8883225200e3
:1013840093420cd00133534a5380802292000021af
:1013940059480df02bf80022524b1a702ce758498b
:1013a4001c3155480cf020fa01004a4ca01d0531af
:1013b40020220cf0d1ff534b6380e6e7454b5249a2
:1013c4005a5c01325a5400225a80464b1a7084ac3b
:1013d4004b4d2b002433220043cb43c243cb43c2a7
:1013e40003cb03c220000df027f881b220000df0da
:1013f400c0f82b001033220003cb03c21b881380d8
:10140400314920000cf02efe20000df015f881b2b9
:1014140020000df0aef8384c20000df00df881b22c
:1014240020000df0a6f880229200002120000cf08c
:10143400ddffe1e68022920000212f480cf0d6ff68
:101444000022284b1a70dde61f4c0c222c49443133
:1014540020000cf081ff20000cf0eeff01002000c2
:1014640009f06af8294a2a4b1a80fb32194b5a8030
:10147400194b1a68274b1a6020000cf0ddff81b26b
:1014840020000df076f8b7e60f4c0e221c495031bf
:1014940020000cf061ff20000cf0ceff01002000c2
:1014a40009f04af81c4a1a4b1a80fa32094b5a803e
:1014b400094b1a68174b1a6020000cf0bdff81b26b
:1014c40020000df056f897e6d0080020f4550000ef
:1014d400f01f002034000020d01f0020781f0020bf
:1014e400fe0c000090040020f44f000000200020b7
:1014f400981f0020d00a0020d00c0020bc1f002020
:1015040074500000ff0100002a04000001020000e2
:10151400ec1f0020701f002002020000eb4c0b2285
:10152400eb49603120000cf017ff20000cf084ff21
:101534000100200009f000f8e64ae74b1a80f9326e
:10154400e64b5a80e64b1a68e64b1a6020000cf012
:1015540073ff81b220000df00cf84de6e2495c31d6
:10156400e2480cf041f9002861d00222e04b1a70e5
:10157400de4c20000cf060ff02002100dd480cf07e
:10158400ebfe80229200002120000cf02fff0022ad
:10159400d94b1a60d64b1b78022b65d0d44b1b78e1
:1015a400032b65d0ce4b1b68ce4a12689b1ad34ad4
:1015b400934200d826e6c94bd1495a5c01325a54a9
:1015c40000225a80ca4b1a7084acc14d2b006c3374
:1015d400220043cb43c243cb43c243cb43c220008c
:1015e4000cf02aff81b220000cf0c3ff2b00103353
:1015f400220003cb03c21b881380b44920000cf0e3
:1016040031fd20000cf018ff81b220000cf0b1ff76
:10161400b84c20000cf010ff81b220000cf0a9ffa0
:1016240080229200002120000cf0e0fee4e5ae49a7
:101634006431ae480cf0d8f80028abd00322ac4b90
:101644001a70aa4c20000cf0f7fe02002100a948f1
:101654000cf082fe80229200002120000cf0c6fed5
:101664000022a54b1a6095e7a64a9c4b5a80c9e50f
:10167400a54a9a4b5a80c5e5a44a984b5a80fef76e
:1016840051ff964b9e495a5c01325a5400225a80ab
:10169400974b1a7084ac9e4b1033220023cb23c289
:1016a40023cb23c203cb03c220000cf0c5fe81b2be
:1016b40020000cf05eff864b1033220003cb03c2e4
:1016c4001b881380814920000cf0ccfc20000cf016
:1016d400b3fe81b220000cf04cff864c20000cf0cd
:1016e400abfe81b220000cf044ff80229200002166
:1016f40020000cf07bfe7fe5744c0b227a493031dc
:1017040020000cf029fe20000cf096fe01002000c1
:1017140008f012ffc02292007e4b1a80fc326f4bfd
:101724005a806f4b1a687c4b1a6020000cf084fec0
:1017340081b220000cf01dff5ee5644c09226a4969
:101744003c3120000cf008fe20000cf075fe010076
:10175400200008f0f1fe714a6e4b1a80fb325f4b99
:101764005a805f4b1a686c4b1a6020000cf064fec0
:1017740081b220000cf0fdfe3ee5544c0c2254498d
:10178400443120000cf0e8fd20000cf055fe01006f
:10179400200008f0d1fe624a5e4b1a80fa324f4ba9
:1017a4005a804f4b1a685c4b1a6020000cf044fec0
:1017b40081b220000cf0ddfe1ee54b4964314b483c
:1017c4000cf012f8002801d1fef7effd0322484b7c
:1017d4001a70464c20000cf02ffe020021004548f0
:1017e4000cf0bafd80229200002120000cf0fefdd6
:1017f4000022414b1a60fef7d8fd4a4a374b5a8003
:1018040000e5494a354b5a80fce43a4c20000cf080
:1018140013fe81b220000cf0acfe80229200002165
:1018240020000cf0e3fd3b4b1b883d4a934206d05d
:1018340001332a4a538000222d4b1a70dce43b4ac0
:10184400264b5a80f7e7254b2d495a5c01325a54ee
:1018540000225a80264b1a7084ac2d4b543322003c
:1018640023cb23c223cb23c203cb03c220000cf01f
:10187400e3fd81b220000cf07cfe154b10332200f6
:1018840003cb03c21b881380104920000cf0eafb31
:1018940020000cf0d1fd81b220000cf06afe154c42
:1018a40020000cf0c9fd81b220000cf062fe802201
:1018b4009200002120000cf099fd9de4802292000a
:1018c40000210c480cf092fd9ce4c046d008002096
:1018d4007450000003020000ec1f002034000020bc
:1018e400d01f0020701f0020f44f0000d00a0020f9
:1018f40090040020d00c0020bc1f0020881300009e
:101904002a040000fd020000fe020000ff020000a5
:10191400f4500000fa1f00208c1f00200103000077
:1019240002030000fd030000fe030000ff030000ab
:10193400ee4c0b22ee49243120000cf00dfd20006a
:101944000cf07afd0100200008f0f6fde94aea4bac
:101954001a80fb32e94b5a80e94b1a68e94b1a604a
:1019640020000cf069fd81b220000cf002fe43e47b
:10197400de4c0b22de49303120000cf0edfc20005f
:101984000cf05afd0100200008f0d6fdde4ada4bc7
:101994001a80fa32d94b5a80d94b1a68d94b1a603b
:1019a40020000cf049fd81b220000cf0e2fd23e49c
:1019b400ce4c0922ce493c3120000cf0cdfc200055
:1019c4000cf03afd0100200008f0b6fdcf4aca4be6
:1019d4001a80f932c94b5a80c94b1a68c94b1a602c
:1019e40020000cf029fd81b220000cf0c2fdfff7ad
:1019f40003fcbe4c0c22c649443120000cf0acfc64
:101a040020000cf019fd0100200008f095fdc14aea
:101a1400b94b1a80f832b94b5a80b94b1a68b94b92
:101a24001a6020000cf008fd81b220000cf0a1fd2a
:101a3400fff7e2fbad4c0f22b749043120000cf054
:101a44008bfc20000cf0f8fc0100200008f074fd71
:101a5400b24aa94b1a80f632a84b5a80a84b1a688e
:101a6400a84b1a6020000cf0e7fc81b220000cf0b7
:101a740080fdfff7c1fb9e496431a9480bf0b4fe19
:101a8400002801d1fef7e7fd0322a64b1a70a44cef
:101a940020000cf0d1fc02002100a3480cf05cfcf7
:101aa40080229200002120000cf0a0fc00229f4b19
:101ab4001a60fef7d0fd9e4a904b5a80fff7a2fbb6
:101ac4009c4a8e4b5a80fff79dfb974c20000cf0ec
:101ad400b3fc81b220000cf04cfd80229200002166
:101ae40020000cf083fc844b1b888c4a934207d063
:101af4000133824a538000228a4b1a70fff77cfb21
:101b04008d4a7e4b5a80f6e77c4b8c495a5c0132f5
:101b14005a5400225a80834b1a7084ac7e4b34335f
:101b2400220023cb23c223cb23c21b881380200093
:101b34000cf082fc81b220000cf01bfd744b1033be
:101b4400220003cb03c21b881380684920000cf0d9
:101b540089fa20000cf070fc81b220000cf009fd21
:101b6400714c20000cf068fc81b220000cf001fde7
:101b740080229200002120000cf038fcfff73cfb8f
:101b840080229200002168480cf030fcfff73afbf9
:101b9400644b1b78012b01d0fff734fb0022614b0f
:101ba4001a70524c1e225c49703120000cf0d4fb98
:101bb40020000cf041fc0100200008f0bdfc4f4a5d
:101bc40053880133538020000cf036fc81b220008e
:101bd4000cf0cffcfff710fb524b1b78012b01d00c
:101be400fff710fb00224f4b1a70404c1e22544941
:101bf400103120000cf0b0fb20000cf01dfc0100a3
:101c0400200008f099fc3d4a53880133538020009a
:101c14000cf012fc81b220000cf0abfcfff7ecfae4
:101c2400404b1b78012b01d0fff7ecfa00223d4b0f
:101c34001a702e4c0f224249303120000cf08cfbdc
:101c440020000cf0f9fb0100200008f075fc3d4a6f
:101c54002a4b5a8020000cf0effb81b220000cf0dc
:101c640088fcfff7c9fa214c12222149483120008f
:101c74000cf072fb20000cf0dffb0100200008f0e8
:101c84005bfcc022d200304b1a80fc321b4b5a80c2
:101c94001b4b1a682d4b1a6020000cf0cdfb81b24f
:101ca40020000cf066fcfff7a7fa104c3022244900
:101cb400403120000cf050fb20000cf0bdfb010073
:101cc400200008f039fc224a1f4b1a80fb320b4bd0
:101cd4005a800b4b1a681d4b1a6020000cf0acfba9
:101ce40081b220000cf045fcfff786fad0080020f2
:101cf400f44f000001040000fe1f00203400002007
:101d0400d01f0020941f00200204000003040000e0
:101d14007450000004040000745100000604000024
:101d2400d00a002090040020d00c0020bc1f00200a
:101d3400fd040000fe040000ff0400002a0400006b
:101d4400f4510000fe050000f41f0020801f002055
:101d540001060000f14c2e22f149703120000cf0f4
:101d6400fbfa20000cf068fb0100200008f0e4fb03
:101d7400ec4aed4b1a80fa32ec4b5a80ec4b1a6861
:101d8400ec4b1a6020000cf057fb81b220000cf0e1
:101d9400f0fbfff731fae14c1522e749203120002e
:101da4000cf0dafa20000cf047fb0100200008f0e8
:101db400c3fbe24adc4b1a80f932dc4b5a80dc4b21
:101dc4001a68dc4b1a6020000cf036fb81b220004c
:101dd4000cf0cffbfff710fad04c0f22d649483154
:101de40020000cf0b9fa20000cf026fb01002000c2
:101df40008f0a2fbd24acc4b1a80f732cb4b5a8064
:101e0400cb4b1a68cb4b1a6020000cf015fb81b247
:101e140020000cf0aefbfff7eff9c04c2622c649b8
:101e24007c3120000cf098fa20000cf005fb010036
:101e3400200008f081fbc34abb4b1a80f532bb4b30
:101e44005a80bb4b1a68bb4b1a6020000cf0f4faa2
:101e540081b220000cf08dfbfff7cef9af4c1622b7
:101e6400b949243120000cf077fa20000cf0e4fa90
:101e74000100200008f060fbc122d200aa4b1a80a6
:101e8400f432aa4b5a80aa4b1a68aa4b1a60200053
:101e94000cf0d2fa81b220000cf06bfbfff7acf926
:101ea4009e4c1222a8493c3120000cf055fa200027
:101eb4000cf0c2fa0100200008f03efba34a9a4b42
:101ec4001a80f332994b5a80994b1a68994b1a60cd
:101ed40020000cf0b1fa81b220000cf04afbfff7ad
:101ee4008bf99b4b1b78012b01d0fff78bf9002258
:101ef400974b1a70974a8d4b5a80fff783f996498e
:101f04005c3196480bf070fc002868d00222904b9c
:101f14001a70924c20000cf08ffa020021009048b5
:101f24000cf01afa80229200002120000cf05efad4
:101f340000228c4b1a60864b1b78022b6cd0844b8e
:101f44001b78032b6dd07a4b1b687a4a12689b1a54
:101f5400854a934201d8fff755f9744b83495a5c7b
:101f640001325a5400225a80794b1a7084ac764b51
:101f74006033220023cb23c223cb23c223cb23c22f
:101f840003cb03c2198811809b78937020000cf056
:101f940053fa81b220000cf0ecfa754b1033220096
:101fa40003cb03c21b8813805c4920000cf05af851
:101fb40020000cf041fa81b220000cf0dafa684cef
:101fc40020000cf039fa81b220000cf0d2fa802201
:101fd4009200002120000cf009fafff70df95e4988
:101fe40064315e480bf000fc0028a4d00322584b57
:101ff4001a705a4c20000cf01ffa020021005848b5
:102004000cf0aaf980229200002120000cf0eef9d5
:102014000022544b1a608ee7564a444b5a80fff70d
:10202400f1f8554a414b5a80fff7ecf8c023db0026
:102034003d4a12889a421ad0494c20000cf0fcf90f
:1020440081b220000cf095fa802292000021200039
:102054000cf0ccf9344b1b883c4a934213d0013327
:10206400324a538000223a4b1a70fff7c5f84049b0
:102074001c313b480bf0b8fb411d20222b48063095
:102084000cf06af9d8e7334a284b5a80eae78022f1
:102094009200002132480cf0a9f9fff7b3f81f4c65
:1020a40030221f49403120000cf056f920000cf07a
:1020b400c3f90100200008f03ffa1c4a5388013399
:1020c400538020000cf0b8f981b220000cf051fad2
:1020d400fff792f81e4b1b78012b01d0fff792f803
:1020e40000221b4b1a700d4c122224493c31200053
:1020f4000cf032f920000cf09ff90100200008f0e8
:102104001bfa0a4a53880133538020000cf094f9d7
:1021140081b220000cf02dfafff76ef8d0080020f1
:10212400f451000002060000f41f002034000020d7
:10213400d01f0020801f00207452000003060000fe
:102144000506000007060000f4520000090600001e
:1021540090040020ff060000f44f0000d00a002085
:10216400d00c0020bc1f0020881300002a040000ab
:1021740074500000fd060000fe06000074530000c9
:10218400f04b1b78012b01d0fff73cf80022ed4bfc
:102194001a70ed4c2e22ed49503120000cf0dcf881
:1021a40020000cf049f90100200008f0c5f9e84ac4
:1021b40053880233538020000cf03ef981b2200092
:1021c4000cf0d7f9fff718f8de4b1b78012b01d080
:1021d400fff718f80022db4b1a70db4c1e22dd4996
:1021e400243120000cf0b8f820000cf025f901008f
:1021f400200008f0a1f9d64a538801335380200007
:102204000cf01af981b220000cf0b3f9fef7f4ffd8
:10221400cc4b1b78012b01d0fef7f4ff0022c94bf5
:102224001a70c94c0f22cc49483120000cf094f8a4
:1022340020000cf001f90100200008f07df9c44ae7
:1022440053880133538020000cf0f6f881b220004b
:102254000cf08ff9fef7d0ffba4b1b78012b01d09d
:10226400fef7d0ff0022b74b1a70b74c3d22b94994
:10227400443120000cf070f820000cf0ddf801006f
:10228400200008f059f9b24a5388013353802000e2
:102294000cf0d2f881b220000cf06bf9fef7acff21
:1022a400a84b1b78012b01d0fef7acff0022a54bf5
:1022b4001a70a54c2622a8497c3120000cf04cf859
:1022c40020000cf0b9f80100200008f035f9a04a0c
:1022d40053880133538020000cf0aef881b2200003
:1022e4000cf047f9fef788ff964b1b78012b01d0c1
:1022f400fef788ff0022934b1a70934c10229749e3
:10230400043120000cf028f820000cf095f80100ae
:10231400200008f011f98e4a5388013353802000bd
:102324000cf08af881b220000cf023f9fef764ff68
:10233400844b1b78012b01d0fef764ff0022814bf4
:102344001a70814c0f228549143120000cf004f8d6
:1023540020000cf071f80100200008f0edf87c4a30
:1023640053880133538020000cf066f881b22000ba
:102374000cf0fff8fef740ff724b1b78012b01d0e5
:10238400fef740ff00226f4b1a706f4c0e22744907
:10239400503120000bf0e0ff20000cf04df801005c
:1023a400200008f0c9f86f4a694b5a8020000cf0ed
:1023b40043f881b220000cf0dcf8fef71dff624cfc
:1023c4000f226649143120000bf0c6ff20000cf0e8
:1023d40033f80100200008f0aff880221201624bac
:1023e4001a80fc325a4b5a80604b1a68604b1a6050
:1023f40020000cf021f881b220000cf0baf8fef7ae
:10240400fbfe514c0f225549243120000bf0a4ff50
:1024140020000cf011f80100200008f08df8554a56
:10242400514b1a80fb324a4b5a80504b1a68504b1e
:102434001a6020000cf000f881b220000cf099f82a
:10244400fef7dafe3f4b1b78012b01d0fef7dafed4
:1024540000223c4b1a70484a3d4b5a80fef7d2fe8c
:1024640046495c3146480bf0bff9002800d193e09f
:102474000222344b1a70424c20000bf0ddff0200a4
:10248400210040480bf068ff8022920000212000c8
:102494000bf0acff00223c4b1a602a4b1b78022b3a
:1024a40000d197e0274b1b78032b00d197e02f4beb
:1024b4001b682f4a12689b1a344a934201d8fef7cc
:1024c400a1fe234b32495a5c01325a5400225a80ed
:1024d4001c4b1a7084ac214b3433220023cb23c20f
:1024e40023cb23c223cb23c2196811601b79137138
:1024f40020000bf0a1ff81b220000cf03af8254b2c
:102504001033220003cb03c21b8813800e49200022
:102514000bf0a8fd20000bf08fff81b220000cf01f
:1025240028f8184c20000bf087ff81b220000cf033
:1025340020f880229200002120000bf057fffef7c4
:102544005bfec04690040020d008002074530000b5
:1025540034000020f453000074520000745400004e
:10256400f4520000fe070000f61f0020d01f0020d8
:10257400841f002001080000ff080000f44f000041
:10258400d00a0020d00c0020bc1f002088130000bb
:102594002a04000074500000f0496431f0480bf044
:1025a40023f9002800d178e70322ee4b1a70ec4c93
:1025b40020000bf041ff02002100eb480bf0ccfea1
:1025c40080229200002120000bf010ff0022e74b34
:1025d4001a6062e7e64ae74b5a80fef713fee64ac2
:1025e400e44b5a80fef70efee44ae24b5a80fef7b3
:1025f4006dfbe04be2495a5c01325a5400225a8086
:10260400d84b1a7084acdf4b6033220023cb23c237
:1026140023cb23c223cb23c21b78137020000bf0df
:102624000bff81b220000bf0a4ffd74b1033220024
:1026340003cb03c21b881380d44920000bf012fd86
:1026440020000bf0f9fe81b220000bf092ffc64c83
:1026540020000bf0f1fe81b220000bf08aff8022f3
:102664009200002120000bf0c1fefef7c5fdc74c0f
:102674001022c749743120000bf06efe20000bf0cd
:10268400dbfe0100200007f057ff90221201c14b2e
:102694001a80fc32b74b5a80bf4b1a68bf4b1a6082
:1026a40020000bf0c9fe81b220000bf062fffef7a0
:1026b400a3fdb64c0f22ba49043120000bf04cfea6
:1026c40020000bf0b9fe0100200007f035ffb54ae9
:1026d400b04b1a80fb32a74b5a80af4b1a68af4bf2
:1026e4001a6020000bf0a8fe81b220000bf041ff1d
:1026f400fef782fda54c0e22a349503120000bf0b9
:102704002bfe20000bf098fe0100200007f014ffc0
:10271400a54aa04b1a80fa32964b5a809e4b1a68ef
:102724009e4b1a6020000bf087fe81b220000bf054
:1027340020fffef761fd8949643189480bf054f8a4
:10274400002801d1fef739fa0322864b1a70844c13
:1027540020000bf071fe0200210083480bf0fcfd09
:1027640080229200002120000bf040fe00227f4bcb
:102774001a60fef722fa8d4a7e4b5a80fef742fd1c
:102784008b4a7c4b5a80fef73dfd774c20000bf0c2
:1027940053fe81b220000bf0ecfe80229200002157
:1027a40020000bf023fe7b4b1b887e4a934207d00c
:1027b4000133704a538000226a4b1a70fef71cfde5
:1027c4007c4a6c4b5a80f6e76a4b6d495a5c01327d
:1027d4005a5400225a80634b1a7084ac764b2c33c3
:1027e400220023cb23c223cb23c2196811609b8808
:1027f400938020000bf020fe81b220000bf0b9fe84
:10280400614b1033220003cb03c21b8813805f4942
:1028140020000bf027fc20000bf00efe81b22000fc
:102824000bf0a7fe504c20000bf006fe81b22000f6
:102834000bf09ffe80229200002120000bf0d6fdb9
:10284400fef7dafc80229200002147480bf0cefd0f
:10285400fef7d8fc4d4c0f225149043120000bf0f7
:102864007bfd20000bf0e8fd0100200007f064fe72
:10287400524a534b1a80fb323e4b5a80464b1a68dd
:10288400504b1a6020000bf0d7fd81b220000bf0f2
:1028940070fefef7b1fc3d4c0e223b495031200046
:1028a4000bf05afd20000bf0c7fd0100200007f0db
:1028b40043fe454a424b1a80f8322e4b5a80364b1f
:1028c4001a68404b1a6020000bf0b6fd81b220005c
:1028d4000bf04ffefef790fc2c4c0f2229491431cb
:1028e40020000bf039fd20000bf0a6fd01002000b4
:1028f40007f022fe354a324b1a80f3321d4b5a80c0
:10290400254b1a682f4b1a6020000bf095fd81b2fd
:1029140020000bf02efefef76ffc1c4c0f22194911
:10292400243120000bf018fd20000bf085fd010080
:10293400200007f001fe264a214b1a80f2320d4b8b
:102944005a80154b1a681f4b1a6020000bf074fd57
:1029540081b220000bf00dfefef74efcf44f000098
:10296400d00a002090040020d00c0020bc1f0020be
:10297400fd08000034000020fe080000ff080000ed
:102984002a0400007454000074500000d008002091
:10299400f4500000ee1f0020d01f0020741f002000
:1029a400745100000109000002090000fd09000043
:1029b400fe090000ff090000f4540000010a0000b1
:1029c400f21f00207c1f0020040a0000090a0000f6
:1029d4000a0a0000e94c1922e949603120000bf091
:1029e400bbfc20000bf028fd0100200007f0a4fd33
:1029f400e44ae54b1a80f632e44b5a80e44b1a68f9
:102a0400e44b1a6020000bf017fd81b220000bf09c
:102a1400b0fdfef7f1fbd94c1922df491831200033
:102a24000bf09afc20000bf007fd0100200007f0da
:102a340083fdda4ad44b1a80f432d44b5a80d44bf7
:102a44001a68d44b1a6020000bf0f6fc81b2200007
:102a54000bf08ffdfef7d0fbc84c2e22d04970310d
:102a640020000bf079fc20000bf0e6fc01002000b4
:102a740007f062fdcb4ac44b1a80fa32c34b5a802a
:102a8400c34b1a68c34b1a6020000bf0d5fc81b20b
:102a940020000bf06efdfef7affbb84c1222c249ca
:102aa4003c3120000bf058fc20000bf0c5fc010069
:102ab400200007f041fdbd4ab34b1a80f932b34bf5
:102ac4005a80b34b1a68b34b1a6020000bf0b4fc65
:102ad40081b220000bf04dfdfef78efba74c0e22b9
:102ae400b149503120000bf037fc20000bf0a4fc5e
:102af4000100200007f020fdad4aa34b1a80f032fc
:102b0400a24b5a80a24b1a68a24b1a6020000bf009
:102b140093fc81b220000bf02cfda6480af070fc57
:102b2400fef76afb954c9c4d290044311a22200083
:102b34000bf012fc20000bf07ffc0019934eb11d2a
:102b440020220bf009fc04a92b0060330a0021cbde
:102b540021c21b78137020000bf084fa20000bf0c4
:102b64006bfc0100200007f0e7fc934a864b1a80b7
:102b7400924b7380864b1a68864b1a6020000bf0c8
:102b84005bfc81b220000bf0f4fc8d480af038fca9
:102b9400fef732fb794c80229200002120000bf0da
:102ba40025fc04ae6422002130000bf01ffc7a4d9a
:102bb400290044311a2220000bf0cefb20000bf038
:102bc4003bfc0019714fb91d20220bf0c5fb2b00f3
:102bd4006c33320003cb03c2310020000bf042fa05
:102be40020000bf029fc0100200007f0a5fc754a29
:102bf400654b1a80714b7b80654b1a68654b1a6074
:102c040020000bf019fc81b220000bf0b2fc6c48e0
:102c14000af0f6fbfef7f0fa6b495c316b480af0f8
:102c2400e3fd002864d00222694b1a70674c20002f
:102c34000bf002fc0200210066480bf08dfb8022a1
:102c44009200002120000bf0d1fb0022624b1a609d
:102c54005f4b1b78022b68d05d4b1b78032b69d02c
:102c64004b4b1b684b4a12689b1a5c4a934201d82f
:102c7400fef7c8fa454b5a495a5c01325a540022ad
:102c84005a80534b1a7084ac564b0433220023cb26
:102c940023c223cb23c223cb23c223cb23c22000b2
:102ca4000bf0cafb81b220000bf063fc4e4b1033d7
:102cb400220003cb03c21b881380304920000bf091
:102cc400d1f920000bf0b8fb81b220000bf051fccd
:102cd400404c20000bf0b0fb81b220000bf049fc0b
:102ce40080229200002120000bf080fbfef784fa82
:102cf4003549643135480af077fd0028a8d003220d
:102d0400334b1a70314c20000bf096fb020021006b
:102d140030480bf021fb80229200002120000bf0b0
:102d240065fb00222c4b1a6092e7304a174b5a80fd
:102d3400fef768fa2e4a154b5a80fef763fa254cc3
:102d440020000bf079fb81b220000bf012fc8022f2
:102d54009200002120000bf049fb0b4b1b88194a01
:102d6400934207d00133094a53800022184b1a704a
:102d7400fef742fa1f4a054b5a80f6e7d0080020b6
:102d8400f4540000060a0000f21f00203400002062
:102d9400d01f00207c1f002074550000080a00008a
:102da400f4510000020a0000f4520000030a00007b
:102db4000c0a0000881300000d0a0000fc0a000041
:102dc400b80b00000e0a0000f44f0000d00a0020e7
:102dd40090040020d00c0020bc1f0020102700000d
:102de4002a040000f455000074500000fd0a00009d
:102df400fe0a0000ff0a0000f54bf6495a5c013256
:102e04005a5400225a80f44b1a7084acf34b343376
:102e1400220023cb23c223cb23c223cb23c203cb45
:102e240003c220000bf008fb81b220000bf0a1fbd1
:102e3400eb4b1033220003cb03c21b881380e949f8
:102e440020000bf00ff920000bf0f6fa81b22000fd
:102e54000bf08ffbe44c20000bf0eefa81b2200063
:102e64000bf087fb80229200002120000bf0befab9
:102e7400fef7c2f90021d74bd54ad15480229200e3
:102e8400d9480bf0b3fafef7bdf9d64c0d22d3495d
:102e9400703120000bf060fa20000bf0cdfa010035
:102ea400200007f049fbd14ad14b1a80fb32c84bb2
:102eb4005a80d04b1a68d04b1a6020000bf0bcfa31
:102ec40081b220000bf055fbfef796f9c54c112298
:102ed400ca4920000bf040fa20000bf0adfa0100c3
:102ee400200007f029fbc64ac14b1a80fa32b84bbe
:102ef4005a80c04b1a68c04b1a6020000bf09cfa31
:102f040081b220000bf035fbfef776f9b54c0c22ac
:102f1400ba49143120000bf01ffa20000bf08cfa90
:102f24000100200007f008fbb64ab14b1a80f932c1
:102f3400a74b5a80af4b1a68af4b1a6020000bf0b6
:102f44007bfa81b220000bf014fbfef755f9ae4971
:102f54006431ae480af048fc002801d1fef761f85c
:102f640003229d4b1a70a94c20000bf065fa020055
:102f740021009d480bf0f0f98022920000212000ee
:102f84000bf034fa0022a24b1a60fef74af8a14a69
:102f94008f4b5a80fef736f99f4a8d4b5a80fef7c5
:102fa40031f9914c20000bf047fa81b220000bf06c
:102fb400e0fa8f4b1b88934a934207d00133844a2b
:102fc40053800022844b1a70fef716f98b493c316a
:102fd40085480af009fc002800d180e003300bf09a
:102fe400c3fa07f0c5fd051c844940317e480af048
:102ff400fbfb00287dd003300bf0b6fa07f0b8fdd8
:10300400041c7e49483178480af0eefb002800d1c0
:103014008de0824e1422002130000bf0e7f91422d7
:1030240000217f480bf0e2f97e49281c06f05cfb86
:103034000af064fa0300642701907b43180009f046
:1030440003f9011c281c05f02bfa02907549201c79
:1030540006f04afb0af052fa05004743380009f02b
:10306400f3f8011c201c05f01bfa03906e4902982a
:1030740006f03afb041c019809f0e6f8011c201c38
:1030840005f088fb08f008fe02000b005b4f3c00d3
:103094004c34210030000af0f3f96349039806f038
:1030a40023fb0190280009f0cff8011c019805f0da
:1030b40071fb08f0f1fd02000b00210058480af0f2
:1030c400dff939005431564b320084a80af0d8f99c
:1030d40084a80bf0b1f981b284a80bf04afa8022db
:1030e4009200002140480bf081f9504a384b5a8035
:1030f40067e780231b069c466544404e31004431fb
:10310400394f38000af070fb03300bf02dfa07f04a
:103114002ffd041c3100483138000af065fb0028fb
:1031240000d076e780231b069c46644471e7802325
:103134001b069c4664446ce7254b26495a5c0132c5
:103144005a5400225a80244b1a7084ac2b4b74338b
:10315400220023cb23c203cb03c21b7813702000ad
:103164000bf06af981b220000bf003fa1c4b103308
:10317400220003cb03c21b8813801a4920000af0e3
:1031840071ff20000bf058f981b220000bf0f1f927
:10319400154c20000bf050f981b220000bf0e9f936
:1031a40080229200002120000bf020f9fef724f881
:1031b4008022920000210c480bf018f91c4a044ba1
:1031c4005a80034b1b78022b01d0fef71bf831e128
:1031d400340000202a04000090040020f45500006c
:1031e40074500000d0080020d00c0020010b000017
:1031f400f01f0020d01f0020781f0020745600000c
:10320400020b0000030b0000f44f0000d00a002062
:10321400bc1f0020fd0b0000fe0b00006804002012
:103224007c0400200000c84200007042ff0b000034
:10323400ff0c0000e6495c31e6480af0d5fa0028a4
:1032440065d00222e44b1a70e24c20000bf0f4f833
:1032540002002100e1480bf07ff880229200002157
:1032640020000bf0c3f80022dd4b1a60da4b1b7808
:10327400022b69d0d84b1b78032b6ad0d94b1b681f
:10328400d94a12689b1ad94a934201d8fdf7baff6a
:10329400d74bd8495a5c01325a54d74a5a80002233
:1032a400cd4b1a7084acd54b3433220023cb23c2cc
:1032b40023cb23c223cb23c21b88138020000bf013
:1032c400bbf881b220000bf054f9cd4b103322002f
:1032d40003cb03c21b881380ca4920000af0c2fe34
:1032e40020000bf0a9f881b220000bf042f9bb4c8e
:1032f40020000bf0a1f881b220000bf03af98022f3
:103304009200002120000bf071f8fdf775ffb04921
:103314006431b0480af068fa0028a7d00322ae4b03
:103324001a70ac4c20000bf087f802002100ab4867
:103334000bf012f880229200002120000bf056f8c6
:103344000022a74b1a6091e7af4aa94b5a80fdf7b8
:1033540059ffae4aa64b5a80fdf754ff0021a54bf6
:10336400a34ad1549d4c20000bf066f881b2200092
:103374000bf0fff8a64b1b88c022120193420dd01c
:1033840001339b4a538080229200002193480bf022
:103394002df80022904b1a70fdf72eff964a944b9d
:1033a4005a80f0e7924b93495a5c01325a54924a3c
:1033b4005a800022884b1a7084ac904b5c332200f4
:1033c40023cb23c223cb23c219681160998891802f
:1033d4009b79937120000bf02ff881b220000bf041
:1033e400c8f8874b1033220003cb03c21b88138019
:1033f400844920000af036fe20000bf01df881b24b
:1034040020000bf0b6f8754c20000bf015f881b2d3
:1034140020000bf0aef880229200002120000af078
:10342400e5fffdf7e9fe744b714a52889a4201d0d8
:10343400fdf7e8fe6e4b9b88764a934259d015d926
:10344400754a934200d18be100d21be101329342d1
:1034540001d0fdf7d7fe8022920000215f480af0d8
:10346400c5ff00225c4b1a70fdf7ccfefc3a934278
:1034740025d00132934201d0fdf7c4fe614c0e22e7
:103484006649103120000af067ff20000af0d4ffdb
:103494000100200007f050f8614a624b1a80fb32a9
:1034a400534b9a804f4b1a685f4b1a6020000af006
:1034b400c3ff81b220000bf05cf8fdf7a3fe4f4977
:1034c4007c3144480af090f90c30040053490c3123
:1034d4000af08af9002801d1fdf794fe20000bf0d0
:1034e4001ff8434b8a22920098524d4a9a80fdf766
:1034f40089fe37495c3137480af076f9002800d153
:1035040098e00222344b1a70324c20000af094ffe7
:103514000200210031480af01fff8022920000219e
:1035240020000af063ff00222d4b1a602a4b1b78ff
:10353400022b00d19ce0284b1b78032b00d19ce08c
:10354400284b1b68384a12689b1a284a934201d8b0
:10355400fdf758fe0022204b1a70254b33495a5c64
:1035640001325a54324a9a8084ac2c4b20332200c4
:1035740023cb23c223cb23c21b88138020000af051
:103584005bff81b220000af0f4ff1d4b10332200d0
:1035940003cb03c21b8813801a4920000af062fd82
:1035a40020000af049ff81b220000af0e2ff0b4c30
:1035b40020000af041ff81b220000af0daff8022e5
:1035c4009200002120000af011fffdf71bfec04607
:1035d400f44f0000d00a002090040020d00c0020fa
:1035e400bc1f0020d01f0020881f002010270000cf
:1035f400340000202a040000ff0c0000f4560000f0
:1036040074500000d0080020fd0c0000fe0c0000e7
:10361400f81f0020fc800000fe80000074570000aa
:103624000180fffffc1f0020901f00202b040000de
:103634000080ffff6949643169480af0d5f8002821
:1036440000d173e70322674b1a70654c20000af01f
:10365400f3fe0200210064480af07efe80229200fc
:10366400002120000af0c2fe0022604b1a605de7d0
:103674005f4a604b9a80fdf7c5fd5f4a5d4b9a80b7
:10368400fdf7c0fd5d4c21003c31574d28000af088
:10369400abf806002100443128000af0a5f8002efa
:1036a4004bd0564c21004c314f4e30000af09cf860
:1036b400c51c2100503130000af096f8504c421bd2
:1036c400290020000af048fe4e4b9c466444012227
:1036d4004d4be25400224d4be25404ac474d2b00b9
:1036e4005833220003cb03c21b78137044492000d3
:1036f4000af0b8fc20000af09ffe201829000c31c3
:1037040003220af029fe20000af096fe81b220006e
:103714000af02fff3e4b1b883e4a934210d00133e0
:10372400344a93808022920000212f480af05efee2
:1037340000222c4b1a70fdf765fd0028b1d1cce7af
:103744002c498a2292008b5a013b9bb28b52002b4c
:1037540002d1314a8a80e5e7304a264b9a80e1e774
:103764000022204b1a70234b28495a5c01325a54c8
:10377400294a9a8084ac214b6433220023cb23c290
:1037840003cb03c21b88138020000af055fe81b2cc
:1037940020000af0eefe224b1033220003cb03c2ba
:1037a4001b8813801f4920000af05cfc20000af0eb
:1037b40043fe81b220000af0dcfe0b4c20000af02c
:1037c4003bfe81b220000af0d4fe80229200002148
:1037d40020000af00bfefdf715fdc046f44f000073
:1037e400d00a002090040020d00c0020bc1f002030
:1037f400fd80ffff34000020fe80ffff74570000af
:103804005e020020d6fdffff270200002b0400000b
:10381400fc1f0020018000000080ffff0180ffffeb
:0838240074500000d0080020e0
:020000040000fa
:10382c00f0b5a5b007930023049007982093069158
:10383c001a920af0d9fe050000680af0f9fd00267c
:10384c000027069b05901f931f9b1a780d2a39d8c9
:10385c00092a3dd2002a44d00023129300221f9c37
:10386c000c922378302b00d07ee06378582b02d05a
:10387c00782b00d06ee0079bb74a0293129b1fa9ce
:10388c00019320ab0093049821ab03f095fd072521
:10389c000590054005d0062d2fd1002301341f942f
:1038ac0012931a9b002b02d01a9b1f9a1a60129b20
:1038bc00002b1dd0802332001b06fb1810001900b2
:1038cc0025b0f0bd2b2a05d02d2a14d0202ac3d127
:1038dc000133b8e7002212925a1c1f925b78002b1e
:1038ec00bcd1069b1f93002312931a9b002bdbd198
:1038fc0032003b00e2e70122ede7209a002a07d0d4
:10390c00352122a80af04ef82099049809f006fff8
:10391c00681e042806d80af0d7fc0c0317190c00f3
:10392c00229e239f059b1b07bbd580231b061f4391
:10393c00b7e7239b894a8a491a40219b229e5b1830
:10394c001b051a431700ede7864febe70126864f60
:10395c007642e7e71f9b5a1c1f925b78302bf9d0fd
:10396c00002b9ed001230c931f9b0a221393002340
:10397c000b930a9308931f9804782300303bd9b219
:10398c00092926d9059a29680af04ffa002832d05d
:10399c00002023008446089a0790059220221900e3
:1039ac0091430a000021452a00d0a7e0059b0c9a00
:1039bc00034313438b4294d01f9b069301331f93f5
:1039cc00069b5b782b2b71d00c002d2b74d1012412
:1039dc006de00899082909dc0a9951435b180a9390
:1039ec00089b0130013308931f90c4e70b99514396
:1039fc005b180b93f4e71f9a059b9446089a634453
:103a0c001f931b78002a49d11000302b28d01a00a4
:103a1c00313a082a46d8844600201f9a0590139202
:103a2c00303b421c002b0fd00a219444059a1018ed
:103a3c0082421bd1511c0591082a25dc0a220a99c5
:103a4c004a439b1800220a9310001f9b591c1f917c
:103a5c005b781a00303a092ae2d9012207929de7d5
:103a6c001f9b01305a1c1f925b78cee70132541e0b
:103a7c00082c03dc0a9c4c430a94d9e7102ad7dca7
:103a8c000b9c4c430b94d3e7059900221029dbdceb
:103a9c000a210b9841435b180b93d5e7089a84468f
:103aac000592d6e7002294460592d6e70c00069bb9
:103abc0002331f93069b9b781a00303a092a60d870
:103acc00302b43d01a00313a0021082a16d8303b4b
:103adc001f9d0e931f9b591c1f915b781a00303a47
:103aec00092a47d94a1b214d2900082a03dc0e99c3
:103afc00a94200dd2900002c00d04942059a002a79
:103b0c0063d10c9a104300d0cbe6079a002a00d060
:103b1c00e7e64e2b3ed038dc492b00d0e1e6144cc6
:103b2c001fa821000af022f8002800d1d9e61f9b1b
:103b3c00e11c013b1fa81f930af018f8002802d1c2
:103b4c001f9b01331f93074f0026aae61f9b5a1c8d
:103b5c001f925b78b4e7c046fce20000ffffefff6a
:103b6c00330400000000f07fffffff7f1f4e0000ba
:103b7c0030e500000a220e994a43d218303a0e92d0
:103b8c00a8e7069a00211f92b8e7692bc7d06e2bc5
:103b9c0000d0a6e68b491fa8093109f0e7ff0028e1
:103bac0000d19ee61f9b1b78282b0cd122aa86499c
:103bbc001fa806f087fa052805d1239b834a229e6d
:103bcc001a4317006de6824fbee76346cb1a079384
:103bdc00089b002b01d1059b0893059c102c00dd44
:103bec0010240a9808f04aff06000f00092c15dd76
:103bfc002200784b093ad2009b181a685b6804f0d3
:103c0c0039fa06000b980f0008f038ff02000b0081
:103c1c003000390002f0a4fb06000f00059b0f2baf
:103c2c0039dc079b002b00d13be626dd162b0bdc89
:103c3c006849db00c9183200086849683b0004f089
:103c4c0019fa06000f002ce62523059a9b1a079af1
:103c5c009a4220dc0f24059b5e4de41ae1006918a2
:103c6c003200086849683b0004f004fa079b1c1bef
:103c7c00e4002c1922686368e1e7079b16330adb22
:103c8c00079b3000da00534b39009b1a1a685b68ab
:103c9c0003f0f0f8d5e7059b1c1b079be418002ce0
:103cac006edd0f2323400ad04a49db00c9183200cd
:103cbc00086849683b0004f0ddf906000f000f238b
:103ccc009c4348d02633ff339c4221dd00240594cd
:103cdc000a94079422230026049a3c4f13600a9bf3
:103cec00b34200d1dde52099049809f017fd07993e
:103cfc00049809f013fd0599049809f00ffd0a9931
:103d0c00049809f00bfd2100049809f007fdc8e5a3
:103d1c000023300039001d002411012c1edc002b67
:103d2c0001d006000f002c4bed00ff182b4b32007e
:103d3c005d19286869683b0004f09cf9234b0f005f
:103d4c000b40274906008b42c0d826498b4213d919
:103d5c000126254f76420023069373e0012214427c
:103d6c0007d01e4aeb009b181a685b6804f082f9b6
:103d7c00012301356410d0e7d4239b04ff18eae734
:103d8c00002ce8d00f23644223400ad0114adb00f8
:103d9c00d31830001a685b68390003f06bf8060022
:103dac000f002411d7d01f2c20dd002405940a9479
:103dbc0007942223049a002613600a9b0027002be9
:103dcc0091d16ee530e5000010e300000000f07fbb
:103ddc000000f8ff38b500000000b0fca0db0000cc
:103dec000000a07c0000907cffffef7f102323409d
:103dfc00069301d06a230693300039000023ca4d84
:103e0c00002c00dd03e1002b01d006000f00069b07
:103e1c00002b0fd06b237900490d3a005b1a002b55
:103e2c0008dd1f2b00dc04e10026342b00dcf9e05c
:103e3c00dc27bf04002200233000390008f0cafb45
:103e4c000028b2d10a9b089a00931399059b0498f9
:103e5c0008f078fa0a90002800d137e7079b002475
:103e6c00da175b421a40079b1592db43079adb1764
:103e7c001a40139205940a9b0498596808f0c0fce8
:103e8c000790002800d125e70a9b0a991b690c3181
:103e9c009a1c92000c3008930af05afa22ab019348
:103eac0021ab009332003b0004980e960f9707f05d
:103ebc00b7fc2090002800d10ce7012104980af0ef
:103ecc0050fa0590002800d104e7219b002b00da62
:103edc00b4e0159ad518139a94460699229a5b1a4f
:103eec0036219b189148013b8a1a0121834200db41
:103efc00b0e0c01a121a1f2800dda4e08140002394
:103f0c0014910c93ab1808931300069a6344d318be
:103f1c00089a0b932b00954200dd13000b9a9342e9
:103f2c0000dd1300002b06dd089aed1ad21a089258
:103f3c000b9ad21a0b92159b002b17d01a000599cd
:103f4c00049807f0b7fd0590002800d1c2e60100e7
:103f5c00209a049806f04df91b90002800d1b9e680
:103f6c002099049809f0dafb1b9b2093089b002beb
:103f7c0073dc139b002b79d10b9b002b08dd1a00f3
:103f8c000799049807f0f4fc0790002800d1a1e6eb
:103f9c00002d08dd2a000599049807f0e9fc05902e
:103fac00002800d196e6079a2099049807f058fa51
:103fbc00041e00d18ee60025c3680599c5600b93dd
:103fcc0009f0c5fba8425bda0b9bab421bd1ae429e
:103fdc0019d13b03ab4216d1d622554bd2043b40f0
:103fec00934210d96369ab4202d12369012b0adddc
:103ffc0021000122049807f0bbfc0599040009f08c
:10400c00a6fb00286cdc069b002b78d16be601220a
:10401c00144204d02a686b6804f02cf80123641055
:10402c000835ede60121203b494299400a40170032
:10403c0000e7012252429a401640fbe6139a159d66
:10404c00d21a944649e73b48c31a080098400c9092
:10405c00149157e700230c93fae7089a20990498d7
:10406c0007f086fc2090002883d133e6139a079939
:10407c00049807f01ffd0790002800d07ce729e684
:10408c00002800d095e00b9a3b03002a24d02a4943
:10409c003a001b0b8b425ed1069b0138b4460100e3
:1040ac00002b0ad0d425224bed043b40ab4204d864
:1040bc006b211b0dcb1a0100994061454bd11f4b55
:1040cc009a4202d14b1c00d104e6194b00261a402f
:1040dc0080235b03d71896e7002b3cd1002e3ad1f6
:1040ec00069a134b002a2dd01a00d6213a40c90447
:1040fc008a4227dcdc239b049a4200dc59e6104bf5
:10410c0030001193002310933900109a119b03f087
:10411c00b1ff06000f1e00d0e5e5002800d0e2e557
:10412c002223049a1360dee528db000002fcffff6b
:10413c000000f07fe2fbffffffff0f00ffffef7fb0
:10414c00000050390126a94a3b409b18a84a7642e8
:10415c001a43170057e70c9b002b13d03b4200d19e
:10416c0051e70b9b069a30003900002b0fd009f059
:10417c004ffb02000b000e980f9902f0f1f80600ad
:10418c000f0040e7149b334200d13ce7e9e709f00c
:10419c003ffb02000b000e980f9901f031fb00223f
:1041ac00002306000f0008f015fa002800d000e6e6
:1041bc0029e70599200008f06ffe80230022db051b
:1041cc000890099108f016fa002875d00b9b002b6b
:1041dc0043d00022874b0c920d93864b0893864b51
:1041ec003b401493149a854b9a4200d0b1e00e9a3e
:1041fc000f9b10921193824b3000ff18390008f07e
:10420c00bffe02000b000c980d9903f033ff320037
:10421c003b0002f0a5f8784a7a4b06000a409a4215
:10422c0062d9794b119a9a4203d1109a013200d17a
:10423c0050e501261f0076422099049809f06efa89
:10424c000799049809f06afa0599049809f066fa36
:10425c002100049809f062fa0de6002e1dd13b03f3
:10426c0020d1089809990022624b08f0b9f900286e
:10427c001ed1089809990022644b03f0fbfe05003f
:10428c000891802212069446089b1c9563441d934a
:10429c001c9a1d9b0c920d93a1e7012e02d1002fad
:1042ac0000d186e500225a4b00250c920d9394e721
:1042bc00564b0b9d0893e4e7544b08980999002240
:1042cc0003f0d8fe0b9b05000891002b07d180232f
:1042dc001b06cb1816901793169a179bdae7020059
:1042ec00089b16921793f7e7d4239b04cf18069bd1
:1042fc00002ba1d1404b149a0c973b409a429bd176
:10430c000899280008f054fb08f008fa0b0002008a
:10431c000899280001f074fa0b9b08900991002b66
:10432c0004d1002e02d10c9b1b0358d0089809997c
:10433c00384a394b08f054f9002800d0d3e40898d7
:10434c000999364a314b08f05ff9002800d173e720
:10435c00c9e4069b002b2ad0d423149adb049a427e
:10436c0025d82f4a2f4b2800089908f043f900282c
:10437c0016d02800089909f04df9002800d1012029
:10438c0008f07cfb0b9b05000891002b22d18023ad
:10439c001b06cb1818901993189a199b0c920d9315
:1043ac00d6220d9bd2049b18149a9b1a0d930e982f
:1043bc000f990c9e0d9f08f0e3fd02000b003000de
:1043cc00390003f057fe0e9a0f9b01f0c9ff06004f
:1043dc000f008ce70200089b18921993dce70d4a3a
:1043ec00114b0898099908f0fbf8aee70000f0ffb4
:1043fc00ffff0f000000f03f0000f07f0000e07fa7
:10440c000000b0fcffff9f7cffffef7f0000e03f50
:10441c000000f0bf9535a094ffffdf3f35e5af35c9
:0c442c000000c0ffffffdf41ffffcf3f9b
:020000040000fa
:10443800f0b516001f00446a9db00490259d0696ad
:104448000797002c08d1102009f068ff049b5862d8
:10445800446084600460c460049b5b6a1968002936
:104468000bd05a68012393404a608b60049809f086
:1044780057f90022049b5b6a1a60079b002b1cda21
:1044880001232b607b005b080793079cba4b220033
:1044980019931a409a421cd1b84b249a1360069a71
:1044a800b74b002a03d1240301d100f08cfd269ad2
:1044b800002a05d109330a9308e000232b60e4e7ba
:1044c8001a0009320a920c33269a13600a981db012
:1044d800f0bd069e079f002200233000390008f037
:1044e8007bf8051e0ed00123249a1360a44b1a00f2
:1044f8000d320a92269a002ae8d01a0026990e321e
:104508000a60e3e71aab01931bab009332003b0050
:10451800049807f087f9630005905b0d00d17fe0f0
:104528003a03984c120b14432100974a300018950f
:104538009e180022954b01f065f9954a954b03f0ba
:104548009bfd954a954b01f00dff040030000d00ce
:1045580008f0e6f8924a934b03f08efd02000b0038
:104568002000290001f0fefe04000d0008f022fae8
:104578000022039000232000290008f033f80028c7
:104588000ed0039808f0ccf80b0002002900200098
:1045980008f022f8030058425841039b1b1a039362
:1045a80001231693039b162b0fd87f49db00c918ec
:1045b80008684968069a079b08f028f800284bd035
:1045c800039b013b0393002316931a9b9e1b002316
:1045d8000b933300013b0c9304d501239b1b0b93d6
:1045e80000230c93039b002b38db039a0c9b944607
:1045f80063440c9300230f920893229b0125092bf7
:1046080000d991e0052b02dd0025043b2293229b73
:10461800981e032800d991e009f058fe8284297673
:104628001a9b1b9a9e18614bf218202a0fdd203b1b
:104638000698f318d84040239b1a9c40204308f062
:104648001ffa01235a4c013e0919189371e72023d8
:1046580006989b1a9840f2e71690b6e70b9b039ac8
:104668009b1a0b935342089300230f93c5e701232a
:104678000e93239b002b65dd1f000d93049a546a4b
:104688000022626004221100143199425fd96168e6
:10469800049808f0b7f8049b20605b6a1b680a93cb
:1046a8000e2f00d9fce0002d00d1f9e0069b079cf5
:1046b80014931594039b002b00dc7de01a000f2156
:1046c800394b0a40d2009b185c681b681093119400
:1046d800039b02241d11eb060ad5364b0d401a6abe
:1046e8005b6a1498159902f0c7fb0324069007919a
:1046f800304e002d30d1109a119b0698079902f080
:10470800bbfb0690079171e00123239a0e93944610
:10471800039b63445f1c0d933b1eafdc0123ade795
:104728000023a5e70023f0e700230e952293013b21
:104738000d931f000022122323929fe701230e935b
:10474800023bf5e701230d931f001a00f4e76168a7
:1047580052000131616096e701231d4208d010988c
:104768001199e4183268736803f086fc109011916f
:104778006d100836bde7c0460000f07f0f27000027
:1047880010e400000000f03f01fcffff0000f83fcc
:1047980061436f63a787d23fb3c8608b288ac63f3f
:1047a800fb799f501344d33f38b500003204000012
:1047b800000010fea0db0000039b0224002b15d094
:1047c800149815995d420f23c94a2b40db00d31872
:1047d8001a685b6803f050fc002306900791c54ee9
:1047e8002d11002d00d08be0002b8ad1169b002bb9
:1047f80000d191e0069a079b109211931098119995
:104808000022bd4b07f0eefe002800d184e0002f07
:1048180000d181e00d9b002b3edd10981199039b80
:1048280000225e1eb54b03f027fc069007910d9df4
:104838000134200007f074ff069a079b03f01cfc64
:104848000022af4b01f08efd12901391129b139c26
:10485800ac4a10931194139b9c181194002d5ed1af
:10486800069807990022a84b00f0ccff109a230065
:104878000690079107f0cafe002800d000e3a3487d
:104888001399844661440b0006980799109a07f01b
:10489800a9fe002800d0e7e2149b159c0693079414
:1048a8001b9b002b00da56e1039a0e2a00dd52e129
:1048b8008f4bd2009b185c681b6808930994239b54
:1048c800002b00dbcee0002f00ddcbe000d0cee2f5
:1048d8000898099900228c4b03f0cefb069a079b97
:1048e80007f09efe3e000897002800d0a3e20a9b2e
:1048f8000a9a5d1c31231370039b013303939ee2d4
:104908000122154205d0a4183268736803f0b4fb7d
:1049180001236d10083664e7039e3d0089e70a9a73
:10492800691e521917920e9a714bc900002a4ad073
:104938005b181a685b680020754902f09dfa109aa6
:10494800119b00f05fff0a9b10901191129306983b
:10495800079908f02ff8040007f0e2fe02000b00a8
:104968000698079900f04eff129b30345d1c1c70ae
:10497800109a119b0690079107f034fe002865d124
:10498800069a079b00205c4900f03cff109a119b97
:1049980007f028fe002800d0bde0179b9d4200d1fb
:1049a8007ae7109811990022544b03f065fb002216
:1049b8001090119106980799504b03f05dfb1295e2
:1049c80006900791c3e7591808684968109a119b1f
:1049d80003f052fb109011910a9c179d06980799b5
:1049e80007f0e8ff129007f09bfe02000b00069804
:1049f800079900f007ff129b069007913033237048
:104a0800179b01340022a34224d1414b10981199dd
:104a180001f0a8fc02000b000698079907f0f6fdc4
:104a2800002800d077e0109a119b0020384900f048
:104a3800e9fe02000b000698079907f0d3fd00284d
:104a480000d129e76b1e1a78302a01d003963fe07f
:104a58001d00f7e706980799284b03f00dfb069011
:104a68000791bbe70a9e089a099b0698079902f0e6
:104a780003fa07f09fff040007f052fe089a099b0b
:104a880003f0fafa0b0002000698079900f0bafe44
:104a98002300303333700a9b751ceb1a9f424bd1ad
:104aa80002000b0001f05efc06000f0002000b0084
:104ab8000898099907f096fd00282bd108980999bc
:104ac80032003b0007f088fd002801d0e30721d41d
:104ad8000599049808f024fe00232b70039b249a60
:104ae80001331360269b002b00d1efe41d60ede439
:104af80038b50000a0db00000000f03f00002440b3
:104b080000001c400000c0fc000014400000c07cf5
:104b18000000e03f039e6b1e1a78392a06d10a9ad4
:104b28009a4207d130231370130001361a780132e4
:104b38001a708be71d00eee70022cf4b03f09cfaba
:104b480000220023069007912e0007f045fd00285b
:104b580000d188e7bce70e9a002a00d187e0229aa4
:104b6800012a6edc189a002a67d0c44a9b18089d4f
:104b78000b9c0b9a0121d2180b920c9a0498d3180b
:104b88000c9309f0f0fb0600002c0edd0c9b002bab
:104b98000bdd0c9a2300944200dd13000b9ae41af3
:104ba800d21a0b920c9ad31a0c93089b002b1ed086
:104bb8000e9b002b5fd0002d11dd31002a000498d8
:104bc80006f07aff059a01000600049805f013fb29
:104bd80005991090049808f0a3fd109b0593089b75
:104be8005a1b04d00599049806f066ff0590012128
:104bf800049809f0b8fb0f9b0890002b3ddd1a00c4
:104c08000100049806f058ff229b08900025012b0c
:104c18003bdc0025069bab4233d1079b1b03ab4211
:104c28002fd1199b079a13422bd00b9b01250133d7
:104c38000b930c9b01330c9323e036231a9a9b1a8f
:104c480095e7089b7d1eab4206db5d1b002f0bda48
:104c58000b9bdc1b00238ce7089b0895ea1a0f9b2b
:104c680000259b180f93f1e70b9c3b0081e7089dfb
:104c78000b9c0e9e88e7089ab4e7229b0025012b1f
:104c8800c7dd0f9b0120002b0bd0089b089a1b69de
:104c98000f9303339b00d318586808f00dfd2023a9
:104ca800181a0c9bc0181f23184000d1abe0202312
:104cb8001b1a042b00dc9be01c23181a0b9b2418de
:104cc8001b180b930c9b1b180c930b9b002b05dddf
:104cd8001a000599049806f04dfe05900c9b002bd0
:104ce80005dd1a000899049806f044fe0890169b02
:104cf800002b00d189e00899059808f02afd0028c2
:104d080000db82e0039b0a22013b03930599002301
:104d1800049807f08ffc0e9b0590002b00d15be1f7
:104d2800002331000a22049807f084fc0d9b06003a
:104d3800002b02dc229b022b6ddc002c05dd3100f0
:104d48002200049806f016fe06003000002d11d04f
:104d58007168049807f056fd3100040033690c317e
:104d68009a1c92000c3009f0f5fa012221000498ef
:104d780006f000fe0d9f0a9b013f0b93db193700dd
:104d880006000f930899059805f0eafd39000d9083
:104d98000400059808f0ddfc32000e90089904988c
:104da80006f060fb01230c93c36830340500002b28
:104db80004d10100059808f0ccfc0c902900049857
:104dc80008f0aefc0c9b229a134300d089e0012323
:104dd800069a134200d084e0392c00d1a3e00e9b40
:104de800002b01dd0d9c31340b9b5d1c1c7027e0f2
:104df800042b00d169e70b9a1c33d2180b920c9a3a
:104e0800e418d31860e70300f5e7002f3cdc229b89
:104e1800022b39dd0d970d9b002b0cd1089905222b
:104e2800049807f007fc08900100059808f091fc29
:104e3800002800dd5be5239b0a9ddb4303930027e5
:104e48000899049808f06cfc002e00d140e6002f69
:104e580005d0b74203d03900049808f061fc31004e
:104e6800049808f05dfc33e608952e00e3e700237c
:104e780008931e00dfe7c04600002440330400000a
:104e8800039608952e0032e50e9b0d97002b00d057
:104e980053e70a9d0899059805f062fd0a9b303092
:104ea8000d9a287001350400eb1a9a4278dc151e19
:104eb80000dc012500270a9b5d1905990122049849
:104ec80006f058fd0899059008f043fc00282fdcef
:104ed80001d1e3072cd46b1e1a78302ab0d11d00fb
:104ee800f9e70e9b002b07db1d00229b1d4326d1f3
:104ef8000123069a134222d10c9b002b00dc73e796
:104f080005990122049806f035fd0899059008f0e6
:104f180020fc002804dc00d066e7e30700d463e740
:104f2800392c00d05ee70b9b0b9a5d1c392313705c
:104f38006b1e1a78392a3bd001321a7080e70b9b16
:104f480001330d930c9b002b05dd392cebd00d9d07
:104f580001340b9b4ae70b9b0f9a0d9d1c709342e3
:104f6800abd000230a220599049807f063fb0023bd
:104f780005900a2239000498b74206d107f05afb77
:104f8800070006000d9b0b93fce607f053fb31006e
:104f9800070000230a22049807f04cfb0600f1e7fb
:104fa80000230a220599049807f044fb059071e74d
:104fb8000a9a9a4205d1039b013303933123137054
:104fc8003ee71d00b4e7269a0a930833002a01d069
:104fd800fff77afafff77afa0d9b002b00dd58e706
:0c4fe800229b022b00dc54e715e7c046ba
:020000040000fa
:104ff40041540d0a00000000415445300d0a0000e0
:1050040041542b434c434b3d225343222c320d0a33
:105014000000000041542b4350494e3f0d0a00004c
:1050240041542b434f50533f0d0a000041542b432e
:1050340053510d0a0000000041542b555244464977
:105044004c453d225030220d0a0000004f4b0d0a02
:10505400000000004552524f520d0a005f41545f58
:105064004d4f44554c455f434f4e4e4543542020cd
:105074004572726f725f74696d656f75740d0a00a5
:1050840074785f4552524f523a0000002c33322c50
:10509400000000005f41545f4d4f44554c455f4351
:1050a4004f4e4e45435420204572726f725f6d65ba
:1050b400670d0a0041542b43455245473f0d0a00f2
:1050c40041542b434744434f4e543f0d0a000000c4
:1050d40041542b43434c4b3f0d0a00005f41545f46
:1050e40034474c54455f6c696e6b5f63686b20207a
:1050f4004572726f725f74696d656f75740d0a0025
:105104005f41545f34474c54455f6c696e6b5f6319
:10511400686b20204572726f725f6d65670d0a00bf
:105124005f41545f4e4554574f524b5f5354415463
:10513400555320204572726f725f74696d656f7587
:10514400740d0a005f41545f4e4554574f524b5ff4
:1051540053544154555320204572726f725f6d65ec
:10516400670d0a0041542b555053443d302c302ccc
:10517400300d0a0041542b55505344413d302c33db
:105184000d0a00005f41545f52454c4f475f494e42
:1051940020204572726f725f74696d656f75740d4e
:1051a4000a0000005f41545f52454c4f475f494e2f
:1051b40020204572726f725f6d65670d0a000000f2
:1051c40041542b555345434d4e473d302c302c22f2
:1051d4007063626361222c313335390d0a0000009b
:1051e40041542b555345434d4e473d302c312c22d1
:1051f4007063626363222c313235370d0a0000007c
:1052040041542b555345434d4e473d302c322c22af
:10521400706362706b222c313637350d0a00000042
:1052240041542b555345434d4e473d330d0a000021
:1052340041542b554d5154543d302c22394334396b
:1052440030443332424232303833333630313832fc
:10525400304531413732393843453232220d0a0064
:1052640041542b554d5154543d322c227368617274
:10527400656170702e73746f6e65746563682e63f8
:105284006f6d2e7477222c383838330d0a000000e5
:1052940041542b554d5154543d332c22222c383833
:1052a40038330d0a0000000041542b554d5154541d
:1052b4003d362c310d0a000041542b554d515454a8
:1052c4003d372c310d0a000041542b554d51545497
:1052d4003d382c22736572617068696d2f6c61733f
:1052e4007477696c6c220d0a0000000041542b5540
:1052f4004d5154543d392c22556e72657175657348
:1053040074656420646973636f6e6e656374220de3
:105314000a00000041542b554d5154543d31302c5a
:10532400333630302c32300d0a00000041542b55f6
:105334004d5154543d31312c312c320d0a000000b2
:1053440041542b554d515454433d310d0a00000036
:105354005f41545f4d5154545f42494449525f4147
:105364005554485f504152415f4c4f4144202045c1
:1053740072726f725f74696d656f75740d0a0000e7
:105384005f41545f4d5154545f42494449525f4117
:105394005554485f504152415f4c4f414420204591
:1053a40072726f725f6d65670d0a000041542b5570
:1053b4004d5154543d312c313838330d0a0000001e
:1053c40041542b554d5154543d322c227368617213
:1053d400656170702e73746f6e65746563682e6397
:1053e4006f6d2e7477222c313838330d0a0000008b
:1053f40041542b554d5154543d332c227878782efa
:105404007878782e7878782e787878222c3838380e
:10541400330d0a0041542b554d5154543d342c2224
:1054240074657374222c226d717474313233220dbd
:105434000a00000041542b554d5154543d382c2240
:10544400454d4f544f2f4445562f3943343930443a
:1054540033324242323038333336303138323045e9
:10546400314137323938434532322f5550220d0af3
:105474000000000041542b554d5154543d31312c02
:10548400300d0a0041542b554d5154544e563d3263
:105494000d0a000041542b554d5154544e563d3184
:1054a4000d0a00005f41545f4d5154545f50415206
:1054b400415f4f5045524154494f4e20204572722e
:1054c4006f725f74696d656f75740d0a000000007a
:1054d4005f41545f4d5154545f504152415f4f50ae
:1054e40045524154494f4e20204572726f725f6d90
:1054f40065670d0a000000005f41545f34475f4c4c
:1055040054455f4c4f47494e20204572726f725f7d
:1055140074696d656f75740d0a0000005f41545f16
:1055240034475f4c54455f4c4f47494e20204572e9
:10553400726f725f6d65670d0a00000041542b5550
:105544005345435052463d322c302c310d0a000055
:1055540041542b555345435052463d322c332c2253
:105564007063626361220d0a0000000041542b55f0
:105574005345435052463d322c352c2270636263ae
:1055840063220d0a0000000041542b55534543503b
:1055940052463d322c362c22706362706b220d0a07
:1055a4000000000041542b554d5154543f200d0a26
:1055b4000000000041542b554d515454433d342cac
:1055c400302c22454d4f544f2f4445562f00000098
:1055d4002f444f574e220d0a000000002f50554211
:1055e400220d0a0041542b554d515454433d300d66
:1055f4000a0000005f41545f4d5154545f424944d6
:1056040049525f415554485f4c4f47494e5f464ca1
:105614004f5720204572726f725f74696d656f75a4
:10562400740d0a005f41545f4d5154545f42494424
:1056340049525f415554485f4c4f47494e5f464c71
:105644004f5720204572726f725f6d65670d0a00b7
:1056540041542b5547524d433d310d0a0000000083
:1056640041542b5547494e443d310d0a000000007a
:1056740041542b554750533d312c392c36370d0aa4
:105684000000000041542b5547524d433f0d0a0082
:105694005f41545f47505320204572726f725f74ac
:1056a400696d656f75740d0a000000002c412c00b3
:1056b4002c4e2c002c532c002c452c00252e30373e
:1056c400660000006c617469747564653d2025731f
:1056d40020206c6f6e6769747564653d2025730db9
:1056e4000a0000005f41545f475053202045727206
:1056f4006f725f6d65670d0a0000000041542b5501
:105704004d515454433d322c302c302c302c20221b
:10571400454d4f544f2f4445562f00002f555022ce
:105724002c2200005f41545f4d5154545f54585f24
:1057340055505f444154413120204572726f725f6d
:1057440074696d656f75740d0a0000005f4d5154e6
:10575400545f54585f55505f4441544131202045b3
:1057640072726f725f6d65670d0a00002b55554d9f
:10577400515454433a20362c000000000d0a000016
:1057840041542b554d515454433d360d0a000000ed
:105794005f41545f5245414420204572726f725fed
:1057a40074696d656f75740d0a0000002f444f57be
:1057b4004e222c002f505542222c00002c227b001c
:1057c4007d220d0a00000000525820444154413a01
:1057d400000000005f41545f52454144202045725f
:1057e400726f725f6d65670d0a0000004552524f7b
:1057f400523a4c544520344720524553455420498d
:085804004e495449414c0000db
:020000040000fa
:10580c00f7b50d0009036c00ed0f0095490a450f23
:10581c0029431d035e00c700d80f6b0a550f2b439d
:10582c00c14d640d760dd200ae4203d11d008446ed
:10583c00154302d101254540ac46009da01bac454b
:10584c0000d036e1002861dd002e25d11d00154366
:10585c0000d196e2461e002e19d1ba18ba42a441c4
:10586c00c91864420919170001240b0200d4bee0c8
:10587c00ad4b01349c4200d180e2ac487b08014026
:10588c00012007401f43c80707434908afe0a64d56
:10589c00a84209d1a44caae0a34dac4200d1a6e089
:1058ac00802506002d042b43382e2adc1f2e17dcf6
:1058bc0020201d00801b8540ac4615000190f54052
:1058cc00604605430198f3408240501e82411543c7
:1058dc00ed195b18bd428941494259182f00c4e7a4
:1058ec0030001d002038c5400020202e03d0402061
:1058fc00861bb34018000243501e824115430023ff
:10590c00e6e71a4315006a1e9541f8e7002850d0c7
:10591c00002c14d10c003c4300d128e2c443002cd1
:10592c0007d1bf189742a441c91864420919340021
:10593c009be77d48864209d119001700aae77a4ceb
:10594c00a642f9d04442802000040143382c2bdcc1
:10595c001f2c17dc2025281b01900800019de1401d
:10596c00a840844638006546e0402843019daf407e
:10597c007d1eaf413843871897429241c918524255
:10598c008918d4e720000d002038c54028000025d8
:10599c00202c03d040252c1ba1400d002f437d1e35
:1059ac00af4138430021e6e70f433800471eb841aa
:1059bc00f8e7661c75056d0d012d00dd69e008002a
:1059cc003843002c49d1002800d1d3e118001043f2
:1059dc000dd0ba18ba42b641c9188023764289193b
:1059ec001b041700194202d00124504b19407b07ad
:1059fc0009d00f233b40042b05d03b1dbb42bf41bc
:105a0c007f42c9191f000b0206d5474b01349c423b
:105a1c0000d1c3e1454b1940434b4807ff083843bd
:105a2c00c9089c4206d103000b4300d1b9e1802385
:105a3c001b031943002709033b0d1b05090b1943d5
:105a4c003b4b6405194064080c43009b6400d90768
:105a5c0064080c43210003b0f0bd002800d16be7b3
:105a6c001800104300d115e74807ff0807438020b2
:105a7c00c9080003014207d0dc08044204d1d20853
:105a8c005b0713431f002100780fc9000143ff007f
:105a9c0000e7254ca64200d16fe1ba18c918ba42ea
