:020000040000fa
:10000000f07f00204de40000afb5000007cc0000f9
:1000100000000000000000000000000000000000e0
:1000200000000000000000000000000063b30000ba
:10003000000000000000000063b30000edee0000cf
:1000400063b3000063b3000063b3000005e4000085
:1000500063b3000063b3000063b3000063b3000048
:1000600063b3000055a2000039a0000011aa0000ef
:1000700063b3000000000000000000007d88000065
:100080000000000063b3000063b3000063b300002e
:1000900063b3000063b3000063b3000063b3000008
:1000a00063b3000063b3000063b3000063b30000f8
:0c00b00063b3000063b3000063b3000002
:020000040000fa
:1000bc00f8b5c046f8bc08bc9e467047c5e20000c7
:1000cc00f8b5c046f8bc08bc9e4670479de20000df
:020000040000fa
:0800dc00f0c200000100000069
:020000040000fa
:1000e400f0b5b44ca544b44b5b88b44a934201d1f7
:1000f40002f0e0f801d900f011fcb14a934201d1b9
:1001040001f09efc3dd9af4a934201d101f071fe4a
:1001140000d878e2ac4a934201d101f031ff00d912
:10012400cae3043a934201d101f0c6fe00d999e32f
:10013400023a934201d101f07dfe01d901f09bfe08
:10014400a24c1522a249043120000ff01ffa20000e
:100154000ff08cfa010020000bf0befb9d4a9e4b71
:100164001a80f932944b5a809c4b1a689c4b1a6043
:1001740020000ff07bfa81b220000ff014fb01f095
:100184007af8984a934201d101f016fa00d947e16e
:10019400fd3a934201d101f0dbf800d883e0924aa2
:1001a400934201d101f0bef900d9d9e0023a934259
:1001b40001d101f051f901d901f078f9013a9342e2
:1001c40001d001f058f889495c3189480ef02afcc5
:1001d400002801d101f016f90222864b1a70844cd2
:1001e40020000ff043fa0200210083480ff0cef9fb
:1001f40080229200002120000ff012fa00227f4b8f
:100204001a607c4b1b78022b01d101f01bf9794b4e
:100214001b78032b01d101f01af9704b1b68784a43
:1002240012689b1a774a934201d801f02af8624b6c
:1002340075495a5c01325a5400225a806d4b1a7027
:1002440084ac6a4b6c33220023cb23c223cb23c25e
:1002540023cb23c220000ff009fa81b220000ff053
:10026400a2fa6a4b1033220003cb03c21b8813800b
:10027400564920000ff006f820000ff0f7f981b27c
:1002840020000ff090fa5c4c20000ff0eff981b2df
:1002940020000ff088fa80229200002120000ff045
:1002a400bff900f0e8ff043a934201d100f0edfffa
:1002b4002ad982225200934201d101f007f801d9d0
:1002c40001f025f8414c0b224849243120000ff05d
:1002d4005df920000ff0caf9010020000bf0fcfad0
:1002e4000422ff324a4b1a80f932334b5a803b4b7b
:1002f4001a68434b1a6020000ff0b8f981b220004d
:100304000ff051fa00f0b7ff023a934201d100f026
:1003140093ff0132934201d000f0adff2b4c072232
:100324003249083120000ff031f920000ff09ef916
:10033400010020000bf0d0fa0222ff32344b1a8065
:10034400fb321d4b5a80254b1a682d4b1a60200036
:100354000ff08cf981b220000ff025fa00f08bff2a
:100364002c4a934201d101f0e7f801d901f004f9d4
:10037400164c05221d4920000ff008f920000ff04b
:1003840075f9010020000bf0a7fa80229200224b9d
:100394001a80fc32084b5a80104b1a681f4b1a60a3
:1003a40020000ff063f981b220000ff0fcf900f097
:1003b40062ffc046ecfcffff74000020020700004f
:1003c40003040000020600000a06000030110020a9
:1003d400d45c0000030600006028002040280020b0
:1003e400f027002003020000ff010000545a00001f
:1003f40030130020e40c0020301500202c280020ad
:100404000828002010270000330c0000d45a0000f4
:100414006c28002001020000d2270020e0270020e1
:10042400ea4a934201d101f022fa00d883e0e84a73
:10043400934201d101f0bcfa00d9bae0023a9342e6
:1004440001d101f05cfa01d901f077fa013a934243
:1004540001d000f010ffdf495c31df480ef0e2fa12
:10046400002801d101f023fa0222dc4b1a70da4c85
:1004740020000ff0fbf802002100d9480ff086f8a5
:1004840080229200002120000ff0caf80022d54bf0
:100494001a60d24b1b78022b01d101f028facf4b02
:1004a4001b78032b01d101f026facf4b1b68cf4aee
:1004b40012689b1ace4a934201d800f0e2fecd4b5b
:1004c400cd495a5c01325a5400225a80c34b1a70e7
:1004d40084acca4b3033220023cb23c223cb23c2a8
:1004e40023cb23c220000ff0c1f881b220000ff00b
:1004f4005af9c34b1033220003cb03c21b88138069
:10050400c04920000ef0befe20000ff0aff881b20b
:1005140020000ff048f9b24c20000ff0a7f881b288
:1005240020000ff040f980229200002120000ff0fb
:1005340077f800f0a0fe043a934201d101f0eff8fd
:1005440010d9c0229200934201d101f04ff901d990
:1005540001f06df9802292000021a1480ff060f8ab
:1005640000f08ffe023a934201d101f045f80132c6
:10057400934201d000f07ffe994c20000ff076f8f2
:1005840081b220000ff00ff9802292000021200098
:100594000ff046f89c4b1b889c4a934201d101f012
:1005a400b9f80133934a538000228c4b1a7000f03f
:1005b40062fe974a934201d101f001fa01d901f098
:1005c4001efa904c11228349103120000ef0defff8
:1005d40020000ff04bf8010020000bf07df9802281
:1005e400d2008c4b1a80fc32824b5a807e4b1a68a4
:1005f400894b1a6020000ff039f881b220000ff007
:10060400d2f800f038fe043aff3a934201d101f0e7
:1006140039fb29d9814a934201d101f083fb00d9e6
:1006240004e1023a934201d101f034fb01d901f013
:1006340055fb744c1e227a49503120000ef0a6ff5f
:1006440020000ff013f8010020000bf045f9694a6f
:1006540053880133538020000ff008f881b2200042
:100664000ff0a1f800f007fef93a934201d101f02e
:1006740029fa00d87ee06b4a934201d101f06dfa69
:1006840001d901f0c3fa013a934201d000f0f3fd1d
:1006940050495c3150480ef0c5f9002801d101f0f1
:1006a40032fa02224d4b1a704b4c20000ef0deff42
:1006b400020021004a480ef069ff802292000021c6
:1006c40020000ef0adff0022464b1a60434b1b780e
:1006d400022b01d101f037fa404b1b78032b01d1d7
:1006e40001f036fa404b1b684b4a12689b1a404a89
:1006f400934201d800f0c5fd3e4b3f495a5c01329c
:100704005a5400225a80354b1a7084ac444b14332b
:10071400220023cb23c223cb23c2196811609b88f8
:10072400938020000ef0a2ff81b220000ff03bf86e
:10073400334b1033220003cb03c21b88138031498f
:1007440020000ef09ffd20000ef090ff81b22000eb
:100754000ff029f8224c20000ef088ff81b220000f
:100764000ff021f880229200002120000ef058ffa3
:1007740000f081fd023a934201d101f082f9013285
:10078400934201d000f077fd1e4c10221b497431b6
:1007940020000ef0fbfe20000ef068ff0100200098
:1007a4000bf09af8204a1b4b1a80f732114b5a80ef
:1007b4000d4b1a68184b1a6020000ef057ff81b2d7
:1007c40020000ef0f0ff00f056fdc04602030000ca
:1007d400ff030000545a000030130020e40c0020f2
:1007e400301500202c28002040280020fc27002061
:1007f4008813000074000020330c0000545b0000d8
:10080400d45a000030110020d22700200302000037
:10081400010400006a2800200428002003050000c9
:10082400d45b0000fd04000005040000c022d200d7
:10083400934201d101f099fa01d901f0b8fa023ad0
:10084400934201d000f017fdda4b1b78012b01d045
:1008540000f017fd0022d74b1a70d74ad74b5a80a5
:1008640000f00ffdc122d200934201d101f045fbfb
:1008740001d901f064fbd24c2622d2496031200018
:100884000ef084fe20000ef0f1fe010020000bf0bb
:1008940023f8cd4acd4b1a80f532c84b5a80cc4b45
:1008a4001a68cc4b1a6020000ef0e0fe81b22000e2
:1008b4000ef079ff00f0dffcc74a934201d101f04a
:1008c40077fc1ad8023a934201d101f0a9fb01d96d
:1008d40001f03dfc013a934201d000f0ccfcb54b51
:1008e4001b78012b01d000f0ccfc0022b14b1a7014
:1008f400ba4ab24b5a8000f0c4fce022d2009342c0
:1009040001d101f097fc01d901f0b0fc80229200e2
:100914000021b3480ef084fe00f0b3fcb14a9342c8
:1009240001d102f087f83fd9af4a934201d102f0d6
:10093400f9fa00d816e2ad4a934201d102f009fc5b
:1009440001d900f017fcfa3a934201d102f037fbc7
:1009540000d963e3023a934201d102f0eefa01d9dd
:1009640002f00cfb964c0d22a149443120000ef0fc
:100974000dfe20000ef07afe010020000af0acff0c
:10098400b02212019b4b1a80fc328c4b5a80904b44
:100994001a68994b1a6020000ef068fe81b220009c
:1009a4000ef001ff00f067fc093aff3a934201d1cf
:1009b40001f00bfe00d9cbe0f43aff3a934201d1a7
:1009c40001f05afd36d98d4a934201d101f0c0fda0
:1009d40000d98ee0f33a934201d101f095fd01d2a2
:1009e40001f06efd0132934201d000f044fc714be2
:1009f4001b78012b01d000f044fc00226d4b1a70cf
:100a04006f4c0e227e49343120000ef0bffd2000d1
:100a14000ef02cfe010020000af05eff774a674bbf
:100a24005a8020000ef022fe81b220000ef0bbfea0
:100a340000f021fc043a934201d101f083fc2bd94c
:100a4400704a934201d101f0a1fc01d901f0f0fcfc
:100a5400584b1b78012b01d000f013fc0022554b9e
:100a64001a70574c0f2257492c3120000ef08efd7e
:100a740020000ef0fbfd010020000af02dff4f4a7c
:100a840053880133538020000ef0f0fd81b2200022
:100a94000ef089fe00f0effb023a934201d101f01f
:100aa4002dfc0132934201d000f0e5fb414b1b7851
:100ab400012b01d000f0e5fb00223e4b1a70404ca4
:100ac4001e225149083120000ef060fd20000ef076
:100ad400cdfd010020000af0fffe384a538801339f
:100ae400538020000ef0c2fd81b220000ef05bfea8
:100af400c1e3464a934201d101f038fdfa329342f0
:100b040001d101f054fdfb3a934200d0b3e32c4ce5
:100b14000f223d49783120000ef038fd20000ef000
:100b2400a5fd010020000af0d7fe80221201384bf7
:100b34001a80fc32214b5a80254b1a68354b1a60b7
:100b440020000ef093fd81b220000ef02cfe92e303
:100b5400314a934201d101f06dfe63d9a022120102
:100b6400934201d101f044ff00d9d3e0023a934209
:100b740001d101f0f7fe01d901f032ff184c200039
:100b84000ef074fd81b220000ef00dfe8022920062
:100b9400002120000ef044fd204b1b88204a934284
:100ba40001d101f0dafe0133044a53800022014be3
:100bb4001a7060e3e40c0020ff05000074000020bc
:100bc40030110020d45c00000706000060280020db
:100bd40040280020f0270020fe060000ff06000049
:100be40030150020040a0000ff0a0000fd0b00007d
:100bf400546000005c280020e8270020fe07000065
:100c0400545d000007070000545e00000108000066
:100c140062280020f4270020fc090000da270020c5
:100c240001090000fd3a934201d101f082fd2bd964
:100c3400db4a934201d101f0a6fd01d201f081fd0e
:100c44000132934200d016e3d64c0e22d6495031dd
:100c540020000ef09bfc20000ef008fd0100200097
:100c64000af03afed14ad24b1a80fa32d14b5a805a
:100c7400d14b1a68d14b1a6020000ef0f7fc81b2f8
:100c840020000ef090fdf6e2023a934201d101f009
:100c940031fd0132934200d0ede2c64bc8495a5ca3
:100ca40001325a5400225a80c64b1a7084acc64b87
:100cb4004433220023cb23c223cb23c223cb23c21e
:100cc4001b78137020000ef0d1fc81b220000ef0ce
:100cd4006afdb54b1033220003cb03c21b8813807b
:100ce400b04920000ef0cefa20000ef0bffc81b215
:100cf40020000ef058fdb54c20000ef0b7fc81b278
:100d040020000ef050fd80229200002120000ef001
:100d140087fcb0e2ae4a934201d101f051ff01d900
:100d240001f0acff9f4c0f22aa49043120000ef0c1
:100d34002dfc20000ef09afc010020000af0ccfdee
:100d4400a54aa64b1a80fb329a4b5a809a4b1a68d2
:100d5400a34b1a6020000ef089fc81b220000ef033
:100d640022fd88e2f43a934201d101f008ff3bd915
:100d74009c4a934201d102f024f800d98be0023a54
:100d8400934201d101f09bff01d901f0d4ff854cbe
:100d94000e229549343120000ef0f8fb20000ef0ad
:100da40065fc010020000af097fd904a8b4b1a80e5
:100db400f032804b5a80804b1a68894b1a602000ad
:100dc4000ef054fc81b220000ef0edfc0ef068fb36
:100dd40087480df051fc0ef063fbfa20c0000df0c3
:100de4004bfc0ef05dfb46e2043a934201d101f064
:100df400a5fe27d97f4a934201d101f03cfe01d9d7
:100e040001f05afe674c19227b497c3120000ef018
:100e1400bdfb20000ef02afc010020000af05cfd5e
:100e2400764a6e4b1a80f432624b5a80624b1a68cf
:100e34006b4b1a6020000ef019fc81b220000ef0fa
:100e4400b2fc18e2023a934201d101f056fe01329b
:100e5400934200d00fe2534c1922674944312000d9
:100e64000ef094fb20000ef001fc010020000af0bb
:100e740033fd634a594b1a80f6324e4b5a804e4b1f
:100e84001a68574b1a6020000ef0f0fb81b2200064
:100e94000ef089fcefe15b4a934201d101f0e5ffda
:100ea40001d902f001f8013a934200d0e3e1564936
:100eb4005c3156480df0b6fd002801d101f0abffbe
:100ec4000222404b1a70514c20000ef0cffb02005e
:100ed40021003e480ef05afb80229200002120009f
:100ee4000ef09efb00224a4b1a60a0231b013b4ad2
:100ef40012889a4201d101f085ff324b1b78022bf4
:100f040001d101f0a8ff2f4b1b78032b01d101f075
:100f1400a7ff294b1b68324a12689b1a3d4a934229
:100f240000d8a8e1234b26495a5c01325a540022c6
:100f34005a80244b1a7084ac374b6833220023cb7d
:100f440023c223cb23c223cb23c223cb23c220001f
:100f54000ef08cfb81b220000ef025fc124b1033f6
:100f6400220003cb03c21b8813800e4920000ef01d
:100f740089f920000ef07afb81b220000ef013fcf8
:100f8400124c20000ef072fb81b220000ef00bfc1c
:100f940080229200002120000ef042fb6be1c0464b
:100fa4000109000030110020d45a00000209000099
:100fb400da2700207400002040280020e4270020c5
:100fc400330c0000e40c0020d45e00003015002037
:100fd400020a0000d45b0000010a00005e28002021
:100fe400ec2700200f0a0000545d00000c0a0000ea
:100ff400b80b0000090a0000545f0000080a000052
:10100400060a0000fd0a0000545a000030130020b4
:101014002c280020204e0000d45f0000dd4a9342bb
:1010240001d102f04bf801d201f0eafff73293420a
:1010340000d020e1d8495c31d8480df0f3fc0028f9
:1010440001d102f05cf80222d54b1a70d34c200077
:101054000ef00cfb0200d34d210028000ef096fa8e
:1010640080229200002120000ef0dafa0022ce4bfa
:101074001a60ce49143128000df0d4fc041e29d086
:1010840008300ef067fbca4dca4be85420000b3001
:101094000ef060fbc84be85420000e300ef05afbf3
:1010a400c64be854200011300ef054fbc44be854f6
:1010b400200014300ef04efbc24be85420001730d1
:1010c4000ef048fbc04be854053be8180af0f8fa68
:1010d400be4be850b24b1b78022b01d102f02ff823
:1010e400af4b1b78032b01d102f02ef8b84b1b68d1
:1010f400b84a12689b1ab84a934200d8bbe0ac4b7a
:10110400b6495a5c01325a5400225a80a44b1a70d0
:1011140084aca64b2033220023cb23c223cb23c28f
:101124001b78137020000ef0a1fa81b220000ef09b
:101134003afbab4b1033220003cb03c21b88138052
:10114400a84920000ef09ef820000ef08ffa81b21c
:1011540020000ef028fb934c20000ef087fa81b299
:1011640020000ef020fb80229200002120000ef0cf
:1011740057fa80e09c4a934201d102f001f94bd81e
:10118400fd3a934201d102f0ebf801d202f0acf83f
:10119400013293426fd1934c8022920000212000af
:1011a4000ef03efa914e31000c311f2220000ef059
:1011b400edf920000ef05afa00197d4da91d2022e8
:1011c4000ef0e4f93300f26a0492328e2c3304a94f
:1011d4008a809b798b7120000ef054f82900283105
:1011e40020000ef04ff820000ef040fa010020001d
:1011f4000af072fbc02212017d4b1a807a4b6b807d
:10120400734b1a687b4b1a6020000ef02ffa81b2e0
:1012140020000ef0c8fa2ee0774a934201d102f082
:101224009df901d202f076f90132934223d10022d2
:101234005b4b1a7002f09df86a4c05225649200057
:101244000ef0a4f920000ef011fa010020000af0bb
:1012540043fb80225200694b1a80fc32544b5a8063
:101264005b4b1a68664b1a6020000ef0fff981b2de
:1012740020000ef098fa4e4b1b78022b01d102f09d
:10128400aef9c5239b009d44f0bd564c1122424942
:10129400103120000ef07af920000ef0e7f9010079
:1012a40020000af019fb81225200544b1a80fa32b2
:1012b4003f4b5a80464b1a68514b1a6020000ef07f
:1012c400d5f981b220000ef06efad4e7454c0b221a
:1012d4003149303120000ef059f920000ef0c6f9e2
:1012e400010020000af0f8fa82225200434b1a80cf
:1012f400f8322f4b5a80364b1a68414b1a60200043
:101304000ef0b4f981b220000ef04dfab3e7354c7b
:10131400092221493c3120000ef038f920000ef05a
:10132400a5f9010020000af0d7fa0622ff32334b58
:101334001a80f7321e4b5a80254b1a68304b1a60bc
:1013440020000ef093f981b220000ef02cfa92e7ff
:10135400244c12221049483120000ef017f92000c5
:101364000ef084f9010020000af0b6fa832252003c
:10137400224b1a80f6320e4b5a80154b1a68204bba
:101384001a6020000ef072f981b220000ef00bfa00
:1013940071e7c046050b0000545a000030130020ca
:1013a400e40c0020301500202c280020d46000001c
:1013b40074000020640c0000650c0000660c000042
:1013c400670c0000680c0000690c00006c0c000045
:1013d40040280020e827002088130000330c000078
:1013e400d45a000030110020fc0c000054610000ad
:1013f40064280020f8270020fe0c00006c28002040
:1014040008280020e3496431e3480df00bfb002871
:1014140001d1fef7f6fe0322e04b1a70de4c2000e9
:101424000ef024f902002100dd480ef0aff880220e
:101434009200002120000ef0f3f80022d94b1a602c
:10144400fef7dffefe22ff32d74b5a8019e7ff2258
:101454005200d54b5a8014e7d14c20000ef006f907
:1014640081b220000ef09ff9d04b1b8883225200da
:1014740093420cd00133cc4a538080229200002145
:10148400c7480ef0cdf80022c44b1a70f3e6c849e1
:101494001c31c3480df0c6fa0100c34ca01d053130
:1014a40020220ef073f8c34b6380e6e7be4bc249bb
:1014b4005a5c01325a5400225a80b84b1a7084acd8
:1014c400bb4d2b002433220043cb43c243cb43c246
:1014d40003cb03c220000ef0c9f881b220000ef045
:1014e40062f92b001033220003cb03c21b88138044
:1014f400b24920000df0c6fe20000ef0b7f881b20c
:1015040020000ef050f9a64c20000ef0aff881b286
:1015140020000ef048f980229200002120000ef0f5
:101524007ff8a8e68022920000219d480ef078f80a
:1015340000229a4b1a70a4e6a04c0c229c49443118
:1015440020000ef023f820000ef090f80100200097
:101554000af0c2f99a4a9b4b1a80fb32924b5a808a
:10156400994b1a68994b1a6020000ef07ff881b2eb
:1015740020000ef018f97ee6904c0e228c49503172
:1015840020000ef003f820000ef070f80100200097
:101594000af0a2f98e4a8b4b1a80fa32824b5a8097
:1015a400894b1a68894b1a6020000ef05ff881b2eb
:1015b40020000ef0f8f85ee6804c0b227c49603186
:1015c40020000df0e3ff20000ef050f80100200091
:1015d4000af082f97f4a7b4b1a80f932724b5a80a7
:1015e400794b1a68794b1a6020000ef03ff881b2eb
:1015f40020000ef0d8f83ee666495c3166480df0ee
:1016040011fa002861d00222644b1a70624c200047
:101614000ef02cf80200210061480df0b7ff802283
:101624009200002120000df0fbff00225d4b1a60a8
:101634005a4b1b78022b65d0584b1b78032b65d073
:10164400614b1b68614a12689b1a634a934200d833
:1016540017e6554b58495a5c01325a5400225a80b5
:101664004e4b1a7084ac524d2b006c33220043cb8a
:1016740043c243cb43c243cb43c220000df0f6ff29
:1016840081b220000ef08ff82b001033220003cb20
:1016940003c21b881380494920000df0f3fd20008c
:1016a4000df0e4ff81b220000ef07df83c4c2000e8
:1016b4000df0dcff81b220000ef075f8802292005c
:1016c400002120000df0acffd5e5324964313248e9
:1016d4000df0a8f90028abd00322304b1a702e4c21
:1016e40020000df0c3ff020021002d480df04eff35
:1016f40080229200002120000df092ff0022294b4d
:101704001a6095e7354a284b5a80bae5344a264b85
:101714005a80b6e5334a244b5a80fef745ff224be4
:1017240025495a5c01325a5400225a801b4b1a70c4
:1017340084ac2d4b1033220023cb23c223cb23c2f2
:1017440003cb03c220000df091ff81b220000ef004
:101754002af8174b1033220003cb03c21b881380d3
:10176400164920000df08efd20000df07fff81b2a0
:1017740020000ef018f80a4c20000df077ff81b21b
:1017840020000ef010f880229200002120000df0bd
:1017940047ff70e5545a000030130020e40c002089
:1017a400301500202c280020740000206c28002014
:1017b400d45a0000ff010000330c00003011002057
:1017c40001020000d227002040280020e02700204a
:1017d400020200000302000088130000fd02000062
:1017e400fe020000ff020000545b0000ea4c0b22e2
:1017f400ea49303120000df0c9fe20000df036ff1b
:10180400010020000af068f8c0229200e44b1a801c
:10181400fc32e44b5a80e44b1a68e44b1a60200013
:101824000df024ff81b220000df0bdff23e5da4c5a
:101834000922da493c3120000df0a8fe20000df009
:1018440015ff010020000af047f8d94ad44b1a804a
:10185400fb32d44b5a80d44b1a68d44b1a60200004
:101864000df004ff81b220000df09dff03e5ca4c8a
:101874000c22d049443120000df088fe20000df0e8
:10188400f5fe010020000af027f8cb4ac44b1a8069
:10189400fa32c44b5a80c44b1a68c44b1a602000f5
:1018a4000df0e4fe81b220000df07dffe3e4bb49be
:1018b4006431c2480df0b6f8002801d1fef7e9fd05
:1018c4000322bf4b1a70bd4c20000df0cffe020066
:1018d4002100bc480df05afe802292000021200015
:1018e4000df09efe0022b84b1a60fef7d2fdb74af7
:1018f400ac4b5a80c5e4b64aaa4b5a80c1e4b14cf9
:1019040020000df0b3fe81b220000df04cff8022c8
:101914009200002120000df083fea14b1b88a64af3
:10192400934206d001339f4a53800022a44b1a707d
:10193400a1e4a84a9b4b5a80f7e79a4ba6495a5c04
:1019440001325a5400225a809d4b1a7084aca34b26
:101954005433220023cb23c223cb23c203cb03c2a1
:1019640020000df083fe81b220000df01cff914b8e
:101974001033220003cb03c21b8813808649200046
:101984000df080fc20000df071fe81b220000df0fe
:101994000aff8c4c20000df069fe81b220000df08e
:1019a40002ff80229200002120000df039fe62e443
:1019b40080229200002183480df032fe61e4764ccf
:1019c4000b227649243120000df0e0fd20000df0bb
:1019d4004dfe0100200009f07fff814a814b1a80ef
:1019e400fb32704b5a80704b1a687f4b1a60200090
:1019f4000df03cfe81b220000df0d5fe3be4664cb8
:101a04000b226649303120000df0c0fd20000df09e
:101a14002dfe0100200009f05fff744a714b1a800b
:101a2400fa32604b5a80604b1a686f4b1a60200080
:101a34000df01cfe81b220000df0b5fefff71bfc7b
:101a4400554c092255493c3120000df09ffd2000e2
:101a54000df00cfe0100200009f03eff644a614bca
:101a64001a80f9324f4b5a804f4b1a685e4b1a60fa
:101a740020000df0fbfd81b220000df094fefff775
:101a8400fafb454c0c224b49443120000df07efdfd
:101a940020000df0ebfd0100200009f01dff554a68
:101aa400504b1a80f8323f4b5a803f4b1a684e4bca
:101ab4001a6020000df0dafd81b220000df073fef3
:101ac400fff7d9fb344c0f224b49043120000df0b1
:101ad4005dfd20000df0cafd0100200009f0fcfeb0
:101ae400464a404b1a80f6322e4b5a802e4b1a68c7
:101af4003d4b1a6020000df0b9fd81b220000df0bd
:101b040052fefff7b8fb254964312c480cf08affdc
:101b1400002801d1fef7dafd0322294b1a70274c65
:101b240020000df0a3fd0200210026480df02efd3b
:101b340080229200002120000df072fd0022224b31
:101b44001a60fef7c3fd2e4a164b5a80fff799fb25
:101b54002c4a144b5a80fff794fb1a4c20000df0ca
:101b640085fd81b220000df01efe8022920000212e
:101b740020000df055fd1b4b1b88204a934207d0d3
:101b84000133084a538000220d4b1a70fff773fb90
:101b94001d4a044b5a80f6e730110020545a0000c5
:101ba400662800207400002040280020fc27002024
:101bb40001030000d45a0000020300003013002087
:101bc400e40c0020301500202c280020fd03000028
:101bd400fe030000ff030000330c0000545b000010
:101be400010400006a2800200428002002040000e8
:101bf4000304000004040000d45b00000604000099
:101c0400fd040000fe040000ff040000ed4bee495b
:101c14005a5c01325a5400225a80ec4b1a7084ac3c
:101c2400eb4b3433220023cb23c223cb23c21b88a8
:101c3400138020000df01afd81b220000df0b3fdd9
:101c4400e44b1033220003cb03c21b881380e24908
:101c540020000df017fb20000df008fd81b22000dc
:101c64000df0a1fddd4c20000df000fd81b220003f
:101c74000df099fd80229200002120000df0d0fc8f
:101c8400fff7f9fa802292000021d4480df0c8fc35
:101c9400fff7f7facd4b1b78012b01d0fff7f1fad0
:101ca4000022ca4b1a70cc4c1e22c9497031200044
:101cb4000df06cfc20000df0d9fc0100200009f0af
:101cc4000bfec04a53880133538020000df0cefc34
:101cd40081b220000df067fdfff7cdfabb4b1b78f6
:101ce400012b01d0fff7cdfa0022b84b1a70ba4c81
:101cf4001e22bb49103120000df048fc20000df0dd
:101d0400b5fc0100200009f0e7fdae4a5388013319
:101d1400538020000df0aafc81b220000df043fd99
:101d2400fff7a9faa94b1b78012b01d0fff7a9faf9
:101d34000022a64b1a70a84c0f22a949303120006a
:101d44000df024fc20000df091fc0100200009f0ae
:101d5400c3fda44a9b4b5a8020000df087fc81b23e
:101d640020000df020fdfff786fa9b4c12229e49bd
:101d7400483120000df00afc20000df077fc010032
:101d8400200009f0a9fdc022d200984b1a80fc3231
:101d94008c4b5a80964b1a68964b1a6020000df0b3
:101da40065fc81b220000df0fefcfff764fa924d51
:101db400894c2a008a49403120000cf09dfc200007
:101dc4000df054fc0100200009f086fd8b4a874b7e
:101dd4001a80063d8a4b6b80854b1a68854b1a60c6
:101de40020000df043fc81b220000df0dcfcfff775
:101df40042fa794c2e227a49543120000df0c6fb68
:101e040020000df033fc0100200009f065fd7d4a3f
:101e1400764b1a80fa326b4b5a80754b1a68754ba5
:101e24001a6020000df022fc81b220000df0bbfcf2
:101e3400fff721fa684c0f2273491c3120000df082
:101e4400a5fb20000df012fc0100200009f044fd68
:101e54006e4a664b1a80f8325a4b5a80644b1a68a1
:101e6400644b1a6020000df001fc81b220000df0db
:101e74009afcfff700fa584c0f2263492c312000da
:101e84000df084fb20000df0f1fb0100200009f0af
:101e940023fd5f4a554b1a80f7324a4b5a80544b04
:101ea4001a68544b1a6020000df0e0fb81b2200048
:101eb4000df079fcfff7dff9474c212252493c3100
:101ec40020000df063fb20000df0d0fb010020008a
:101ed40009f002fd4f4a454b1a80f632394b5a80bd
:101ee400434b1a68434b1a6020000df0bffb81b2cc
:101ef40020000df058fcfff7bef9374c1622464976
:101f0400083120000df042fb20000df0affb010072
:101f1400200009f0e1fcc122d200344b1a80f432d3
:101f2400284b5a80324b1a68324b1a6020000df04d
:101f34009dfb81b220000df036fcfff79cf9264c86
:101f440012223549203120000df020fb20000df035
:101f54008dfb0100200009f0bffc304a234b1a809e
:101f6400f332184b5a80224b1a68224b1a60200015
:101f74000df07cfb81b220000df015fcfff77bf91e
:101f8400154c0e222449343120000df0fffa2000b4
:101f94000df06cfb0100200009f09efc174a134b66
:101fa4001a80fb32074b5a80114b1a68114b1a6086
:101fb40020000df05bfb81b220000df0f4fbfff775
:101fc4005af9c04674000020330c0000e40c0020d1
:101fd400d45b0000d45a00003011002030150020da
:101fe400545c0000fe050000545a000060280020e4
:101ff40040280020f02700207a000020010600007d
:10200400fc06000002060000d45c00000406000088
:102014000506000006060000545d000009060000e5
:10202400ec495c31ec480cf0fdfc002868d002223d
:10203400ea4b1a70e84c20000df018fb0200210056
:10204400e7480df0a3fa80229200002120000df051
:10205400e7fa0022e34b1a60e04b1b78022b6cd0aa
:10206400de4b1b78032b6dd0df4b1b68df4a1268f5
:102074009b1adf4a934201d8fff703f9dd4bde498f
:102084005a5c01325a5400225a80d44b1a7084ace0
:10209400da4b4433220023cb23c223cb23c223cbea
:1020a40023c203cb03c2198811809b78937020004c
:1020b4000df0dcfa81b220000df075fbd04b10332b
:1020c400220003cb03c21b881380ce4920000df0ed
:1020d400d9f820000df0cafa81b220000df063fb9c
:1020e400bf4c20000df0c2fa81b220000df05bfb62
:1020f40080229200002120000df092fafff7bbf835
:10210400b4496431b4480cf08dfc0028a4d00322f7
:10211400b24b1a70b04c20000df0a8fa0200210056
:10212400af480df033fa80229200002120000df018
:1021340077fa0022ab4b1a608ee7b34aad4b5a8054
:10214400fff79ff8b14aab4b5a80fff79af8c023c8
:10215400db00af4a12889a421ad0a14c20000df03d
:1021640085fa81b220000df01efb8022920000212e
:1021740020000df055faa64b1b88a64a934213d0b3
:1021840001339c4a53800022944b1a70fff773f872
:102194009b491c3192480cf045fc411d2022954876
:1021a40006300df0f3f9d8e79b4a924b5a80eae7e0
:1021b400904b91495a5c01325a5400225a80874b01
:1021c4001a7084ac8d4b7433220023cb23c223cbef
:1021d40023c223cb23c219681160998891809b790b
:1021e400937120000df042fa81b220000df0dbfa69
:1021f400834b1033220003cb03c21b881380814915
:1022040020000df03ff820000df030fa81b22000dc
:102214000df0c9fa724c20000df028fa81b22000aa
:102224000df0c1fa80229200002120000df0f8f98f
:10223400fff721f8794d734c2a0079494031200089
:102244000cf05afa20000df011fa0100200009f0f8
:1022540043fb063d6b8801336b8020000df006faca
:1022640081b220000df09ffafff705f85b4b1b7855
:10227400012b01d0fff705f80022584b1a70614c6e
:1022840012226849203120000df080f920000df061
:10229400edf90100200009f01ffb564a5388013371
:1022a400538020000df0e2f981b220000df07bfa9a
:1022b400fef7e1ff494b1b78012b01d0fef7e1ff4c
:1022c4000022464b1a704f4c2e22564934312000be
:1022d4000df05cf920000df0c9f90100200009f0af
:1022e400fbfa444a53880233538020000df0bef9b0
:1022f40081b220000df057fafef7bdff374b1b7873
:10230400012b01d0fef7bdff0022344b1a703d4c67
:1023140024224449643120000df038f920000df0e6
:10232400a5f90100200009f0d7fa324a5388013395
:10233400538020000df09af981b220000df033fa99
:10234400fef799ff254b1b78012b01d0fef799ff6f
:102354000022224b1a702b4c0f2233491c312000cf
:102364000df014f920000df081f90100200009f0ae
:10237400b3fa204a53880133538020000df076f9d4
:1023840081b220000df00ffafef775ff134b1b7896
:10239400012b01d0fef775ff0022104b1a70194c67
:1023a4003d222249283120000df0f0f820000df0e4
:1023b4005df90100200009f08ffa0e4a53880133b9
:1023c400538020000df052f981b220000df0ebf99a
:1023d400fef751ff545a000030130020e40c002093
:1023e400301500202c28002040280020f027002051
:1023f4008813000074000020330c0000545d0000ba
:10240400d45a000030110020fd060000fe06000032
:102414006028002009060000ff0600007a00002062
:10242400545c0000d45d0000d45c0000545e0000e5
:10243400e54b1b78012b01d0fef723ff0022e24b72
:102444001a70e24c2622e249603120000df09ef819
:1024540020000df00bf90100200009f03dfadd4adf
:1024640053880133538020000df000f981b220001d
:102474000df099f9fef7fffed34b1b78012b01d029
:10248400fef7fffe0022d04b1a70d04c1622d24920
:10249400083120000df07af820000df0e7f8010073
:1024a400200009f019facb4a5388013353802000e5
:1024b4000df0dcf881b220000df075f9fef7dbfebb
:1024c400c14b1b78012b01d0fef7dbfe0022be4b73
:1024d4001a70be4c1022c149683120000df056f824
:1024e40020000df0c3f80100200009f0f5f9b94a05
:1024f40053880133538020000df0b8f881b22000d6
:102504000df051f9fef7b7feaf4b1b78012b01d04c
:10251400fef7b7fe0022ac4b1a70ac4c0f22af4949
:10252400783120000df032f820000df09ff8010002
:10253400200009f0d1f9a74a5388013353802000c1
:102544000df094f881b220000df02df9fef793fe02
:102554009d4b1b78012b01d0fef793fe00229a4b72
:102564001a709f4a9b4b5a80fef78bfe974c0f22a2
:102574009c49083120000df009f820000df076f890
:102584000100200009f0a8f9974a984b1a80fb3201
:10259400904b5a80964b1a68964b1a6020000df0a7
:1025a40065f881b220000df0fef8fef764fe864b5c
:1025b4001b78012b01d0fef764fe0022824b1a70b7
:1025c4008d4a844b5a80fef75cfe8c495c318c4802
:1025d4000cf028fa002866d002227b4b1a70884c33
:1025e40020000df043f80200210086480cf0ceffd5
:1025f40080229200002120000df012f80022824b6c
:102604001a60714b1b78022b6ad06f4b1b78032b1b
:102614006bd0774b1b68774a12689b1a7b4a9342ac
:1026240001d8fef72efe6b4b79495a5c01325a549d
:1026340000225a80644b1a7084ac6a4b183322000f
:1026440023cb23c223cb23c223cb23c2196811601b
:102654001b79137120000df009f881b220000df0f0
:10266400a2f86c4b1033220003cb03c21b881380e7
:10267400564920000cf006fe20000cf0f7ff81b252
:1026840020000df090f85f4c20000cf0efff81b2b9
:1026940020000df088f880229200002120000cf028
:1026a400bffffef7e8fd5549643155480cf0baf90f
:1026b4000028a6d00322444b1a70514c20000cf081
:1026c400d5ff020021004f480cf060ff80229200e9
:1026d400002120000cf0a4ff00224b4b1a6090e76d
:1026e4004d4a3c4b5a80fef7ccfd4c4a394b5a803c
:1026f400fef7c7fd434c20000cf0b8ff81b2200068
:102704000df051f880229200002120000cf088ff87
:10271400364b1b88344a934207d001332d4a5380e9
:102724000022294b1a70fef7a6fd334a294b5a8022
:10273400f6e780229200002132480cf071fffef788
:10274400a0fd224c10223649743120000cf01effeb
:1027540020000cf08bff0100200009f0bdf890224e
:102764001201304b1a80fc321a4b5a80204b1a68e3
:102774002d4b1a6020000cf079ff81b220000df07f
:1027840012f8fef778fd114c0f222849043120007d
:102794000cf0fcfe20000cf069ff0100200009f0a1
:1027a4009bf8234a1f4b1a80fb320a4b5a80104b6a
:1027b4001a681d4b1a6020000cf058ff81b22000eb
:1027c4000cf0f1fffef757fde40c0020301100205f
:1027d400d45c000074000020545d0000545e0000ce
:1027e400ff070000d45e00000108000062280020fa
:1027f40040280020f4270020ff080000545a00005d
:1028040030130020301500202c28002088130000ed
:10281400330c0000d45a0000fd080000fe0800003c
:10282400545b0000da270020e4270020d45b00007a
:1028340001090000f3495c31f3480cf0f3f8002877
:1028440064d00222f14b1a70ef4c20000cf00eff02
:1028540002002100ee480cf099fe80229200002133
:1028640020000cf0ddfe0022ea4b1a60e74b1b78d7
:10287400022b68d0e54b1b78032b69d0e64b1b6811
:10288400e64a12689b1ae64a934201d8fef7f9fc1d
:10289400e44be5495a5c01325a5400225a80db4b1e
:1028a4001a7084ace14b6c33220023cb23c223cbbc
:1028b40023c203cb03c21b88138020000cf0d6fe76
:1028c40081b220000cf06fffd94b1033220003cbf0
:1028d40003c21b881380d74920000cf0d3fc2000ce
:1028e4000cf0c4fe81b220000cf05dffc84c200047
:1028f4000cf0bcfe81b220000cf055ff8022920047
:10290400002120000cf08cfefef7b5fcbd496431bb
:10291400bd480cf087f80028a8d00322bb4b1a70de
:10292400b94c20000cf0a2fe02002100b8480cf0c3
:102934002dfe80229200002120000cf071fe002266
:10294400b44b1a6092e7bc4ab64b5a80fef799fc26
:10295400ba4ab44b5a80fef794fcb94ab14b5a8038
:10296400fef724f9af4bb0495a5c01325a540022a5
:102974005a80a64b1a7084acb24b1033220023cb7e
:1029840023c223cb23c2196811609b889380200043
:102994000cf06cfe81b220000cf005ffa44b103348
:1029a400220003cb03c21b881380a24920000cf031
:1029b40069fc20000cf05afe81b220000cf0f3fefa
:1029c400934c20000cf052fe81b220000cf0ebfe80
:1029d40080229200002120000cf022fefef74bfc26
:1029e4008022920000218a480cf01afefef749fc6e
:1029f400904c10229449743120000cf0c7fd200043
:102a04000cf034fe0100200008f066ffa022120141
:102a14008e4b1a80fc32834b5a807f4b1a688c4b46
:102a24001a6020000cf022fe81b220000cf0bbfee4
:102a3400fef721fc7f4c0e227d49503120000cf022
:102a4400a5fd20000cf012fe0100200008f044ff58
:102a5400804a7e4b1a80f832724b5a806e4b1a6849
:102a64007b4b1a6020000cf001fe81b220000cf0b8
:102a74009afefef700fc6f4c0f2277497831200054
:102a84000cf084fd20000cf0f1fd0100200008f0a2
:102a940023ff724a6d4b1a80f332624b5a805e4bad
:102aa4001a686b4b1a6020000cf0e0fd81b2200024
:102ab4000cf079fefef7dffb5e4c0f225b49083118
:102ac40020000cf063fd20000cf0d0fd010020007c
:102ad40008f002ff624a5d4b1a80f232514b5a8071
:102ae4004d4b1a685a4b1a6020000cf0bffd81b29e
:102af40020000cf058fefef7befb4e4c1322514949
:102b0400303120000cf042fd20000cf0affd01003c
:102b1400200008f0e1fe534a4c4b1a80f732414b37
:102b24005a803d4b1a684a4b1a6020000cf09efdf7
:102b340081b220000cf037fefef79dfb3d4c1922bc
:102b44004049603120000cf021fd20000cf08efd86
:102b54000100200008f0c0fe434a3c4b1a80f532c5
:102b6400304b5a802c4b1a68394b1a6020000cf0f9
:102b74007dfd81b220000cf016fefef77cfb2d4c8f
:102b84000d223a49183120000cf000fd20000cf011
:102b94006dfd0100200008f09ffe354a2b4b1a8082
:102ba400f132204b5a801c4b1a68294b1a602000c2
:102bb4000cf05cfd81b220000cf0f5fdfef75bfb30
:102bc4001c4c2e222b49543120000cf0dffc200039
:102bd4000cf04cfd0100200008f07efe264a1b4b41
:102be4001a80fa320f4b5a800b4b1a68184b1a6032
:102bf40020000cf03bfd81b220000cf0d4fdfef768
:102c04003afbc046545a000030130020e40c002064
:102c1400301500202c28002040280020e427002024
:102c24008813000074000020330c0000d45e000000
:102c3400d45a000030110020fd090000fe090000f4
:102c4400ff090000545f0000545b00005e28002070
:102c5400ec270020040a0000545e0000090a00006a
:102c64000a0a0000050a0000070a0000d45f0000f9
:102c74000b0a0000545c0000020a0000f14c12220e
:102c8400f149203120000cf081fc20000cf0eefc16
:102c94000100200008f020feec4aed4b1a80f932c6
:102ca400ec4b5a80ec4b1a68ec4b1a6020000cf089
:102cb400ddfc81b220000cf076fdfef7dcfae14c7d
:102cc400e74d290028311a2220000cf05ffc200077
:102cd4000cf0ccfc0019df4eb11d20220cf056fc88
:102ce40004a92b0044330a0021cb21c21b781370a2
:102cf40020000cf0c7fa20000cf0b8fc0100200002
:102d040008f0eafdd74ad24b1a80d74b7380d24bd6
:102d14001a68d24b1a6020000cf0a8fc81b2200083
:102d24000cf041fd0cf0bcfbd0480bf0a5fc0cf002
:102d3400b7fbfef7a0fac34c8022920000212000ca
:102d44000cf06efc04ae6422002130000cf068fc30
:102d5400c34d290028311a2220000cf017fc200052
:102d64000cf084fc0019bb4fb91d20220cf00efca2
:102d74002b005033320003cb03c2310020000cf08f
:102d840081fa20000cf072fc0100200008f0a4fd80
:102d9400b74aaf4b1a80b44b7b80af4b1a68af4b2a
:102da4001a6020000cf062fc81b220000cf0fbfce5
:102db4000cf076fbad480bf05ffc0cf071fbfef7fa
:102dc4005afaa04c0e22a649583120000cf0defb22
:102dd40020000cf04bfc0100200008f07dfda54a0a
:102de4009b4b1a80ed329b4b5a809b4b1a689b4b32
:102df4001a6020000cf03afc81b220000cf0d3fce5
:102e0400fef739fa0cf0e4fc98480bf035fc0cf0b2
:102e1400dffcfef772f89849643198480bf002fe23
:102e2400002801d1fef769f80322954b1a70934ce0
:102e340020000cf01bfc0200210092480cf0a6fbc1
:102e440080229200002120000cf0eafb00228e4b2d
:102e54001a60fef752f88d4a7e4b5a80fef711fa3b
:102e64008b4a7c4b5a80fef70cfa864c20000cf0ff
:102e7400fdfb81b220000cf096fc80229200002120
:102e840020000cf0cdfb724b1b88794a934207d08b
:102e94000133704a53800022794b1a70fef7ebf924
:102ea4007c4a6c4b5a80f6e76a4b7b495a5c013288
:102eb4005a5400225a80724b1a7084ac774b1833e0
:102ec400220023cb23c223cb23c223cb23c203cb95
:102ed40003c220000cf0cafb81b220000cf063fc9a
:102ee4006f4b1033220003cb03c21b881380554958
:102ef40020000cf0c7f920000cf0b8fb81b22000d0
:102f04000cf051fc5f4c20000cf0b0fb81b22000af
:102f14000cf049fc80229200002120000cf080fb80
:102f2400fef7a9f900215c4b4a4ad1548022920051
:102f340054480cf075fbfef7a4f9424c0d22574996
:102f4400543120000cf022fb20000cf08ffb010018
:102f5400200008f0c1fc534a534b1a80fb323d4b0e
:102f64005a803d4b1a68514b1a6020000cf07efbce
:102f740081b220000cf017fcfef77df9314c1122d0
:102f84004649643120000cf001fb20000cf06efb7c
:102f94000100200008f0a0fc454a434b1a80fa3295
:102fa4002c4b5a802c4b1a68404b1a6020000cf0b2
:102fb4005dfb81b220000cf0f6fbfef75cf9214cbe
:102fc4000f223649783120000cf0e0fa20000cf092
:102fd4004dfb0100200008f07ffc364a324b1a807a
:102fe400f9321c4b5a801c4b1a68304b1a60200073
:102ff4000cf03cfb81b220000cf0d5fbfef73bf952
:10300400104c0b222649603120000cf0bffa20003e
:103014000cf02cfb0100200008f05efc264a224b39
:103024001a80f8320b4b5a800b4b1a681f4b1a60ec
:1030340020000cf01bfb81b220000cf0b4fbfef767
:103044001af9c04630110020545d0000030a000044
:103054005e2800207400002040280020ec27002077
:10306400d45f00000d0a0000fc0a0000b80b000049
:103074000e0a00000f0a0000545a0000301300200a
:10308400e40c0020301500202c280020fd0a00004c
:10309400fe0a0000ff0a0000330c00005460000028
:1030a400d45a0000010b00005c280020e82700200f
:1030b400020b0000030b0000040b0000e84c0c2280
:1030c400e849083120000cf061fa20000cf0cefa37
:1030d4000100200008f000fce34ae44b1a80f732b8
:1030e400e34b5a80e34b1a68e34b1a6020000cf060
:1030f400bdfa81b220000cf056fbfef7bcf8df49a4
:103104006431df480bf08efc002801d1fdf7e2ffab
:103114000322dc4b1a70da4c20000cf0a7fa0200f0
:103124002100d9480cf032fa8022920000212000bc
:103134000cf076fa0022d54b1a60fdf7cbffd44a87
:10314400cb4b5a80fef79df8d24ac94b5a80fef702
:1031540098f8cd4c20000cf089fa81b220000cf0d4
:1031640022fbc24b1b88c04a934207d00133c04a9a
:1031740053800022c34b1a70fef77df8b9493c31e5
:10318400c1480bf04ffc002800d180e003300cf064
:1031940005fb08f0bdfe051cb2494031ba480bf0ee
:1031a40041fc00287dd003300cf0f8fa08f0b0fea2
:1031b400041cac494831b4480bf034fc002800d15d
:1031c4008de0b54e1422002130000cf029fa1422af
:1031d4000021b2480cf024fab149281c07f036fb50
:1031e4000bf0aafa0300642701907b4318000af04d
:1031f4001ff9011c281c06f003fb0290a849201c9f
:1032040007f024fb0bf098fa0500474338000af056
:103214000ff9011c201c06f0f3fa0390a14902984f
:1032240007f014fb041c01980af002f9011c201c8d
:1032340006f060fc09f024fe02000b00894f3c00fc
:103244004c34210030000bf057fa9649039807f0ec
:10325400fdfa019028000af0ebf8011c019806f031
:1032640049fc09f00dfe02000b0021008b480bf015
:1032740043fa39005431894b320084a80bf03cfaec
:1032840084a80cf0f3f981b284a80cf08cfa8022a3
:10329400920000217c480cf0c3f9834a744b5a8095
:1032a40067e780231b069c4665446e4e310044311b
:1032b400754f38000bf0b6fb03300cf06ffa08f0d2
:1032c40027fe041c3100483138000bf0abfb00280a
:1032d40000d076e780231b069c46644471e7802374
:1032e4001b069c4664446ce7614b70495a5c01328e
:1032f4005a5400225a80634b1a7084ac594b74336d
:10330400220023cb23c203cb03c21b7813702000fb
:103314000cf0acf981b220000cf045fa644b103388
:10332400220003cb03c21b8813804d4920000bf0fd
:10333400a9ff20000cf09af981b220000cf033fab6
:10334400514c20000cf092f981b220000cf02bfac1
:1033540080229200002120000cf062f9fdf78bff1f
:1033640080229200002148480cf05af9514a404bff
:103374005a803f4b1b78022b01d0fdf782ff35e1c9
:103384003e495c313e480bf04dfb002800d199e0ea
:1033940002223c4b1a703a4c20000cf067f90200f0
:1033a400210039480cf0f2f880229200002120001c
:1033b4000cf036f90022354b1a60324b1b78022b85
:1033c40000d19de02f4b1b78032b00d19de0294bae
:1033d4001b68394a12689b1a384a934201d8fdf790
:1033e40050ff234b31495a5c01325a54314a5a80b6
:1033f4000022244b1a7084ac314b3433220023cb8b
:1034040023c223cb23c223cb23c21b8813802000d7
:103414000cf02cf981b220000cf0c5f9244b1033c8
:10342400220003cb03c21b8813800d4920000bf03c
:1034340029ff20000cf01af981b220000cf0b3f936
:10344400114c20000cf012f981b220000cf0abf901
:1034540080229200002120000cf0e2f8fdf70bff1f
:1034640030110020d4600000050b00005c2800200f
:103474007400002040280020e8270020545a00004f
:1034840030130020e40c0020301500202c280020ec
:10349400fd0b0000fe0b0000b00c0020c40c00204b
:1034a4000000c84200007042ff0b0000330c000013
:1034b400d45a0000ff0c0000f82700201027000059
:1034c40054610000c3496431c3480bf0abfa0028cf
:1034d40000d172e70322c14b1a70bf4c20000cf0dc
:1034e400c5f802002100be480cf050f8802292007a
:1034f400002120000cf094f80022ba4b1a605ce71b
:10350400b94aba4b5a80fdf7bcfeb94ab74b5a8048
:10351400fdf7b7fe0021b74bb44ad154b04c20009c
:103524000cf0a4f881b220000cf03df9b24b1b88da
:10353400c022120193420dd00133ac4a5380802241
:1035440092000021a6480cf06bf80022a34b1a70dd
:10355400fdf791fea94aa54b5a80f0e7a34ba54974
:103564005a5c01325a54a54a5a8000229b4b1a7065
:1035740084aca34b5c33220023cb23c223cb23c2d2
:1035840019681160998891809b79937120000cf0df
:103594006df881b220000cf006f99a4b103322002a
:1035a40003cb03c21b881380974920000bf06afeeb
:1035b40020000cf05bf881b220000cf0f4f8884c89
:1035c40020000cf053f881b220000cf0ecf88022bb
:1035d4009200002120000cf023f8fdf74cfe874bed
:1035e400824a52889a4201d0fdf74bfe7f4b9b885a
:1035f400864a93425cd015d9854a934200d1cde1e5
:1036040000d21de10132934201d0fdf73afe80223f
:103614009200002172480cf003f800226f4b1a70dc
:10362400fdf72ffefc3a934225d00132934201d09c
:10363400fdf727fe744c0e227649103120000bf062
:10364400a5ff20000cf012f80100200008f044f956
:10365400714a724b1a80fb32644b9a80704b1a6821
:10366400704b1a6020000cf001f881b220000cf0bd
:103674009af8fdf706fe62497c3157480bf0d2f9ff
:10368400002801d1fdf7fdfd0c30040061490c3127
:103694000bf0c8f9002801d1fdf7f3fd20000cf070
:1036a40059f8524b604a98525b4a9a80fdf7e9fdfb
:1036b40048495c3148480bf0b5f9002863d0022230
:1036c400464b1a70444c20000bf0d0ff020021003e
:1036d40043480bf05bff80229200002120000bf096
:1036e4009fff00223f4b1a603c4b1b78022b67d094
:1036f4003a4b1b78032b68d0494b1b68494a126824
:103704009b1a4a4a934201d8fdf7bbfd0022334b72
:103714001a70364b46495a5c01325a54454a9a80cb
:1037240084ac3c4b2033220023cb23c223cb23c2c3
:103734001b88138020000bf099ff81b220000cf04d
:1037440032f8304b1033220003cb03c21b881380a2
:103754002d4920000bf096fd20000bf087ff81b26d
:1037640020000cf020f81e4c20000bf07fff81b2eb
:1037740020000cf018f880229200002120000bf0a9
:103784004ffffdf77efd1349643113480bf04af9ee
:103794000028a9d00322114b1a700f4c20000bf003
:1037a40065ff020021000e480bf0f0fe802292001b
:1037b400002120000bf034ff00220a4b1a6093e72b
:1037c4001d4a0a4b9a80fdf75cfd1c4a074b9a8000
:1037d400fdf757fd545a000030130020e40c00207c
:1037e400301500202c280020fd0c0000740000205f
:1037f400fe0c0000330c000064280020ff0c0000c5
:1038040054610000d45a000030110020fc800000f4
:10381400fe800000d46100000180ffff68280020c2
:1038240040280020002800202a0200001027000061
:10383400340c00000080fffffd80fffffe80ffffcf
:10384400754c21003c31754d28000bf0ebf8060057
:103854002100443128000bf0e5f8002e00d186e069
:103864006f4b704a9a5c9b188b2292009446634477
:1038740001221a70002809d0694b6a4a9a5c9b1885
:103884008b2292009446634402221a70624c2100f7
:103894004c31624e30000bf0c5f8c51c210050318c
:1038a40030000bf0bff807005d4c5e4ea05d400297
:1038b4005d4b9c46604400198022920000210bf06d
:1038c400affea05d4002584b9c46604400197a1b31
:1038d40029000bf05bfea35d0133dbb2042b49d856
:1038e4004f498b554e4b01218a2292009954002155
:1038f4004e4a995404aa484b583303cb03c21b784d
:103904001370484b464ad35c0421002b01d0013b81
:10391400d9b24902444b9c466144414bc91804a89e
:103924000bf0b0fc04a80bf0a1fe04ab9c46604471
:10393400032239490c310bf029fe04a80bf096fe42
:1039440081b204a80bf02fff394b1b88394a9342ec
:1039540015d00133324a93808022920000212f48ef
:103964000bf05efe0022344b1a70fdf78afc00282f
:1039740082d1bfe700212b4b294ad154b2e7284911
:103984002e4a8b5a013b9bb28b52002b02d12c4afc
:103994008a80e1e72b4a224b9a80dde70022264bfe
:1039a4001a701f4b21495a5c01325a54244a9a8096
:1039b40084ac194b6433220023cb23c203cb03c250
:1039c4001b88138020000bf051fe81b220000bf005
:1039d400eafe1d4b1033220003cb03c21b88138065
:1039e4001a4920000bf04efc20000bf03ffe81b280
:1039f40020000bf0d8fe094c20000bf037fe81b2fa
:103a040020000bf0d0fe80229200002120000bf059
:103a140007fefdf736fcc046d461000030150020d7
:103a2400740000203102000033020000340c000056
:103a34006828002001800000e40c00202a02000015
:103a44000080ffff0180ffffd45a000030110020e6
:020000040000fa
:103a5400f0b5a5b00793002304900798209306912e
:103a64001a920bf0e1fe050000680bf0fffd002642
:103a74000027069b05901f931f9b1a780d2a39d89f
:103a8400092a3dd2002a44d00023129300221f9c0d
:103a94000c922378302b00d07ee06378582b02d030
:103aa400782b00d06ee0079bb74a0293129b1fa9a4
:103ab400019320ab0093049821ab04f0b5fc0725d7
:103ac4000590054005d0062d2fd1002301341f9405
:103ad40012931a9b002b02d01a9b1f9a1a60129bf6
:103ae400002b1dd0802332001b06fb181000190088
:103af40025b0f0bd2b2a05d02d2a14d0202ac3d1fd
:103b04000133b8e7002212925a1c1f925b78002bf3
:103b1400bcd1069b1f93002312931a9b002bdbd16d
:103b240032003b00e2e70122ede7209a002a07d0a9
:103b3400352122a80bf058f8209904980af010ffb8
:103b4400681e042806d80bf0ddfc0c0317190c00c2
:103b5400229e239f059b1b07bbd580231b061f4367
:103b6400b7e7239b894a8a491a40219b229e5b1806
:103b74001b051a431700ede7864febe70126864f36
:103b84007642e7e71f9b5a1c1f925b78302bf9d0d3
:103b9400002b9ed001230c931f9b0a221393002316
:103ba4000b930a9308931f9804782300303bd9b2ef
:103bb400092926d9059a29680bf058fa002832d029
:103bc400002023008446089a0790059220221900b9
:103bd40091430a000021452a00d0a7e0059b0c9ad6
:103be400034313438b4294d01f9b069301331f93cb
:103bf400069b5b782b2b71d00c002d2b74d10124e8
:103c04006de00899082909dc0a9951435b180a9365
:103c1400089b0130013308931f90c4e70b9951436b
:103c24005b180b93f4e71f9a059b9446089a634428
:103c34001f931b78002a49d11000302b28d01a007a
:103c4400313a082a46d8844600201f9a05901392d8
:103c5400303b421c002b0fd00a219444059a1018c3
:103c640082421bd1511c0591082a25dc0a220a999b
:103c74004a439b1800220a9310001f9b591c1f9152
:103c84005b781a00303a092ae2d9012207929de7ab
:103c94001f9b01305a1c1f925b78cee70132541ee1
:103ca400082c03dc0a9c4c430a94d9e7102ad7dc7d
:103cb4000b9c4c430b94d3e7059900221029dbdcc1
:103cc4000a210b9841435b180b93d5e7089a844665
:103cd4000592d6e7002294460592d6e70c00069b8f
:103ce40002331f93069b9b781a00303a092a60d846
:103cf400302b43d01a00313a0021082a16d8303b21
:103d04001f9d0e931f9b591c1f915b781a00303a1c
:103d1400092a47d94a1b214d2900082a03dc0e9998
:103d2400a94200dd2900002c00d04942059a002a4e
:103d340063d10c9a104300d0cbe6079a002a00d036
:103d4400e7e64e2b3ed038dc492b00d0e1e6144c9c
:103d54001fa821000bf01af8002800d1d9e61f9bf8
:103d6400e11c013b1fa81f930bf010f8002802d19f
:103d74001f9b01331f93074f0026aae61f9b5a1c63
:103d84001f925b78b4e7c04630f50000ffffeffff9
:103d9400330400000000f07fffffff7f1f4e000090
:103da40064f700000a220e994a43d218303a0e9260
:103db400a8e7069a00211f92b8e7692bc7d06e2b9b
:103dc40000d0a6e68b491fa809310af0dfff0028be
:103dd40000d19ee61f9b1b78282b0cd122aa864972
:103de4001fa807f025fa052805d1239b834a229ea4
:103df4001a4317006de6824fbee76346cb1a07935a
:103e0400089b002b01d1059b0893059c102c00dd19
:103e140010240a9809f09cff06000f00092c15ddf8
:103e24002200784b093ad2009b181a685b6805f0a7
:103e340059f906000b980f0009f08aff02000b00e5
:103e44003000390003f0c4fa06000f00059b0f2b65
:103e540039dc079b002b00d13be626dd162b0bdc5f
:103e64006849db00c9183200086849683b0005f05e
:103e740039f906000f002ce62523059a9b1a079aa8
:103e84009a4220dc0f24059b5e4de41ae100691878
:103e94003200086849683b0005f024f9079b1c1ba5
:103ea400e4002c1922686368e1e7079b16330adbf8
:103eb400079b3000da00534b39009b1a1a685b6881
:103ec40004f010f8d5e7059b1c1b079be418002c95
:103ed4006edd0f2323400ad04a49db00c9183200a3
:103ee400086849683b0005f0fdf806000f000f2341
:103ef4009c4348d02633ff339c4221dd00240594a3
:103f04000a94079422230026049a3c4f13600a9bc8
:103f1400b34200d1dde5209904980af021fd079908
:103f240004980af01dfd059904980af019fd0a99f0
:103f340004980af015fd210004980af011fdc8e563
:103f44000023300039001d002411012c1edc002b3d
:103f540001d006000f002c4bed00ff182b4b320054
:103f64005d19286869683b0005f0bcf8234b0f0015
:103f74000b40274906008b42c0d826498b4213d9ef
:103f84000126254f76420023069373e00122144252
:103f940007d01e4aeb009b181a685b6805f0a2f86c
:103fa400012301356410d0e7d4239b04ff18eae70a
:103fb400002ce8d00f23644223400ad0114adb00ce
:103fc400d31830001a685b68390003f08bff0600d1
:103fd4000f002411d7d01f2c20dd002405940a944f
:103fe40007942223049a002613600a9b0027002bbf
:103ff40091d16ee564f7000044f500000000f07f05
:104004000000f8ff20c700000000b0fcb8ed00007d
:104014000000a07c0000907cffffef7f1023234072
:10402400069301d06a230693300039000023ca4d59
:10403400002c00dd03e1002b01d006000f00069bdd
:10404400002b0fd06b237900490d3a005b1a002b2b
:1040540008dd1f2b00dc04e10026342b00dcf9e032
:10406400dc27bf04002200233000390009f0aafb3a
:104074000028b2d10a9b089a00931399059b0498cf
:1040840009f058fa0a90002800d137e7079b00246a
:10409400da175b421a40079b1592db43079adb173a
:1040a4001a40139205940a9b0498596809f012fd6a
:1040b4000790002800d125e70a9b0a991b690c3157
:1040c4009a1c92000c3008930bf060fa22ab019317
:1040d40021ab009332003b0004980e960f9708f032
:1040e40097fc2090002800d10ce7012104980bf0e4
:1040f40056fa0590002800d104e7219b002b00da32
:10410400b4e0159ad518139a94460699229a5b1a24
:1041140036219b189148013b8a1a0121834200db16
:10412400b0e0c01a121a1f2800dda4e08140002369
:1041340014910c93ab1808931300069a6344d31894
:10414400089a0b932b00954200dd13000b9a9342bf
:1041540000dd1300002b06dd089aed1ad21a08922e
:104164000b9ad21a0b92159b002b17d01a000599a3
:10417400049808f097fd0590002800d1c2e60100dc
:10418400209a049807f082f91b90002800d1b9e620
:10419400209904980af0e4fb1b9b2093089b002bb6
:1041a40073dc139b002b79d10b9b002b08dd1a00c9
:1041b4000799049808f0d4fc0790002800d1a1e6e0
:1041c400002d08dd2a000599049808f0c9fc059023
:1041d400002800d196e6079a2099049808f038fa46
:1041e400041e00d18ee60025c3680599c5600b93b3
:1041f4000af0cffba8425bda0b9bab421bd1ae4269
:1042040019d13b03ab4216d1d622554bd2043b40c5
:10421400934210d96369ab4202d12369012b0addb1
:1042240021000122049808f09bfc059904000af07f
:10423400b0fb00286cdc069b002b78d16be60122d6
:10424400144204d02a686b6804f04cff0123641004
:104254000835ede60121203b494299400a40170008
:1042640000e7012252429a401640fbe6139a159d3c
:10427400d21a944649e73b48c31a080098400c9068
:10428400149157e700230c93fae7089a20990498ad
:1042940008f066fc2090002883d133e6139a07992e
:1042a400049808f0fffc0790002800d07ce729e67a
:1042b400002800d095e00b9a3b03002a24d02a4919
:1042c4003a001b0b8b425ed1069b0138b4460100b9
:1042d400002b0ad0d425224bed043b40ab4204d83a
:1042e4006b211b0dcb1a0100994061454bd11f4b2b
:1042f4009a4202d14b1c00d104e6194b00261a4005
:1043040080235b03d71896e7002b3cd1002e3ad1cb
:10431400069a134b002a2dd01a00d6213a40c9041c
:104324008a4227dcdc239b049a4200dc59e6104bca
:1043340030001193002310933900109a119b04f05c
:10434400d1fe06000f1e00d0e5e5002800d0e2e50e
:104354002223049a1360dee540ed000002fcffff17
:104364000000f07fe2fbffffffff0f00ffffef7f86
:10437400000050390126a94a3b409b18a84a7642be
:104384001a43170057e70c9b002b13d03b4200d174
:1043940051e70b9b069a30003900002b0fd00af02e
:1043a40059fb02000b000e980f9903f011f8060058
:1043b4000f0040e7149b334200d13ce7e9e70af0e1
:1043c40049fb02000b000e980f9902f029fd002210
:1043d400002306000f0009f0f5f9002800d000e6dc
:1043e40029e70599200009f097fe80230022db05c8
:1043f4000890099109f0f6f9002875d00b9b002b61
:1044040043d00022874b0c920d93864b0893864b26
:104414003b401493149a854b9a4200d0b1e00e9a13
:104424000f9b10921193824b3000ff18390009f052
:10443400e7fe02000b000c980d9904f053fe3200c5
:104444003b0002f0c5ff784a7a4b06000a409a42c4
:1044540062d9794b119a9a4203d1109a013200d150
:1044640050e501261f007642209904980af078fa54
:10447400079904980af074fa059904980af070faf6
:10448400210004980af06cfa0de6002e1dd13b03be
:1044940020d1089809990022624b09f099f9002863
:1044a4001ed1089809990022644b04f01bfe0500f4
:1044b4000891802212069446089b1c9563441d9320
:1044c4001c9a1d9b0c920d93a1e7012e02d1002f83
:1044d40000d186e500225a4b00250c920d9394e7f7
:1044e400564b0b9d0893e4e7544b08980999002216
:1044f40004f0f8fd0b9b05000891002b07d18023e5
:104504001b06cb1816901793169a179bdae702002e
:10451400089b16921793f7e7d4239b04cf18069ba6
:10452400002ba1d1404b149a0c973b409a429bd14b
:104534000899280009f0a6fb09f022fa0b000200f2
:104544000899280002f06cfc0b9b08900991002b41
:1045540004d1002e02d10c9b1b0358d00898099952
:10456400384a394b09f034f9002800d0d3e40898cc
:104574000999364a314b09f03ff9002800d173e715
:10458400c9e4069b002b2ad0d423149adb049a4254
:1045940025d82f4a2f4b2800089909f023f9002821
:1045a40016d0280008990af057f9002800d10120f4
:1045b40009f0cefb0b9b05000891002b22d1802330
:1045c4001b06cb1818901993189a199b0c920d93eb
:1045d400d6220d9bd2049b18149a9b1a0d930e9805
:1045e4000f990c9e0d9f09f00bfe02000b0030008a
:1045f400390004f077fd0e9a0f9b02f0e9fe0600e5
:104604000f008ce70200089b18921993dce70d4a0f
:10461400114b0898099909f0dbf8aee70000f0ffa8
:10462400ffff0f000000f03f0000f07f0000e07f7c
:104634000000b0fcffff9f7cffffef7f0000e03f26
:104644000000f0bf9535a094ffffdf3f35e5af359f
:0c4654000000c0ffffffdf41ffffcf3f71
:020000040000fa
:10466000f0b516001f00446a9db00490259d069683
:104670000797002c08d110200af06eff049b5862a7
:10468000446084600460c460049b5b6a196800290c
:104690000bd05a68012393404a608b6004980af05b
:1046a00061f90022049b5b6a1a60079b002b1cdaed
:1046b00001232b607b005b080793079cba4b220009
:1046c00019931a409a421cd1b84b249a1360069a47
:1046d000b74b002a03d1240301d100f08cfd269aa8
:1046e000002a05d109330a9308e000232b60e4e790
:1046f0001a0009320a920c33269a13600a981db0e8
:10470000f0bd069e079f002200233000390009f00b
:104710005bf8051e0ed00123249a1360a44b1a00e7
:104720000d320a92269a002ae8d01a0026990e32f3
:104730000a60e3e71aab01931bab009332003b0026
:10474000049808f067f9630005905b0d00d17fe0e5
:104750003a03984c120b14432100974a30001895e5
:104760009e180022954b02f05dfb954a954b04f094
:10477000bbfc954a954b02f02dfe040030000d0065
:1047800009f000f9924a934b04f0aefc02000b00d2
:104790002000290002f01efe04000d0009f074fa4a
:1047a0000022039000232000290009f013f80028bc
:1047b0000ed0039809f0e6f80b0002002900200053
:1047c00009f002f8030058425841039b1b1a039357
:1047d00001231693039b162b0fd87f49db00c918c2
:1047e00008684968069a079b09f008f800284bd02a
:1047f000039b013b0393002316931a9b9e1b0023ec
:104800000b933300013b0c9304d501239b1b0b93ab
:1048100000230c93039b002b38db039a0c9b9446dc
:1048200063440c9300230f920893229b0125092bcc
:1048300000d991e0052b02dd0025043b2293229b49
:10484000981e032800d991e00af05efe8284297642
:104850001a9b1b9a9e18614bf218202a0fdd203bf1
:104860000698f318d84040239b1a9c40204309f037
:1048700071fa01235a4c013e0919189371e720235c
:1048800006989b1a9840f2e71690b6e70b9b039a9e
:104890009b1a0b935342089300230f93c5e7012300
:1048a0000e93239b002b65dd1f000d93049a546a21
:1048b0000022626004221100143199425fd96168bc
:1048c000049809f009f9049b20605b6a1b680a934d
:1048d0000e2f00d9fce0002d00d1f9e0069b079ccb
:1048e00014931594039b002b00dc7de01a000f212c
:1048f000394b0a40d2009b185c681b6810931194d6
:10490000039b02241d11eb060ad5364b0d401a6a93
:104910005b6a1498159903f0e7fa0324069007914f
:10492000304e002d30d1109a119b0698079903f054
:10493000dbfa0690079171e00123239a0e939446c7
:10494000039b63445f1c0d933b1eafdc0123ade76b
:104950000023a5e70023f0e700230e952293013bf7
:104960000d931f000022122323929fe701230e9331
:10497000023bf5e701230d931f001a00f4e761687d
:1049800052000131616096e701231d4208d0109862
:104990001199e4183268736804f0a6fb1090119125
:1049a0006d100836bde7c0460000f07f0f270000fd
:1049b00044f600000000f03f01fcffff0000f83f5c
:1049c00061436f63a787d23fb3c8608b288ac63f15
:1049d000fb799f501344d33f20c7000032040000ee
:1049e000000010feb8ed0000039b0224002b15d040
:1049f000149815995d420f23c94a2b40db00d31848
:104a00001a685b6804f070fb002306900791c54e9e
:104a10002d11002d00d08be0002b8ad1169b002b8e
:104a200000d191e0069a079b10921193109811996a
:104a30000022bd4b08f0cefe002800d184e0002ffc
:104a400000d181e00d9b002b3edd10981199039b56
:104a500000225e1eb54b04f047fb069007910d9daa
:104a60000134200008f08eff069a079b04f03cfbff
:104a70000022af4b02f0aefc12901391129b139cdc
:104a8000ac4a10931194139b9c181194002d5ed185
:104a9000069807990022a84b02f0c4f9109a230047
:104aa0000690079108f0aafe002800d000e3a34872
:104ab0001399844661440b0006980799109a08f0f0
:104ac00089fe002800d0e7e2149b159c069307940a
:104ad0001b9b002b00da56e1039a0e2a00dd52e1ff
:104ae0008f4bd2009b185c681b6808930994239b2a
:104af000002b00dbcee0002f00ddcbe000d0cee2cb
:104b00000898099900228c4b04f0eefa069a079b4c
:104b100008f07efe3e000897002800d0a3e20a9b22
:104b20000a9a5d1c31231370039b013303939ee2a9
:104b30000122154205d0a4183268736804f0d4fa33
:104b400001236d10083664e7039e3d0089e70a9a49
:104b5000691e521917920e9a714bc900002a4ad049
:104b60005b181a685b680020754903f0bdf9109a5c
:104b7000119b02f057f90a9b10901191129306981d
:104b8000079909f081f8040008f0fcfe02000b0010
:104b90000698079902f046f9129b30345d1c1c7090
:104ba000109a119b0690079108f014fe002865d119
:104bb000069a079b00205c4902f034f9109a119b79
:104bc00008f008fe002800d0bde0179b9d4200d1f0
:104bd0007ae7109811990022544b04f085fa0022cc
:104be0001090119106980799504b04f07dfa129598
:104bf00006900791c3e7591808684968109a119bf5
:104c000004f072fa109011910a9c179d069807996a
:104c100009f03af8129008f0b5fe02000b00069871
:104c2000079902f0fff8129b06900791303323702a
:104c3000179b01340022a34224d1414b10981199b3
:104c400002f0c8fb02000b000698079908f0d6fd99
:104c5000002800d077e0109a119b0020384902f01c
:104c6000e1f802000b000698079908f0b3fd002850
:104c700000d129e76b1e1a78302a01d003963fe055
:104c80001d00f7e706980799284b04f02dfa0690c7
:104c90000791bbe70a9e089a099b0698079903f0bb
:104ca00023f908f0f1ff040008f06cfe089a099b54
:104cb00004f01afa0b0002000698079902f0b2f805
:104cc0002300303333700a9b751ceb1a9f424bd183
:104cd00002000b0002f07efb06000f0002000b003a
:104ce0000898099908f076fd00282bd108980999b1
:104cf00032003b0008f068fd002801d0e30721d412
:104d00000599049809f02efe00232b70039b249a2a
:104d100001331360269b002b00d1efe41d60ede40e
:104d200020c70000b8ed00000000f03f0000244064
:104d300000001c400000c0fc000014400000c07ccb
:104d40000000e03f039e6b1e1a78392a06d10a9aaa
:104d50009a4207d130231370130001361a780132ba
:104d60001a708be71d00eee70022cf4b04f0bcf970
:104d700000220023069007912e0008f025fd002850
:104d800000d188e7bce70e9a002a00d187e0229a7a
:104d9000012a6edc189a002a67d0c44a9b18089d25
:104da0000b9c0b9a0121d2180b920c9a0498d318e1
:104db0000c930af0f6fb0600002c0edd0c9b002b7a
:104dc0000bdd0c9a2300944200dd13000b9ae41ac9
:104dd000d21a0b920c9ad31a0c93089b002b1ed05c
:104de0000e9b002b5fd0002d11dd31002a000498ae
:104df00007f05aff059a01000600049806f048fbe8
:104e000005991090049809f0adfd109b0593089b3f
:104e10005a1b04d00599049807f046ff059001211c
:104e200004980af0befb0f9b0890002b3ddd1a0092
:104e30000100049807f038ff229b08900025012b01
:104e40003bdc0025069bab4233d1079b1b03ab42e7
:104e50002fd1199b079a13422bd00b9b01250133ad
:104e60000b930c9b01330c9323e036231a9a9b1a65
:104e700095e7089b7d1eab4206db5d1b002f0bda1e
:104e80000b9bdc1b00238ce7089b0895ea1a0f9b01
:104e900000259b180f93f1e70b9c3b0081e7089dd1
:104ea0000b9c0e9e88e7089ab4e7229b0025012bf5
:104eb000c7dd0f9b0120002b0bd0089b089a1b69b4
:104ec0000f9303339b00d318586809f017fd202374
:104ed000181a0c9bc0181f23184000d1abe02023e8
:104ee0001b1a042b00dc9be01c23181a0b9b2418b4
:104ef0001b180b930c9b1b180c930b9b002b05ddb5
:104f00001a000599049807f02dfe05900c9b002bc4
:104f100005dd1a000899049807f024fe0890169bf6
:104f2000002b00d189e00899059809f034fd00288c
:104f300000db82e0039b0a22013b039305990023d7
:104f4000049808f06ffc0e9b0590002b00d15be1ec
:104f5000002331000a22049808f064fc0d9b06002f
:104f6000002b02dc229b022b6ddc002c05dd3100c6
:104f70002200049807f0f6fd06003000002d11d045
:104f80007168049808f0a8fd3100040033690c3101
:104f90009a1c92000c300af0fbfa012221000498be
:104fa00007f0e0fd0d9f0a9b013f0b93db193700d3
:104fb00006000f930899059806f0a6fe39000d909b
:104fc0000400059809f0e7fc32000e900899049857
:104fd00007f040fb01230c93c36830340500002b1d
:104fe00004d10100059809f0d6fc0c902900049822
:104ff00009f0b8fc0c9b229a134300d089e00123ee
:10500000069a134200d084e0392c00d1a3e00e9b15
:10501000002b01dd0d9c31340b9b5d1c1c7027e0c7
:10502000042b00d169e70b9a1c33d2180b920c9a0f
:10503000e418d31860e70300f5e7002f3cdc229b5f
:10504000022b39dd0d970d9b002b0cd10899052201
:10505000049808f0e7fb08900100059809f09bfc14
:10506000002800dd5be5239b0a9ddb4303930027bb
:105070000899049809f076fc002e00d140e6002f34
:1050800005d0b74203d03900049809f06bfc310019
:10509000049809f067fc33e608952e00e3e7002347
:1050a00008931e00dfe7c0460000244033040000e0
:1050b000039608952e0032e50e9b0d97002b00d02d
:1050c00053e70a9d0899059806f01efe0a9b3030aa
:1050d0000d9a287001350400eb1a9a4278dc151eef
:1050e00000dc012500270a9b5d190599012204981f
:1050f00007f038fd0899059009f04dfc00282fdcd9
:1051000001d1e3072cd46b1e1a78302ab0d11d00d0
:10511000f9e70e9b002b07db1d00229b1d4326d1c8
:105120000123069a134222d10c9b002b00dc73e76b
:1051300005990122049807f015fd0899059009f0da
:105140002afc002804dc00d066e7e30700d463e70c
:10515000392c00d05ee70b9b0b9a5d1c3923137032
:105160006b1e1a78392a3bd001321a7080e70b9bec
:1051700001330d930c9b002b05dd392cebd00d9ddd
:1051800001340b9b4ae70b9b0f9a0d9d1c709342b9
:10519000abd000230a220599049808f043fb0023b2
:1051a00005900a2239000498b74206d108f03afb6c
:1051b000070006000d9b0b93fce608f033fb310063
:1051c000070000230a22049808f02cfb0600f1e7f0
:1051d00000230a220599049808f024fb059071e742
:1051e0000a9a9a4205d1039b01330393312313702a
:1051f0003ee71d00b4e7269a0a930833002a01d03f
:10520000fff77afafff77afa0d9b002b00dd58e7db
:0c521000229b022b00dc54e715e7c0468f
:020000040000fa
:10521c00f0b5c64600b584b0042800d90ae1800078
:10522c00de4b1b589f46de4d802292000021280049
:10523c000af0f2f97b232b8028000af013fa2a00db
:10524c00223ad84e0004000c2c00283c28183100bf
:10525c0009f04efa28000af005fad34be35cd34a66
:10526c00a25cfa21c9008c46624431001031000462
:10527c00000c28300019ce4fe75d0397cd4fe75d4a
:10528c000297cd4fe75d0197cc4fe75d009709f092
:10529c002ffa28000af0e6f90004000c2830001957
:1052ac003100383116220af06df928000af0daf9cb
:1052bc000004000c28300019310050310b220af088
:1052cc0061f928000af0cef931005c310004000cc1
:1052dc0028300019ba4a09f00bfa28000af0c2f972
:1052ec00310070310004000c28300019b54a09f067
:1052fc00fff928000af0b6f9b34f3123fa5cb34e2c
:10530c000004000c28300019310009f0f1f92800d4
:10531c000af0a8f93223fa5c310010310004000cb9
:10532c002830001909f0e4f928000af09bf933231e
:10533c00fa5c310024310004000c2830001909f00b
:10534c00d7f928000af08ef9a14be318c5221201f7
:10535c00a218310034310004000c2830001909f077
:10536c00c7f928000af07ef90004000c2830001957
:10537c00310048310d220af005f928000af072f9c3
:10538c000004000c2830001908f0a6ff28000af0d1
:10539c0069f90004000c2830001907f01ffa2800e6
:1053ac000af060f90004000c2830001909f086faa4
:1053bc0028000af057f90004000c2830001909f0f5
:1053cc0077ff28000af04ef90004000c2830001971
:1053dc0009f07aff28000af045f90004000c283087
:1053ec00001909f051fa28000af03cf90004000ced
:1053fc002830001909f0d8f928000af033f9000414
:10540c00000c2830001908f08bff28000af02af94c
:10541c000004000c2830001908f0a6ff28000af040
:10542c0021f90004000c28300019310058310722f2
:10543c000af0a8f804b004bc9046f0bd584d802288
:10544c009200002128000af0e7f87b232b8028002b
:10545c000af008f92a00223a5c4e3100603100044f
:10546c00000c2c00283c281809f042f928000af0fe
:10547c00f9f84d4be35c4d4aa25cfa21c9008c460d
:10548c006244484f3900103188460004000c283023
:10549c0000194749615c03914649615c0291464998
:1054ac00615c01914549615c0091414609f020f92c
:1054bc0028000af0d7f80004000c2830001931003d
:1054cc00703119220af05ef828000af0cbf80004bb
:1054dc00000c28300019390050310b220af052f818
:1054ec0028000af0bff839005c310004000c2830a9
:1054fc000019334a09f0fcf828000af0b3f8390017
:10550c0070310004000c283000192e4a09f0f0f814
:10551c0028000af0a7f82c4f3123fa5c0004000c89
:10552c0028300019310009f0e3f828000af09af845
:10553c003223fa5c310010310004000c28300019c1
:10554c0009f0d6f828000af08df83323fa5c310004
:10555c0024310004000c2830001909f0c9f8280087
:10556c000af080f81a4be318c5221201a218194e42
:10557c0031000c310004000c2830001909f0b8f887
:10558c0028000af06ff80004000c283000193100d4
:10559c002031062209f0f6ff4ce7c046f0f300007c
:1055ac009c0000200c950000650c0000640c0000b1
:1055bc00690c0000680c0000670c0000660c000011
:1055cc00d4270020cc270020040000208c9500005c
:1055dc003c0c00000c960000ab4c80229200002189
:1055ec0020000af019f87b23238020000af03af8f7
:1055fc0081b23423a54ad35c022b00d181e0a44ca8
:10560c00a44be35ca44aa25cfa20c000844662442a
:10561c0028310819a149615c0391a149615c02918f
:10562c00a049615c0191a049615c00919f491031d6
:10563c0009f05ef8200028300af014f83423934a5d
:10564c00d35c012b6dd00004000c2830904bc0189b
:10565c001b229749443109f095ff8b4c20000af02e
:10566c0001f80004000c2600283e20180b228f495c
:10567c00503109f087ff200009f0f4ff834f3123ec
:10568c00fa5c8c4d0004000c28308019290009f0bc
:10569c002ff8200009f0e6ff3223fa5c29001031c4
:1056ac000004000c2830801909f022f8200009f0c1
:1056bc00d9ff3323fa5c290024310004000c283074
:1056cc00801909f015f8200009f0ccff7a4bf3187b
:1056dc00c5221201b218764d29000c310004000cc1
:1056ec002830801909f004f8200009f0bbff0004f1
:1056fc00000c2830801929002031062209f042ffc5
:10570c0098e66e4a0004000c2830941f0019694971
:10571c00603108f0edff2000283009f0a3ff81b2c2
:10572c006de70004000c2830594bc0181922604951
:10573c00283109f027ff90e7534c8022920000217a
:10574c00200009f069ff7b232380200009f08affe9
:10575c002200223a0004000c2500283d201855494f
:10576c00603108f0c5ff200009f07cff494beb5c71
:10577c00494aaa5cfa21c9008c4662440004000c18
:10578c00283040194549695c03914549695c02918f
:10579c004449695c01914449695c00914349103169
:1057ac0008f0a6ff200009f05dff3523374ad35cd3
:1057bc00012b5dd00004000c2830354bc018192289
:1057cc003b49783109f0defe2f4c200009f04affee
:1057dc000004000c2600283e20180b2233495031bf
:1057ec0009f0d0fe200009f03dff284f3123fa5c70
:1057fc00304d0004000c28308019290008f078ff87
:10580c00200009f02fff3223fa5c2900103100042c
:10581c00000c2830801908f06bff200009f022ffe3
:10582c003323fa5c290024310004000c2830801941
:10583c0008f05eff200009f015ff1f4bf318c5227e
:10584c001201b2181a4d29000c310004000c28303a
:10585c00801908f04dff200009f004ff0004000c33
:10586c002830801929002031062209f08bfee1e551
:10587c000004000c2830064bc01817220c4960316c
:10588c0009f080fea0e7c0469c0000200400002028
:10589c0074000020650c0000640c0000690c000012
:1058ac00680c0000670c0000660c00000c950000f2
:1058bc000c9600008c9500003c0c00007a00002037
:1058cc00534c802292000021200009f0a5fe7b237e
:1058dc002380200009f0c6fe2200223a0004000cae
:1058ec002500283d20184b49603108f001ff2000ad
:1058fc0009f0b8fe484beb5c484aaa5cfa21c90097
:10590c008c4662440004000c283040194449695c00
:10591c0003914449695c02914349695c0191434993
:10592c00695c00914249103108f0e2fe200009f058
:10593c0099fe36233f4ad35c012b5dd00004000c4a
:10594c0028303d4bc0181c223c49303109f01afe5e
:10595c002f4c200009f086fe0004000c2600283e87
:10596c0020180b223249503109f00cfe200009f0ae
:10597c0079fe304f3123fa5c264d0004000c2830a0
:10598c008019290008f0b4fe200009f06bfe3223c8
:10599c00fa5c290010310004000c2830801908f042
:1059ac00a7fe200009f05efe3323fa5c29002431a7
:1059bc000004000c2830801908f09afe200009f031
:1059cc0051fe1f4bf318c5221201b2181d4d2900b0
:1059dc000c310004000c2830801908f089fe2000de
:1059ec0009f040fe0004000c2830801929002031f9
:1059fc00062209f0c7fd1de50004000c28300e4bf3
:105a0c00c0181a220d49143109f0bcfda0e7c0469c
:105a1c009c0000208c950000650c0000640c0000bc
:105a2c00690c0000680c0000670c0000660c00009c
:105a3c000c95000004000020740000208c960000df
:085a4c003c0c00000c96000068
:020000040000fa
:105a540041540d0a00000000415445300d0a000075
:105a640041542b434c434b3d225343222c320d0ac9
:105a74000000000041542b4350494e3f0d0a0000e2
:105a840041542b434f50533f0d0a000041542b43c4
:105a940053510d0a0000000041542b55524446490d
