:020000040000fa
:10000000f07f002059e50000c3b6000017cd0000c6
:1000100000000000000000000000000000000000e0
:1000200000000000000000000000000077b40000a5
:10003000000000000000000077b40000f5ef0000b1
:1000400077b4000077b4000077b4000011e5000039
:1000500077b4000077b4000077b4000077b40000f4
:1000600077b4000069a300004da1000025ab00009b
:1000700077b400000000000000000000918900003b
:100080000000000077b4000077b4000077b40000ef
:1000900077b4000077b4000077b4000077b40000b4
:1000a00077b4000077b4000077b4000077b40000a4
:0c00b00077b4000077b4000077b40000c3
:020000040000fa
:1000bc00f8b5c046f8bc08bc9e467047d1e30000ba
:1000cc00f8b5c046f8bc08bc9e467047a9e30000d2
:020000040000fa
:0800dc0004c400000100000053
:020000040000fa
:1000e400f0b5d64ca544d64b5b88d64a934201d191
:1000f40002f0c6f845d9d44a934201d102f098fce3
:1001040001d900f048fe0a3aff3a934201d102f0c5
:1001140042fa01d800f04efccc4a934201d102f0dd
:10012400dbfb01d900f0c4fdfd3a934201d102f09a
:1001340012fb01d900f007fd023a934201d102f00b
:10014400c4fa01d902f0fffac14c20000ff016fbeb
:1001540081b220000ff0affb80229200002120002a
:100164000ff0e6fabb4b1b88bb4a934201d102f065
:10017400a7fa0133b24a53800022b84b1a7001f037
:1001840060f8b74a934201d101f040fc3dd9b54a29
:10019400934201d101f013fe00d880e2b24a9342a7
:1001a40001d101f0d3fe00d9d2e3043a934201d144
:1001b40001f068fe00d9a1e3023a934201d101f0b3
:1001c4001ffe01d901f03dfea84c1522a8490431b7
:1001d40020000ff063fa20000ff0d0fa0100200095
:1001e4000bf004fca34aa44b1a80f932944b5a80b6
:1001f400a24b1a68a24b1a6020000ff0bffa81b21a
:1002040020000ff058fb01f01cf89e4a934201d1e4
:1002140001f0b8f900d94fe1fd3a934201d101f060
:100224007df800d883e0984a934201d101f060f947
:1002340000d9d9e0023a934201d101f0f3f801d98f
:1002440001f01af9013a934201d000f0faff8f4904
:100254005c318f480ef06cfc002801d101f0b8f835
:1002640002227e4b1a708a4c20000ff087fa02009b
:10027400210077480ff012fa80229200002120001a
:100284000ff056fa0022834b1a60744b1b78022b32
:1002940001d101f0bdf8714b1b78032b01d101f0a2
:1002a400bcf8764b1b687c4a12689b1a7b4a9342c3
:1002b40001d800f0ccff624b79495a5c01325a54a0
:1002c40000225a80654b1a7084ac704b6c33220048
:1002d40023cb23c223cb23c223cb23c220000ff082
:1002e4004dfa81b220000ff0e6fa6e4b1033220073
:1002f40003cb03c21b8813805c4920000ff054f821
:1003040020000ff03bfa81b220000ff0d4fa504cd9
:1003140020000ff033fa81b220000ff0ccfa8022d3
:100324009200002120000ff003fa00f08aff043a43
:10033400934201d100f08fff2ad9822252009342c6
:1003440001d100f0a9ff01d900f0c7ff474c0b22ef
:100354004e49243120000ff0a1f920000ff00efacd
:10036400010020000bf042fb0422ff324e4b1a80a6
:10037400f932334b5a80414b1a68474b1a602000bc
:100384000ff0fcf981b220000ff095fa00f059ff4c
:10039400023a934201d100f035ff0132934201d079
:1003a40000f04fff314c07223849083120000ff08c
:1003b40075f920000ff0e2f9010020000bf016fba4
:1003c4000222ff32384b1a80fb321d4b5a802b4bd2
:1003d4001a68314b1a6020000ff0d0f981b2200066
:1003e4000ff069fa00f02dff304a934201d101f079
:1003f40089f801d901f0a6f81c4c052223492000f4
:100404000ff04cf920000ff0b9f9010020000bf0b7
:10041400edfa80229200264b1a80fc32084b5a8057
:10042400164b1a68234b1a6020000ff0a7f981b20b
:1004340020000ff040fa00f004ffc046ecfcffff80
:100444007400002002070000050a0000fd090000f6
:10045400301500206228002001080000e40c002070
:1004640003040000020600000a0600003011002008
:10047400805500000306000060280020402800206a
:10048400f027002003020000ff01000000530000d9
:10049400301300202c2800200828002010270000fa
:1004a400330c0000805300006c280020010200007f
:1004b400d2270020e0270020ea4a934201d101f02c
:1004c400bcf900d883e0e84a934201d101f056fa1e
:1004d40000d9bae0023a934201d101f0f6f901d908
:1004e40001f011fa013a934201d000f0aafedf496b
:1004f4005c31df480ef01cfb002801d101f0bdf98e
:100504000222dc4b1a70da4c20000ff037f902009b
:100514002100d9480ff0c2f8802292000021200067
:100524000ff006f90022d54b1a60d24b1b78022b30
:1005340001d101f0c2f9cf4b1b78032b01d101f09b
:10054400c0f9cf4b1b68cf4a12689b1ace4a93421c
:1005540001d800f07cfecd4bcd495a5c01325a548f
:1005640000225a80c34b1a7084acca4b3033220029
:1005740023cb23c223cb23c223cb23c220000ff0df
:10058400fdf881b220000ff096f9c34b103322001e
:1005940003cb03c21b881380c04920000ef004ff64
:1005a40020000ff0ebf881b220000ff084f9b24c78
:1005b40020000ff0e3f881b220000ff07cf98022d4
:1005c4009200002120000ff0b3f800f03afe043a44
:1005d400934201d101f089f810d9c02292009342cc
:1005e40001d101f0e9f801d901f007f98022920064
:1005f4000021a1480ff09cf800f029fe023a934232
:1006040001d100f0dfff0132934201d000f019fe66
:10061400994c20000ff0b2f881b220000ff04bf992
:1006240080229200002120000ff082f89c4b1b884e
:100634009c4a934201d101f053f80133934a538009
:1006440000228c4b1a7000f0fcfd974a934201d1b2
:1006540001f09bf901d901f0b8f9904c11228349ba
:10066400103120000ff01af820000ff087f8010075
:1006740020000bf0bbf98022d2008c4b1a80fc3294
:10068400824b5a807e4b1a68894b1a6020000ff007
:1006940075f881b220000ff00ef900f0d2fd043a93
:1006a400ff3a934201d101f0d3fa29d9814a934206
:1006b40001d101f01dfb00d904e1023a934201d1ba
:1006c40001f0cefa01d901f0effa744c1e227a49f6
:1006d400503120000ef0e2ff20000ff04ff801002f
:1006e40020000bf083f9694a5388013353802000ba
:1006f4000ff044f881b220000ff0ddf800f0a1fd06
:10070400f93a934201d101f0c3f900d87ee06b4a73
:10071400934201d101f007fa01d901f05dfa013adf
:10072400934201d000f08dfd50495c3150480ef0e9
:10073400fff9002801d101f0ccf902224d4b1a70c7
:100744004b4c20000ff01af8020021004a480ef02a
:10075400a5ff80229200002120000ef0e9ff002274
:10076400464b1a60434b1b78022b01d101f0d1f99f
:10077400404b1b78032b01d101f0d0f9404b1b688f
:100784004b4a12689b1a404a934201d800f05ffd1d
:100794003e4b3f495a5c01325a5400225a80354b31
:1007a4001a7084ac444b1433220023cb23c223cbd2
:1007b40023c2196811609b88938020000ef0deff2d
:1007c40081b220000ff077f8334b1033220003cbb3
:1007d40003c21b881380314920000ef0e5fd200080
:1007e4000ef0ccff81b220000ff065f8224c2000ff
:1007f4000ef0c4ff81b220000ff05df88022920059
:10080400002120000ef094ff00f01bfd023a9342f9
:1008140001d101f01cf90132934201d000f011fd25
:100824001e4c10221b49743120000ef037ff2000ab
:100834000ef0a4ff010020000bf0d8f8204a1b4b57
:100844001a80f732114b5a800d4b1a68184b1a60f4
:1008540020000ef093ff81b220000ff02cf800f07e
:10086400f0fcc04602030000ff0300000053000038
:1008740030130020e40c0020301500202c28002028
:1008840040280020fc27002088130000740000206a
:10089400330c00000054000080530000301100208d
:1008a400d227002003020000010400006a2800206f
:1008b400042800200305000080540000fd0400000b
:1008c40005040000c022d200934201d101f033faa2
:1008d40001d901f052fa023a934201d000f0b1fc7e
:1008e400d74b1b78012b01d000f0b1fc0022d44b74
:1008f4001a70d44ad44b5a8000f0a9fcc122d20009
:10090400934201d101f0dffa01d901f0fefacf4c94
:100914002622cf49603120000ef0c0fe20000ef0e8
:100924002dff010020000bf061f8ca4aca4b1a805f
:10093400f532c54b5a80c94b1a68c94b1a6020005e
:100944000ef01cff81b220000ef0b5ff00f079fc20
:10095400c44a934201d101f011fc1ad8023a9342dd
:1009640001d101f043fb01d901f0d7fb013a9342d5
:1009740001d000f066fcb24b1b78012b01d000f0d3
:1009840066fc0022ae4b1a70b74aaf4b5a8000f097
:100994005efce022d200934201d101f031fc01d986
:1009a40001f04afc802292000021b0480ef0c0fe03
:1009b40000f04dfcf43aff3a934201d101f042fdbc
:1009c40036d9ab4a934201d101f0a8fd00d98be09e
:1009d400f33a934201d101f07dfd01d201f056fdbd
:1009e4000132934201d000f02cfc954b1b78012b73
:1009f40001d000f02cfc0022914b1a70934c0e2273
:100a04009c49343120000ef049fe20000ef0b6fe61
:100a1400010020000af0eaff954a8b4b5a8020001f
:100a24000ef0acfe81b220000ef045ff00f009fc90
:100a3400043a934201d101f06bfc2ad98e4a9342c5
:100a440001d101f089fc01d901f0d8fc7c4b1b7861
:100a5400012b01d000f0fbfb0022794b1a707b4c78
:100a64000f227b492c3120000ef018fe20000ef0de
:100a740085fe010020000af0b9ff734a5388013350
:100a8400538020000ef07afe81b220000ef013ff96
:100a9400d7e3023a934201d101f016fc01329342aa
:100aa40000d0cee3664b1b78012b00d0cfe30022ad
:100ab400634b1a70654c1e227049083120000ef0f9
:100ac400edfd20000ef05afe010020000af08eff1a
:100ad4005d4a53880133538020000ef04ffe81b2eb
:100ae40020000ef0e8feace3654a934201d101f028
:100af40023fdfa32934201d101f03ffdfb3a9342c8
:100b040000d09ee3514c0f225c49783120000ef056
:100b1400c5fd20000ef032fe010020000af066ff41
:100b240080221201574b1a80fc32474b5a804b4ba0
:100b34001a68554b1a6020000ef020fe81b2200086
:100b44000ef0b9fe7de3514a934201d101f079fee2
:100b540001d201f055fefa32934200d071e34c49c0
:100b64005c314c480df0e4ff002801d101f08afe0d
:100b74000222334b1a70474c20000ef0fffd020096
:100b840021003a480ef08afd8022920000212000c4
:100b94000ef0cefd0022404b1a60294b1b78022b2d
:100ba40001d101f08ffe264b1b78032b01d101f0fc
:100bb4008efe2a4b1b68394a12689b1a384a9342a4
:100bc40000d844e3204b37495a5c01325a5400227e
:100bd4005a801b4b1a7084ac334b6c33220023cbea
:100be40023c223cb23c203cb03c21b881380200060
:100bf4000ef0c4fd81b220000ef05dfe2b4b1033cd
:100c0400220003cb03c21b881380104920000ef07e
:100c1400cbfb20000ef0b2fd81b220000ef04bfea3
:100c2400124c20000ef0aafd81b220000ef043fe0b
:100c340080229200002120000ef07afd01e3c046dc
:100c4400e40c0020ff050000740000203011002097
:100c5400805500000706000060280020402800207e
:100c6400f0270020fe060000ff06000030150020db
:100c7400fe070000005600000707000000570000b0
:100c84000108000062280020f42700200209000067
:100c940000530000301300202c280020e4270020fb
:100ca40088130000330c00008057000080530000bc
:100cb400b14a934201d101f058fe44d8023a93421a
:100cc40001d101f028fe01d901f02dfeab4bac4956
:100cd4005a5c01325a5400225a80aa4b1a7084acce
:100ce400a94b1033220023cb23c223cb23c2196880
:100cf40011609b88938020000ef040fd81b220009b
:100d04000ef0d9fda14b1033220003cb03c21b8884
:100d140013809f4920000ef047fb20000ef02efdab
:100d240081b220000ef0c7fd9a4c20000ef026fd83
:100d340081b220000ef0bffd80229200002120002d
:100d44000ef0f6fc7de2944a934201d101f0f4fee8
:100d540001d901f02bfe8e4c2e22904954312000f3
:100d64000ef09cfc20000ef009fd010020000af0aa
:100d74003dfe8b4a8b4b1a80fa32804b5a808a4b49
:100d84001a688a4b1a6020000ef0f8fc81b2200029
:100d94000ef091fd55e2b0221201934201d102f00e
:100da400d0f835d9824a934201d102f0f0f900d942
:100db400c6e1f93a934201d102f05cf900d913e19a
:100dc400023a934201d102f0def801d902f0fcf8b4
:100dd4006f4c0d227749543120000ef05ffc200047
:100de4000ef0ccfc010020000af000fe724a734ba6
:100df4001a80fb32614b5a806b4b1a68704b1a6035
:100e040020000ef0bbfc81b220000ef054fd18e26d
:100e1400f43a934201d101f0b0fe32d9694a9342c7
:100e240001d101f09fff00d982e0ee3a934201d153
:100e340001f052ff01d201f013ff0132934200d0be
:100e4400ffe1534c0e226049583120000ef026fc7d
:100e540020000ef093fc010020000af0c7fd5b4a5d
:100e6400504b1a80ed32454b5a804f4b1a684f4b0a
:100e74001a6020000ef082fc81b220000ef01bfdef
:100e8400dfe1043a934201d101f014fe27d9504a1c
:100e9400934201d101f0abfd01d901f02cfe3c4c91
:100ea4000f224c49783120000ef0f8fb20000ef0a0
:100eb40065fc010020000af099fd474a394b1a806d
:100ec400f3322e4b5a80384b1a68384b1a60200084
:100ed4000ef054fc81b220000ef0edfcb1e1023ab8
:100ee400934201d101f0c5fd0132934200d0a8e143
:100ef400274c19222449603120000ef0cffb20003a
:100f04000ef03cfc010020000af070fd334a254b32
:100f14001a80f532194b5a80234b1a68234b1a60f6
:100f240020000ef02bfc81b220000ef0c4fc88e1fe
:100f34002b4a934201d101f0bbff01d901f0f6ff26
:100f4400144c20000ef01afc81b220000ef0b3fc09
:100f540080229200002120000ef0eafb114b1b8836
:100f6400204a934201d101f09eff0133034a53808a
:100f74000022044b1a7064e1010a0000740000208e
:100f8400330c0000e40c00200058000080530000e3
:100f94003011002030150020030a00000055000025
:100fa400020a00005e28002040280020ec270020d0
:100fb400fd0b000000590000010b00005c2800201c
:100fc400e8270020fc0a0000805800000f0a0000f7
:100fd4000a0a000000570000090a0000070a00007e
:100fe400fe0a00000e0a0000dd4a934201d102f01d
:100ff40083f801d202f05ff8f632934200d020e188
:10100400d8495c31d8480df093fd002801d102f095
:1010140094f80222d54b1a70d34c20000ef0aefb8c
:101024000200d34d210028000ef038fb80229200ec
:10103400002120000ef07cfb0022ce4b1a60ce492a
:10104400143128000df074fd041e29d008300ef070
:1010540009fcca4dca4be85420000b300ef002fcc8
:10106400c84be85420000e300ef0fcfbc64be8548d
:10107400200011300ef0f6fbc44be854200014306d
:101084000ef0f0fbc24be854200017300ef0eafbe0
:10109400c04be854053be8180af09cfbbe4be850f3
:1010a400b24b1b78022b01d102f067f8af4b1b78cf
:1010b400032b01d102f066f8b84b1b68b84a1268da
:1010c4009b1ab84a934200d8bbe0ac4bb6495a5c71
:1010d40001325a5400225a80a44b1a7084aca64b95
:1010e4002033220023cb23c223cb23c21b781370cb
:1010f40020000ef043fb81b220000ef0dcfbab4b72
:101104001033220003cb03c21b881380a84920009c
:101114000ef04af920000ef031fb81b220000ef0ef
:10112400cafb934c20000ef029fb81b220000ef084
:10113400c2fb80229200002120000ef0f9fa80e028
:101144009c4a934201d102f0b5f94bd8fd3a93423f
:1011540001d102f09ff901d202f02df9013293423c
:101164006fd1934c80229200002120000ef0e0fa0f
:10117400914e31002c311f2220000ef08ffa2000f6
:101184000ef0fcfa00197d4da91d20220ef086fafe
:1011940033004c33f26c04929a8804a98a809b79b8
:1011a4008b7120000ef000f92900283120000ef088
:1011b400fbf820000ef0e2fa010020000af016fc11
:1011c400c02212017d4b1a807a4b6b80734b1a68d4
:1011d4007b4b1a6020000ef0d1fa81b220000ef091
:1011e4006afb2ee0774a934201d102f01bfa01d246
:1011f40002f0f4f90132934223d100225b4b1a70be
:1012040002f051f96a4c0522564920000ef046fac4
:1012140020000ef0b3fa010020000af0e7fb802260
:101224005200694b1a80fc32544b5a805b4b1a684b
:10123400664b1a6020000ef0a1fa81b220000ef075
:101244003afb4e4b1b78022b01d102f02cfac5233a
:101254009b009d44f0bd564c1122424910312000a0
:101264000ef01cfa20000ef089fa010020000af0aa
:10127400bdfb81225200544b1a80fa323f4b5a80f4
:10128400464b1a68514b1a6020000ef077fa81b26f
:1012940020000ef010fbd4e7454c0b2231493031cd
:1012a40020000ef0fbf920000ef068fa0100200087
:1012b4000af09cfb82225200434b1a80f8322f4bd7
:1012c4005a80364b1a68414b1a6020000ef056fac9
:1012d40081b220000ef0effab3e7354c0922214920
:1012e4003c3120000ef0daf920000ef047fa01003c
:1012f40020000af07bfb0622ff32334b1a80f732c0
:101304001e4b5a80254b1a68304b1a6020000ef091
:1013140035fa81b220000ef0cefa92e7244c122264
:101324001049483120000ef0b9f920000ef026fad9
:10133400010020000af05afb83225200224b1a803b
:10134400f6320e4b5a80154b1a68204b1a60200057
:101354000ef014fa81b220000ef0adfa71e7c04627
:10136400060b00000053000030130020e40c0020a2
:10137400301500202c280020805900007400002023
:10138400640c0000650c0000660c0000670c000093
:10139400680c0000690c00006c0c00004028002060
:1013a400e827002088130000330c0000805300005d
:1013b40030110020fc0c0000005a000064280020ba
:1013c400f8270020fe0c00006c28002008280020cc
:1013d400e3496431e3480df0abfb002801d1fef78b
:1013e40054ff0322e04b1a70de4c20000ef0c6f9c5
:1013f40002002100dd480ef051f980229200002104
:1014040020000ef095f90022d94b1a60fef73dff3b
:10141400fe22ff32d74b5a8019e7ff225200d54be8
:101424005a8014e7d14c20000ef0a8f981b22000b4
:101434000ef041fad04b1b888322520093420cd009
:101444000133cc4a5380802292000021c7480ef019
:101454006ff90022c44b1a70f3e6c8491c31c34823
:101464000df066fb0100c34ca01d053120220ef0d7
:1014740015f9c34b6380e6e7be4bc2495a5c01329f
:101484005a5400225a80b84b1a7084acbb4d2b00be
:101494002433220043cb43c243cb43c203cb03c216
:1014a40020000ef06bf981b220000ef004fa2b003c
:1014b4001033220003cb03c21b881380b2492000df
:1014c4000df072ff20000ef059f981b220000ef0e9
:1014d400f2f9a64c20000ef051f981b220000ef072
:1014e400eaf980229200002120000ef021f9a8e6fa
:1014f4008022920000219d480ef01af900229a4b96
:101504001a70a4e6a04c0c229c49443120000ef031
:10151400c5f820000ef032f9010020000af066fa46
:101524009a4a9b4b1a80fb32924b5a80994b1a6809
:10153400994b1a6020000ef021f981b220000ef0c0
:10154400baf97ee6904c0e228c49503120000ef000
:10155400a5f820000ef012f9010020000af046fa66
:101564008e4a8b4b1a80fa32824b5a80894b1a6806
:10157400894b1a6020000ef001f981b220000ef0b0
:101584009af95ee6804c0b227c49603120000ef013
:1015940085f820000ef0f2f8010020000af026fa87
:1015a4007f4a7b4b1a80f932724b5a80794b1a6806
:1015b400794b1a6020000ef0e1f881b220000ef0a1
:1015c4007af93ee666495c3166480df0b1fa0028c6
:1015d40061d00222644b1a70624c20000ef0cef8e7
:1015e4000200210061480ef059f880229200002187
:1015f40020000ef09df800225d4b1a605a4b1b78b8
:10160400022b65d0584b1b78032b65d0614b1b68ac
:10161400614a12689b1a634a934200d817e6554bf5
:1016240058495a5c01325a5400225a804e4b1a705f
:1016340084ac524d2b006c33220043cb43c243cbca
:1016440043c243cb43c220000ef098f881b220007d
:101654000ef031f92b001033220003cb03c21b8898
:101664001380494920000df09ffe20000ef086f8fb
:1016740081b220000ef01ff93c4c20000ef07ef8e1
:1016840081b220000ef017f9802292000021200080
:101694000ef04ef8d5e53249643132480df048fa7f
:1016a4000028abd00322304b1a702e4c20000ef0d1
:1016b40065f8020021002d480df0f0ff8022920011
:1016c400002120000ef034f80022294b1a6095e71f
:1016d400354a284b5a80bae5344a264b5a80b6e537
:1016e400334a244b5a80fef7abff224b25495a5c00
:1016f40001325a5400225a801b4b1a7084ac2d4b71
:101704001033220023cb23c223cb23c203cb03c237
:1017140020000ef033f881b220000ef0ccf8174b05
:101724001033220003cb03c21b8813801649200008
:101734000df03afe20000ef021f881b220000ef0e8
:10174400baf80a4c20000ef019f881b220000ef00d
:10175400b2f880229200002120000df0e9ff70e52c
:101764000053000030130020e40c0020301500204a
:101774002c280020740000206c28002080530000d6
:10178400ff010000330c00003011002001020000b2
:10179400d227002040280020e02700200202000079
:1017a4000302000088130000fd020000fe02000096
:1017b400ff02000000540000ea4c0b22ea493031d9
:1017c40020000df06bff20000df0d8ff0100200079
:1017d4000af00cf9c0229200e44b1a80fc32e44b6c
:1017e4005a80e44b1a68e44b1a6020000df0c6ffdf
:1017f40081b220000ef05ff823e5da4c0922da49c1
:101804003c3120000df04aff20000df0b7ff01002d
:1018140020000af0ebf8d94ad44b1a80fb32d44b9f
:101824005a80d44b1a68d44b1a6020000df0a6ffde
:1018340081b220000ef03ff803e5ca4c0c22d049d7
:10184400443120000df02aff20000df097ff010025
:1018540020000af0cbf8cb4ac44b1a80fa32c44bae
:101864005a80c44b1a68c44b1a6020000df086ffde
:1018740081b220000ef01ff8e3e4bb496431c24892
:101884000df056f9002801d1fef74ffe0322bf4b9d
:101894001a70bd4c20000df071ff02002100bc48fd
:1018a4000df0fcfe80229200002120000df040ff8c
:1018b4000022b84b1a60fef738feb74aac4b5a8088
:1018c400c5e4b64aaa4b5a80c1e4b14c20000df0dd
:1018d40055ff81b220000df0eeff8022920000211e
:1018e40020000df025ffa14b1b88a64a934206d089
:1018f40001339f4a53800022a44b1a70a1e4a84ae2
:101904009b4b5a80f7e79a4ba6495a5c01325a54ca
:1019140000225a809d4b1a7084aca34b543322008e
:1019240023cb23c223cb23c203cb03c220000df05d
:1019340025ff81b220000df0beff914b1033220031
:1019440003cb03c21b881380864920000df02cfdb5
:1019540020000df013ff81b220000df0acff8c4c81
:1019640020000df00bff81b220000df0a4ff8022b7
:101974009200002120000df0dbfe62e48022920040
:10198400002183480df0d4fe61e4764c0b227649a5
:10199400243120000df082fe20000df0effe010046
:1019a40020000af023f8814a814b1a80fb32704be5
:1019b4005a80704b1a687f4b1a6020000df0defecf
:1019c40081b220000df077ff3be4664c0b226649a0
:1019d400303120000df062fe20000df0cffe01003a
:1019e40020000af003f8744a714b1a80fa32604bf3
:1019f4005a80604b1a686f4b1a6020000df0befecf
:101a040081b220000df057fffff71bfc554c092253
:101a140055493c3120000df041fe20000df0aefe92
:101a24000100200009f0e2ff644a614b1a80f93298
:101a34004f4b5a804f4b1a685e4b1a6020000df0d2
:101a44009dfe81b220000df036fffff7fafb454cf6
:101a54000c224b49443120000df020fe20000df0f3
:101a64008dfe0100200009f0c1ff554a504b1a8039
:101a7400f8323f4b5a803f4b1a684e4b1a60200095
:101a84000df07cfe81b220000df015fffff7d9fbad
:101a9400344c0f224b49043120000df0fffd20008f
:101aa4000df06cfe0100200009f0a0ff464a404bf7
:101ab4001a80f6322e4b5a802e4b1a683d4b1a6010
:101ac40020000df05bfe81b220000df0f4fefff764
:101ad400b8fb254964312c480df02af8002801d1bf
:101ae400fef740fe0322294b1a70274c20000df00c
:101af40045fe0200210026480df0d0fd8022920010
:101b0400002120000df014fe0022224b1a60fef783
:101b140029fe2e4a164b5a80fff799fb2c4a144b88
:101b24005a80fff794fb1a4c20000df027fe81b277
:101b340020000df0c0fe80229200002120000df054
:101b4400f7fd1b4b1b88204a934207d00133084af8
:101b5400538000220d4b1a70fff773fb1d4a044b90
:101b64005a80f6e730110020005300006628002058
:101b74007400002040280020fc27002001030000fe
:101b8400805300000203000030130020e40c002006
:101b9400301500202c280020fd030000fe03000067
:101ba400ff030000330c0000005400000104000097
:101bb4006a28002004280020020400000304000016
:101bc400040400008054000006040000fd0400002a
:101bd400fe040000ff040000ed4bee495a5c0132a4
:101be4005a5400225a80ec4b1a7084aceb4b3433b9
:101bf400220023cb23c223cb23c21b8813802000c3
:101c04000df0bcfd81b220000df055fee44b103305
:101c1400220003cb03c21b881380e24920000df08d
:101c2400c3fb20000df0aafd81b220000df043fe9d
:101c3400dd4c20000df0a2fd81b220000df03bfe32
:101c440080229200002120000df072fdfff7f9fac6
:101c5400802292000021d4480df06afdfff7f7fac4
:101c6400cd4b1b78012b01d0fff7f1fa0022ca4bb0
:101c74001a70cc4c1e22c949703120000df00efda3
:101c840020000df07bfd0100200009f0affec04aea
:101c940053880133538020000df070fd81b2200081
:101ca4000df009fefff7cdfabb4b1b78012b01d0d9
:101cb400fff7cdfa0022b84b1a70ba4c1e22bb496a
:101cc400103120000df0eafc20000df057fd01005a
:101cd400200009f08bfeae4a538801335380200064
:101ce4000df04cfd81b220000df0e5fdfff7a9fadf
:101cf400a94b1b78012b01d0fff7a9fa0022a64bb0
:101d04001a70a84c0f22a949303120000df0c6fcee
:101d140020000df033fd0100200009f067fea44a05
:101d24009b4b5a8020000df029fd81b220000df05c
:101d3400c2fdfff786fa9b4c12229e4948312000cf
:101d44000df0acfc20000df019fd0100200009f09d
:101d54004dfec022d200984b1a80fc328c4b5a8024
:101d6400964b1a68964b1a6020000df007fd81b25d
:101d740020000df0a0fdfff764fa924d894c2a0073
:101d84008a49403120000cf03dfd20000df0f6fca6
:101d94000100200009f02afe8b4a874b1a80063d79
:101da4008a4b6b80854b1a68854b1a6020000df0b6
:101db400e5fc81b220000df07efdfff742fa794c7c
:101dc4002e227a49543120000df068fc20000df0d9
:101dd400d5fc0100200009f009fe7d4a764b1a80eb
:101de400fa326b4b5a80754b1a68754b1a60200097
:101df4000df0c4fc81b220000df05dfdfff721fa67
:101e0400684c0f2273491c3120000df047fc200060
:101e14000df0b4fc0100200009f0e8fd6e4a664ba9
:101e24001a80f8325a4b5a80644b1a68644b1a6011
:101e340020000df0a3fc81b220000df03cfdfff763
:101e440000fa584c0f2263492c3120000df026fc77
:101e540020000df093fc0100200009f0c7fd5f4a4b
:101e6400554b1a80f7324a4b5a80544b1a68544bdc
:101e74001a6020000df082fc81b220000df01bfde1
:101e8400fff7dff9474c212252493c3120000df085
:101e940005fc20000df072fc0100200009f0a6fdf5
:101ea4004f4a454b1a80f632394b5a80434b1a68d5
:101eb400434b1a6020000df061fc81b220000df04c
:101ec400fafcfff7bef9374c1622464908312000c8
:101ed4000df0e4fb20000df051fc0100200009f09e
:101ee40085fdc122d200344b1a80f432284b5a802b
:101ef400324b1a68324b1a6020000df03ffc81b25d
:101f040020000df0d8fcfff79cf9264c122235492d
:101f1400203120000df0c2fb20000df02ffc010049
:101f2400200009f063fd304a234b1a80f332184b2a
:101f34005a80224b1a68224b1a6020000df01efcb6
:101f440081b220000df0b7fcfff77bf9154c0e228f
:101f54002449343120000df0a1fb20000df00efccb
:101f64000100200009f042fd174a134b1a80fb328e
:101f7400074b5a80114b1a68114b1a6020000df060
:101f8400fdfb81b220000df096fcfff75af9c04624
:101f940074000020330c0000e40c00208054000086
:101fa400805300003011002030150020005500003f
:101fb400fe05000000530000602800204028002097
:101fc400f02700207a00002001060000fc06000033
:101fd400020600008055000004060000050600000b
:101fe400060600000056000009060000ec495c31ba
:101ff400ec480cf09dfd002868d00222ea4b1a70d0
:10200400e84c20000df0bafb02002100e7480df077
:1020140045fb80229200002120000df089fb002264
:10202400e34b1a60e04b1b78022b6cd0de4b1b7821
:10203400032b6dd0df4b1b68df4a12689b1adf4a03
:10204400934201d8fff703f9dd4bde495a5c0132b4
:102054005a5400225a80d44b1a7084acda4b44335d
:10206400220023cb23c223cb23c223cb23c203cb03
:1020740003c2198811809b78937020000df07efbb9
:1020840081b220000df017fcd04b1033220003cb9b
:1020940003c21b881380ce4920000df085f920006f
:1020a4000df06cfb81b220000df005fcbf4c20004c
:1020b4000df064fb81b220000df0fdfb8022920044
:1020c400002120000df034fbfff7bbf8b449643164
:1020d400b4480cf02dfd0028a4d00322b24b1a7092
:1020e400b04c20000df04afb02002100af480df077
:1020f400d5fa80229200002120000df019fb002265
:10210400ab4b1a608ee7b34aad4b5a80fff79ff88a
:10211400b14aab4b5a80fff79af8c023db00af4ab1
:1021240012889a421ad0a14c20000df027fb81b2ec
:1021340020000df0c0fb80229200002120000df051
:10214400f7faa64b1b88a64a934213d001339c4a44
:1021540053800022944b1a70fff773f89b491c318b
:1021640092480cf0e5fc411d2022954806300df004
:1021740095fad8e79b4a924b5a80eae7904b9149eb
:102184005a5c01325a5400225a80874b1a7084ac2c
:102194008d4b7433220023cb23c223cb23c223cb06
:1021a40023c219681160998891809b7993712000ea
:1021b4000df0e4fa81b220000df07dfb834b103367
:1021c400220003cb03c21b881380814920000df039
:1021d400ebf820000df0d2fa81b220000df06bfb79
:1021e400724c20000df0cafa81b220000df063fb9e
:1021f40080229200002120000df09afafff721f8c6
:10220400794d734c2a007949403120000cf0fafad8
:1022140020000df0b3fa0100200009f0e7fb063db1
:102224006b8801336b8020000df0a8fa81b2200086
:102234000df041fbfff705f85b4b1b78012b01d038
:10224400fff705f80022584b1a70614c12226849b6
:10225400203120000df022fa20000df08ffa010049
:10226400200009f0c3fb564a5388013353802000f1
:102274000df084fa81b220000df01dfbfef7e1ffa2
:10228400494b1b78012b01d0fef7e1ff0022464b9e
:102294001a704f4c2e225649343120000df0fef9ad
:1022a40020000df06bfa0100200009f09ffb444a66
:1022b40053880233538020000df060fa81b220006d
:1022c4000df0f9fafef7bdff374b1b78012b01d057
:1022d400fef7bdff0022344b1a703d4c24224449c2
:1022e400643120000df0daf920000df047fa010006
:1022f400200009f07bfb324a5388013353802000cd
:102304000df03cfa81b220000df0d5fafef799ffea
:10231400254b1b78012b01d0fef799ff0022224b9d
:102324001a702b4c0f2233491c3120000df0b6f9e2
:1023340020000df023fa0100200009f057fb204a89
:1023440053880133538020000df018fa81b2200025
:102354000df0b1fafef775ff134b1b78012b01d07a
:10236400fef775ff0022104b1a70194c3d222249ca
:10237400283120000df092f920000df0fff9010042
:10238400200009f033fb0e4a5388013353802000a8
:102394000df0f4f981b220000df08dfafef751ff33
:1023a4000053000030130020e40c002030150020fe
:1023b4002c28002040280020f0270020881300004b
:1023c40074000020330c000000560000805300000d
:1023d40030110020fd060000fe06000060280020e9
:1023e40009060000ff0600007a00002000550000e6
:1023f400805600008055000000570000e74b1b7812
:10240400012b01d0fef723ff0022e44b1a70e44ca9
:102414002622e449603120000df040f920000df03f
:10242400adf90100200009f0e1fadf4a53880133d5
:10243400538020000df0a2f981b220000df03bfa88
:10244400fef7fffed54b1b78012b01d0fef7fffef4
:102454000022d24b1a70d24c1622d44908312000e3
:102464000df01cf920000df089f90100200009f09d
:10247400bdfacd4a53880133538020000df07ef914
:1024840081b220000df017fafef7dbfec34b1b7878
:10249400012b01d0fef7dbfe0022c04b1a70c04caa
:1024a4001022c349683120000df0f8f820000df027
:1024b40065f90100200009f099fabb4a53880133f9
:1024c400538020000df05af981b220000df0f3f989
:1024d400fef7b7feb14b1b78012b01d0fef7b7fe18
:1024e4000022ae4b1a70ae4c0f22b1497831200055
:1024f4000df0d4f820000df041f90100200009f09e
:1025040075faa94a53880133538020000df036f937
:1025140081b220000df0cff9fef793fe9f4b1b789c
:10252400012b01d0fef793fe00229c4b1a70a14aa6
:102534009d4b5a80fef78bfe994c0f229e49083121
:1025440020000df0abf820000df018f90100200078
:1025540009f04cfa994a9a4b1a80fb32924b5a80f2
:10256400984b1a68984b1a6020000df007f981b255
:1025740020000df0a0f9fef764fe884b1b78012bb8
:1025840001d0fef764fe0022844b1a708f4a864bfa
:102594005a80fef75cfe8e495c318e480cf0c8fa16
:1025a400002866d002227d4b1a708a4c20000df060
:1025b400e5f80200210088480df070f880229200ae
:1025c400002120000df0b4f80022844b1a60734bf4
:1025d4001b78022b6ad0714b1b78032b6bd0794b81
:1025e4001b68794a12689b1a7d4a934201d8fef708
:1025f4002efe6d4b7b495a5c01325a5400225a809c
:10260400664b1a7084ac6c4b1833220023cb23c264
:1026140023cb23c223cb23c2196811601b79137106
:1026240020000df0abf881b220000df044f96e4ba0
:102634001033220003cb03c21b88138058492000a7
:102644000cf0b2fe20000df099f881b220000df0dc
:1026540032f9614c20000df091f881b220000df0a8
:102664002af980229200002120000df061f8fef783
:10267400e8fd5749643157480cf05afa0028a6d0af
:102684000322464b1a70534c20000df077f80200d9
:10269400210051480df002f8802292000021200010
:1026a4000df046f800224d4b1a6090e74f4a3e4b1e
:1026b4005a80fef7ccfd4e4a3b4b5a80fef7c7fdcd
:1026c400424a394b5a80fdf757fd374b45495a5c0e
:1026d40001325a5400225a80304b1a7084ac364b63
:1026e4004433220023cb23c223cb23c223cb23c2d4
:1026f4001b78137020000df041f881b220000df01a
:10270400daf8394b1033220003cb03c21b88138041
:10271400234920000cf048fe20000df02ff881b270
:1027240020000df0c8f82c4c20000df027f881b2e1
:1027340020000df0c0f880229200002120000cf04f
:10274400f7fffef77efd80229200002122480cf064
:10275400effffef77cfd124c102226497431200055
:102764000cf09cff20000df009f80100200009f096
:102774003df990221201204b1a80fc320a4b5a80f8
:10278400104b1a681d4b1a6020000cf0f7ff81b241
:1027940020000df090f8fef754fdc046e40c002034
:1027a4003011002080550000740000200056000005
:1027b40000570000ff0700008057000001080000d8
:1027c4006228002040280020f4270020ff08000091
:1027d4000053000030130020301500202c28002066
:1027e40088130000330c000080530000fd08000033
:1027f400fe08000000540000da270020e42700202f
:10280400f54c0f22f549043120000cf047ff20005d
:102814000cf0b4ff0100200009f0e8f8f04af14b95
:102824001a80fb32f04b5a80f04b1a68f04b1a6056
:1028340020000cf0a3ff81b220000df03cf8fef75d
:1028440000fde54c0e22eb49503120000cf026ff30
:1028540020000cf093ff0100200009f0c7f8e64abd
:10286400e04b1a80fa32e04b5a80e04b1a68e04b96
:102874001a6020000cf082ff81b220000df01bf8da
:10288400fef7dffcdd496431dd480cf051f9002826
:1028940001d1fef782f90322da4b1a70d84c2000da
:1028a4000cf06cff02002100d7480cf0f7fe8022e8
:1028b4009200002120000cf03bff0022d34b1a6051
:1028c400fef76bf9d24ac84b5a80fef7c0fcd14ad6
:1028d400c54b5a80fef7bbfccb4c20000cf04effde
:1028e40081b220000cf0e7ff80229200002120003a
:1028f4000cf01effbb4b1b88b94a934207d001332f
:10290400b94a53800022bf4b1a70fef79afcc24aa0
:10291400b54b5a80f6e7802292000021ba480cf0a9
:1029240007fffef794fcac4c1022bc497431200024
:102934000cf0b4fe20000cf021ff0100200009f08f
:1029440055f8a0221201b64b1a80fc32a64b5a80cd
:10295400a64b1a68b34b1a6020000cf00fff81b22b
:1029640020000cf0a8fffef76cfc9b4c0f229b4947
:10297400043120000cf092fe20000cf0fffe010058
:10298400200009f033f8a84aa54b1a80fb32964b75
:102994005a80964b1a68a34b1a6020000cf0eefe86
:1029a40081b220000cf087fffef74bfc8a4c0e220c
:1029b4009049503120000cf071fe20000cf0defe36
:1029c4000100200009f012f8984a954b1a80f83259
:1029d400854b5a80854b1a68924b1a6020000cf084
:1029e400cdfe81b220000cf066fffef72afc7a4c83
:1029f4000f228f49083120000cf050fe20000cf00b
:102a0400bdfe0100200008f0f1ff8a4a844b1a80c1
:102a1400f232754b5a80754b1a68824b1a6020004b
:102a24000cf0acfe81b220000cf045fffef709fc6f
:102a3400694c13228049303120000cf02ffe200015
:102a44000cf09cfe0100200008f0d0ff7b4a744b80
:102a54001a80f732644b5a80644b1a68714b1a60bf
:102a640020000cf08bfe81b220000cf024fffef756
:102a7400e8fb594c19227049443120000cf00efe39
:102a840020000cf07bfe0100200008f0afff6c4a30
:102a9400634b1a80f632544b5a80544b1a68614b7c
:102aa4001a6020000cf06afe81b220000cf003ffd3
:102ab400fef7c7fb484c19225f497c3120000cf01b
:102ac400edfd20000cf05afe0100200008f08efffe
:102ad4005c4a534b1a80f432434b5a80434b1a6876
:102ae400504b1a6020000cf049fe81b220000cf01b
:102af400e2fefef7a6fb384c0d22534918312000a4
:102b04000cf0ccfd20000cf039fe0100200008f090
:102b14006dff4e4a424b1a80f132334b5a80334b8d
:102b24001a68404b1a6020000cf028fe81b2200085
:102b34000cf0c1fefef785fb274c122244492031dc
:102b440020000cf0abfd20000cf018fe010020006a
:102b540008f04cff3f4a324b1a80f932224b5a801c
:102b6400224b1a682f4b1a6020000cf007fe81b22a
:102b740020000cf0a0fefef764fb174c0e22344933
:102b8400343120000cf08afd20000cf0f7fd010028
:102b9400200008f02bff304a214b1a80f032124bf0
:102ba4005a80124b1a681f4b1a6020000cf0e6fd85
:102bb40081b220000cf07ffe0cf0fafc27480bf0e9
:102bc400e1fd0cf0f5fcfa20c0000bf0dbfd0cf08d
:102bd400effcfef736fbc0463011002080540000a5
:102be40001090000da27002074000020402800209a
:102bf400e427002080530000020900000053000075
:102c040030130020e40c0020301500202c28002074
:102c1400fd090000fe090000ff0900000054000047
:102c24005e280020ec270020010a0000040a0000ae
:102c3400805700000a0a000000580000050a00003e
:102c4400060a0000080a0000805800000b0a000071
:102c540000560000030a00000c0a0000b80b000034
:102c6400ea4ceb4d290028311a2220000cf016fd05
:102c740020000cf083fd0019e64eb11d20220cf05b
:102c84000dfd04a92b0044330a0021cb21c21b787b
:102c9400137020000cf088fb20000cf06ffd010085
:102ca400200008f0a3fedc4adc4b1a80dc4b738066
:102cb400dc4b1a68dc4b1a6020000cf05ffd81b21b
:102cc40020000cf0f8fd0cf073fcd8480bf05afd12
:102cd4000cf06efcfef7b5facc4c80229200002179
:102ce40020000cf025fd04ae6422002130000cf01d
:102cf4001ffdc74d290028311a2220000cf0cefcfc
:102d040020000cf03bfd0019c24fb91d20220cf02d
:102d1400c5fc2b005033320003cb03c2310020002a
:102d24000cf042fb20000cf029fd0100200008f00b
:102d34005dfebf4ab94b1a80b94b7b80b94b1a6808
:102d4400b94b1a6020000cf019fd81b220000cf080
:102d5400b2fd0cf02dfcb5480bf014fd0cf028fc72
:102d6400fef76ffab3495c31b3480bf0e1fe00287b
:102d740072d00222b14b1a70af4c20000cf0fefc52
:102d840002002100ae480cf089fc80229200002150
:102d940020000cf0cdfc0022aa4b1a60a0231b01da
:102da4009e4a12889a424fd0a44b1b78022b70d0b3
:102db400a24b1b78032b71d09a4b1b689a4a12685a
:102dc4009b1aa14a934201d8fef73bfa914b9f49c3
:102dd4005a5c01325a5400225a80984b1a7084acbf
:102de4008b4b6833220023cb23c223cb23c223cbb8
:102df40023c223cb23c220000cf0c0fc81b22000ec
:102e04000cf059fd924b1033220003cb03c21b88f4
:102e140013807e4920000cf0c7fa20000cf0aefcb1
:102e240081b220000cf047fd854c20000cf0a6fc7c
:102e340081b220000cf03ffd80229200002120008e
:102e44000cf076fcfef7fdf90cf04afd77480bf028
:102e540099fc0cf045fda7e77649643176480bf000
:102e640067fe0028a0d00322744b1a70724c200015
:102e74000cf084fc0200210071480cf00ffc80224d
:102e84009200002120000cf053fc00226d4b1a60cc
:102e94008ae7704a5f4b5a80fef7d9f96e4a5d4b58
:102ea4005a80fef7d4f96d4a5a4b5a80fef760f8ff
:102eb400584b66495a5c01325a5400225a805f4b7f
:102ec4001a7084ac664b1833220023cb23c223cb65
:102ed40023c223cb23c203cb03c220000cf04efc3d
:102ee40081b220000cf0e7fc594b1033220003cbd5
:102ef40003c21b881380454920000cf055fa2000ba
:102f04000cf03cfc81b220000cf0d5fc4c4c2000b1
:102f14000cf034fc81b220000cf0cdfc8022920035
:102f2400002120000cf004fcfef78bf90021474b34
:102f3400384ad1548022920041480cf0f9fbfef744
:102f440086f9324c0d224649443120000cf0a6fb90
:102f540020000cf013fc0100200008f047fdb02213
:102f64001201404b1a80fc322a4b5a802d4b1a68ae
:102f74003d4b1a6020000cf001fc81b220000cf0e3
:102f84009afcfef75ef9214c112235496431200088
:102f94000cf084fb20000cf0f1fb0100200008f091
:102fa40025fd324a2f4b1a80fa321a4b5a801d4b98
:102fb4001a682d4b1a6020000cf0e0fb81b220004f
:102fc4000cf079fcfef73df9104c0f2224497831be
:102fd40020000cf063fb20000cf0d0fb010020006b
:102fe40008f004fd224a1f4b1a80f932094b5a801b
:102ff4000c4b1a681c4b1a6020000cf0bffb81b20a
:1030040020000cf058fcfef71cf9c04630110020db
:1030140080580000740000200d0a00005e28002083
:10302400fc0a000040280020ec270020b80b000018
:103034000e0a00000053000030130020e40c0020ae
:10304400301500202c280020204e0000330c0000f6
:1030540080530000fd0a0000fe0a0000ff0a000081
:10306400005900005c280020e8270020020b000023
:10307400030b0000ee4c0b22ee49603120000cf0f3
:103084000dfb20000cf07afb0100200008f0aefce0
:10309400e94aea4b1a80f832e94b5a80e94b1a683c
:1030a400e94b1a6020000cf069fb81b220000cf09f
:1030b40002fcfef7c6f8de4c0922e4493c3120004c
:1030c4000cf0ecfa20000cf059fb0100200008f091
:1030d4008dfcdf4ad94b1a80f732d94b5a80d94b31
:1030e4001a68d94b1a6020000cf048fb81b220000a
:1030f4000cf0e1fbfef7a5f8cd4c0c22d5490831c4
:1031040020000cf0cbfa20000cf038fb010020006a
:1031140008f06cfcd04ac94b1a80f632c84b5a806e
:10312400c84b1a68c84b1a6020000cf027fb81b208
:1031340020000cf0c0fbfef784f8c4496431c74892
:103144000bf0f6fc002801d1fdf7aaff0322c44bc3
:103154001a70c24c20000cf011fb02002100c1487f
:103164000cf09cfa80229200002120000cf0e0fa7e
:103174000022bd4b1a60fdf793ffbc4ab04b5a8046
:10318400fef765f8ba4aae4b5a80fef760f8b54cc4
:1031940020000cf0f3fa81b220000cf08cfba74b5a
:1031a4001b88ad4a934231d0013a934209d0a34bd4
:1031b4001b880133a24a53800022a94b1a70fef7e0
:1031c40040f82c21a7480cf0c5f801300cf04afb5c
:1031d400c0b24f28ebd99a49a64a8b5c01338b5471
:1031e40084ac9c4b3c33220023cb23c223cb23c28d
:1031f40019681160998891809b79937120000cf073
:10320400bdfa81b220000cf056fbd0e791495c3145
:1032140094480bf08dfc002800d1ade003300cf095
:1032240045fb08f0fffe051c8a4960318d480bf010
:103234007ffc00287dd003300cf038fb08f0f2fe50
:10324400041c8449683187480bf072fc002800d1c3
:103254008de0894e1422002130000cf069fa14220a
:10326400002186480cf064fa8549281c07f078fb95
:103274000bf0e8fa0300642701907b4318000af07e
:103284005ff9011c281c06f045fb02907c49201cb8
:1032940007f066fb0bf0d6fa0500474338000af046
:1032a4004ff9011c201c06f035fb03907549029868
:1032b40007f056fb041c01980af042f9011c201c7b
:1032c40006f0a2fc09f064fe02000b00614f3c0012
:1032d4006c34210030000bf095fa6a49039807f02a
:1032e4003ffb019028000af02bf9011c019806f01d
:1032f4008bfc09f04dfe02000b0021005f480bf02f
:1033040081fa390074315d4b320084a80bf07afaeb
:1033140084a80cf033fa81b284a80cf0ccfa802291
:10332400920000214f480cf003fa574a444b5a804c
:1033340042e780231b069c466544464e31006431b7
:10334400484f38000bf0f4fb03300cf0affa08f0f0
:1033540069fe041c3100683138000bf0e9fb0028d9
:1033640000d076e780231b069c46644471e78023e3
:103374001b069c4664446ce73f4c14263200002133
:1033840020000cf0d5f93d4d3200002128000cf04e
:10339400cff93e4b23602b602b0022002d49743162
:1033a40084a80bf02ffa84a80cf0e8f981b284a861
:1033b4000cf081fab3e7224b2e495a5c01325a547d
:1033c40000225a80264b1a7084ac314b14332200ed
:1033d40023cb23c203cb03c21b78137020000cf051
:1033e400cdf981b220000cf066fa124b10332200a2
:1033f40003cb03c21b8813800d4920000bf0d4ffbc
:1034040020000cf0bbf981b220000cf054fa154cea
:1034140020000cf0b3f981b220000cf04cfa8022a9
:103424009200002120000cf083f9fdf70affc0464a
:103434003011002080530000040b00005c280020a1
:103444007400002040280020e827002000530000da
:10345400050b000080590000060b0000301300200b
:10346400e40c0020301500202c280020fd0b000067
:10347400fe0b0000330c0000b00c0020c40c002034
:103484000000c84200007042ff0b000039393900c7
:10349400005a0000802292000021b8480cf048f93c
:1034a400b74ab84b5a80b74b1b78022b01d0fdf7b3
:1034b400cefeffe0b4495c31b4480bf039fb002880
:1034c40065d00222b24b1a70b04c20000cf056f9b1
:1034d40002002100a9480cf0e1f8802292000021aa
:1034e40020000cf025f90022aa4b1a60a84b1b7887
:1034f400022b69d0a64b1b78032b6ad0a64b1b6802
:10350400a64a12689b1aa64a934201d8fdf79ffe69
:103514009c4ba4495a5c01325a54994a5a8000225d
:103524009b4b1a7084aca04b5433220023cb23c290
:1035340023cb23c223cb23c21b88138020000cf08f
:103544001df981b220000cf0b6f9984b103322001b
:1035540003cb03c21b881380954920000bf024ff82
:1035640020000cf00bf981b220000cf0a4f9834c7c
:1035740020000cf003f981b220000cf09cf98022a9
:103584009200002120000cf0d3f8fdf75afe7e498a
:1035940064317e480bf0ccfa0028a7d003227c4b80
:1035a4001a707a4c20000cf0e9f8020021007348ec
:1035b4000cf074f880229200002120000cf0b8f87e
:1035c4000022744b1a6091e77a4a6e4b5a80fdf7d9
:1035d4003efe794a6b4b5a80fdf739fe0021714b50
:1035e400684ad154654c20000cf0c8f881b2200020
:1035f4000cf061f9714b1b88c022120193420dd06b
:103604000133604a53808022920000215b480cf011
:103614008ff800225e4b1a70fdf713fe584a594b7f
:103624005a80f0e7574b5f495a5c01325a54544a66
:103634005a800022564b1a7084ac5b4b7c332200b8
:1036440023cb23c223cb23c21968116099889180ac
:103654009b79937120000cf091f881b220000cf05a
:103664002af9524b1033220003cb03c21b88138068
:103674004f4920000bf098fe20000cf07ff881b237
:1036840020000cf018f93d4c20000cf077f881b2c2
:1036940020000cf010f980229200002120000cf090
:1036a40047f8fdf7cefd364b364a52889a4201d090
:1036b400fdf7cdfd334b9b88414a934200d18de009
:1036c40015d9404a934200d1c8e100d218e1013231
:1036d400934201d0fdf7bbfd8022920000212748d0
:1036e4000cf026f800222a4b1a70fdf7b0fdfc3ac4
:1036f400934225d00132934201d0fdf7a8fd2c4c12
:103704000e223149303120000bf0c8ff20000cf0ac
:1037140035f80100200008f069f92c4a2c4b1a8076
:10372400fb32184b9a801c4b1a682a4b1a602000f3
:103734000cf024f881b220000cf0bdf8fdf787fdf1
:1037440021491c3111480bf0f3f9002801d1fdf790
:103754007efd0c3004001c492c310bf0e9f90028e3
:1037640001d1fdf774fd20000cf07cf8054b1a4ada
:103774009852164a9a80fdf76afdc046301500201b
:10378400ff0c0000740000200053000030130020e0
:10379400e40c00202c28002040280020f8270020da
:1037a40010270000330c0000005a00008053000072
:1037b40030110020fd0c0000fe0c000064280020e5
:1037c400fc800000fe800000805a00000180ffffa2
:1037d40068280020002800202a020000be495c312d
:1037e400be480bf0a5f9002863d00222bc4b1a7026
:1037f400ba4c20000bf0c2ff02002100b9480bf0c4
:103804004dff80229200002120000bf091ff002246
:10381400b54b1a60b24b1b78022b67d0b04b1b78a8
:10382400032b68d0b14b1b68b14a12689b1ab14a8a
:10383400934201d8fdf70bfd0022a94b1a70ae4b41
:10384400ae495a5c01325a54ad4a9a8084acad4bad
:103854004033220023cb23c223cb23c21b881380f3
:1038640020000bf08bff81b220000cf024f8a64b53
:103874001033220003cb03c21b881380a34920000a
:103884000bf092fd20000bf079ff81b220000cf0c8
:1038940012f8944c20000bf071ff81b220000cf060
:1038a4000af880229200002120000bf041fffdf76e
:1038b400cefc8949643189480bf03af90028a9d033
:1038c4000322874b1a70854c20000bf057ff02002f
:1038d400210084480bf0e2fe8022920000212000a7
:1038e4000bf026ff0022804b1a6093e7884a824b34
:1038f4009a80fdf7acfc874a7f4b9a80fdf7a7fcc2
:10390400804c21005c31774d28000bf011f9060042
:103914002100643128000bf00bf9002e00d186e061
:10392400754b7d4a9a5c9b188b22920094466344a3
:1039340001221a70002809d06f4b774a9a5c9b18b1
:103944008b2292009446634402221a706d4c21002b
:103954006c31644e30000bf0ebf8c51c2100703163
:1039640030000bf0e5f80700634c6b4ea05d40029d
:103974006a4b9c46604400198022920000210bf09f
:10398400d7fea05d4002654b9c46604400197a1b3b
:1039940029000bf083fea35d0133dbb2042b49d86d
:1039a40055498b55544b01218a2292009954002188
:1039b400524a995404aa534b783303cb03c21b785d
:1039c4001370554b4c4ad35c0421002b01d0013bae
:1039d400d9b24902514b9c466144474bc91804a8cb
:1039e4000bf0e2fc04a80bf0c9fe04ab9c46604457
:1039f400032244492c310bf051fe04a80bf0befe07
:103a040081b204a80bf057ff454b1b88454a9342eb
:103a140015d00133384a9380802292000021314826
:103a24000bf086fe00222e4b1a70fdf710fc0028c6
:103a340082d1bfe70021384b2f4ad154b2e72e4937
:103a4400394a8b5a013b9bb28b52002b02d12c4a30
:103a54008a80e1e7354a284b9a80dde70022204b33
:103a64001a70254b25495a5c01325a54244a9a80cb
:103a740084ac2f4b0433220023cb23c203cb03c2d9
:103a84001b88138020000bf079fe81b220000bf01c
:103a940012ff1d4b1033220003cb03c21b8813807b
:103aa4001a4920000bf080fc20000bf067fe81b265
:103ab40020000bf000ff0b4c20000bf05ffe81b2e6
:103ac40020000bf0f8fe80229200002120000bf071
:103ad4002ffefdf7bcfbc04600530000301300204e
:103ae400e40c0020301500202c2800204028002061
:103af400002800201027000074000020340c00006f
:103b04000080ffff805a0000805300003011002025
:103b1400fd80fffffe80ffff310200003302000042
:103b240068280020018000002a0200000180ffffb5
:043b3400005b000032
:020000040000fa
:103b3800f0b5a5b007930023049007982093069149
:103b48001a920bf0fbfe050000680bf015fe00262c
:103b58000027069b05901f931f9b1a780d2a39d8ba
:103b6800092a3dd2002a44d00023129300221f9c28
:103b78000c922378302b00d07ee06378582b02d04b
:103b8800782b00d06ee0079bb74a0293129b1fa9bf
:103b9800019320ab0093049821ab04f0cdfc0725da
:103ba8000590054005d0062d2fd1002301341f9420
:103bb80012931a9b002b02d01a9b1f9a1a60129b11
:103bc800002b1dd0802332001b06fb1810001900a3
:103bd80025b0f0bd2b2a05d02d2a14d0202ac3d118
:103be8000133b8e7002212925a1c1f925b78002b0f
:103bf800bcd1069b1f93002312931a9b002bdbd189
:103c080032003b00e2e70122ede7209a002a07d0c4
:103c1800352122a80bf06cf8209904980af024ffab
:103c2800681e042806d80bf0f3fc0c0317190c00c7
:103c3800229e239f059b1b07bbd580231b061f4382
:103c4800b7e7239b894a8a491a40219b229e5b1821
:103c58001b051a431700ede7864febe70126864f51
:103c68007642e7e71f9b5a1c1f925b78302bf9d0ee
:103c7800002b9ed001230c931f9b0a221393002331
:103c88000b930a9308931f9804782300303bd9b20a
:103c9800092926d9059a29680bf06afa002832d032
:103ca800002023008446089a0790059220221900d4
:103cb80091430a000021452a00d0a7e0059b0c9af1
:103cc800034313438b4294d01f9b069301331f93e6
:103cd800069b5b782b2b71d00c002d2b74d1012403
:103ce8006de00899082909dc0a9951435b180a9381
:103cf800089b0130013308931f90c4e70b99514387
:103d08005b180b93f4e71f9a059b9446089a634443
:103d18001f931b78002a49d11000302b28d01a0095
:103d2800313a082a46d8844600201f9a05901392f3
:103d3800303b421c002b0fd00a219444059a1018de
:103d480082421bd1511c0591082a25dc0a220a99b6
:103d58004a439b1800220a9310001f9b591c1f916d
:103d68005b781a00303a092ae2d9012207929de7c6
:103d78001f9b01305a1c1f925b78cee70132541efc
:103d8800082c03dc0a9c4c430a94d9e7102ad7dc98
:103d98000b9c4c430b94d3e7059900221029dbdcdc
:103da8000a210b9841435b180b93d5e7089a844680
:103db8000592d6e7002294460592d6e70c00069baa
:103dc80002331f93069b9b781a00303a092a60d861
:103dd800302b43d01a00313a0021082a16d8303b3c
:103de8001f9d0e931f9b591c1f915b781a00303a38
:103df800092a47d94a1b214d2900082a03dc0e99b4
:103e0800a94200dd2900002c00d04942059a002a69
:103e180063d10c9a104300d0cbe6079a002a00d051
:103e2800e7e64e2b3ed038dc492b00d0e1e6144cb7
:103e38001fa821000bf02cf8002800d1d9e61f9b01
:103e4800e11c013b1fa81f930bf022f8002802d1a8
:103e58001f9b01331f93074f0026aae61f9b5a1c7e
:103e68001f925b78b4e7c04640f60000ffffefff03
:103e7800330400000000f07fffffff7f1f4e0000ab
:103e880074f800000a220e994a43d218303a0e926a
:103e9800a8e7069a00211f92b8e7692bc7d06e2bb6
:103ea80000d0a6e68b491fa809310af0f1ff0028c7
:103eb80000d19ee61f9b1b78282b0cd122aa86498d
:103ec8001fa807f03dfa052805d1239b834a229ea7
:103ed8001a4317006de6824fbee76346cb1a079375
:103ee800089b002b01d1059b0893059c102c00dd35
:103ef80010240a9809f0b2ff06000f00092c15ddfe
:103f08002200784b093ad2009b181a685b6805f0c2
:103f180071f906000b980f0009f0a0ff02000b00d2
:103f28003000390003f0dcfa06000f00059b0f2b68
:103f380039dc079b002b00d13be626dd162b0bdc7a
:103f48006849db00c9183200086849683b0005f079
:103f580051f906000f002ce62523059a9b1a079aab
:103f68009a4220dc0f24059b5e4de41ae100691893
:103f78003200086849683b0005f03cf9079b1c1ba8
:103f8800e4002c1922686368e1e7079b16330adb13
:103f9800079b3000da00534b39009b1a1a685b689c
:103fa80004f028f8d5e7059b1c1b079be418002c98
:103fb8006edd0f2323400ad04a49db00c9183200be
:103fc800086849683b0005f015f906000f000f2343
:103fd8009c4348d02633ff339c4221dd00240594be
:103fe8000a94079422230026049a3c4f13600a9be4
:103ff800b34200d1dde5209904980af035fd079910
:1040080004980af031fd059904980af02dfd0a99e3
:1040180004980af029fd210004980af025fdc8e556
:104028000023300039001d002411012c1edc002b58
:1040380001d006000f002c4bed00ff182b4b32006f
:104048005d19286869683b0005f0d4f8234b0f0018
:104058000b40274906008b42c0d826498b4213d90a
:104068000126254f76420023069373e0012214426d
:1040780007d01e4aeb009b181a685b6805f0baf86f
:10408800012301356410d0e7d4239b04ff18eae725
:10409800002ce8d00f23644223400ad0114adb00e9
:1040a800d31830001a685b68390003f0a3ff0600d4
:1040b8000f002411d7d01f2c20dd002405940a946a
:1040c80007942223049a002613600a9b0027002bda
:1040d80091d16ee574f8000054f600000000f07ffe
:1040e8000000f8ff30c800000000b0fcc0ee00007f
:1040f8000000a07c0000907cffffef7f102323408e
:10410800069301d06a230693300039000023ca4d74
:10411800002c00dd03e1002b01d006000f00069bf8
:10412800002b0fd06b237900490d3a005b1a002b46
:1041380008dd1f2b00dc04e10026342b00dcf9e04d
:10414800dc27bf04002200233000390009f0c0fb3f
:104158000028b2d10a9b089a00931399059b0498ea
:1041680009f06efa0a90002800d137e7079b00246f
:10417800da175b421a40079b1592db43079adb1755
:104188001a40139205940a9b0498596809f028fd6f
:104198000790002800d125e70a9b0a991b690c3172
:1041a8009a1c92000c3008930bf076fa22ab01931c
:1041b80021ab009332003b0004980e960f9708f04d
:1041c800adfc2090002800d10ce7012104980bf0e9
:1041d8006cfa0590002800d104e7219b002b00da37
:1041e800b4e0159ad518139a94460699229a5b1a40
:1041f80036219b189148013b8a1a0121834200db32
:10420800b0e0c01a121a1f2800dda4e08140002384
:1042180014910c93ab1808931300069a6344d318af
:10422800089a0b932b00954200dd13000b9a9342da
:1042380000dd1300002b06dd089aed1ad21a089249
:104248000b9ad21a0b92159b002b17d01a000599be
:10425800049808f0adfd0590002800d1c2e60100e1
:10426800209a049807f09af91b90002800d1b9e623
:10427800209904980af0f8fb1b9b2093089b002bbd
:1042880073dc139b002b79d10b9b002b08dd1a00e4
:104298000799049808f0eafc0790002800d1a1e6e5
:1042a800002d08dd2a000599049808f0dffc059028
:1042b800002800d196e6079a2099049808f050fa49
:1042c800041e00d18ee60025c3680599c5600b93ce
:1042d8000af0e3fba8425bda0b9bab421bd1ae4270
:1042e80019d13b03ab4216d1d622554bd2043b40e1
:1042f800934210d96369ab4202d12369012b0addcd
:1043080021000122049808f0b1fc059904000af084
:10431800c4fb00286cdc069b002b78d16be60122dd
:10432800144204d02a686b6804f064ff0123641007
:104338000835ede60121203b494299400a40170023
:1043480000e7012252429a401640fbe6139a159d57
:10435800d21a944649e73b48c31a080098400c9083
:10436800149157e700230c93fae7089a20990498c8
:1043780008f07cfc2090002883d133e6139a079933
:10438800049808f015fd0790002800d07ce729e67e
:10439800002800d095e00b9a3b03002a24d02a4934
:1043a8003a001b0b8b425ed1069b0138b4460100d4
:1043b800002b0ad0d425224bed043b40ab4204d855
:1043c8006b211b0dcb1a0100994061454bd11f4b46
:1043d8009a4202d14b1c00d104e6194b00261a4020
:1043e80080235b03d71896e7002b3cd1002e3ad1e7
:1043f800069a134b002a2dd01a00d6213a40c90438
:104408008a4227dcdc239b049a4200dc59e6104be5
:1044180030001193002310933900109a119b04f077
:10442800e9fe06000f1e00d0e5e5002800d0e2e511
:104438002223049a1360dee548ee000002fcffff29
:104448000000f07fe2fbffffffff0f00ffffef7fa1
:10445800000050390126a94a3b409b18a84a7642d9
:104468001a43170057e70c9b002b13d03b4200d18f
:1044780051e70b9b069a30003900002b0fd00af049
:104488006dfb02000b000e980f9903f029f8060047
:104498000f0040e7149b334200d13ce7e9e70af0fc
:1044a8005dfb02000b000e980f9902f041fd0022ff
:1044b800002306000f0009f00bfa002800d000e6e0
:1044c80029e70599200009f0abfe80230022db05cf
:1044d8000890099109f00cfa002875d00b9b002b65
:1044e80043d00022874b0c920d93864b0893864b42
:1044f8003b401493149a854b9a4200d0b1e00e9a2f
:104508000f9b10921193824b3000ff18390009f06d
:10451800fbfe02000b000c980d9904f06bfe3200b4
:104528003b0002f0ddff784a7a4b06000a409a42c7
:1045380062d9794b119a9a4203d1109a013200d16b
:1045480050e501261f007642209904980af08cfa5b
:10455800079904980af088fa059904980af084fae9
:10456800210004980af080fa0de6002e1dd13b03c5
:1045780020d1089809990022624b09f0aff9002868
:104588001ed1089809990022644b04f033fe0500f7
:104598000891802212069446089b1c9563441d933b
:1045a8001c9a1d9b0c920d93a1e7012e02d1002f9e
:1045b80000d186e500225a4b00250c920d9394e712
:1045c800564b0b9d0893e4e7544b08980999002231
:1045d80004f010fe0b9b05000891002b07d18023e7
:1045e8001b06cb1816901793169a179bdae702004a
:1045f800089b16921793f7e7d4239b04cf18069bc2
:10460800002ba1d1404b149a0c973b409a429bd166
:104618000899280009f0bcfb09f038fa0b000200e1
:104628000899280002f084fc0b9b08900991002b44
:1046380004d1002e02d10c9b1b0358d0089809996d
:10464800384a394b09f04af9002800d0d3e40898d1
:104658000999364a314b09f055f9002800d173e71a
:10466800c9e4069b002b2ad0d423149adb049a426f
:1046780025d82f4a2f4b2800089909f039f9002826
:1046880016d0280008990af06bf9002800d10120fb
:1046980009f0e4fb0b9b05000891002b22d1802335
:1046a8001b06cb1818901993189a199b0c920d9306
:1046b800d6220d9bd2049b18149a9b1a0d930e9820
:1046c8000f990c9e0d9f09f01ffe02000b00300091
:1046d800390004f08ffd0e9a0f9b02f001ff0600cf
:1046e8000f008ce70200089b18921993dce70d4a2b
:1046f800114b0898099909f0f1f8aee70000f0ffae
:10470800ffff0f000000f03f0000f07f0000e07f97
:104718000000b0fcffff9f7cffffef7f0000e03f41
:104728000000f0bf9535a094ffffdf3f35e5af35ba
:0c4738000000c0ffffffdf41ffffcf3f8c
:020000040000fa
:10474400f0b516001f00446a9db00490259d06969e
:104754000797002c08d110200af084ff049b5862ac
:10476400446084600460c460049b5b6a1968002927
:104774000bd05a68012393404a608b6004980af076
:1047840075f90022049b5b6a1a60079b002b1cdaf4
:1047940001232b607b005b080793079cba4b220024
:1047a40019931a409a421cd1b84b249a1360069a62
:1047b400b74b002a03d1240301d100f08cfd269ac3
:1047c400002a05d109330a9308e000232b60e4e7ab
:1047d4001a0009320a920c33269a13600a981db003
:1047e400f0bd069e079f002200233000390009f027
:1047f40071f8051e0ed00123249a1360a44b1a00ed
:104804000d320a92269a002ae8d01a0026990e320e
:104814000a60e3e71aab01931bab009332003b0041
:10482400049808f07df9630005905b0d00d17fe0ea
:104834003a03984c120b14432100974a3000189500
:104844009e180022954b02f075fb954a954b04f097
:10485400d3fc954a954b02f045fe040030000d0050
:1048640009f016f9924a934b04f0c6fc02000b00bf
:104874002000290002f036fe04000d0009f08afa37
:104884000022039000232000290009f029f80028c1
:104894000ed0039809f0fcf80b0002002900200058
:1048a40009f018f8030058425841039b1b1a03935c
:1048b40001231693039b162b0fd87f49db00c918dd
:1048c40008684968069a079b09f01ef800284bd02f
:1048d400039b013b0393002316931a9b9e1b002307
:1048e4000b933300013b0c9304d501239b1b0b93c7
:1048f40000230c93039b002b38db039a0c9b9446f8
:1049040063440c9300230f920893229b0125092be7
:1049140000d991e0052b02dd0025043b2293229b64
:10492400981e032800d991e00af074fe8284297647
:104934001a9b1b9a9e18614bf218202a0fdd203b0c
:104944000698f318d84040239b1a9c40204309f052
:1049540087fa01235a4c013e0919189371e7202361
:1049640006989b1a9840f2e71690b6e70b9b039ab9
:104974009b1a0b935342089300230f93c5e701231b
:104984000e93239b002b65dd1f000d93049a546a3c
:104994000022626004221100143199425fd96168d7
:1049a400049809f01ff9049b20605b6a1b680a9352
:1049b4000e2f00d9fce0002d00d1f9e0069b079ce6
:1049c40014931594039b002b00dc7de01a000f2147
:1049d400394b0a40d2009b185c681b6810931194f1
:1049e400039b02241d11eb060ad5364b0d401a6aaf
:1049f4005b6a1498159903f0fffa03240690079153
:104a0400304e002d30d1109a119b0698079903f06f
:104a1400f3fa0690079171e00123239a0e939446ca
:104a2400039b63445f1c0d933b1eafdc0123ade786
:104a34000023a5e70023f0e700230e952293013b12
:104a44000d931f000022122323929fe701230e934c
:104a5400023bf5e701230d931f001a00f4e7616898
:104a640052000131616096e701231d4208d010987d
:104a74001199e4183268736804f0befb1090119128
:104a84006d100836bde7c0460000f07f0f27000018
:104a940054f700000000f03f01fcffff0000f83f66
:104aa40061436f63a787d23fb3c8608b288ac63f30
:104ab400fb799f501344d33f30c8000032040000f8
:104ac400000010fec0ee0000039b0224002b15d052
:104ad400149815995d420f23c94a2b40db00d31863
:104ae4001a685b6804f088fb002306900791c54ea2
:104af4002d11002d00d08be0002b8ad1169b002baa
:104b040000d191e0069a079b109211931098119985
:104b14000022bd4b08f0e4fe002800d184e0002f01
:104b240000d181e00d9b002b3edd10981199039b71
:104b340000225e1eb54b04f05ffb069007910d9dad
:104b44000134200008f0a4ff069a079b04f054fbec
:104b54000022af4b02f0c6fc12901391129b139cdf
:104b6400ac4a10931194139b9c181194002d5ed1a0
:104b7400069807990022a84b02f0dcf9109a23004a
:104b84000690079108f0c0fe002800d000e3a34877
:104b94001399844661440b0006980799109a08f00b
:104ba4009ffe002800d0e7e2149b159c069307940f
:104bb4001b9b002b00da56e1039a0e2a00dd52e11a
:104bc4008f4bd2009b185c681b6808930994239b45
:104bd400002b00dbcee0002f00ddcbe000d0cee2e6
:104be4000898099900228c4b04f006fb069a079b4f
:104bf40008f094fe3e000897002800d0a3e20a9b28
:104c04000a9a5d1c31231370039b013303939ee2c4
:104c14000122154205d0a4183268736804f0ecfa36
:104c240001236d10083664e7039e3d0089e70a9a64
:104c3400691e521917920e9a714bc900002a4ad064
:104c44005b181a685b680020754903f0d5f9109a5f
:104c5400119b02f06ff90a9b109011911293069820
:104c6400079909f097f8040008f012ff02000b00fe
:104c74000698079902f05ef9129b30345d1c1c7093
:104c8400109a119b0690079108f02afe002865d11e
:104c9400069a079b00205c4902f04cf9109a119b7c
:104ca40008f01efe002800d0bde0179b9d4200d1f5
:104cb4007ae7109811990022544b04f09dfa0022cf
:104cc4001090119106980799504b04f095fa12959b
:104cd40006900791c3e7591808684968109a119b10
:104ce40004f08afa109011910a9c179d069807996e
:104cf40009f050f8129008f0cbfe02000b00069861
:104d0400079902f017f9129b06900791303323702c
:104d1400179b01340022a34224d1414b10981199ce
:104d240002f0e0fb02000b000698079908f0ecfd86
:104d3400002800d077e0109a119b0020384902f037
:104d4400f9f802000b000698079908f0c9fd00283d
:104d540000d129e76b1e1a78302a01d003963fe070
:104d64001d00f7e706980799284b04f045fa0690ca
:104d74000791bbe70a9e089a099b0698079903f0d6
:104d84003bf909f007f8040008f082fe089a099b31
:104d940004f032fa0b0002000698079902f0caf8f0
:104da4002300303333700a9b751ceb1a9f424bd19e
:104db40002000b0002f096fb06000f0002000b003d
:104dc4000898099908f08cfd00282bd108980999b6
:104dd40032003b0008f07efd002801d0e30721d417
:104de4000599049809f042fe00232b70039b249a32
:104df40001331360269b002b00d1efe41d60ede42a
:104e040030c80000c0ee00000000f03f0000244065
:104e140000001c400000c0fc000014400000c07ce6
:104e24000000e03f039e6b1e1a78392a06d10a9ac5
:104e34009a4207d130231370130001361a780132d5
:104e44001a708be71d00eee70022cf4b04f0d4f973
:104e540000220023069007912e0008f03bfd002855
:104e640000d188e7bce70e9a002a00d187e0229a95
:104e7400012a6edc189a002a67d0c44a9b18089d40
:104e84000b9c0b9a0121d2180b920c9a0498d318fc
:104e94000c930af00cfc0600002c0edd0c9b002b7e
:104ea4000bdd0c9a2300944200dd13000b9ae41ae4
:104eb400d21a0b920c9ad31a0c93089b002b1ed077
:104ec4000e9b002b5fd0002d11dd31002a000498c9
:104ed40007f070ff059a01000600049806f060fbd5
:104ee40005991090049809f0c1fd109b0593089b47
:104ef4005a1b04d00599049807f05cff0590012122
:104f040004980af0d4fb0f9b0890002b3ddd1a0097
:104f14000100049807f04eff229b08900025012b06
:104f24003bdc0025069bab4233d1079b1b03ab4202
:104f34002fd1199b079a13422bd00b9b01250133c8
:104f44000b930c9b01330c9323e036231a9a9b1a80
:104f540095e7089b7d1eab4206db5d1b002f0bda39
:104f64000b9bdc1b00238ce7089b0895ea1a0f9b1c
:104f740000259b180f93f1e70b9c3b0081e7089dec
:104f84000b9c0e9e88e7089ab4e7229b0025012b10
:104f9400c7dd0f9b0120002b0bd0089b089a1b69cf
:104fa4000f9303339b00d318586809f02bfd20237b
:104fb400181a0c9bc0181f23184000d1abe0202303
:104fc4001b1a042b00dc9be01c23181a0b9b2418cf
:104fd4001b180b930c9b1b180c930b9b002b05ddd0
:104fe4001a000599049807f043fe05900c9b002bca
:104ff40005dd1a000899049807f03afe0890169bfc
:10500400002b00d189e00899059809f048fd002893
:1050140000db82e0039b0a22013b039305990023f2
:10502400049808f085fc0e9b0590002b00d15be1f1
:10503400002331000a22049808f07afc0d9b060034
:10504400002b02dc229b022b6ddc002c05dd3100e1
:105054002200049807f00cfe06003000002d11d049
:105064007168049808f0befd3100040033690c3106
:105074009a1c92000c300af011fb012221000498c2
:1050840007f0f6fd0d9f0a9b013f0b93db193700d8
:1050940006000f930899059806f0befe39000d909e
:1050a4000400059809f0fbfc32000e90089904985e
:1050b40007f058fb01230c93c36830340500002b20
:1050c40004d10100059809f0eafc0c902900049829
:1050d40009f0ccfc0c9b229a134300d089e00123f5
:1050e400069a134200d084e0392c00d1a3e00e9b31
:1050f400002b01dd0d9c31340b9b5d1c1c7027e0e3
:10510400042b00d169e70b9a1c33d2180b920c9a2a
:10511400e418d31860e70300f5e7002f3cdc229b7a
:10512400022b39dd0d970d9b002b0cd1089905221c
:10513400049808f0fdfb08900100059809f0affc05
:10514400002800dd5be5239b0a9ddb4303930027d6
:105154000899049809f08afc002e00d140e6002f3b
:1051640005d0b74203d03900049809f07ffc310020
:10517400049809f07bfc33e608952e00e3e700234e
:1051840008931e00dfe7c0460000244033040000fb
:10519400039608952e0032e50e9b0d97002b00d048
:1051a40053e70a9d0899059806f036fe0a9b3030ad
:1051b4000d9a287001350400eb1a9a4278dc151e0a
:1051c40000dc012500270a9b5d190599012204983a
:1051d40007f04efd0899059009f061fc00282fdcca
:1051e40001d1e3072cd46b1e1a78302ab0d11d00ec
:1051f400f9e70e9b002b07db1d00229b1d4326d1e4
:105204000123069a134222d10c9b002b00dc73e786
:1052140005990122049807f02bfd0899059009f0df
:105224003efc002804dc00d066e7e30700d463e713
:10523400392c00d05ee70b9b0b9a5d1c392313704d
:105244006b1e1a78392a3bd001321a7080e70b9b07
:1052540001330d930c9b002b05dd392cebd00d9df8
:1052640001340b9b4ae70b9b0f9a0d9d1c709342d4
:10527400abd000230a220599049808f059fb0023b7
:1052840005900a2239000498b74206d108f050fb71
:10529400070006000d9b0b93fce608f049fb310068
:1052a400070000230a22049808f042fb0600f1e7f5
:1052b40000230a220599049808f03afb059071e747
:1052c4000a9a9a4205d1039b013303933123137045
:1052d4003ee71d00b4e7269a0a930833002a01d05a
:1052e400fff77afafff77afa0d9b002b00dd58e7f7
:0c52f400229b022b00dc54e715e7c046ab
:020000040000fa
:1053000041540d0a00000000415445300d0a0000d0
:1053100041542b434c434b3d225343222c320d0a24
:105320000000000041542b4350494e3f0d0a00003d
:1053300041542b434f50533f0d0a000041542b431f
:1053400053510d0a0000000041542b555244464968
:105350004c453d225030220d0a0000004f4b0d0af3
:10536000000000004552524f520d0a005f41545f49
:105370004d4f44554c455f434f4e4e4543542020be
:105380004572726f725f74696d656f75740d0a0096
:1053900074785f4552524f523a0000002c33322c41
:1053a000000000005f41545f4d4f44554c455f4342
:1053b0004f4e4e45435420204572726f725f6d65ab
:1053c000670d0a0041542b43455245473f0d0a00e3
:1053d00041542b434744434f4e543f0d0a000000b5
:1053e00041542b43434c4b3f0d0a00005f41545f37
:1053f00034474c54455f6c696e6b5f63686b20206b
:105400004572726f725f74696d656f75740d0a0015
:105410005f41545f34474c54455f6c696e6b5f630a
:10542000686b20204572726f725f6d65670d0a00b0
:105430005f41545f4e4554574f524b5f5354415454
:10544000555320204572726f725f74696d656f7578
:10545000740d0a005f41545f4e4554574f524b5fe5
:1054600053544154555320204572726f725f6d65dd
:10547000670d0a0041542b555053443d302c302cbd
:10548000300d0a0041542b55505344413d302c33cc
:105490000d0a00005f41545f52454c4f475f494e33
:1054a00020204572726f725f74696d656f75740d3f
:1054b0000a0000005f41545f52454c4f475f494e20
:1054c00020204572726f725f6d65670d0a000000e3
:1054d00041542b555345434d4e473d302c302c22e3
:1054e0007063626361222c313335390d0a0000008c
:1054f00041542b555345434d4e473d302c312c22c2
:105500007063626363222c313235370d0a0000006c
:1055100041542b555345434d4e473d302c322c22a0
:10552000706362706b222c313637350d0a00000033
:1055300041542b555345434d4e473d330d0a000012
:1055400041542b554d5154543d302c222573220d7e
:105550000a00000041542b554d5154543d322c2229
:1055600073686172656170702e73746f6e657465b7
:1055700063682e636f6d2e7477222c383838330da4
:105580000a00000041542b554d5154543d332c22f8
:10559000222c383838330d0a0000000041542b55b6
:1055a0004d5154543d362c310d0a000041542b55b9
:1055b0004d5154543d372c310d0a000041542b55a8
:1055c0004d5154543d382c22736572617068696d79
:1055d0002f6c61737477696c6c220d0a00000000f7
:1055e00041542b554d5154543d392c22556e726502
:1055f0007175657374656420646973636f6e6e653d
:105600006374220d0a00000041542b554d5154542f
:105610003d31302c333630302c32300d0a00000052
:1056200041542b554d5154543d31312c312c320db8
:105630000a00000041542b554d515454433d310d47
:105640000a0000005f41545f4d5154545f42494489
:1056500049525f415554485f504152415f4c4f4160
:105660004420204572726f725f74696d656f757446
:105670000d0a00005f41545f4d5154545f4249444c
:1056800049525f415554485f504152415f4c4f4130
:105690004420204572726f725f6d65670d0a0000cd
:1056a00041542b554d5154543d312c313838330d24
:1056b0000a00000041542b554d5154543d322c22c8
:1056c00073686172656170702e73746f6e65746556
:1056d00063682e636f6d2e7477222c313838330d4a
:1056e0000a00000041542b554d5154543d332c2297
:1056f0007878782e7878782e7878782e787878225e
:105700002c383838330d0a0041542b554d51545420
:105710003d342c2274657374222c226d71747431a3
:105720003233220d0a00000041542b554d51545480
:105730003d382c22454d4f544f2f4445562f394369
:1057400034393044333242423230383333363031f8
:1057500038323045314137323938434532322f55ae
:1057600050220d0a0000000041542b554d51545455
:105770003d31312c300d0a0041542b554d515454bc
:105780004e563d320d0a000041542b554d51545494
:105790004e563d310d0a00005f41545f4d51545447
:1057a0005f504152415f4f5045524154494f4e2046
:1057b000204572726f725f74696d656f75740d0a42
:1057c000000000005f41545f4d5154545f504152fe
:1057d000415f4f5045524154494f4e20204572720f
:1057e0006f725f6d65670d0a000000005f41545fd6
:1057f00034475f4c54455f4c4f47494e202045721b
:10580000726f725f74696d656f75740d0a000000c8
:105810005f41545f34475f4c54455f4c4f47494e9e
:1058200020204572726f725f6d65670d0a0000007f
:1058300041542b555345435052463d322c302c3168
:105840000d0a000041542b555345435052463d32fa
:105850002c332c227063626361220d0a0000000069
:1058600041542b555345435052463d322c352c2242
:105870007063626363220d0a0000000041542b55df
:105880005345435052463d322c362c227063627091
:105890006b220d0a0000000041542b554d51545409
:1058a0003f200d0a0000000041542b554d51545427
:1058b000433d342c302c22454d4f544f2f444556f8
:1058c0002f0000002f444f574e220d0a0000000009
:1058d0002f505542220d0a0041542b554d5154541e
:1058e000433d300d0a0000005f41545f4d51545458
:1058f0005f42494449525f415554485f4c4f4749c4
:105900004e5f464c4f5720204572726f725f74692c
:105910006d656f75740d0a005f41545f4d515454ad
:105920005f42494449525f415554485f4c4f474993
:105930004e5f464c4f5720204572726f725f6d6507
:10594000670d0a0041542b5547524d433d310d0a16
:105950000000000041542b5547494e443d310d0a8b
:105960000000000041542b554750533d312c302c42
:1059700036370d0a0000000041542b5554494d455f
:105980003d312c320d0a000041542b5547524d43f6
:105990003f0d0a002b43434c4b3a202200000000ed
:1059a0005f41545f47505320204572726f725f749d
:1059b000696d656f75740d0a000000005f41545fea
:1059c0004750532020435351204c4556454c204cc2
:1059d0004f572052455345540d0a00002c412c00ce
:1059e0002c4e2c002c532c002c452c00252e30370f
:1059f000660000006c617469747564653d202573f0
:105a000020206c6f6e6769747564653d2025730d89
:105a10000a0000005f41545f4750532020457272d6
:105a20006f725f6d65670d0a0000000041542b55d1
:105a30004d515454433d322c302c302c302c2022ec
:105a4000454d4f544f2f4445562f00002f5550229f
:105a50002c2200005f41545f4d5154545f54585ff5
:105a600055505f444154413120204572726f725f3e
:105a700074696d656f75740d0a0000005f4d5154b7
:105a8000545f54585f55505f444154413120204584
:105a900072726f725f6d65670d0a00002b55554d70
:105aa000515454433a20362c000000000d0a0000e7
