:020000040000fa
:10000000f07f0020a5e300009fd500007bdd00000d
:1000100000000000000000000000000000000000e0
:10002000000000000000000000000000efcb000016
:100030000000000000000000efcb00006dee0000ab
:10004000efcb0000efcb0000efcb00005de3000042
:10005000efcb0000efcb0000efcb0000efcb0000b8
:10006000efcb00005da3000041a1000019ab000030
:10007000efcb000000000000000000009d890000a0
:1000800000000000efcb0000efcb0000efcb000042
:10009000efcb0000efcb0000efcb0000efcb000078
:1000a000efcb0000efcb0000efcb0000efcb000068
:0c00b000efcb0000efcb0000efcb000016
:020000040000fa
:1000bc00f8b5c046f8bc08bc9e4670471de200006f
:1000cc00f8b5c046f8bc08bc9e467047f5e1000088
:020000040000fa
:0800dc00d8c200000100000081
:020000040000fa
:1000e400f0b5b44ca544b44b5b88b44a934201d1f7
:1000f40002f0d1f801d900f011fcb14a934201d1c8
:1001040001f096fc3dd9af4a934201d101f068fe5b
:1001140000d878e2ac4a934201d101f028ff00d91b
:10012400cae3043a934201d101f0bdfe00d999e338
:10013400023a934201d101f074fe01d901f092fe1a
:10014400a24c1522a249203120000ff0dbf9200037
:100154000ff048fa010020000bf0b2fb9d4a9e4bc1
:100164001a80f932944b5a809c4b1a689c4b1a6043
:1001740020000ff037fa81b220000ff0d0fa01f01e
:1001840072f8984a934201d101f00efa00d947e17e
:10019400fd3a934201d101f0d3f800d883e0924aaa
:1001a400934201d101f0b6f900d9d9e0023a934261
:1001b40001d101f049f901d901f070f9013a9342f2
:1001c40001d001f050f889495c3189480ef0d6fb22
:1001d400002801d101f00ef90222864b1a70844cda
:1001e40020000ff0fff90200210083480ff08af984
:1001f40080229200002120000ff0cef900227f4bd4
:100204001a607c4b1b78022b01d101f013f9794b56
:100214001b78032b01d101f012f9704b1b68784a4b
:1002240012689b1a774a934201d801f022f8624b74
:1002340075495a5c01325a5400225a806d4b1a7027
:1002440084ac6a4b6c33220023cb23c223cb23c25e
:1002540023cb23c220000ff0c5f981b220000ff098
:100264005efa6a4b1033220003cb03c21b8813804f
:10027400564920000ef0c2ff20000ff0b3f981b2fe
:1002840020000ff04cfa5c4c20000ff0abf981b267
:1002940020000ff044fa80229200002120000ff089
:1002a4007bf900f0e0ff043a934201d100f0e5ff4e
:1002b4002ad982225200934201d100f0ffff01d9d2
:1002c40001f01df8414c0b224849243120000ff065
:1002d40019f920000ff086f9010020000bf0f0fa64
:1002e4000422ff324a4b1a80f932334b5a803b4b7b
:1002f4001a68434b1a6020000ff074f981b2200091
:100304000ff00dfa00f0afff023a934201d100f072
:100314008bff0132934201d000f0a5ff2b4c072242
:100324003249083120000ff0edf820000ff05af99f
:10033400010020000bf0c4fa0222ff32344b1a8071
:10034400fb321d4b5a80254b1a682d4b1a60200036
:100354000ff048f981b220000ff0e1f900f083ffbb
:100364002c4a934201d101f0dff801d901f0fcf8e5
:10037400164c05221d4920000ff0c4f820000ff090
:1003840031f9010020000bf09bfa80229200224bed
:100394001a80fc32084b5a80104b1a681f4b1a60a3
:1003a40020000ff01ff981b220000ff0b8f900f01f
:1003b4005affc046ecfcffff740000200207000057
:1003c40003040000020600000a06000030110020a9
:1003d400385d00000306000060280020402800204b
:1003e400f027002003020000ff010000b85a0000bb
:1003f40030130020e40c0020301500202c280020ad
:100404000828002010270000310c0000385b000091
:100414006c28002001020000d2270020e0270020e1
:10042400ea4a934201d101f01afa00d883e0e84a7b
:10043400934201d101f0b4fa00d9bae0023a9342ee
:1004440001d101f054fa01d901f06ffa013a934253
:1004540001d000f008ffdf495c31df480ef08efa6e
:10046400002801d101f01bfa0222dc4b1a70da4c8d
:1004740020000ff0b7f802002100d9480ff042f82d
:1004840080229200002120000ff086f80022d54b34
:100494001a60d24b1b78022b01d101f020facf4b0a
:1004a4001b78032b01d101f01efacf4b1b68cf4af6
:1004b40012689b1ace4a934201d800f0dafecd4b63
:1004c400cd495a5c01325a5400225a80c34b1a70e7
:1004d40084acca4b3033220023cb23c223cb23c2a8
:1004e40023cb23c220000ff07df881b220000ff04f
:1004f40016f9c34b1033220003cb03c21b881380ad
:10050400c04920000ef07afe20000ff06bf881b293
:1005140020000ff004f9b24c20000ff063f881b210
:1005240020000ff0fcf880229200002120000ff040
:1005340033f800f098fe043a934201d101f0e7f851
:1005440010d9c0229200934201d101f047f901d998
:1005540001f065f9802292000021a1480ff01cf8f7
:1005640000f087fe023a934201d101f03df80132d6
:10057400934201d000f077fe994c20000ff032f83e
:1005840081b220000ff0cbf88022920000212000dd
:100594000ff002f89c4b1b889c4a934201d101f056
:1005a400b1f80133934a538000228c4b1a7000f047
:1005b4005afe974a934201d101f0f9f901d901f0a9
:1005c40016fa904c11228349103120000ef09aff44
:1005d40020000ff007f8010020000bf071f98022d1
:1005e400d2008c4b1a80fc32824b5a807e4b1a68a4
:1005f400894b1a6020000ef0f5ff81b220000ff045
:100604008ef800f030fe043aff3a934201d101f033
:1006140031fb29d9814a934201d101f07bfb00d9f6
:1006240004e1023a934201d101f02cfb01d901f01b
:100634004dfb744c1e227a49503120000ef062ffab
:1006440020000ef0cfff010020000bf039f9694ab9
:1006540053880133538020000ef0c4ff81b2200080
:100664000ff05df800f0fffdf93a934201d101f07b
:1006740021fa00d87ee06b4a934201d101f065fa79
:1006840001d901f0bbfa013a934201d000f0ebfd2d
:1006940050495c3150480ef071f9002801d101f045
:1006a4002afa02224d4b1a704b4c20000ef09aff8e
:1006b400020021004a480ef025ff8022920000210a
:1006c40020000ef069ff0022464b1a60434b1b7852
:1006d400022b01d101f02ffa404b1b78032b01d1df
:1006e40001f02efa404b1b684b4a12689b1a404a91
:1006f400934201d800f0bdfd3e4b3f495a5c0132a4
:100704005a5400225a80354b1a7084ac444b14332b
:10071400220023cb23c223cb23c2196811609b88f8
:10072400938020000ef05eff81b220000ef0f7fff0
:10073400334b1033220003cb03c21b88138031498f
:1007440020000ef05bfd20000ef04cff81b2200073
:100754000ef0e5ff224c20000ef044ff81b2200091
:100764000ef0ddff80229200002120000ef014ff25
:1007740000f079fd023a934201d101f07af9013295
:10078400934201d000f06ffd1e4c10221b497431be
:1007940020000ef0b7fe20000ef024ff0100200020
:1007a4000bf08ef8204a1b4b1a80f732114b5a80fb
:1007b4000d4b1a68184b1a6020000ef013ff81b21b
:1007c40020000ef0acff00f04efdc0460203000016
:1007d400ff030000b85a000030130020e40c00208e
:1007e400301500202c28002040280020fc27002061
:1007f4008813000074000020310c0000b85b000076
:10080400385b000030110020d227002003020000d2
:10081400010400006a2800200428002003050000c9
:10082400385c0000fd04000005040000c022d20072
:10083400934201d101f091fa01d901f0b0fa023ae0
:10084400934201d000f00ffdd94b1b78012b01d04e
:1008540000f00ffd0022d64b1a70d64ad64b5a80b0
:1008640000f007fdc122d200934201d101f03cfb0c
:1008740001d901f05bfbd14c2622d1497c31200007
:100884000ef040fe20000ef0adfe010020000bf043
:1008940017f8cc4acc4b1a80f532c74b5a80cb4b55
:1008a4001a68cb4b1a6020000ef09cfe81b2200027
:1008b4000ef035ff00f0d7fcc64a934201d101f097
:1008c40069fc1ad8023a934201d101f09bfb01d989
:1008d40001f02ffc013a934201d000f0c4fcb44b68
:1008e4001b78012b01d000f0c4fc0022b04b1a701d
:1008f400b94ab14b5a8000f0bcfce022d2009342ca
:1009040001d101f089fc01d901f0a1fc80229200ff
:100914000021b2480ef040fe00f0abfcb04a934216
:1009240001d102f073f83fd9ae4a934201d102f0eb
:10093400d2fa00d816e2ac4a934201d102f0e4fba9
:1009440001d900f00ffcfa3a934201d102f00ffbf7
:1009540000d953e3023a934201d102f0c7fa01d914
:1009640002f0e5fa954c0d22a049603120000ef00a
:10097400c9fd20000ef036fe010020000af0a0ffa1
:10098400b02212019a4b1a80fc328b4b5a808f4b47
:100994001a68984b1a6020000ef024fe81b22000e1
:1009a4000ef0bdfe00f05ffc093aff3a934201d11c
:1009b40001f0f9fd00d9c9e0f43aff3a934201d1bc
:1009c40001f048fd36d98c4a934201d101f0aefdc5
:1009d40000d98ce0f33a934201d101f083fd01d2b6
:1009e40001f05cfd0132934201d000f03cfc704bfd
:1009f4001b78012b01d000f03cfc00226c4b1a70d8
:100a04006e4c0e227d49503120000ef07bfd2000fb
:100a14000ef0e8fd010020000af052ff764a664b12
:100a24005a8020000ef0defd81b220000ef077fe29
:100a340000f019fc043a934201d101f073fc2bd964
:100a44006f4a934201d101f091fc01d901f0defc1f
:100a5400574b1b78012b01d000f00bfc0022544ba8
:100a64001a70564c0f225649483120000ef04afda8
:100a740020000ef0b7fd010020000af021ff4e4acd
:100a840053880133538020000ef0acfd81b2200066
:100a94000ef045fe00f0e7fb023a934201d101f06b
:100aa4001efc0132934200d0dde3414b1b78012b45
:100ab40000d0dee300223e4b1a70404c1e22514906
:100ac400243120000ef01efd20000ef08bfd0100ed
:100ad40020000af0f5fe384a538801335380200081
:100ae4000ef080fd81b220000ef019febbe3464af1
:100af400934201d101f028fdfa32934201d101f071
:100b040044fdfb3a934200d0ade32c4c0f223f4905
:100b1400143120000ef0f6fc20000ef063fd0100fd
:100b240020000af0cdfe80221201394b1a80fc32db
:100b3400214b5a80254b1a68364b1a6020000ef060
:100b440051fd81b220000ef0eafd8ce3324a93425b
:100b540001d101f05bfe65d9a0221201934201d1bb
:100b640001f032ff00d9d5e0023a934201d101f0fd
:100b7400e5fe01d901f020ff184c20000ef032fdf3
:100b840081b220000ef0cbfd8022920000212000d3
:100b94000ef002fd214b1b88214a934201d101f042
:100ba400c8fe0133044a53800022014b1a705ae3f1
:100bb400e40c0020ff050000740000203011002028
:100bc400385d00000706000060280020402800204f
:100bd400f0270020fe060000ff060000301500206c
:100be400040a0000ff0a0000fd0b0000b8600000ca
:100bf4005c280020e8270020fe070000b85d000004
:100c040007070000b85e000001080000385f00001c
:100c140062280020f4270020fc090000da270020c5
:100c240001090000fd3a934201d101f070fd2bd976
:100c3400d24a934201d101f094fd01d201f06ffd3b
:100c44000132934200d00ee3cd4c0e22cd495031f7
:100c540020000ef057fc20000ef0c4fc0100200020
:100c64000af02efec84ac94b1a80fa32c84b5a8081
:100c7400c84b1a68c84b1a6020000ef0b3fc81b24e
:100c840020000ef04cfdeee2023a934201d101f055
:100c94001ffd0132934200d0e5e2bd4bbf495a5ccf
:100ca40001325a5400225a80bd4b1a7084acbd4b99
:100cb4006033220023cb23c223cb23c223cb23c202
:100cc4001b78137020000ef08dfc81b220000ef012
:100cd40026fdac4b1033220003cb03c21b881380c8
:100ce400a74920000ef08afa20000ef07bfc81b2a6
:100cf40020000ef014fdac4c20000ef073fc81b209
:100d040020000ef00cfd80229200002120000ef045
:100d140043fca8e2a54a934201d101f03dff01d969
:100d240001f096ff964c0f22a149043120000ef0e9
:100d3400e9fb20000ef056fc010020000af0c0fd83
:100d44009c4a9d4b1a80fb32914b5a80914b1a68f6
:100d54009a4b1a6020000ef045fc81b220000ef080
:100d6400defc80e2f43a934201d101f0f4fe31d981
:100d7400934a934201d102f006f800d981e0023a85
:100d8400934201d101f085ff01d901f0baff7c4cf7
:100d94000e228c49503120000ef0b4fb20000ef0de
:100da40021fc010020000af08bfd874a824b1a8047
:100db400f032774b5a80774b1a68804b1a602000c8
:100dc4000ef010fc81b220000ef0a9fc7f480df05b
:100dd400fffb48e2043a934201d101f09bfe27d97c
:100de4007b4a934201d101f032fe01d901f050fe59
:100df400634c19227749183120000ef083fb200040
:100e04000ef0f0fb010020000af05afd724a6a4b12
:100e14001a80f4325e4b5a805e4b1a68674b1a6034
:100e240020000ef0dffb81b220000ef078fc1ae205
:100e3400023a934201d101f04cfe0132934200d0b8
:100e440011e24f4c19226549603120000ef05afb23
:100e540020000ef0c7fb010020000af031fd604abb
:100e6400554b1a80f6324a4b5a804a4b1a68534bf8
:100e74001a6020000ef0b6fb81b220000ef04ffc89
:100e8400f1e1584a934201d101f0c8ff01d901f0c0
:100e9400e4ff013a934200d0e5e153495c31534801
:100ea4000df06cfd002801d101f08eff02223c4bb5
:100eb4001a704e4c20000ef095fb020021003a48b7
:100ec4000ef020fb80229200002120000ef064fb33
:100ed4000022474b1a60324b1b78022b01d101f0e0
:100ee40093ff2f4b1b78032b01d101f092ff294b69
:100ef4001b68324a12689b1a3e4a934200d8b8e1f2
:100f0400234b26495a5c01325a5400225a80244bfe
:100f14001a7084ac384b0433220023cb23c223cb76
:100f240023c223cb23c223cb23c220000ef05afbbf
:100f340081b220000ef0f3fb124b1033220003cbde
:100f440003c21b8813800e4920000ef057f92000bd
:100f54000ef048fb81b220000ef0e1fb124c2000a1
:100f64000ef040fb81b220000ef0d9fb80229200eb
:100f7400002120000ef010fb75e1c04601090000bd
:100f840030110020385b000002090000da2700203d
:100f94007400002040280020e4270020310c0000c9
:100fa400e40c0020385f000030150020020a000025
:100fb400385c0000010a00005e280020ec270020b5
:100fc4000f0a0000b85d00000c0a0000881300003e
:100fd400090a000038600000080a0000b85f000039
:100fe400060a0000fd0a0000b85a00003013002071
:100ff4002c280020204e0000b8600000e14a9342f3
:1010040001d101f0f6ff01d201f0d2fff732934291
:1010140000d028e1dc495c31dc480df0affc00284d
:1010240001d102f047f80222d94b1a70d74c2000a4
:101034000ef0d8fa0200d74d210028000ef062fa13
:1010440080229200002120000ef0a6fa0022d24b4a
:101054001a60d249303128000df090fc041e31d0c2
:1010640008300ef033fbce4dce4be85420000b304d
:101074000ef02cfbcc4be85420000e300ef026fb77
:10108400ca4be854200011300ef020fbc84fe8553d
:10109400200014300ef01afbc64ea855200017305d
:1010a4000ef014fbc44be854ea5da833ff335343fa
:1010b400a95d0a01521a92009b18ff2210401818c9
:1010c400be4be850b24b1b78022b01d102f012f850
:1010d400af4b1b78032b01d102f011f8b84b1b68fe
:1010e400b84a12689b1ab84a934200d8bbe0ac4b8a
:1010f400b6495a5c01325a5400225a80a44b1a70e1
:1011040084aca64b3c33220023cb23c223cb23c283
:101114001b78137020000ef065fa81b220000ef0e7
:10112400fefaab4b1033220003cb03c21b8813809f
:10113400a84920000ef062f820000ef053fa81b2a4
:1011440020000ef0ecfa934c20000ef04bfa81b222
:1011540020000ef0e4fa80229200002120000ef01c
:101164001bfa80e09c4a934201d102f0e4f84bd888
:10117400fd3a934201d102f0cef801d202f08ff889
:10118400013293426fd1934c8022920000212000bf
:101194000ef002fa914e310028311f2220000ef089
:1011a400b1f920000ef01efa00197d4da91d202270
:1011b4000ef0a8f933004833b26c04929a8804a95b
:1011c4008a809b798b7120000ef018f82900273152
:1011d40020000ef013f820000ef004fa01002000a5
:1011e4000af06efbc02212017d4b1a807a4b6b8091
:1011f400734b1a687b4b1a6020000ef0f3f981b22e
:1012040020000ef08cfa2ee0774a934201d102f0ce
:101214007ff901d202f058f90132934223d100221e
:101224005b4b1a7002f080f86a4c05225649200084
:101234000ef068f920000ef0d5f9010020000af044
:101244003ffb80225200694b1a80fc32544b5a8077
:101254005b4b1a68664b1a6020000ef0c3f981b22a
:1012640020000ef05cfa4e4b1b78022b01d102f0e9
:1012740090f9c5239b009d44f0bd564c1122424970
:10128400103120000ef03ef920000ef0abf9010001
:1012940020000af015fb81225200544b1a80fa32c6
:1012a4003f4b5a80464b1a68514b1a6020000ef08f
:1012b40099f981b220000ef032fad4e7454c0b22a2
:1012c4003149303120000ef01df920000ef08af96a
:1012d400010020000af0f4fa82225200434b1a80e3
:1012e400f8322f4b5a80364b1a68414b1a60200053
:1012f4000ef078f981b220000ef011fab3e7354c04
:10130400092221493c3120000ef0fcf820000ef0a7
:1013140069f9010020000af0d3fa0622ff32334ba8
:101324001a80f7321e4b5a80254b1a68304b1a60cc
:1013340020000ef057f981b220000ef0f0f992e788
:10134400244c12221049483120000ef0dbf8200012
:101354000ef048f9010020000af0b2fa832252008c
:10136400224b1a80f6320e4b5a80154b1a68204bca
:101374001a6020000ef036f981b220000ef0cff989
:1013840071e7c046050b0000b85a00003013002076
:10139400e40c0020301500202c28002038610000c7
:1013a40074000020640c0000650c0000660c000052
:1013b400670c0000680c0000690c00006c0c000055
:1013c40040280020e827002088130000310c00008a
:1013d400385b000030110020fc0c0000b8610000f4
:1013e40064280020f8270020fe0c00006c28002050
:1013f40008280020e3496431e3480df0bffa0028cf
:1014040001d1fef7fefe0322e04b1a70de4c2000f1
:101414000ef0e8f802002100dd480ef073f8802297
:101424009200002120000ef0b7f80022d94b1a6078
:10143400fef7e7fefe22ff32d74b5a8019e7ff2260
:101444005200d54b5a8014e7d14c20000ef0caf854
:1014540081b220000ef063f9d04b1b888322520026
:1014640093420cd00133cc4a538080229200002155
:10147400c7480ef091f80022c44b1a70f3e6c8492d
:101484001c31c3480df07afa0100c34ca01d05318c
:1014940020220ef037f8c34b6380e6e7be4bc24907
:1014a4005a5c01325a5400225a80b84b1a7084ace8
:1014b400bb4d2b002433220043cb43c243cb43c256
:1014c40003cb03c220000ef08df881b220000ef091
:1014d40026f92b001033220003cb03c21b88138090
:1014e400b24920000df08afe20000ef07bf881b294
:1014f40020000ef014f9a64c20000ef073f881b20f
:1015040020000ef00cf980229200002120000ef041
:1015140043f8a8e68022920000219d480ef03cf892
:1015240000229a4b1a70a4e6a04c0c229c49443128
:1015340020000df0e7ff20000ef054f80100200019
:101544000af0bef99a4a9b4b1a80fb32924b5a809e
:10155400994b1a68994b1a6020000ef043f881b237
:1015640020000ef0dcf87ee6904c0e228c495031bf
:1015740020000df0c7ff20000ef034f80100200019
:101584000af09ef98e4a8b4b1a80fa32824b5a80ab
:10159400894b1a68894b1a6020000ef023f881b237
:1015a40020000ef0bcf85ee6804c0b227c496031d2
:1015b40020000df0a7ff20000ef014f80100200019
:1015c4000af07ef97f4a7b4b1a80f932724b5a80bb
:1015d400794b1a68794b1a6020000ef003f881b237
:1015e40020000ef09cf83ee666495c3166480df03a
:1015f400c5f9002861d00222644b1a70624c2000a5
:101604000df0f0ff0200210061480df07bff802205
:101614009200002120000df0bfff00225d4b1a60f4
:101624005a4b1b78022b65d0584b1b78032b65d083
:10163400614b1b68614a12689b1a634a934200d843
:1016440017e6554b58495a5c01325a5400225a80c5
:101654004e4b1a7084ac524d2b006c33220043cb9a
:1016640043c243cb43c243cb43c220000df0baff75
:1016740081b220000ef053f82b001033220003cb6c
:1016840003c21b881380494920000df0b7fd2000d8
:101694000df0a8ff81b220000ef041f83c4c200070
:1016a4000df0a0ff81b220000ef039f880229200e4
:1016b400002120000df070ffd5e532496431324835
:1016c4000df05cf90028abd00322304b1a702e4c7d
:1016d40020000df087ff020021002d480df012ffbd
:1016e40080229200002120000df056ff0022294b99
:1016f4001a6095e7354a284b5a80bae5344a264b96
:101704005a80b6e5334a244b5a80fef74dff224bec
:1017140025495a5c01325a5400225a801b4b1a70d4
:1017240084ac2d4b1033220023cb23c223cb23c202
:1017340003cb03c220000df055ff81b220000df051
:10174400eeff174b1033220003cb03c21b88138018
:10175400164920000df052fd20000df043ff81b228
:1017640020000df0dcff0a4c20000df03bff81b29d
:1017740020000df0d4ff80229200002120000df003
:101784000bff70e5b85a000030130020e40c002071
:10179400301500202c280020740000206c28002024
:1017a400385b0000ff010000310c00003011002004
:1017b40001020000d227002040280020e02700205a
:1017c400020200000302000088130000fd02000072
:1017d400fe020000ff020000b85b0000ea4c0b228e
:1017e400ea49303120000df08dfe20000df0fafea4
:1017f400010020000af064f8c0229200e44b1a8031
:10180400fc32e44b5a80e44b1a68e44b1a60200023
:101814000df0e8fe81b220000df081ff23e5da4ce3
:101824000922da493c3120000df06cfe20000df055
:10183400d9fe010020000af043f8d94ad44b1a809b
:10184400fb32d44b5a80d44b1a68d44b1a60200014
:101854000df0c8fe81b220000df061ff03e5ca4c13
:101864000c22d049443120000df04cfe20000df034
:10187400b9fe010020000af023f8cb4ac44b1a80b9
:10188400fa32c44b5a80c44b1a68c44b1a60200005
:101894000df0a8fe81b220000df041ffe3e4bb4946
:1018a4006431c2480df06af8002801d1fef7f1fd59
:1018b4000322bf4b1a70bd4c20000df093fe0200b2
:1018c4002100bc480df01efe802292000021200061
:1018d4000df062fe0022b84b1a60fef7dafdb74a3b
:1018e400ac4b5a80c5e4b64aaa4b5a80c1e4b14c09
:1018f40020000df077fe81b220000df010ff802251
:101904009200002120000df047fea14b1b88a64a3f
:10191400934206d001339f4a53800022a44b1a708d
:10192400a1e4a84a9b4b5a80f7e79a4ba6495a5c14
:1019340001325a5400225a809d4b1a7084aca34b36
:101944005433220023cb23c223cb23c203cb03c2b1
:1019540020000df047fe81b220000df0e0fe914b17
:101964001033220003cb03c21b8813808649200056
:101974000df044fc20000df035fe81b220000df086
:10198400cefe8c4c20000df02dfe81b220000df017
:10199400c6fe80229200002120000df0fdfd62e4cd
:1019a40080229200002183480df0f6fd61e4764c1c
:1019b4000b227649243120000df0a4fd20000df007
:1019c40011fe0100200009f07bff814a814b1a803f
:1019d400fb32704b5a80704b1a687f4b1a602000a0
:1019e4000df000fe81b220000df099fe3be4664c40
:1019f4000b226649303120000df084fd20000df0eb
:101a0400f1fd0100200009f05bff744a714b1a805c
:101a1400fa32604b5a80604b1a686f4b1a60200090
:101a24000df0e0fd81b220000df079fefff71bfc04
:101a3400554c092255493c3120000df063fd20002e
:101a44000df0d0fd0100200009f03aff644a614b1b
:101a54001a80f9324f4b5a804f4b1a685e4b1a600a
:101a640020000df0bffd81b220000df058fefff7fd
:101a7400fafb454c0c224b49443120000df042fd49
:101a840020000df0affd0100200009f019ff554ab8
:101a9400504b1a80f8323f4b5a803f4b1a684e4bda
:101aa4001a6020000df09efd81b220000df037fe7b
:101ab400fff7d9fb344c0f224b49043120000df0c1
:101ac40021fd20000df08efd0100200009f0f8fe3c
:101ad400464a404b1a80f6322e4b5a802e4b1a68d7
:101ae4003d4b1a6020000df07dfd81b220000df009
:101af40016fefff7b8fb254964312c480cf03eff75
:101b0400002801d1fef7e2fd0322294b1a70274c6d
:101b140020000df067fd0200210026480df0f2fcc4
:101b240080229200002120000df036fd0022224b7d
:101b34001a60fef7cbfd2e4a164b5a80fff799fb2d
:101b44002c4a144b5a80fff794fb1a4c20000df0da
:101b540049fd81b220000df0e2fd802292000021b7
:101b640020000df019fd1b4b1b88204a934207d01f
:101b74000133084a538000220d4b1a70fff773fba0
:101b84001d4a044b5a80f6e730110020b85a000071
:101b9400662800207400002040280020fc27002034
:101ba40001030000385b0000020300003013002032
:101bb400e40c0020301500202c280020fd03000038
:101bc400fe030000ff030000310c0000b85b0000be
:101bd400010400006a2800200428002002040000f8
:101be4000304000004040000385c00000604000044
:101bf400fd040000fe040000ff040000ec4bed496e
:101c04005a5c01325a5400225a80eb4b1a7084ac4d
:101c1400ea4b3433220023cb23c223cb23c21b88b9
:101c2400138020000df0defc81b220000df077fd62
:101c3400e34b1033220003cb03c21b881380e1491a
:101c440020000df0dbfa20000df0ccfc81b2200066
:101c54000df065fddc4c20000df0c4fc81b22000c9
:101c64000df05dfd80229200002120000df094fc17
:101c7400fff7f9fa802292000021d3480df08cfc82
:101c8400fff7f7facc4b1b78012b01d0fff7f1fae1
:101c94000022c94b1a70cb4c1e22c8497031200057
:101ca4000df030fc20000df09dfc0100200009f037
:101cb40007febf4a53880133538020000df092fc85
:101cc40081b220000df02bfdfff7cdfaba4b1b7843
:101cd400012b01d0fff7cdfa0022b74b1a70b94c93
:101ce4001e22ba49103120000df00cfc20000df02a
:101cf40079fc0100200009f0e3fdad4a538801336b
:101d0400538020000df06efc81b220000df007fd21
:101d1400fff7a9faa84b1b78012b01d0fff7a9fa0a
:101d24000022a54b1a70a74c0f22a849303120007d
:101d34000df0e8fb20000df055fc0100200009f037
:101d4400bffda34a9a4b5a8020000df04bfc81b290
:101d540020000df0e4fcfff786fa9a4c12229d490c
:101d6400483120000df0cefb20000df03bfc0100bb
:101d7400200009f0a5fdc022d200974b1a80fc3246
:101d84008b4b5a80954b1a68954b1a6020000df0c6
:101d940029fc81b220000df0c2fcfff764fa894ce3
:101da40030228a49403120000df0acfb20000df0b8
:101db40019fc0100200009f083fd8a4a864b1a8031
:101dc400fb327b4b5a80854b1a68854b1a60200086
:101dd4000df008fc81b220000df0a1fcfff743fade
:101de400784c2e227949703120000df08bfb2000b5
:101df4000df0f8fb0100200009f062fd7a4a764bf1
:101e04001a80fa326a4b5a80744b1a68744b1a60ff
:101e140020000df0e7fb81b220000df080fcfff7fd
:101e240022fa684c0f227149383120000df06afb08
:101e340020000df0d7fb0100200009f041fd6c4aa1
:101e4400654b1a80f8325a4b5a80644b1a68644bbb
:101e54001a6020000df0c6fb81b220000df05ffc7b
:101e6400fff701fa574c0f226049483120000df06a
:101e740049fb20000df0b6fb0100200009f020fd15
:101e84005c4a554b1a80f732494b5a80534b1a68b7
:101e9400534b1a6020000df0a5fb81b220000df019
:101ea4003efcfff7e0f9474c21225049583120000d
:101eb4000df028fb20000df095fb0100200009f037
:101ec400fffc4d4a444b1a80f632394b5a80434b3f
:101ed4001a68434b1a6020000df084fb81b2200085
:101ee4000df01dfcfff7bff9364c1622434924318f
:101ef40020000df007fb20000df074fb0100200012
:101f040009f0defcc122d200334b1a80f432284b94
:101f14005a80324b1a68324b1a6020000df062fb73
:101f240081b220000df0fbfbfff79df9254c122236
:101f340032493c3120000df0e5fa20000df052fb4f
:101f44000100200009f0bcfc2d4a234b1a80f33217
:101f5400174b5a80214b1a68214b1a6020000df050
:101f640041fb81b220000df0dafbfff77cf9154c40
:101f74000e222249503120000df0c4fa20000df049
:101f840031fb0100200009f09bfc164a124b1a8019
:101f9400fb32074b5a80114b1a68114b1a60200010
:101fa4000df020fb81b220000df0b9fbfff75bf9c7
:101fb40074000020310c0000e40c0020385c0000a8
:101fc400385b00003011002030150020b85c0000a0
:101fd400fe050000b85a00006028002040280020b8
:101fe400f02700200106000002060000385d000012
:101ff400040600000506000006060000b85d0000a7
:1020040009060000eb495c31eb480cf0b7fc0028f2
:1020140068d00222e94b1a70e74c20000df0e2fa76
:1020240002002100e6480df06dfa802292000021a2
:1020340020000df0b1fa0022e24b1a60df4b1b784e
:10204400022b6cd0dd4b1b78032b6dd0de4b1b6851
:10205400de4a12689b1ade4a934201d8fff709f957
:10206400dc4bdd495a5c01325a5400225a80d34b6e
:102074001a7084acd94b6033220023cb23c223cb08
:1020840023c223cb23c203cb03c2198811809b78bc
:10209400937020000df0a6fa81b220000df03ffbf2
:1020a400cf4b1033220003cb03c21b881380cd49ce
:1020b40020000df0a3f820000df094fa81b2200066
:1020c4000df02dfbbe4c20000df08cfa81b22000e7
:1020d4000df025fb80229200002120000df05cfa17
:1020e400fff7c1f8b3496431b3480cf047fc00284a
:1020f400a4d00322b14b1a70af4c20000df072fa39
:1021040002002100ae480df0fdf98022920000216a
:1021140020000df041fa0022aa4b1a608ee7b24a61
:10212400ac4b5a80fff7a5f8b04aaa4b5a80fff788
:10213400a0f8c023db00ae4a12889a421ad0a04c01
:1021440020000df04ffa81b220000df0e8fa802251
:102154009200002120000df01ffaa54b1b88a54a10
:10216400934213d001339b4a53800022934b1a703d
:10217400fff779f89a491c3191480cf0fffb411d97
:102184002022944806300df0bdf9d8e79a4a914bc5
:102194005a80eae78f4b90495a5c01325a54002224
:1021a4005a80864b1a7084ac944b1033220023cb94
:1021b40023c223cb23c223cb23c21968116099887d
:1021c40091809b79937120000df00cfa81b220006c
:1021d4000df0a5fa824b1033220003cb03c21b88f7
:1021e4001380804920000df009f820000df0faf961
:1021f40081b220000df093fa714c20000df0f2f939
:1022040081b220000df08bfa802292000021200080
:102214000df0c2f9fff727f8724c302278494031ab
:1022240020000df06ff920000df0dcf90100200012
:1022340009f046fb674a53880133538020000df0b0
:10224400d1f981b220000df06afafff70cf85b4b6c
:102254001b78012b01d0fff70cf80022574b1a70a2
:10226400604c122265493c3120000df04bf92000ee
:102274000df0b8f90100200009f022fb554a5388fb
:102284000133538020000df0adf981b220000df030
:1022940046fafef7e8ff494b1b78012b01d0fef705
:1022a400e8ff0022454b1a704e4c2e225349503100
:1022b40020000df027f920000df094f90100200012
:1022c40009f0fefa434a53880233538020000df08c
:1022d40089f981b220000df022fafef7c4ff374bd2
:1022e4001b78012b01d0fef7c4ff0022334b1a7078
:1022f4003c4c2422434920000df004f920000df049
:1023040071f90100200009f0dbfa324a53880133e5
:10231400538020000df066f981b220000df0fff922
:10232400fef7a1ff254b1b78012b01d0fef7a1ff7f
:102334000022224b1a702b4c0f22334938312000d3
:102344000df0e0f820000df04df90100200009f037
:10235400b7fa204a53880133538020000df042f924
:1023640081b220000df0dbf9fef77dff134b1b78e3
:10237400012b01d0fef77dff0022104b1a70194c7f
:102384003d222049443120000df0bcf820000df01e
:1023940029f90100200009f093fa0e4a5388013309
:1023a400538020000df01ef981b220000df0b7f922
:1023b400fef759ffb85a000030130020e40c002047
:1023c400301500202c28002040280020f027002071
:1023d4008813000074000020310c0000b85d000078
:1023e400385b000030110020fd060000fe060000ee
:1023f4006028002009060000ff060000385e000087
:10240400b85c0000b85e0000385d0000e54b1b7846
:10241400012b01d0fef72dff0022e24b1a70e24c93
:102424002622e2497c3120000df06cf820000df0ea
:10243400d9f80100200009f043fadd4a538801333a
:10244400538020000df0cef881b220000df067f922
:10245400fef709ffd34b1b78012b01d0fef709ffd0
:102464000022d04b1a70d04c1622d24924312000bd
:102474000df048f820000df0b5f80100200009f037
:102484001ffacb4a53880133538020000df0aaf879
:1024940081b220000df043f9fef7e5fec14b1b7835
:1024a400012b01d0fef7e5fe0022be4b1a70be4c94
:1024b4001022c149043120000df024f820000df051
:1024c40091f80100200009f0fbf9b94a538801335f
:1024d400538020000df086f881b220000df01ff922
:1024e400fef7c1feaf4b1b78012b01d0fef7c1fef6
:1024f4000022ac4b1a70ac4c0f22af4914312000af
:102504000df000f820000df06df80100200009f036
:10251400d7f9a74a53880133538020000df062f89d
:1025240081b220000df0fbf8fef79dfe9d4b1b7859
:10253400012b01d0fef79dfe00229a4b1a709f4a90
:102544009b4b5a80fef795fe974c0f229a492431f3
:1025540020000cf0d7ff20000df044f8010020000b
:1025640009f0aef9964a974b1a80fb32904b5a8089
:10257400954b1a68954b1a6020000df033f881b220
:1025840020000df0ccf8fef76efe864b1b78012b75
:1025940001d0fef76efe0022824b1a708c4a844be7
:1025a4005a80fef766fe8b495c318b480cf0e6f9e5
:1025b400002866d002227b4b1a70874c20000df055
:1025c40011f80200210085480cf09cff8022920043
:1025d400002120000cf0e0ff0022814b1a60714bb7
:1025e4001b78022b6ad06f4b1b78032b6bd0764b76
:1025f4001b68764a12689b1a7a4a934201d8fef7fe
:1026040038fe6b4b78495a5c01325a5400225a8086
:10261400644b1a7084ac684b3433220023cb23c23e
:1026240023cb23c223cb23c2196811601b791371f6
:1026340020000cf0d7ff81b220000df070f86b4b36
:102644001033220003cb03c21b8813805649200099
:102654000cf0d4fd20000cf0c5ff81b220000df079
:102664005ef85e4c20000cf0bdff81b220000df03e
:1026740056f880229200002120000cf08dfffef716
:10268400f2fd5449643154480cf078f90028a6d07e
:102694000322444b1a70504c20000cf0a3ff02009c
:1026a40021004e480cf02eff8022920000212000d1
:1026b4000cf072ff00224a4b1a6090e74c4a3c4be4
:1026c4005a80fef7d6fd4b4a394b5a80fef7d1fdae
:1026d400424c20000cf086ff81b220000df01ff860
:1026e40080229200002120000cf056ff354b1b88fd
:1026f400334a934207d001332d4a53800022294b99
:102704001a70fef7b0fd324a294b5a80f6e7802250
:102714009200002131480cf03ffffef7aafd224c45
:1027240010223549743120000cf0ecfe20000cf02e
:1027340059ff0100200009f0c3f8902212012f4b29
:102744001a80fc321a4b5a801f4b1a682c4b1a60a1
:1027540020000cf047ff81b220000cf0e0fffef7f0
:1027640082fd114c0f222749043120000cf0cafecf
:1027740020000cf037ff0100200009f0a1f8224ae4
:102784001e4b1a80fb320a4b5a800f4b1a681c4ba3
:102794001a6020000cf026ff81b220000cf0bfff6d
:1027a400fef761fde40c002030110020385d0000cc
:1027b40074000020b85d0000385f0000ff070000cf
:1027c400010800006228002040280020f42700208f
:1027d400ff080000b85a0000301300203015002014
:1027e4002c28002088130000310c0000385b000006
:1027f400fd080000fe080000b85b0000da27002096
:10280400e4270020385c000001090000f3495c3132
:10281400f3480cf0b3f8002864d00222f14b1a708c
:10282400ef4c20000cf0defe02002100ee480cf01c
:1028340069fe80229200002120000cf0adfe0022ef
:10284400ea4b1a60e74b1b78022b68d0e54b1b78e8
:10285400032b69d0e64b1b68e64a12689b1ae64aca
:10286400934201d8fef705fde44be5495a5c013279
:102874005a5400225a80db4b1a7084ace14b083363
:10288400220023cb23c223cb23c203cb03c21b8846
:10289400138020000cf0a6fe81b220000cf03fff54
:1028a400d94b1033220003cb03c21b881380d749b2
:1028b40020000cf0a3fc20000cf094fe81b2200058
:1028c4000cf02dffc84c20000cf08cfe81b22000cf
:1028d4000cf025ff80229200002120000cf05cfe09
:1028e400fef7c1fcbd496431bd480cf047f800282f
:1028f400a8d00322bb4b1a70b94c20000cf072fe16
:1029040002002100b8480cf0fdfd80229200002155
:1029140020000cf041fe0022b44b1a6092e7bc4a3e
:10292400b64b5a80fef7a5fcba4ab44b5a80fef760
:10293400a0fcb94ab14b5a80fef736f9af4bb04907
:102944005a5c01325a5400225a80a64b1a7084ac45
:10295400ac4b2c33220023cb23c223cb23c21968d4
:1029640011609b88938020000cf03cfe81b2200013
:102974000cf0d5fea44b1033220003cb03c21b88fa
:102984001380a24920000cf039fc20000cf02afe30
:1029940081b220000cf0c3fe934c20000cf022fe08
:1029a40081b220000cf0bbfe8022920000212000a6
:1029b4000cf0f2fdfef757fc8022920000218a48b9
:1029c4000cf0eafdfef755fc904c1022934974314b
:1029d40020000cf097fd20000cf004fe0100200004
:1029e40008f06effa02212018d4b1a80fc32834b3b
:1029f4005a807f4b1a688b4b1a6020000cf0f2fd52
:102a040081b220000cf08bfefef72dfc7f4c0e22d1
:102a14007d49503120000cf075fd20000cf0e2fde2
:102a24000100200008f04cff7f4a7d4b1a80f832e9
:102a3400724b5a806e4b1a687a4b1a6020000cf065
:102a4400d1fd81b220000cf06afefef70cfc6f4c45
:102a54000f227649143120000cf054fd20000cf0b4
:102a6400c1fd0100200008f02bff714a6c4b1a8055
:102a7400f332624b5a805e4b1a686a4b1a6020002c
:102a84000cf0b0fd81b220000cf049fefef7ebfb28
:102a94005e4c0f226549243120000cf033fd2000e8
:102aa4000cf0a0fd0100200008f00aff614a5c4b15
:102ab4001a80f232514b5a804d4b1a68594b1a60a6
:102ac40020000cf08ffd81b220000cf028fefef7f0
:102ad400cafb4e4c13224b494c3120000cf012fd22
:102ae40020000cf07ffd0100200008f0e9fe524aae
:102af4004b4b1a80f732414b5a803d4b1a68494b75
:102b04001a6020000cf06efd81b220000cf007fe6c
:102b1400fef7a9fb3d4c19223a497c3120000cf008
:102b2400f1fc20000cf05efd0100200008f0c8fe5e
:102b3400424a3b4b1a80f532304b5a802c4b1a6870
:102b4400384b1a6020000cf04dfd81b220000cf0cf
:102b5400e6fdfef788fb2d4c0d2239493431200067
:102b64000cf0d0fc20000cf03dfd0100200008f02a
:102b7400a7fe344a2a4b1a80f132204b5a801c4b50
:102b84001a68284b1a6020000cf02cfd81b220003a
:102b94000cf0c5fdfef767fb1c4c2e222a49703150
:102ba40020000cf0affc20000cf01cfd0100200004
:102bb40008f086fe254a1a4b1a80fa320f4b5a80c7
:102bc4000b4b1a68174b1a6020000cf00bfd81b2f6
:102bd40020000cf0a4fdfef746fbc046b85a0000e6
:102be40030130020e40c0020301500202c28002095
:102bf40040280020e42700208813000074000020ef
:102c0400310c0000b85f0000385b00003011002078
:102c1400fd090000fe090000ff090000b85b000088
:102c24005e280020ec270020040a0000385f000022
:102c3400090a00000a0a0000050a0000070a000049
:102c4400386000000b0a0000b85c0000020a0000b3
:102c5400f84c1222f8493c3120000cf053fc2000bf
:102c64000cf0c0fc0100200008f02afef34af44beb
:102c74001a80f932f34b5a80f34b1a68f34b1a60fb
:102c840020000cf0affc81b220000cf048fdfef7f0
:102c9400eafae84cee4d290044311a2220000cf0e7
:102ca40031fc20000cf09efc0019e64eb11d2022e0
:102cb4000cf028fc04a92b0060330a0021cb21c2ac
:102cc4001b78137020000cf099fa20000cf08afc99
:102cd4000100200008f0f4fdde4ad94b1a80de4bd7
:102ce4007380d94b1a68d94b1a6020000cf07afc17
:102cf40081b220000cf013fdd8480bf069fcfef7fc
:102d0400b2facc4c80229200002120000cf044fc4a
:102d140004ae6422002130000cf03efccc4d2900ae
:102d240044311a2220000cf0edfb20000cf05afc78
:102d34000019c44fb91d20220cf0e4fb2b006c33a6
:102d4400320003cb03c2310020000cf057fa2000fc
:102d54000cf048fc0100200008f0b2fdc04ab84b5a
:102d64001a80bd4b7b80b84b1a68b84b1a602000a0
:102d74000cf038fc81b220000cf0d1fcb7480bf009
:102d840027fcfef770faab4c0e22b14974312000d7
:102d94000cf0b8fb20000cf025fc0100200008f02a
:102da4008ffdb04aa64b1a80ed32a64b5a80a64b33
:102db4001a68a64b1a6020000cf014fc81b22000a3
:102dc4000cf0adfcfef74ffaa7496431a7480bf0ad
:102dd400d5fd002801d1fef77ef80322a44b1a701a
:102de400a24c20000cf0fefb02002100a1480cf0d4
:102df40089fb80229200002120000cf0cdfb0022f0
:102e04009d4b1a60fef767f89c4a8e4b5a80fef77a
:102e140030fa9b4a8b4b5a80fef72bfa954c2000d4
:102e24000cf0e0fb81b220000cf079fc80229200cf
:102e3400002120000cf0b0fb814b1b88884a934290
:102e440007d001337f4a53800022894b1a70fef762
:102e54000afa8c4a7b4b5a80f6e77a4b8a495a5cc9
:102e640001325a5400225a80814b1a7084ac874b29
:102e74003433220023cb23c223cb23c223cb23c24c
:102e840003cb03c220000cf0adfb81b220000cf098
:102e940046fc7f4b1033220003cb03c21b881380f4
:102ea400644920000cf0aaf920000cf09bfb81b2cd
:102eb40020000cf034fc6f4c20000cf093fb81b22a
:102ec40020000cf02cfc80229200002120000cf049
:102ed40063fbfef7c8f900216b4b5a4ad154802298
:102ee400920064480cf058fbfef7c3f9514c0d22d4
:102ef4006649703120000cf005fb20000cf072fbd9
:102f04000100200008f0dcfc624a634b1a80fb32ab
:102f14004c4b5a804c4b1a68604b1a6020000cf0e2
:102f240061fb81b220000cf0fafbfef79cf9414ce6
:102f340011225b4920000cf0e5fa20000cf052fb52
:102f44000100200008f0bcfc564a534b1a80fa32a8
:102f54003c4b5a803c4b1a68504b1a6020000cf0d2
:102f640041fb81b220000cf0dafbfef77cf9314c16
:102f74000f224b49143120000cf0c4fa20000cf04d
:102f840031fb0100200008f09bfc474a424b1a80a9
:102f9400f9322c4b5a802c4b1a68404b1a60200093
:102fa4000cf020fb81b220000cf0b9fbfef75bf9ba
:102fb400204c0b223649603120000cf0a3fa20008b
:102fc4000cf010fb0100200008f07afc374a324b69
:102fd4001a80f8321b4b5a801b4b1a682f4b1a600d
:102fe40020000cf0fffa81b220000cf098fbfef7f1
:102ff4003af9104c0c222a49243120000cf082fab0
:1030040020000cf0effa0100200008f059fc284ad7
:10301400214b1a80f7320b4b5a800b4b1a681f4b0b
:103024001a6020000cf0defa81b220000cf077fb6d
:10303400fef719f930110020b85d0000030a000002
:103044005e2800207400002040280020ec27002087
:10305400386000000d0a0000fc0a0000b80b0000f4
:103064000e0a00000f0a0000b85a000030130020b6
:10307400e40c0020301500202c280020fd0a00005c
:10308400fe0a0000ff0a0000310c0000b8600000d6
:10309400385b0000010b00005c280020e8270020ba
:1030a40038610000020b0000030b0000040b000059
:1030b400050b0000ea496431ea480bf05ffc002884
:1030c40001d1fdf7ffff0322e74b1a70e54c200006
:1030d4000cf088fa02002100e4480cf013fa802274
:1030e4009200002120000cf057fa0022e04b1a60f5
:1030f400fdf7e8ffdf4ae04b5a80fef7baf8df4af3
:10310400dd4b5a80fef7b5f8d84c20000cf06afa73
:1031140081b220000cf003fbd94b1b88d94a93429f
:1031240007d00133d44a53800022cf4b1a70fef7e4
:103134009af8d5495831cd480bf020fc002800d12d
:1031440080e003300cf0e6fa08f0d6fe051cce4908
:103154005c31c6480bf012fc00287dd003300cf023
:10316400d9fa08f0c9fe041cc7496431bf480bf002
:1031740005fc002800d18de0c44e1422002130004b
:103184000cf00afa14220021c1480cf005fac149d6
:10319400281c07f0dffb0bf07bfa03006427019087
:1031a4007b4318000af038f9011c281c06f03cfa8d
:1031b4000290b849201c07f0cdfb0bf069fa05001a
:1031c400474338000af028f9011c201c06f02cfaa9
:1031d4000390b149029807f0bdfb041c01980af062
:1031e4001bf9011c201c06f011fd09f03dfe020034
:1031f4000b00a54f3c006834210030000bf028fa86
:10320400a549039807f0a6fb019028000af004f9e9
:10321400011c019806f0fafc09f026fe02000b00de
:1032240021009b480bf014fa39007031984b32009e
:1032340084a80bf00dfa84a80cf0d4f981b284a808
:103244000cf06dfa80229200002188480cf0a4f959
:10325400924a894b5a8067e780231b069c46654443
:10326400894e31006031814f38000bf087fb033009
:103274000cf050fa08f040fe041c310064313800b0
:103284000bf07cfb002800d076e780231b069c46cd
:10329400644471e780231b069c4664446ce7764bc8
:1032a4007f495a5c01325a5400225a806e4b1a707c
:1032b40084ac7c4b1033220023cb23c203cb03c248
:1032c4001b78137020000cf08df981b220000cf0f3
:1032d40026fa754b1033220003cb03c21b881380dc
:1032e400724920000bf08aff20000cf07bf981b2b8
:1032f40020000cf014fa5d4c20000cf073f981b23c
:1033040020000cf00cfa80229200002120000cf026
:1033140043f9fdf7a8ff80229200002153480cf0e6
:103324003bf9634a544b5a80534b1b78022b01d010
:10333400fdf79fff34e14a495c314a480bf01efb1c
:10334400002865d00222484b1a70464c20000cf02d
:1033540049f90200210045480cf0d4f8802292007b
:10336400002120000cf018f90022414b1a603e4b5a
:103374001b78022b69d03c4b1b78032b6ad04d4b36
:103384001b684d4a12689b1a4c4a934201d8fdf7b8
:1033940070ff394b42495a5c01325a54444a5a80ac
:1033a4000022314b1a7084ac3e4b5033220023cba5
:1033b40023c223cb23c223cb23c21b881380200028
:1033c4000cf010f981b220000cf0a9f9364b10333f
:1033d400220003cb03c21b881380344920000bf066
:1033e4000dff20000cf0fef881b220000cf097f9dc
:1033f4001e4c20000cf0f6f881b220000cf08ff97e
:1034040080229200002120000cf0c6f8fdf72bff6b
:103414001349643113480bf0b1fa0028a7d00322f2
:10342400114b1a700f4c20000cf0dcf80200210044
:103434000e480cf067f880229200002120000cf066
:10344400abf800220a4b1a6091e71d4a0a4b5a80d6
:10345400fdf70fff1b4a084b5a80fdf70affc046d1
:10346400b85a000030130020e40c0020301500206e
:103474002c280020fd0b000074000020fe0b00002f
:103484005c280020050b000038610000b00c00200f
:10349400c40c00200000c84200007042ff0b000072
:1034a400310c0000b8610000385b000030110020ce
:1034b400ff0c000040280020f827002010270000ff
:1034c400fd0c0000fe0c00000021b04bb04ad154aa
:1034d400b04c20000cf086f881b220000cf01ff9eb
:1034e400ad4b1b88c022120193420dd00133a84a70
:1034f4005380802292000021a6480cf04df800224f
:10350400a64b1a70fdf7affea54aa14b5a80f0e70f
:103514009f4b9e495a5c01325a54a14a5a80002258
:103524009e4b1a7084ac9f4b7833220023cb23c26a
:1035340023cb23c219681160998891809b79937178
:1035440020000cf04ff881b220000cf0e8f8964b04
:103554001033220003cb03c21b881380934920003d
:103564000bf04cfe20000cf03df881b220000cf072
:10357400d6f8884c20000cf035f881b220000cf00d
:10358400cef880229200002120000cf005f8fdf70f
:103594006afe834b7e4a52889a4201d0fdf769fe47
:1035a4007b4b9b88824a93425dd015d9814a9342d2
:1035b40000d1bbe100d219e10132934201d0fdf701
:1035c40058fe80229200002172480bf0e5ff002291
:1035d400724b1a70fdf74dfefc3a934225d001322e
:1035e400934201d0fdf745fe704c0e2272492c31f6
:1035f40020000bf087ff20000bf0f4ff01002000f7
:1036040008f05ef96d4a6e4b1a80fb32604b9a806b
:103614006c4b1a686c4b1a6020000bf0e3ff81b20c
:1036240020000cf07cf8fdf724fe6349183167484c
:103634000bf0a4f9002801d1fdf71bfe0c300400a7
:103644005d4928310bf09af9002801d1fdf711feec
:1036540020000cf03bf84e4b8a2292009852574ab5
:103664009a80fdf706fe5a495c3158480bf086f9fa
:10367400002863d00222494b1a70544c20000bf0ee
:10368400b1ff0200210043480bf03cff802292006e
:10369400002120000bf080ff00224e4b1a603f4bac
:1036a4001b78022b67d03d4b1b78032b68d0454b0e
:1036b4001b68454a12689b1a474a934201d8fdf792
:1036c400d8fd0022354b1a70314b44495a5c013203
:1036d4005a54434a9a8084ac374b3c33220023cb60
:1036e40023c223cb23c21b88138020000bf07aff54
:1036f40081b220000cf013f82b4b1033220003cbc3
:1037040003c21b881380294920000bf077fd200099
:103714000bf068ff81b220000cf001f81d4c200072
:103724000bf060ff81b220000bf0f9ff80229200c1
:10373400002120000bf030fffdf79bfd244964318c
:1037440022480bf01bf90028a9d00322134b1a704e
:103754001e4c20000bf046ff020021000d480bf028
:10376400d1fe80229200002120000bf015ff0022e0
:10377400184b1a6093e71b4a054b9a80fdf779fdb5
:10378400194a034b9a80fdf774fdc046310c0000c2
:10379400740000203015002064280020e40c002070
:1037a400ff0c0000b8610000385b000030110020fd
:1037b400fc800000fe800000386200000180fffff2
:1037c4006828002040280020002800203013002012
:1037d400b85a00002c28002010270000320c0000ea
:1037e4000080fffffd80fffffe80ffff6d4c210086
:1037f40058316d4d28000bf0c1f8060021006031ee
:1038040028000bf0bbf8002e78d0684b684a9a5c0d
:103814009b18684a9446634401221a70002808d011
:10382400624b634a9a5c9b18624a94466344022240
:103834001a705c4d290068315b4e30000bf09ef825
:10384400c41c29006c3130000bf098f8574d584ec9
:10385400ab5d5b02584a944663445b19021b21002a
:1038640018000bf04ffeab5d0133dbb2042b48d8dc
:103874004e498b554d4b0121504a99540021504ad1
:10388400995404aa474b743303cb03c21b781370b7
:10389400474b464ad35c0421002b01d0013bd9b2eb
:1038a4004902454b9c466144404bc91804a80bf09f
:1038b400a5fc04a80bf096fe04ab9c4660440322ce
:1038c400384928310bf01efe04a80bf08bfe81b2a0
:1038d40004a80bf024ff3b4b1b883b4a934215d0b2
:1038e4000133324a93808022920000212e480bf04b
:1038f40053fe0022354b1a70fdf7bbfc00288fd114
:10390400bfe700212a4b294ad154b3e727498a2229
:1039140092008b5a013b9bb28b52002b02d12c4a52
:103924008a80e0e72b4a214b9a80dce70022274b70
:103934001a701e4b22495a5c01325a54244a9a8006
:1039440084ac254b220023cb23c203cb03c21b88a8
:10395400138020000bf046fe81b220000bf0dffe46
:103964001e4b1033220003cb03c21b8813801c4957
:1039740020000bf043fc20000bf034fe81b2200049
:103984000bf0cdfe084c20000bf02cfe81b2200081
:103994000bf0c5fe80229200002120000bf0fcfdfc
:1039a400fdf767fc38620000301500207400002029
:1039b4002f0200002a02000031020000270200004a
:1039c400320c00006828002001800000e40c002074
:1039d4000080ffff0180ffffb8620000385b000039
:0439e400301100207e
:020000040000fa
:1039e800f0b5a5b00793002304900798209306919b
:1039f8001a920bf0cffe050000680bf0f1fd0026cf
:103a08000027069b05901f931f9b1a780d2a39d80b
:103a1800092a3dd2002a44d00023129300221f9c79
:103a28000c922378302b00d07ee06378582b02d09c
:103a3800782b00d06ee0079bb74a0293129b1fa910
:103a4800019320ab0093049821ab04f07bfd07257c
:103a58000590054005d0062d2fd1002301341f9471
:103a680012931a9b002b02d01a9b1f9a1a60129b62
:103a7800002b1dd0802332001b06fb1810001900f4
:103a880025b0f0bd2b2a05d02d2a14d0202ac3d169
:103a98000133b8e7002212925a1c1f925b78002b60
:103aa800bcd1069b1f93002312931a9b002bdbd1da
:103ab80032003b00e2e70122ede7209a002a07d016
:103ac800352122a80bf03af8209904980af0f2fe62
:103ad800681e042806d80bf0cffc0c0317190c003d
:103ae800229e239f059b1b07bbd580231b061f43d4
:103af800b7e7239b894a8a491a40219b229e5b1873
:103b08001b051a431700ede7864febe70126864fa2
:103b18007642e7e71f9b5a1c1f925b78302bf9d03f
:103b2800002b9ed001230c931f9b0a221393002382
:103b38000b930a9308931f9804782300303bd9b25b
:103b4800092926d9059a29680bf03dfa002832d0b0
:103b5800002023008446089a079005922022190025
:103b680091430a000021452a00d0a7e0059b0c9a42
:103b7800034313438b4294d01f9b069301331f9337
:103b8800069b5b782b2b71d00c002d2b74d1012454
:103b98006de00899082909dc0a9951435b180a93d2
:103ba800089b0130013308931f90c4e70b995143d8
:103bb8005b180b93f4e71f9a059b9446089a634495
:103bc8001f931b78002a49d11000302b28d01a00e7
:103bd800313a082a46d8844600201f9a0590139245
:103be800303b421c002b0fd00a219444059a101830
:103bf80082421bd1511c0591082a25dc0a220a9908
:103c08004a439b1800220a9310001f9b591c1f91be
:103c18005b781a00303a092ae2d9012207929de717
:103c28001f9b01305a1c1f925b78cee70132541e4d
:103c3800082c03dc0a9c4c430a94d9e7102ad7dce9
:103c48000b9c4c430b94d3e7059900221029dbdc2d
:103c58000a210b9841435b180b93d5e7089a8446d1
:103c68000592d6e7002294460592d6e70c00069bfb
:103c780002331f93069b9b781a00303a092a60d8b2
:103c8800302b43d01a00313a0021082a16d8303b8d
:103c98001f9d0e931f9b591c1f915b781a00303a89
:103ca800092a47d94a1b214d2900082a03dc0e9905
:103cb800a94200dd2900002c00d04942059a002abb
:103cc80063d10c9a104300d0cbe6079a002a00d0a3
:103cd800e7e64e2b3ed038dc492b00d0e1e6144c09
:103ce8001fa821000bf010f8002800d1d9e61f9b6f
:103cf800e11c013b1fa81f930bf006f8002802d116
:103d08001f9b01331f93074f0026aae61f9b5a1ccf
:103d18001f925b78b4e7c046a8f40000ffffefffee
:103d2800330400000000f07fffffff7f1f4e0000fc
:103d3800dcf600000a220e994a43d218303a0e9255
:103d4800a8e7069a00211f92b8e7692bc7d06e2b07
:103d580000d0a6e68b491fa809310af0d5ff002834
:103d680000d19ee61f9b1b78282b0cd122aa8649de
:103d78001fa807f0dffa052805d1239b834a229e56
:103d88001a4317006de6824fbee76346cb1a0793c6
:103d9800089b002b01d1059b0893059c102c00dd86
:103da80010240a9809f054ff06000f00092c15ddad
:103db8002200784b093ad2009b181a685b6805f014
:103dc8001ffa06000b980f0009f042ff02000b00d3
:103dd8003000390003f08afb06000f00059b0f2b0b
:103de80039dc079b002b00d13be626dd162b0bdccc
:103df8006849db00c9183200086849683b0005f0cb
:103e0800fff906000f002ce62523059a9b1a079a4e
:103e18009a4220dc0f24059b5e4de41ae1006918e4
:103e28003200086849683b0005f0eaf9079b1c1b4b
:103e3800e4002c1922686368e1e7079b16330adb64
:103e4800079b3000da00534b39009b1a1a685b68ed
:103e580004f0d6f8d5e7059b1c1b079be418002c3b
:103e68006edd0f2323400ad04a49db00c91832000f
:103e7800086849683b0005f0c3f906000f000f23e6
:103e88009c4348d02633ff339c4221dd002405940f
:103e98000a94079422230026049a3c4f13600a9b35
:103ea800b34200d1dde5209904980af003fd079993
:103eb80004980af0fffc059904980af0fbfc0a999b
:103ec80004980af0f7fc210004980af0f3fcc8e50e
:103ed8000023300039001d002411012c1edc002baa
:103ee80001d006000f002c4bed00ff182b4b3200c1
:103ef8005d19286869683b0005f082f9234b0f00bb
:103f08000b40274906008b42c0d826498b4213d95b
:103f18000126254f76420023069373e001221442be
:103f280007d01e4aeb009b181a685b6805f068f911
:103f3800012301356410d0e7d4239b04ff18eae776
:103f4800002ce8d00f23644223400ad0114adb003a
:103f5800d31830001a685b68390004f051f806007d
:103f68000f002411d7d01f2c20dd002405940a94bb
:103f780007942223049a002613600a9b0027002b2b
:103f880091d16ee5dcf60000bcf400000000f07f83
:103f98000000f8ff08c700000000b0fc38ed000082
:103fa8000000a07c0000907cffffef7f10232340df
:103fb800069301d06a230693300039000023ca4dc6
:103fc800002c00dd03e1002b01d006000f00069b4a
:103fd800002b0fd06b237900490d3a005b1a002b98
:103fe80008dd1f2b00dc04e10026342b00dcf9e09f
:103ff800dc27bf04002200233000390009f0d4fb7d
:104008000028b2d10a9b089a00931399059b04983b
:1040180009f082fa0a90002800d137e7079b0024ac
:10402800da175b421a40079b1592db43079adb17a6
:104038001a40139205940a9b0498596809f0cafc1f
:104048000790002800d125e70a9b0a991b690c31c3
:104058009a1c92000c3008930bf052fa22ab019391
:1040680021ab009332003b0004980e960f9708f09e
:10407800c1fc2090002800d10ce7012104980bf026
:1040880048fa0590002800d104e7219b002b00daac
:10409800b4e0159ad518139a94460699229a5b1a91
:1040a80036219b189148013b8a1a0121834200db83
:1040b800b0e0c01a121a1f2800dda4e081400023d6
:1040c80014910c93ab1808931300069a6344d31801
:1040d800089a0b932b00954200dd13000b9a93422c
:1040e80000dd1300002b06dd089aed1ad21a08929b
:1040f8000b9ad21a0b92159b002b17d01a00059910
:10410800049808f0c1fd0590002800d1c2e601001e
:10411800209a049807f0a5f91b90002800d1b9e669
:10412800209904980af0c6fb1b9b2093089b002b40
:1041380073dc139b002b79d10b9b002b08dd1a0035
:104148000799049808f0fefc0790002800d1a1e622
:10415800002d08dd2a000599049808f0f3fc059065
:10416800002800d196e6079a2099049808f062fa88
:10417800041e00d18ee60025c3680599c5600b931f
:104188000af0b1fba8425bda0b9bab421bd1ae42f3
:1041980019d13b03ab4216d1d622554bd2043b4032
:1041a800934210d96369ab4202d12369012b0add1e
:1041b80021000122049808f0c5fc059904000af0c2
:1041c80092fb00286cdc069b002b78d16be6012261
:1041d800144204d02a686b6805f012f801236410b1
:1041e8000835ede60121203b494299400a40170075
:1041f80000e7012252429a401640fbe6139a159da9
:10420800d21a944649e73b48c31a080098400c90d4
:10421800149157e700230c93fae7089a2099049819
:1042280008f090fc2090002883d133e6139a079970
:10423800049808f029fd0790002800d07ce729e6bb
:10424800002800d095e00b9a3b03002a24d02a4985
:104258003a001b0b8b425ed1069b0138b446010025
:10426800002b0ad0d425224bed043b40ab4204d8a6
:104278006b211b0dcb1a0100994061454bd11f4b97
:104288009a4202d14b1c00d104e6194b00261a4071
:1042980080235b03d71896e7002b3cd1002e3ad138
:1042a800069a134b002a2dd01a00d6213a40c90489
:1042b8008a4227dcdc239b049a4200dc59e6104b37
:1042c80030001193002310933900109a119b04f0c9
:1042d80097ff06000f1e00d0e5e5002800d0e2e5b4
:1042e8002223049a1360dee5c0ec000002fcffff05
:1042f8000000f07fe2fbffffffff0f00ffffef7ff3
:10430800000050390126a94a3b409b18a84a76422a
:104318001a43170057e70c9b002b13d03b4200d1e0
:1043280051e70b9b069a30003900002b0fd00af09a
:104338003bfb02000b000e980f9903f0d7f806001c
:104348000f0040e7149b334200d13ce7e9e70af04d
:104358002bfb02000b000e980f9902f0effd0022d4
:10436800002306000f0009f01ffa002800d000e61d
:1043780029e70599200009f079fe80230022db0552
:104388000890099109f020fa002875d00b9b002ba2
:1043980043d00022874b0c920d93864b0893864b93
:1043a8003b401493149a854b9a4200d0b1e00e9a80
:1043b8000f9b10921193824b3000ff18390009f0bf
:1043c800c9fe02000b000c980d9904f019ff320089
:1043d8003b0003f08bf8784a7a4b06000a409a4271
:1043e80062d9794b119a9a4203d1109a013200d1bd
:1043f80050e501261f007642209904980af05afadf
:10440800079904980af056fa059904980af052fa9e
:10441800210004980af04efa0de6002e1dd13b0348
:1044280020d1089809990022624b09f0c3f90028a5
:104438001ed1089809990022644b04f0e1fe05009a
:104448000891802212069446089b1c9563441d938c
:104458001c9a1d9b0c920d93a1e7012e02d1002fef
:1044680000d186e500225a4b00250c920d9394e763
:10447800564b0b9d0893e4e7544b08980999002282
:1044880004f0befe0b9b05000891002b07d180238a
:104498001b06cb1816901793169a179bdae702009b
:1044a800089b16921793f7e7d4239b04cf18069b13
:1044b800002ba1d1404b149a0c973b409a429bd1b8
:1044c8000899280009f05efb09f012fa0b000200b7
:1044d8000899280002f032fd0b9b08900991002be7
:1044e80004d1002e02d10c9b1b0358d008980999bf
:1044f800384a394b09f05ef9002800d0d3e408980f
:104508000999364a314b09f069f9002800d173e757
:10451800c9e4069b002b2ad0d423149adb049a42c0
:1045280025d82f4a2f4b2800089909f04df9002863
:1045380016d0280008990af039f9002800d101207e
:1045480009f086fb0b9b05000891002b22d18023e4
:104558001b06cb1818901993189a199b0c920d9357
:10456800d6220d9bd2049b18149a9b1a0d930e9871
:104578000f990c9e0d9f09f0edfd02000b00300015
:10458800390004f03dfe0e9a0f9b02f0afff0600c3
:104598000f008ce70200089b18921993dce70d4a7c
:1045a800114b0898099909f005f9aee70000f0ffea
:1045b800ffff0f000000f03f0000f07f0000e07fe9
:1045c8000000b0fcffff9f7cffffef7f0000e03f93
:1045d8000000f0bf9535a094ffffdf3f35e5af350c
:0c45e8000000c0ffffffdf41ffffcf3fde
:020000040000fa
:1045f400f0b516001f00446a9db00490259d0696f0
:104604000797002c08d110200af060ff049b586221
:10461400446084600460c460049b5b6a1968002978
:104624000bd05a68012393404a608b6004980af0c7
:1046340043f90022049b5b6a1a60079b002b1cda77
:1046440001232b607b005b080793079cba4b220075
:1046540019931a409a421cd1b84b249a1360069ab3
:10466400b74b002a03d1240301d100f08cfd269a14
:10467400002a05d109330a9308e000232b60e4e7fc
:104684001a0009320a920c33269a13600a981db054
:10469400f0bd069e079f002200233000390009f078
:1046a40085f8051e0ed00123249a1360a44b1a002a
:1046b4000d320a92269a002ae8d01a0026990e3260
:1046c4000a60e3e71aab01931bab009332003b0093
:1046d400049808f091f9630005905b0d00d17fe028
:1046e4003a03984c120b14432100974a3000189552
:1046f4009e180022954b02f023fc954a954b04f03a
:1047040081fd954a954b02f0f3fe040030000d0044
:1047140009f0f0f8924a934b04f074fd02000b0088
:104724002000290002f0e4fe04000d0009f02cfa38
:104734000022039000232000290009f03df80028fe
:104744000ed0039809f0d6f80b00020029002000cf
:1047540009f02cf8030058425841039b1b1a039399
:1047640001231693039b162b0fd87f49db00c9182e
:1047740008684968069a079b09f032f800284bd06c
:10478400039b013b0393002316931a9b9e1b002358
:104794000b933300013b0c9304d501239b1b0b9318
:1047a40000230c93039b002b38db039a0c9b944649
:1047b40063440c9300230f920893229b0125092b39
:1047c40000d991e0052b02dd0025043b2293229bb6
:1047d400981e032800d991e00af050fe82842976bd
:1047e4001a9b1b9a9e18614bf218202a0fdd203b5e
:1047f4000698f318d84040239b1a9c40204309f0a4
:1048040029fa01235a4c013e0919189371e7202310
:1048140006989b1a9840f2e71690b6e70b9b039a0a
:104824009b1a0b935342089300230f93c5e701236c
:104834000e93239b002b65dd1f000d93049a546a8d
:104844000022626004221100143199425fd9616828
:10485400049809f0c1f8049b20605b6a1b680a9302
:104864000e2f00d9fce0002d00d1f9e0069b079c37
:1048740014931594039b002b00dc7de01a000f2198
:10488400394b0a40d2009b185c681b681093119442
:10489400039b02241d11eb060ad5364b0d401a6a00
:1048a4005b6a1498159903f0adfb032406900791f5
:1048b400304e002d30d1109a119b0698079903f0c1
:1048c400a1fb0690079171e00123239a0e9394466d
:1048d400039b63445f1c0d933b1eafdc0123ade7d8
:1048e4000023a5e70023f0e700230e952293013b64
:1048f4000d931f000022122323929fe701230e939e
:10490400023bf5e701230d931f001a00f4e76168e9
:1049140052000131616096e701231d4208d01098ce
:104924001199e4183268736804f06cfc10901191ca
:104934006d100836bde7c0460000f07f0f27000069
:10494400bcf500000000f03f01fcffff0000f83f51
:1049540061436f63a787d23fb3c8608b288ac63f81
:10496400fb799f501344d33f08c700003204000072
:10497400000010fe38ed0000039b0224002b15d02c
:10498400149815995d420f23c94a2b40db00d318b4
:104994001a685b6804f036fc002306900791c54e44
:1049a4002d11002d00d08be0002b8ad1169b002bfb
:1049b40000d191e0069a079b1092119310981199d7
:1049c4000022bd4b08f0f8fe002800d184e0002f3f
:1049d40000d181e00d9b002b3edd10981199039bc3
:1049e40000225e1eb54b04f00dfc069007910d9d50
:1049f4000134200008f07eff069a079b04f002fcb5
:104a04000022af4b02f074fd12901391129b139c81
:104a1400ac4a10931194139b9c181194002d5ed1f1
:104a2400069807990022a84b02f08afa109a2300ec
:104a34000690079108f0d4fe002800d000e3a348b4
:104a44001399844661440b0006980799109a08f05c
:104a5400b3fe002800d0e7e2149b159c069307944c
:104a64001b9b002b00da56e1039a0e2a00dd52e16b
:104a74008f4bd2009b185c681b6808930994239b96
:104a8400002b00dbcee0002f00ddcbe000d0cee237
:104a94000898099900228c4b04f0b4fb069a079bf2
:104aa40008f0a8fe3e000897002800d0a3e20a9b65
:104ab4000a9a5d1c31231370039b013303939ee216
:104ac4000122154205d0a4183268736804f09afbd9
:104ad40001236d10083664e7039e3d0089e70a9ab6
:104ae400691e521917920e9a714bc900002a4ad0b6
:104af4005b181a685b680020754903f083fa109a02
:104b0400119b02f01dfa0a9b1090119112930698c2
:104b1400079909f039f8040008f0ecfe02000b00d4
:104b24000698079902f00cfa129b30345d1c1c7035
:104b3400109a119b0690079108f03efe002865d15b
:104b4400069a079b00205c4902f0faf9109a119b1f
:104b540008f032fe002800d0bde0179b9d4200d132
:104b64007ae7109811990022544b04f04bfb002271
:104b74001090119106980799504b04f043fb12953d
:104b840006900791c3e7591808684968109a119b61
:104b940004f038fb109011910a9c179d0698079910
:104ba40008f0f2ff129008f0a5fe02000b00069830
:104bb400079902f0c5f9129b0690079130332370d0
:104bc400179b01340022a34224d1414b1098119920
:104bd40002f08efc02000b000698079908f000fe14
:104be400002800d077e0109a119b0020384902f089
:104bf400a7f902000b000698079908f0ddfd0028cc
:104c040000d129e76b1e1a78302a01d003963fe0c1
:104c14001d00f7e706980799284b04f0f3fa06906d
:104c24000791bbe70a9e089a099b0698079903f027
:104c3400e9f908f0a9ff040008f05cfe089a099b52
:104c440004f0e0fa0b0002000698079902f078f9e4
:104c54002300303333700a9b751ceb1a9f424bd1ef
:104c640002000b0002f044fc06000f0002000b00df
:104c74000898099908f0a0fd00282bd108980999f3
:104c840032003b0008f092fd002801d0e30721d454
:104c94000599049809f010fe00232b70039b249ab5
:104ca40001331360269b002b00d1efe41d60ede47b
:104cb40008c7000038ed00000000f03f0000244069
:104cc40000001c400000c0fc000014400000c07c38
:104cd4000000e03f039e6b1e1a78392a06d10a9a17
:104ce4009a4207d130231370130001361a78013227
:104cf4001a708be71d00eee70022cf4b04f082fa16
:104d040000220023069007912e0008f04ffd002892
:104d140000d188e7bce70e9a002a00d187e0229ae6
:104d2400012a6edc189a002a67d0c44a9b18089d91
:104d34000b9c0b9a0121d2180b920c9a0498d3184d
:104d44000c930af0e8fb0600002c0edd0c9b002bf4
:104d54000bdd0c9a2300944200dd13000b9ae41a35
:104d6400d21a0b920c9ad31a0c93089b002b1ed0c8
:104d74000e9b002b5fd0002d11dd31002a0004981a
:104d840007f084ff059a01000600049806f06bfb07
:104d940005991090049809f08ffd109b0593089bca
:104da4005a1b04d00599049807f070ff059001215f
:104db40004980af0b0fb0f9b0890002b3ddd1a000d
:104dc4000100049807f062ff229b08900025012b44
:104dd4003bdc0025069bab4233d1079b1b03ab4254
:104de4002fd1199b079a13422bd00b9b012501331a
:104df4000b930c9b01330c9323e036231a9a9b1ad2
:104e040095e7089b7d1eab4206db5d1b002f0bda8a
:104e14000b9bdc1b00238ce7089b0895ea1a0f9b6d
:104e240000259b180f93f1e70b9c3b0081e7089d3d
:104e34000b9c0e9e88e7089ab4e7229b0025012b61
:104e4400c7dd0f9b0120002b0bd0089b089a1b6920
:104e54000f9303339b00d318586809f0f9fc2023ff
:104e6400181a0c9bc0181f23184000d1abe0202354
:104e74001b1a042b00dc9be01c23181a0b9b241820
:104e84001b180b930c9b1b180c930b9b002b05dd21
:104e94001a000599049807f057fe05900c9b002b07
:104ea40005dd1a000899049807f04efe0890169b39
:104eb400002b00d189e00899059809f016fd002817
:104ec40000db82e0039b0a22013b03930599002344
:104ed400049808f099fc0e9b0590002b00d15be12f
:104ee400002331000a22049808f08efc0d9b060072
:104ef400002b02dc229b022b6ddc002c05dd310033
:104f04002200049807f020fe06003000002d11d086
:104f14007168049808f060fd3100040033690c31b5
:104f24009a1c92000c300af0edfa01222100049838
:104f340007f00afe0d9f0a9b013f0b93db19370014
:104f440006000f930899059806f0d0fe39000d90dd
:104f54000400059809f0c9fc32000e9008990498e1
:104f640007f06afb01230c93c36830340500002b5f
:104f740004d10100059809f0b8fc0c9029000498ac
:104f840009f09afc0c9b229a134300d089e0012378
:104f9400069a134200d084e0392c00d1a3e00e9b82
:104fa400002b01dd0d9c31340b9b5d1c1c7027e034
:104fb400042b00d169e70b9a1c33d2180b920c9a7c
:104fc400e418d31860e70300f5e7002f3cdc229bcc
:104fd400022b39dd0d970d9b002b0cd1089905226e
:104fe400049808f011fc08900100059809f07dfc74
:104ff400002800dd5be5239b0a9ddb430393002728
:105004000899049809f058fc002e00d140e6002fbe
:1050140005d0b74203d03900049809f04dfc3100a3
:10502400049809f049fc33e608952e00e3e70023d1
:1050340008931e00dfe7c04600002440330400004c
:10504400039608952e0032e50e9b0d97002b00d099
:1050540053e70a9d0899059806f048fe0a9b3030ec
:105064000d9a287001350400eb1a9a4278dc151e5b
:1050740000dc012500270a9b5d190599012204988b
:1050840007f062fd0899059009f02ffc00282fdc39
:1050940001d1e3072cd46b1e1a78302ab0d11d003d
:1050a400f9e70e9b002b07db1d00229b1d4326d135
:1050b4000123069a134222d10c9b002b00dc73e7d8
:1050c40005990122049807f03ffd0899059009f01d
:1050d4000cfc002804dc00d066e7e30700d463e797
:1050e400392c00d05ee70b9b0b9a5d1c392313709f
:1050f4006b1e1a78392a3bd001321a7080e70b9b59
:1051040001330d930c9b002b05dd392cebd00d9d49
:1051140001340b9b4ae70b9b0f9a0d9d1c70934225
:10512400abd000230a220599049808f06dfb0023f4
:1051340005900a2239000498b74206d108f064fbae
:10514400070006000d9b0b93fce608f05dfb3100a5
:10515400070000230a22049808f056fb0600f1e732
:1051640000230a220599049808f04efb059071e784
:105174000a9a9a4205d1039b013303933123137096
:105184003ee71d00b4e7269a0a930833002a01d0ab
:10519400fff77afafff77afa0d9b002b00dd58e748
:0c51a400229b022b00dc54e715e7c046fc
:020000040000fa
:1051b000f0b5c64600b592b0042800d909e18000d8
:1051c000e94b1b589f46e94d8022920000212800a0
:1051d0000af0e4f9e64e0222310028000af094f9c0
:1051e00028000af001fa2a00213a311d0004000cbf
:1051f0002c00273c281809f02dfa28000af0f4f9b1
:10520000dc4be35cdc4aa25cfa21c9008c466244b8
:10521000310014310004000c27300019d74fe75d2e
:105220000397d74fe75d0297d64fe75d0197d64fbb
:10523000e75d009709f00efa28000af0d5f900049e
:10524000000c2730001931003c3116220af05cf9bd
:1052500028000af0c9f90004000c273000193100b9
:1052600054310b220af050f928000af0bdf9310040
:1052700060310004000c27300019c44a09f0eaf933
:1052800028000af0b1f9310074310004000c273015
:105290000019bf4a09f0def928000af0a5f9000458
:1052a000000c27300019bb4e311d10220af02cf9da
:1052b00028000af099f90004000c27300019310089
:1052c000143111220af020f928000af08df90004a7
:1052d000000c27300019310028310c220af014f993
:1052e00028000af081f9ac4be318c5221201a2187c
:1052f000310034310004000c2730001909f0aaf9fc
:1053000028000af071f90004000c27300019310060
:1053100048310d220af0f8f828000af065f9000477
:10532000000c2730001908f089ff28000af05cf90a
:105330000004000c2730001907f04afa28000af090
:1053400053f90004000c2730001909f069fa28000d
:105350000af04af90004000c2730001909f06aff2e
:1053600028000af041f90004000c2730001909f068
:105370006dff28000af038f90004000c27300019ee
:1053800009f034fa28000af02ff90004000c273045
:10539000001909f0bbf928000af026f90004000cf6
:1053a0002730001908f06eff28000af01df90004ec
:1053b000000c2730001908f089ff28000af014f9c2
:1053c0000004000c273000193100583107220af080
:1053d0009bf812b004bc9046f0bd644d8022920050
:1053e000002128000af0daf8614b984602221900e1
:1053f00028000af089f828000af0f6f804003222a2
:10540000002105a80af0caf8644f791c102205a8eb
:105410000af07af85f4e310060312004000c2c0055
:10542000273c281805aa09f015f928000af0dcf82d
:10543000a21d310070310004000c2730001909f062
:1054400009f928000af0d0f84a4be35c4a4aa25c0a
:10545000fa21c9008c466244414614310004000c14
:1054600027300019454ea65d0396454ea65d02966f
:10547000444ea65d0196444ea65d009609f0eaf8fa
:1054800028000af0b1f80004000c27300019444e3f
:10549000192231000af038f828000af0a5f80004b3
:1054a000000c27300019414654310b220af02cf829
:1054b00028000af099f8414660310004000c2730ba
:1054c0000019324a09f0c6f828000af08df8414662
:1054d00074310004000c273000192d4a09f0baf885
:1054e00028000af081f83123fa5c31001c310004f5
:1054f000000c2730001909f0adf828000af074f804
:105500003223fa5c31002c310004000c27300019e2
:1055100009f0a0f828000af067f83323fa5c31009c
:1055200040310004000c2730001909f093f82800de
:105530000af05af8184be318c5221201a2183100dc
:1055400050310004000c2730001909f083f82800be
:105550000af04af80004000c2730001931006431c9
:10556000062209f0d1ff34e768f300009b00002019
:1055700020990000650c0000640c0000690c00001c
:10558000680c0000670c0000660c0000d4270020a7
:10559000cc270020a09900003c0c00000400002053
:1055a000209a0000c54d802292000021280009f0b9
:1055b000f5ff0222c249280009f0a6ff28000af0e0
:1055c00013f804003222002105a809f0e7ffbd4ec0
:1055d000711c102205a809f097ff2004000c281860
:1055e00005aab949603109f035f8280009f0fcff37
:1055f00081b23423f35c022b00d181e0b34cb44b75
:10560000e35cb44aa25cfa20c000844662442731bd
:105610000819b149615c0391b049615c0291b049dc
:10562000615c0191af49615c0091a549143109f0b9
:1056300011f82000273009f0d7ff3423a14ad35caa
:10564000012b6dd00004000c2730a04bc0181b228a
:10565000a549083109f058ff984c200009f0c4ff13
:105660000004000c2600273e20180b2294495431d8
:1056700009f04aff200009f0b7ff924f3123fa5c8e
:105680009a4d29001c310004000c2730801908f0c5
:10569000e1ff200009f0a8ff3223fa5c29002c3139
:1056a0000004000c2730801908f0d4ff200009f016
:1056b0009bff3323fa5c290040310004000c2730a3
:1056c000801908f0c7ff200009f08eff884bf318ff
:1056d000c5221201b218290050310004000c2730f5
:1056e000801908f0b7ff200009f07eff0004000ccd
:1056f0002730801929006431062209f005ff68e689
:105700007c4a0004000c2730941f00196e49703148
:1057100008f0a0ff2000273009f066ff81b26de796
:105720000004000c2730694bc01819226f496c31f6
:1057300009f0eafe90e7614d8022920000212800e6
:1057400009f02cff5e4f02223900280009f0dcfe30
:10575000280009f049ff04003222002105a809f0c1
:105760001dff584e711c102205a809f0cdfe564ba6
:105770009846190060312004000c2c00273c2818a2
:1057800005aa08f067ff280009f02effa21d414678
:1057900070310004000c2730001908f05bff28006e
:1057a00009f022ff4a4be35c4a4aa25cfa21c90095
:1057b0008c466244390014310004000c2730001973
:1057c000454fe75d0397454fe75d0297444fe75d1f
:1057d0000197444fe45d009408f03cff280009f075
:1057e00003ff3523f35c012b5dd00004000c273050
:1057f000364bc01819223c493c3109f085fe2f4c2c
:10580000200009f0f1fe0004000c2600273e2018bd
:105810000b222b49543109f077fe200009f0e4fef9
:10582000284f3123fa5c314d29001c310004000c53
:105830002730801908f00eff200009f0d5fe322332
:10584000fa5c29002c310004000c2730801908f084
:1058500001ff200009f0c8fe3323fa5c2900403123
:105860000004000c2730801908f0f4fe200009f035
:10587000bbfe1f4bf318c5221201b218290050318c
:105880000004000c2730801908f0e4fe200009f025
:10589000abfe0004000c2730801929006431062279
:1058a00009f032fe95e50004000c2730074bc018c4
:1058b00017220d49243109f027fea0e79b000020a4
:1058c0002099000004000020a0990000740000202e
:1058d000650c0000640c0000690c0000680c0000fe
:1058e000670c0000660c0000a09a0000209a0000df
:1058f0003c0c00007a000020614d802292000021c3
:10590000280009f04bfe5f4f02223900280009f001
:10591000fbfd280009f068fe04003222002105a8e2
:1059200009f03cfe584e711c102205a809f0ecfd50
:10593000564b9846190060312004000c2c00273c7f
:10594000281805aa08f086fe280009f04dfea21dc1
:10595000414670310004000c2730001908f07afe2f
:10596000280009f041fe4a4be35c4a4aa25cfa2156
:10597000c9008c466244390014310004000c273001
:105980000019454fe75d0397444fe75d0297444f89
:10599000e75d0197434fe45d009408f05bfe28004b
:1059a00009f022fe3623f35c012b5dd00004000ccd
:1059b00027303d4bc0181c223c49743109f0a4fd2e
:1059c0002f4c200009f010fe0004000c2600273e9a
:1059d00020180b222b49543109f096fd200009f0c4
:1059e00003fe294f3123fa5c314d29001c3100049c
:1059f000000c2730801908f02dfe200009f0f4fd7e
:105a00003223fa5c29002c310004000c2730801965
:105a100008f020fe200009f0e7fd3323fa5c29009e
:105a200040310004000c2730801908f013fe2000dc
:105a300009f0dafd1f4bf318c5221201b218290034
:105a400050310004000c2730801908f003fe2000bc
:105a500009f0cafd0004000c2730801929006431c8
:105a6000062209f051fdb4e40004000c27300e4b6f
:105a7000c0181a220d49583109f046fda0e7c0466a
:105a80009b0000202099000004000020a099000045
:105a9000650c0000640c0000690c0000680c00003c
:105aa000670c0000660c000074000020a09a000043
