:020000040000fa
:10000000f07f0020ede2000057d4000017dd000073
:1000100000000000000000000000000000000000e0
:10002000000000000000000000000000a7ca00005f
:100030000000000000000000a7ca00008ded0000d5
:10004000a7ca0000a7ca0000a7ca0000a5e20000d6
:10005000a7ca0000a7ca0000a7ca0000a7ca0000dc
:10006000a7ca00000da10000f19e0000c9a8000071
:10007000a7ca00000000000000000000d5870000b3
:1000800000000000a7ca0000a7ca0000a7ca00001d
:10009000a7ca0000a7ca0000a7ca0000a7ca00009c
:1000a000a7ca0000a7ca0000a7ca0000a7ca00008c
:0c00b000a7ca0000a7ca0000a7ca0000f1
:020000040000fa
:1000bc00f8b5c046f8bc08bc9e46704765e1000028
:1000cc00f8b5c046f8bc08bc9e4670473de1000040
:020000040000fa
:0800dc0094c1000001000000c6
:020000040000fa
:1000e400f0b5b44ca544b44b5b88b44a934201d1f7
:1000f40002f0d6f801d900f011fcb14a934201d1c3
:1001040001f094fc3dd9af4a934201d101f067fe5e
:1001140000d878e2ac4a934201d101f027ff00d91c
:10012400cae3043a934201d101f0bcfe00d999e339
:10013400023a934201d101f073fe01d901f091fe1c
:10014400a24c1522a249043120000ff06ff92000bf
:100154000ff0dcf9010020000bf010fb9d4a9e4bd0
:100164001a80f932944b5a809c4b1a689c4b1a6043
:1001740020000ff0cbf981b220000ff064fa01f0f7
:1001840070f8984a934201d101f00cfa00d947e182
:10019400fd3a934201d101f0d1f800d883e0924aac
:1001a400934201d101f0b4f900d9d9e0023a934263
:1001b40001d101f047f901d901f06ef9013a9342f6
:1001c40001d001f04ef889495c3189480ef07afb80
:1001d400002801d101f00cf90222864b1a70844cdc
:1001e40020000ff093f90200210083480ff01ef95c
:1001f40080229200002120000ff062f900227f4b40
:100204001a607c4b1b78022b01d101f011f9794b58
:100214001b78032b01d101f010f9704b1b68784a4d
:1002240012689b1a774a934201d801f020f8624b76
:1002340075495a5c01325a5400225a806d4b1a7027
:1002440084ac6a4b6c33220023cb23c223cb23c25e
:1002540023cb23c220000ff059f981b220000ff004
:10026400f2f96a4b1033220003cb03c21b881380bc
:10027400564920000ef056ff20000ff047f981b2d6
:1002840020000ff0e0f95c4c20000ff03ff981b240
:1002940020000ff0d8f980229200002120000ff0f6
:1002a4000ff900f0deff043a934201d100f0e3ffbe
:1002b4002ad982225200934201d100f0fdff01d9d4
:1002c40001f01bf8414c0b224849243120000ff067
:1002d400adf820000ff01af9010020000bf04efadf
:1002e4000422ff324a4b1a80f932334b5a803b4b7b
:1002f4001a68434b1a6020000ff008f981b22000fd
:100304000ff0a1f900f0adff023a934201d100f0e1
:1003140089ff0132934201d000f0a3ff2b4c072246
:100324003249083120000ff081f820000ff0eef878
:10033400010020000bf022fa0222ff32344b1a8013
:10034400fb321d4b5a80254b1a682d4b1a60200036
:100354000ff0dcf881b220000ff075f900f081ff96
:100364002c4a934201d101f0ddf801d901f0faf8e9
:10037400164c05221d4920000ff058f820000ff0fc
:10038400c5f8010020000bf0f9f980229200224bfd
:100394001a80fc32084b5a80104b1a681f4b1a60a3
:1003a40020000ff0b3f881b220000ff04cf900f0f8
:1003b40058ffc046ecfcffff740000200207000059
:1003c40003040000020600000a06000030110020a9
:1003d400905d0000030600006028002040280020f3
:1003e400f027002003020000ff010000105b000062
:1003f40030130020e40c0020301500202c280020ad
:100404000828002010270000310c0000905b000039
:100414006c28002001020000d2270020e0270020e1
:10042400ea4a934201d101f018fa00d883e0e84a7d
:10043400934201d101f0b2fa00d9bae0023a9342f0
:1004440001d101f052fa01d901f06dfa013a934257
:1004540001d000f006ffdf495c31df480ef032facc
:10046400002801d101f019fa0222dc4b1a70da4c8f
:1004740020000ff04bf802002100d9480ef0d6ffff
:1004840080229200002120000ff01af80022d54ba0
:100494001a60d24b1b78022b01d101f01efacf4b0c
:1004a4001b78032b01d101f01cfacf4b1b68cf4af8
:1004b40012689b1ace4a934201d800f0d8fecd4b65
:1004c400cd495a5c01325a5400225a80c34b1a70e7
:1004d40084acca4b3033220023cb23c223cb23c2a8
:1004e40023cb23c220000ff011f881b220000ff0bb
:1004f400aaf8c34b1033220003cb03c21b8813801a
:10050400c04920000ef00efe20000ef0ffff81b265
:1005140020000ff098f8b24c20000ef0f7ff81b2e3
:1005240020000ff090f880229200002120000ef0ad
:10053400c7ff00f096fe043a934201d101f0e5f8ba
:1005440010d9c0229200934201d101f045f901d99a
:1005540001f063f9802292000021a1480ef0b0ff5f
:1005640000f085fe023a934201d101f03bf80132da
:10057400934201d000f075fe994c20000ef0c6ffa6
:1005840081b220000ff05ff8802292000021200049
:100594000ef096ff9c4b1b889c4a934201d101f0bc
:1005a400aff80133934a538000228c4b1a7000f049
:1005b40058fe974a934201d101f0f7f901d901f0ad
:1005c40014fa904c11228349103120000ef02effb2
:1005d40020000ef09bff010020000bf0cff88022da
:1005e400d2008c4b1a80fc32824b5a807e4b1a68a4
:1005f400894b1a6020000ef089ff81b220000ff0b1
:1006040022f800f02efe043aff3a934201d101f0a1
:100614002ffb29d9814a934201d101f079fb00d9fa
:1006240004e1023a934201d101f02afb01d901f01d
:100634004bfb744c1e227a49503120000ef0f6fe1a
:1006440020000ef063ff010020000bf097f8694ac8
:1006540053880133538020000ef058ff81b22000ec
:100664000ef0f1ff00f0fdfdf93a934201d101f0e3
:100674001ffa00d87ee06b4a934201d101f063fa7d
:1006840001d901f0b9fa013a934201d000f0e9fd31
:1006940050495c3150480ef015f9002801d101f0a1
:1006a40028fa02224d4b1a704b4c20000ef02efffc
:1006b400020021004a480ef0b9fe80229200002177
:1006c40020000ef0fdfe0022464b1a60434b1b78bf
:1006d400022b01d101f02dfa404b1b78032b01d1e1
:1006e40001f02cfa404b1b684b4a12689b1a404a93
:1006f400934201d800f0bbfd3e4b3f495a5c0132a6
:100704005a5400225a80354b1a7084ac444b14332b
:10071400220023cb23c223cb23c2196811609b88f8
:10072400938020000ef0f2fe81b220000ef08bffc9
:10073400334b1033220003cb03c21b88138031498f
:1007440020000ef0effc20000ef0e0fe81b220004d
:100754000ef079ff224c20000ef0d8fe81b220006a
:100764000ef071ff80229200002120000ef0a8fefe
:1007740000f077fd023a934201d101f078f9013299
:10078400934201d000f06dfd1e4c10221b497431c0
:1007940020000ef04bfe20000ef0b8fe01002000f9
:1007a4000af0ecff204a1b4b1a80f732114b5a8097
:1007b4000d4b1a68184b1a6020000ef0a7fe81b288
:1007c40020000ef040ff00f04cfdc0460203000084
:1007d400ff030000105b000030130020e40c002035
:1007e400301500202c28002040280020fc27002061
:1007f4008813000074000020310c0000105c00001d
:10080400905b000030110020d2270020030200007a
:10081400010400006a2800200428002003050000c9
:10082400905c0000fd04000005040000c022d2001a
:10083400934201d101f08ffa01d901f0aefa023ae4
:10084400934201d000f00dfdd94b1b78012b01d050
:1008540000f00dfd0022d64b1a70d64ad64b5a80b2
:1008640000f005fdc122d200934201d101f03bfb0f
:1008740001d901f05afbd14c2622d1496031200024
:100884000ef0d4fd20000ef041fe010020000af01d
:1008940075ffcc4acc4b1a80f532c74b5a80cb4bf0
:1008a4001a68cb4b1a6020000ef030fe81b2200093
:1008b4000ef0c9fe00f0d5fcc64a934201d101f006
:1008c4006dfc1ad8023a934201d101f09ffb01d981
:1008d40001f033fc013a934201d000f0c2fcb44b66
:1008e4001b78012b01d000f0c2fc0022b04b1a701f
:1008f400b94ab14b5a8000f0bafce022d2009342cc
:1009040001d101f08dfc01d901f0a6fc80229200f6
:100914000021b2480ef0d4fd00f0a9fcb04a934285
:1009240001d102f07df83fd9ae4a934201d102f0e1
:10093400e6fa00d814e2ac4a934201d102f0f5fb86
:1009440001d900f00dfcfa3a934201d102f024fbe4
:1009540000d959e3023a934201d102f0dbfa01d9fa
:1009640002f0f9fa954c0d22a049443120000ef012
:100974005dfd20000ef0cafd010020000af0fefe1d
:10098400b02212019a4b1a80fc328b4b5a808f4b47
:100994001a68984b1a6020000ef0b8fd81b220004e
:1009a4000ef051fe00f05dfc093aff3a934201d18a
:1009b40001f001fe00d9c9e0f43aff3a934201d1b3
:1009c40001f050fd36d98c4a934201d101f0b6fdb5
:1009d40000d98ce0f33a934201d101f08bfd01d2ae
:1009e40001f064fd0132934201d000f03afc704bf7
:1009f4001b78012b01d000f03afc00226c4b1a70da
:100a04006e4c0e227d49343120000ef00ffd200083
:100a14000ef07cfd010020000af0b0fe764a664b21
:100a24005a8020000ef072fd81b220000ef00bfe01
:100a340000f017fc043a934201d101f079fc2bd960
:100a44006f4a934201d101f097fc01d901f0e6fc11
:100a5400574b1b78012b01d000f009fc0022544baa
:100a64001a70564c0f2256492c3120000ef0defc31
:100a740020000ef04bfd010020000af07ffe4e4adc
:100a840053880133538020000ef040fd81b22000d2
:100a94000ef0d9fd00f0e5fb023a934201d101f0da
:100aa40023fc0132934200d0dbe3414b1b78012b42
:100ab40000d0dce300223e4b1a70404c1e22514908
:100ac400083120000ef0b2fc20000ef01ffd0100e2
:100ad40020000af053fe384a538801335380200023
:100ae4000ef014fd81b220000ef0adfdb9e3464acc
:100af400934201d101f030fdfa32934201d101f069
:100b04004cfdfb3a934200d0abe32c4c0f223d4901
:100b1400783120000ef08afc20000ef0f7fc010072
:100b240020000af02bfe80221201384b1a80fc327e
:100b3400214b5a80254b1a68354b1a6020000ef061
:100b4400e5fc81b220000ef07efd8ae3314a934237
:100b540001d101f065fe63d9a0221201934201d1b3
:100b640001f03cff00d9d3e0023a934201d101f0f5
:100b7400effe01d901f02aff184c20000ef0c6fc4c
:100b840081b220000ef05ffd80229200002120003f
:100b94000ef096fc204b1b88204a934201d101f0b1
:100ba400d2fe0133044a53800022014b1a7058e3e9
:100bb400e40c0020ff050000740000203011002028
:100bc400905d0000070600006028002040280020f7
:100bd400f0270020fe060000ff060000301500206c
:100be400040a0000ff0a0000fd0b00001061000071
:100bf4005c280020e8270020fe070000105e0000ab
:100c040007070000105f00000108000062280020b0
:100c1400f4270020fc090000da2700200109000065
:100c2400fd3a934201d101f07afd2bd9d74a934280
:100c340001d101f09efd01d201f079fd0132934210
:100c440000d00ee3d24c0e22d249503120000ef0d7
:100c5400edfb20000ef05afc010020000af08efd8e
:100c6400cd4ace4b1a80fa32cd4b5a80cd4b1a68fe
:100c7400cd4b1a6020000ef049fc81b220000ef02a
:100c8400e2fceee2023a934201d101f029fd013285
:100c9400934200d0e5e2c24bc4495a5c01325a5433
:100ca40000225a80c24b1a7084acc24b44332200d7
:100cb40023cb23c223cb23c223cb23c21b781370a1
:100cc40020000ef023fc81b220000ef0bcfcb14bde
:100cd4001033220003cb03c21b881380ac492000cd
:100ce4000ef020fa20000ef011fc81b220000ef06c
:100cf400aafcb14c20000ef009fc81b220000ef0d9
:100d0400a2fc80229200002120000ef0d9fba8e270
:100d1400aa4a934201d101f049ff01d901f0a4ff8d
:100d24009b4c0f22a649043120000ef07ffb2000cb
:100d34000ef0ecfb010020000af020fda14aa24bba
:100d44001a80fb32964b5a80964b1a689f4b1a6056
:100d540020000ef0dbfb81b220000ef074fc80e278
:100d6400f43a934201d101f000ff3bd9984a9342ef
:100d740001d102f01cf800d98be0023a934201d170
:100d840001f093ff01d901f0ccff814c0e2291496f
:100d9400343120000ef04afb20000ef0b7fb0100b6
:100da40020000af0ebfc8c4a874b1a80f0327c4b13
:100db4005a807c4b1a68854b1a6020000ef0a6fb03
:100dc40081b220000ef03ffc0ef0bafa83480df019
:100dd400a3fb0ef0b5fafa20c0000df09dfb0ef057
:100de400affa3ee2043a934201d101f09dfe27d9c5
:100df4007b4a934201d101f034fe01d901f052fe45
:100e0400634c192277497c3120000ef00ffb20003f
:100e14000ef07cfb010020000af0b0fc724a6a4b21
:100e24001a80f4325e4b5a805e4b1a68674b1a6024
:100e340020000ef06bfb81b220000ef004fc10e2e7
:100e4400023a934201d101f04efe0132934200d0a6
:100e540007e24f4c19226349443120000ef0e6fab0
:100e640020000ef053fb010020000af087fc5f4acb
:100e7400554b1a80f6324a4b5a804a4b1a68534be8
:100e84001a6020000ef042fb81b220000ef0dbfb62
:100e9400e7e1574a934201d101f0d4ff01d901f0af
:100ea400f0ff013a934200d0dbe152495c315248f1
:100eb4000df008fd002801d101f09aff02223c4bfd
:100ec4001a704d4c20000ef021fb020021003a481c
:100ed4000ef0acfa80229200002120000ef0f0fa0d
:100ee4000022464b1a60324b1b78022b01d101f0d1
:100ef4009fff2f4b1b78032b01d101f09eff294b41
:100f04001b68324a12689b1a3d4a934200d8aee1ec
:100f1400234b26495a5c01325a5400225a80244bee
:100f24001a7084ac374b6833220023cb23c223cb03
:100f340023c223cb23c223cb23c220000ef0e6fa24
:100f440081b220000ef07ffb124b1033220003cb42
:100f540003c21b8813800e4920000ef0e3f8200022
:100f64000ef0d4fa81b220000ef06dfb124c20007a
:100f74000ef0ccfa81b220000ef065fb80229200c4
:100f8400002120000ef09cfa6be1c046010900002c
:100f940030110020905b000002090000da270020d5
:100fa4007400002040280020e4270020310c0000b9
:100fb400e40c0020905f000030150020020a0000bd
:100fc400905c0000010a00005e280020ec2700204d
:100fd4000f0a0000105e00000c0a0000b80b0000ad
:100fe400090a000010600000080a0000060a000058
:100ff400fd0a0000105b0000301300202c280020a4
:10100400204e000090600000dd4a934201d102f0be
:1010140041f801d201f0e1fff732934200d020e120
:10102400d8495c31d8480df04dfc002801d102f0bc
:1010340052f80222d54b1a70d34c20000ef066faf7
:101044000200d34d210028000ef0f0f98022920016
:10105400002120000ef034fa0022ce4b1a60ce4953
:10106400143128000df02efc041e29d008300ef097
:10107400c1faca4dca4be85420000b300ef0bafa3c
:10108400c84be85420000e300ef0b4fac64be854b6
:10109400200011300ef0aefac44be8542000143096
:1010a4000ef0a8fac24be854200017300ef0a2fa52
:1010b400c04be854053be8180af054fabe4be8501c
:1010c400b24b1b78022b01d102f025f8af4b1b78f1
:1010d400032b01d102f024f8b84b1b68b84a1268fc
:1010e4009b1ab84a934200d8bbe0ac4bb6495a5c51
:1010f40001325a5400225a80a44b1a7084aca64b75
:101104002033220023cb23c223cb23c21b781370aa
:1011140020000ef0fbf981b220000ef094faab4be4
:101124001033220003cb03c21b881380a84920007c
:101134000df0f8ff20000ef0e9f981b220000ef066
:1011440082fa934c20000ef0e1f981b220000ef0f7
:101154007afa80229200002120000ef0b1f980e09a
:101164009c4a934201d102f0f7f84bd8fd3a9342de
:1011740001d102f0e1f801d202f0a2f80132934267
:101184006fd1934c80229200002120000ef098f938
:10119400914e31000c311f2220000ef047f920003f
:1011a4000ef0b4f900197d4da91d20220ef03ef970
:1011b4003300f26a0492328e2c3304a98a809b791c
:1011c4008b7120000df0aeff2900273120000df0b7
:1011d400a9ff20000ef09af9010020000af0cefacf
:1011e400c02212017d4b1a807a4b6b80734b1a68b4
:1011f4007b4b1a6020000ef089f981b220000ef0ba
:1012040022fa2ee0774a934201d102f093f901d2f7
:1012140002f06cf90132934223d100225b4b1a7025
:1012240002f093f86a4c0522564920000ef0fef8ad
:1012340020000ef06bf9010020000af09ffa8022d2
:101244005200694b1a80fc32544b5a805b4b1a682b
:10125400664b1a6020000ef059f981b220000ef09e
:10126400f2f94e4b1b78022b01d102f0a4f9c523ed
:101274009b009d44f0bd564c112242491031200080
:101284000ef0d4f820000ef041f9010020000af01d
:1012940075fa81225200544b1a80fa323f4b5a801d
:1012a400464b1a68514b1a6020000ef02ff981b298
:1012b40020000ef0c8f9d4e7454c0b2231493031f7
:1012c40020000ef0b3f820000ef020f901002000f9
:1012d4000af054fa82225200434b1a80f8322f4b00
:1012e4005a80364b1a68414b1a6020000ef00ef9f2
:1012f40081b220000ef0a7f9b3e7354c0922214949
:101304003c3120000ef092f820000ef0fff80100ae
:1013140020000af033fa0622ff32334b1a80f732e8
:101324001e4b5a80254b1a68304b1a6020000ef071
:10133400edf881b220000ef086f992e7244c1222d7
:101344001049483120000ef071f820000ef0def84c
:10135400010020000af012fa83225200224b1a8064
:10136400f6320e4b5a80154b1a68204b1a60200037
:101374000ef0ccf881b220000ef065f971e7c0469a
:10138400050b0000105b000030130020e40c00206b
:10139400301500202c2800209061000074000020eb
:1013a400640c0000650c0000660c0000670c000073
:1013b400680c0000690c00006c0c00004028002040
:1013c400e827002088130000310c0000905b000027
:1013d40030110020fc0c0000106200006428002082
:1013e400f8270020fe0c00006c28002008280020ac
:1013f400e3496431e3480df065fa002801d1fef7b2
:1014040000ff0322e04b1a70de4c20000ef07ef841
:1014140002002100dd480ef009f88022920000212c
:1014240020000ef04df80022d94b1a60fef7e9feb9
:10143400fe22ff32d74b5a8019e7ff225200d54bc8
:101444005a8014e7d14c20000ef060f881b22000dd
:101454000ef0f9f8d04b1b888322520093420cd033
:101464000133cc4a5380802292000021c7480ef0f9
:1014740027f80022c44b1a70f3e6c8491c31c3484c
:101484000df020fa0100c34ca01d053120220df0ff
:10149400cdffc34b6380e6e7be4bc2495a5c0132c1
:1014a4005a5400225a80b84b1a7084acbb4d2b009e
:1014b4002433220043cb43c243cb43c203cb03c2f6
:1014c40020000ef023f881b220000ef0bcf82b00af
:1014d4001033220003cb03c21b881380b2492000bf
:1014e4000df020fe20000ef011f881b220000ef065
:1014f400aaf8a64c20000ef009f881b220000ef0e4
:10150400a2f880229200002120000df0d9ffa8e665
:101514008022920000219d480df0d2ff00229a4bb8
:101524001a70a4e6a04c0c229c49443120000df012
:101534007dff20000df0eaff010020000af01ef9f3
:101544009a4a9b4b1a80fb32924b5a80994b1a68e9
:10155400994b1a6020000df0d9ff81b220000ef0e3
:1015640072f87ee6904c0e228c49503120000df02a
:101574005dff20000df0caff010020000af0fef814
:101584008e4a8b4b1a80fa32824b5a80894b1a68e6
:10159400894b1a6020000df0b9ff81b220000ef0d3
:1015a40052f85ee6804c0b227c49603120000df03d
:1015b4003dff20000df0aaff010020000af0def834
:1015c4007f4a7b4b1a80f932724b5a80794b1a68e6
:1015d400794b1a6020000df099ff81b220000ef0c3
:1015e40032f83ee666495c3166480df06bf9002836
:1015f40061d00222644b1a70624c20000df086ff09
:101604000200210061480df011ff802292000021a8
:1016140020000df055ff00225d4b1a605a4b1b78d9
:10162400022b65d0584b1b78032b65d0614b1b688c
:10163400614a12689b1a634a934200d817e6554bd5
:1016440058495a5c01325a5400225a804e4b1a703f
:1016540084ac524d2b006c33220043cb43c243cbaa
:1016640043c243cb43c220000df050ff81b220009f
:101674000df0e9ff2b001033220003cb03c21b88bb
:101684001380494920000df04dfd20000df03eff70
:1016940081b220000df0d7ff3c4c20000df036ff46
:1016a40081b220000df0cfff8022920000212000a3
:1016b4000df006ffd5e53249643132480df002f9e8
:1016c4000028abd00322304b1a702e4c20000df0b2
:1016d4001dff020021002d480df0a8fe802292007b
:1016e400002120000df0ecfe0022294b1a6095e742
:1016f400354a284b5a80bae5344a264b5a80b6e517
:10170400334a244b5a80fef74fff224b25495a5c3b
:1017140001325a5400225a801b4b1a7084ac2d4b50
:101724001033220023cb23c223cb23c203cb03c217
:1017340020000df0ebfe81b220000df084ff174b6a
:101744001033220003cb03c21b88138016492000e8
:101754000df0e8fc20000df0d9fe81b220000df060
:1017640072ff0a4c20000df0d1fe81b220000df072
:101774006aff80229200002120000df0a1fe70e596
:10178400105b000030130020e40c00203015002012
:101794002c280020740000206c280020905b00009e
:1017a400ff010000310c0000301100200102000094
:1017b400d227002040280020e02700200202000059
:1017c4000302000088130000fd020000fe02000076
:1017d400ff020000105c0000ea4c0b22ea493031a1
:1017e40020000df023fe20000df090fe01002000eb
:1017f40009f0c4ffc0229200e44b1a80fc32e44b8f
:101804005a80e44b1a68e44b1a6020000df07efe07
:1018140081b220000df017ff23e5da4c0922da49e2
:101824003c3120000df002fe20000df06ffe01009f
:10183400200009f0a3ffd94ad44b1a80fb32d44bc1
:101844005a80d44b1a68d44b1a6020000df05efe07
:1018540081b220000df0f7fe03e5ca4c0c22d049fa
:10186400443120000df0e2fd20000df04ffe010098
:10187400200009f083ffcb4ac44b1a80fa32c44bd0
:101884005a80c44b1a68c44b1a6020000df03efe07
:1018940081b220000df0d7fee3e4bb496431c248b5
:1018a4000df010f8002801d1fef7f3fd0322bf4b21
:1018b4001a70bd4c20000df029fe02002100bc4826
:1018c4000df0b4fd80229200002120000df0f8fdff
:1018d4000022b84b1a60fef7dcfdb74aac4b5a80c5
:1018e400c5e4b64aaa4b5a80c1e4b14c20000df0bd
:1018f4000dfe81b220000df0a6fe80229200002190
:1019040020000df0ddfda14b1b88a64a934206d0b2
:1019140001339f4a53800022a44b1a70a1e4a84ac1
:101924009b4b5a80f7e79a4ba6495a5c01325a54aa
:1019340000225a809d4b1a7084aca34b543322006e
:1019440023cb23c223cb23c203cb03c220000df03d
:10195400ddfd81b220000df076fe914b10332200a4
:1019640003cb03c21b881380864920000df0dafbe9
:1019740020000df0cbfd81b220000df064fe8c4cf4
:1019840020000df0c3fd81b220000df05cfe80222a
:101994009200002120000df093fd62e48022920069
:1019a400002183480df08cfd61e4764c0b227649ce
:1019b400243120000df03afd20000df0a7fd0100b8
:1019c400200009f0dbfe814a814b1a80fb32704b08
:1019d4005a80704b1a687f4b1a6020000df096fdf8
:1019e40081b220000df02ffe3be4664c0b226649c9
:1019f400303120000df01afd20000df087fd0100ac
:101a0400200009f0bbfe744a714b1a80fa32604b15
:101a14005a80604b1a686f4b1a6020000df076fdf7
:101a240081b220000df00ffefff71bfc554c09227c
:101a340055493c3120000df0f9fc20000df066fd05
:101a44000100200009f09afe644a614b1a80f932c1
:101a54004f4b5a804f4b1a685e4b1a6020000df0b2
:101a640055fd81b220000df0eefdfff7fafb454c69
:101a74000c224b49443120000df0d8fc20000df01d
:101a840045fd0100200009f079fe554a504b1a80ab
:101a9400f8323f4b5a803f4b1a684e4b1a60200075
:101aa4000df034fd81b220000df0cdfdfff7d9fb20
:101ab400344c0f224b49043120000df0b7fc2000b8
:101ac4000df024fd0100200009f058fe464a404b69
:101ad4001a80f6322e4b5a802e4b1a683d4b1a60f0
:101ae40020000df013fd81b220000df0acfdfff7d6
:101af400b8fb254964312c480cf0e4fe002801d1e0
:101b0400fef7e4fd0322294b1a70274c20000df048
:101b1400fdfc0200210026480df088fc8022920082
:101b2400002120000df0ccfc0022224b1a60fef7ad
:101b3400cdfd2e4a164b5a80fff799fb2c4a144bc5
:101b44005a80fff794fb1a4c20000df0dffc81b2a1
:101b540020000df078fd80229200002120000df07d
:101b6400affc1b4b1b88204a934207d00133084a21
:101b7400538000220d4b1a70fff773fb1d4a044b70
:101b84005a80f6e730110020105b00006628002020
:101b94007400002040280020fc27002001030000de
:101ba400905b00000203000030130020e40c0020ce
:101bb400301500202c280020fd030000fe03000047
:101bc400ff030000310c0000105c00000104000061
:101bd4006a280020042800200204000003040000f6
:101be40004040000905c000006040000fd040000f2
:101bf400fe040000ff040000ed4bee495a5c013284
:101c04005a5400225a80ec4b1a7084aceb4b343398
:101c1400220023cb23c223cb23c21b8813802000a2
:101c24000df074fc81b220000df00dfde44b103377
:101c3400220003cb03c21b881380e24920000df06d
:101c440071fa20000df062fc81b220000df0fbfc63
:101c5400dd4c20000df05afc81b220000df0f3fca5
:101c640080229200002120000df02afcfff7f9faef
:101c7400802292000021d4480df022fcfff7f7faed
:101c8400cd4b1b78012b01d0fff7f1fa0022ca4b90
:101c94001a70cc4c1e22c949703120000df0c6fbcd
:101ca40020000df033fc0100200009f067fdc04a5c
:101cb40053880133538020000df028fc81b22000aa
:101cc4000df0c1fcfff7cdfabb4b1b78012b01d003
:101cd400fff7cdfa0022b84b1a70ba4c1e22bb494a
:101ce400103120000df0a2fb20000df00ffc0100cc
:101cf400200009f043fdae4a53880133538020008d
:101d04000df004fc81b220000df09dfcfff7a9fa50
:101d1400a94b1b78012b01d0fff7a9fa0022a64b8f
:101d24001a70a84c0f22a949303120000df07efb17
:101d340020000df0ebfb0100200009f01ffda44a78
:101d44009b4b5a8020000df0e1fb81b220000df086
:101d54007afcfff786fa9b4c12229e4948312000f8
:101d64000df064fb20000df0d1fb0100200009f010
:101d740005fdc022d200984b1a80fc328c4b5a804d
:101d8400964b1a68964b1a6020000df0bffb81b287
:101d940020000df058fcfff764fa924d894c2a009c
:101da4008a49403120000cf0f7fb20000df0aefb17
:101db4000100200009f0e2fc8b4a874b1a80063da3
:101dc4008a4b6b80854b1a68854b1a6020000df096
:101dd4009dfb81b220000df036fcfff742fa794cee
:101de4002e227a49543120000df020fb20000df002
:101df4008dfb0100200009f0c1fc7d4a764b1a805e
:101e0400fa326b4b5a80754b1a68754b1a60200076
:101e14000df07cfb81b220000df015fcfff721fad8
:101e2400684c0f2273491c3120000df0fffa20008a
:101e34000df06cfb0100200009f0a0fc6e4a664b1b
:101e44001a80f8325a4b5a80644b1a68644b1a60f1
:101e540020000df05bfb81b220000df0f4fbfff7d6
:101e640000fa584c0f2263492c3120000df0defaa1
:101e740020000df04bfb0100200009f07ffc5f4abd
:101e8400554b1a80f7324a4b5a80544b1a68544bbc
:101e94001a6020000df03afb81b220000df0d3fb54
:101ea400fff7dff9474c212252493c3120000df065
:101eb400bdfa20000df02afb0100200009f05efcb1
:101ec4004f4a454b1a80f632394b5a80434b1a68b5
:101ed400434b1a6020000df019fb81b220000df075
:101ee400b2fbfff7bef9374c1622464908312000f1
:101ef4000df09cfa20000df009fb0100200009f010
:101f04003dfcc122d200344b1a80f432284b5a8053
:101f1400324b1a68324b1a6020000df0f7fa81b286
:101f240020000df090fbfff79cf9264c1222354956
:101f3400203120000df07afa20000df0e7fa0100bc
:101f4400200009f01bfc304a234b1a80f332184b53
:101f54005a80224b1a68224b1a6020000df0d6fae0
:101f640081b220000df06ffbfff77bf9154c0e22b8
:101f74002449343120000df059fa20000df0c6fa3e
:101f84000100200009f0fafb174a134b1a80fb32b8
:101f9400074b5a80114b1a68114b1a6020000df040
:101fa400b5fa81b220000df04efbfff75af9c04696
:101fb40074000020310c0000e40c0020905c000050
:101fc400905b00003011002030150020105d0000ef
:101fd400fe050000105b000060280020402800205f
:101fe400f02700207a00002001060000fc06000013
:101ff40002060000905d00000406000005060000d3
:1020040006060000105e000009060000ec495c3181
:10201400ec480cf057fc002868d00222ea4b1a70f6
:10202400e84c20000df072fa02002100e7480df0a0
:10203400fdf980229200002120000df041fa0022d7
:10204400e34b1a60e04b1b78022b6cd0de4b1b7801
:10205400032b6dd0df4b1b68df4a12689b1adf4ae3
:10206400934201d8fff703f9dd4bde495a5c013294
:102074005a5400225a80d44b1a7084acda4b44333d
:10208400220023cb23c223cb23c223cb23c203cbe3
:1020940003c2198811809b78937020000df036fae2
:1020a40081b220000df0cffad04b1033220003cbc5
:1020b40003c21b881380ce4920000df033f82000a2
:1020c4000df024fa81b220000df0bdfabf4c2000bf
:1020d4000df01cfa81b220000df0b5fa80229200b6
:1020e400002120000df0ecf9fff7bbf8b44964318e
:1020f400b4480cf0e7fb0028a4d00322b24b1a70ba
:10210400b04c20000df002fa02002100af480df09f
:102114008df980229200002120000df0d1f90022d7
:10212400ab4b1a608ee7b34aad4b5a80fff79ff86a
:10213400b14aab4b5a80fff79af8c023db00af4a91
:1021440012889a421ad0a14c20000df0dff981b216
:1021540020000df078fa80229200002120000df07a
:10216400aff9a64b1b88a64a934213d001339c4a6d
:1021740053800022944b1a70fff773f89b491c316b
:1021840092480cf09ffb411d2022954806300df02b
:102194004df9d8e79b4a924b5a80eae7904b914914
:1021a4005a5c01325a5400225a80874b1a7084ac0c
:1021b4008d4b7433220023cb23c223cb23c223cbe6
:1021c40023c219681160998891809b7993712000ca
:1021d4000df09cf981b220000df035fa834b1033d9
:1021e400220003cb03c21b881380814920000cf01a
:1021f40099ff20000df08af981b220000df023fa36
:10220400724c20000df082f981b220000df01bfa0f
:1022140080229200002120000df052f9fff721f8ee
:10222400794d734c2a007949403120000cf0b4f9ff
:1022340020000df06bf90100200009f09ffa063d23
:102244006b8801336b8020000df060f981b22000af
:102254000df0f9f9fff705f85b4b1b78012b01d062
:10226400fff705f80022584b1a70614c1222684996
:10227400203120000df0daf820000df047f90100bc
:10228400200009f07bfa564a53880133538020001a
:102294000df03cf981b220000df0d5f9fef7e1ff15
:1022a400494b1b78012b01d0fef7e1ff0022464b7e
:1022b4001a704f4c2e225649343120000df0b6f8d6
:1022c40020000df023f90100200009f057fa444ad8
:1022d40053880233538020000df018f981b2200096
:1022e4000df0b1f9fef7bdff374b1b78012b01d080
:1022f400fef7bdff0022344b1a703d4c24224449a2
:10230400643120000df092f820000df0fff8010078
:10231400200009f033fa324a5388013353802000f5
:102324000df0f4f881b220000df08df9fef799ff5d
:10233400254b1b78012b01d0fef799ff0022224b7d
:102344001a702b4c0f2233491c3120000df06ef80b
:1023540020000df0dbf80100200009f00ffa204afc
:1023640053880133538020000df0d0f881b220004f
:102374000df069f9fef775ff134b1b78012b01d0a3
:10238400fef775ff0022104b1a70194c3d222249aa
:10239400283120000df04af820000df0b7f80100b4
:1023a400200009f0ebf90e4a5388013353802000d2
:1023b4000df0acf881b220000df045f9fef751ffa5
:1023c400105b000030130020e40c002030150020c6
:1023d4002c28002040280020f0270020881300002b
:1023e40074000020310c0000105e0000905b0000bf
:1023f40030110020fd060000fe06000060280020c9
:1024040009060000ff0600007a000020105d0000ad
:10241400905e0000905d0000105f0000e54b1b78ab
:10242400012b01d0fef723ff0022e24b1a70e24c8d
:102434002622e249603120000cf0f8ff20000df064
:1024440065f80100200009f099f9dd4a5388013349
:10245400538020000df05af881b220000df0f3f8fb
:10246400fef7fffed34b1b78012b01d0fef7fffed6
:102474000022d04b1a70d04c1622d24908312000c9
:102484000cf0d4ff20000df041f80100200009f009
:1024940075f9cb4a53880133538020000df036f888
:1024a40081b220000df0cff8fef7dbfec14b1b78a4
:1024b400012b01d0fef7dbfe0022be4b1a70be4c8e
:1024c4001022c149683120000cf0b0ff20000df04b
:1024d4001df80100200009f051f9b94a538801336d
:1024e400538020000df012f881b220000df0abf8fb
:1024f400fef7b7feaf4b1b78012b01d0fef7b7fefa
:102504000022ac4b1a70ac4c0f22af49783120003a
:102514000cf08cff20000cf0f9ff0100200009f002
:102524002df9a74a53880133538020000cf0eeffa5
:1025340081b220000df087f8fef793fe9d4b1b78c7
:10254400012b01d0fef793fe00229a4b1a709f4a8a
:102554009b4b5a80fef78bfe974c0f229c49083107
:1025640020000cf063ff20000cf0d0ff01002000dd
:1025740009f004f9974a984b1a80fb32904b5a8021
:10258400964b1a68964b1a6020000cf0bfff81b27c
:1025940020000df058f8fef764fe864b1b78012be3
:1025a40001d0fef764fe0022824b1a708d4a844be0
:1025b4005a80fef75cfe8c495c318c480cf082f941
:1025c400002866d002227b4b1a70884c20000cf045
:1025d4009dff0200210086480cf028ff8022920013
:1025e400002120000cf06cff0022824b1a60714b1a
:1025f4001b78022b6ad06f4b1b78032b6bd0774b65
:102604001b68774a12689b1a7b4a934201d8fef7eb
:102614002efe6b4b79495a5c01325a5400225a807f
:10262400644b1a7084ac6a4b1833220023cb23c248
:1026340023cb23c223cb23c2196811601b791371e6
:1026440020000cf063ff81b220000cf0fcff6c4b07
:102654001033220003cb03c21b8813805649200089
:102664000cf060fd20000cf051ff81b220000cf052
:10267400eaff5f4c20000cf049ff81b220000cf00f
:10268400e2ff80229200002120000cf019fffef7e7
:10269400e8fd5549643155480cf014f90028a6d0da
:1026a4000322444b1a70514c20000cf02fff0200ff
:1026b40021004f480cf0bafe802292000021200035
:1026c4000cf0fefe00224b4b1a6090e74d4a3c4b47
:1026d4005a80fef7ccfd4c4a394b5a80fef7c7fdb1
:1026e400434c20000cf012ff81b220000cf0abff31
:1026f40080229200002120000cf0e2fe364b1b8861
:10270400344a934207d001332d4a53800022294b87
:102714001a70fef7a6fd334a294b5a80f6e7802249
:102724009200002132480cf0cbfefef7a0fd224cb3
:1027340010223649743120000cf078fe20000cf091
:10274400e5fe0100200009f019f890221201304b37
:102754001a80fc321a4b5a80204b1a682d4b1a608f
:1027640020000cf0d3fe81b220000cf06cfffef7c9
:1027740078fd114c0f222849043120000cf056fe3c
:1027840020000cf0c3fe0100200008f0f7ff234aec
:102794001f4b1a80fb320a4b5a80104b1a681d4b90
:1027a4001a6020000cf0b2fe81b220000cf04bff46
:1027b400fef757fde40c002030110020905d00006e
:1027c40074000020105e0000105f0000ff0700008e
:1027d400905f0000010800006228002040280020cb
:1027e400f4270020ff080000105b000030130020d5
:1027f400301500202c28002088130000310c000024
:10280400905b0000fd080000fe080000105c000062
:10281400da270020e4270020905c00000109000072
:10282400f3495c31f3480cf04df8002864d00222df
:10283400f14b1a70ef4c20000cf068fe02002100ee
:10284400ee480cf0f3fd80229200002120000cf0f1
:1028540037fe0022ea4b1a60e74b1b78022b68d044
:10286400e54b1b78032b69d0e64b1b68e64a1268dc
:102874009b1ae64a934201d8fef7f9fce44be5497a
:102884005a5c01325a5400225a80db4b1a7084acd1
:10289400e14b6c33220023cb23c223cb23c203cbd3
:1028a40003c21b88138020000cf030fe81b220008c
:1028b4000cf0c9fed94b1033220003cb03c21b8892
:1028c4001380d74920000cf02dfc20000cf01efed4
:1028d40081b220000cf0b7fec84c20000cf016feac
:1028e40081b220000cf0affe802292000021200073
:1028f4000cf0e6fdfef7b5fcbd496431bd480bf0b4
:10290400e1ff0028a8d00322bb4b1a70b94c200069
:102914000cf0fcfd02002100b8480cf087fd802279
:102924009200002120000cf0cbfd0022b44b1a6071
:1029340092e7bc4ab64b5a80fef799fcba4ab44bac
:102944005a80fef794fcb94ab14b5a80fef72cf931
:10295400af4bb0495a5c01325a5400225a80a64bfc
:102964001a7084acb24b1033220023cb23c223cb86
:1029740023c2196811609b88938020000cf0c6fd67
:1029840081b220000cf05ffea44b1033220003cb75
:1029940003c21b881380a24920000cf0c3fb200053
:1029a4000cf0b4fd81b220000cf04dfe934c2000dd
:1029b4000cf0acfd81b220000cf045fe80229200a8
:1029c400002120000cf07cfdfef74bfc80229200dd
:1029d40000218a480cf074fdfef749fc904c10224b
:1029e4009449743120000cf021fd20000cf08efd80
:1029f4000100200008f0c2fea02212018e4b1a80b2
:102a0400fc32834b5a807f4b1a688c4b1a6020002f
:102a14000cf07cfd81b220000cf015fefef721fcc9
:102a24007f4c0e227d49503120000cf0fffc200029
:102a34000cf06cfd0100200008f0a0fe804a7e4be3
:102a44001a80f832724b5a806e4b1a687b4b1a60ac
:102a540020000cf05bfd81b220000cf0f4fdfef7c9
:102a640000fc6f4c0f227749783120000cf0defc1b
:102a740020000cf04bfd0100200008f07ffe724a9c
:102a84006d4b1a80f332624b5a805e4b1a686b4b63
:102a94001a6020000cf03afd81b220000cf0d3fd46
:102aa400fef7dffb5e4c0f225b49083120000cf07f
:102ab400bdfc20000cf02afd0100200008f05efea1
:102ac400624a5d4b1a80f232514b5a804d4b1a6860
:102ad4005a4b1a6020000cf019fd81b220000cf052
:102ae400b2fdfef7befb4e4c13225149303120009b
:102af4000cf09cfc20000cf009fd0100200008f003
:102b04003dfe534a4c4b1a80f732414b5a803d4ba1
:102b14001a684a4b1a6020000cf0f8fc81b22000bd
:102b24000cf091fdfef79dfb3d4c192240496031ac
:102b340020000cf07bfc20000cf0e8fc01002000dd
:102b440008f01cfe434a3c4b1a80f532304b5a8045
:102b54002c4b1a68394b1a6020000cf0d7fc81b258
:102b640020000cf070fdfef77cfb2d4c0d223a4941
:102b7400183120000cf05afc20000cf0c7fc0100b6
:102b8400200008f0fbfd354a2b4b1a80f132204b14
:102b94005a801c4b1a68294b1a6020000cf0b6fcb2
:102ba40081b220000cf04ffdfef75bfb1c4c2e2283
:102bb4002b49543120000cf039fc20000cf0a6fc09
:102bc4000100200008f0dafd264a1b4b1a80fa3275
:102bd4000f4b5a800b4b1a68184b1a6020000cf0ec
:102be40095fc81b220000cf02efdfef73afbc046a6
:102bf400105b000030130020e40c0020301500208e
:102c04002c28002040280020e427002088130000fe
:102c140074000020310c0000905f0000905b000005
:102c240030110020fd090000fe090000ff0900002a
:102c340010600000105c00005e280020ec270020db
:102c4400040a0000105f0000090a00000a0a0000dc
:102c5400050a0000070a0000906000000b0a00004b
:102c6400105d0000020a0000ec4c1222ec492031f5
:102c740020000cf0dbfb20000cf048fc01002000dd
:102c840008f07cfde74ae84b1a80f932e74b5a809a
:102c9400e74b1a68e74b1a6020000cf037fc81b24e
:102ca40020000cf0d0fcfef7dcfadc4ce24d2900ed
:102cb40028311a2220000cf0b9fb20000cf026fc6d
:102cc4000019da4eb11d20220cf0b0fb04a92b0030
:102cd40044330a0021cb21c21b78137020000cf06e
:102ce40021fa20000cf012fc0100200008f046fd3f
:102cf400d24acd4b1a80d24b7380cd4b1a68cd4b40
:102d04001a6020000cf002fc81b220000cf09bfc45
:102d14000cf016fbcb480bf0fffb0cf011fbfef79d
:102d2400a0fabe4c80229200002120000cf0c8fbc7
:102d340004ae6422002130000cf0c2fbbe4d290019
:102d440028311a2220000cf071fb20000cf0defb6d
:102d54000019b64fb91d20220cf068fb2b0050332c
:102d6400320003cb03c2310020000cf0dbf9200059
:102d74000cf0ccfb0100200008f000fdb24aaa4b85
:102d84001a80af4b7b80aa4b1a68aa4b1a602000aa
:102d94000cf0bcfb81b220000cf055fc0cf0d0fa16
:102da400a8480bf0b9fb0cf0cbfafef75afa9b4c8f
:102db4000e22a149583120000cf038fb20000cf001
:102dc400a5fb0100200008f0d9fca04a964b1a800c
:102dd400ed32964b5a80964b1a68964b1a60200037
:102de4000cf094fb81b220000cf02dfcfef739fab4
:102df4009749643197480bf065fd002801d1fef72f
:102e040072f80322944b1a70924c20000cf07efb53
:102e14000200210091480cf009fb8022920000215d
:102e240020000cf04dfb00228d4b1a60fef75bf87e
:102e34008c4a7e4b5a80fef71afa8b4a7b4b5a8097
:102e4400fef715fa854c20000cf060fb81b22000df
:102e54000cf0f9fb80229200002120000cf030fbe2
:102e6400714b1b88784a934207d001336f4a5380d1
:102e74000022794b1a70fef7f4f97c4a6b4b5a80a6
:102e8400f6e76a4b7a495a5c01325a5400225a8056
:102e9400714b1a7084ac774b1833220023cb23c2b6
:102ea40023cb23c223cb23c203cb03c220000cf0c9
:102eb4002dfb81b220000cf0c6fb6f4b10332200b7
:102ec40003cb03c21b881380544920000cf02af959
:102ed40020000cf01bfb81b220000cf0b4fb5f4c13
:102ee40020000cf013fb81b220000cf0acfb80221c
:102ef4009200002120000cf0e3fafef7b2f9002161
:102f04005b4b4a4ad1548022920054480cf0d8fac0
:102f1400fef7adf9414c0d225649543120000cf016
:102f240085fa20000cf0f2fa0100200008f026fcdb
:102f3400524a534b1a80fb323c4b5a803c4b1a6822
:102f4400504b1a6020000cf0e1fa81b220000cf022
:102f54007afbfef786f9314c112246496431200090
:102f64000cf064fa20000cf0d1fa0100200008f003
:102f740005fc454a424b1a80fa322c4b5a802c4ba2
:102f84001a68404b1a6020000cf0c0fa81b220008d
:102f94000cf059fbfef765f9204c0f2235497831c6
:102fa40020000cf043fa20000cf0b0fa01002000dd
:102fb40008f0e4fb354a324b1a80f9321b4b5a8035
:102fc4001b4b1a682f4b1a6020000cf09ffa81b239
:102fd40020000cf038fbfef744f9104c0b22264974
:102fe400603120000cf022fa20000cf08ffa01006e
:102ff400200008f0c3fb264a214b1a80f8320b4b01
:103004005a800b4b1a681f4b1a6020000cf07efa92
:1030140081b220000cf017fbfef723f930110020d9
:10302400105e0000030a00005e28002074000020e7
:1030340040280020ec270020906000000d0a0000ca
:10304400fc0a0000b80b00000e0a00000f0a000082
:10305400105b000030130020e40c00203015002029
:103064002c280020fd0a0000fe0a0000ff0a0000d0
:10307400310c000010610000905b0000010b0000a7
:103084005c280020e8270020020b0000030b00004e
:10309400040b0000e84c0c22e849083120000cf035
:1030a400c5f920000cf032fa0100200008f066fb9c
:1030b400e34ae44b1a80f732e34b5a80e34b1a6835
:1030c400e34b1a6020000cf021fa81b220000cf0ce
:1030d400bafafef7c6f8df496431df480bf0f2fbb9
:1030e400002801d1fdf7ecff0322dc4b1a70da4c07
:1030f40020000cf00bfa02002100d9480cf096f9dc
:1031040080229200002120000cf0daf90022d54b35
:103114001a60fdf7d5ffd44acb4b5a80fef7a7f8c7
:10312400d24ac94b5a80fef7a2f8cd4c20000cf0cd
:10313400edf981b220000cf086fac24b1b88c04a1c
:10314400934207d00133c04a53800022c34b1a7004
:10315400fef787f8b9493c31c1480bf0b3fb0028ae
:1031640000d180e003300cf069fa08f023fe051c5e
:10317400b2494031ba480bf0a5fb00287dd003309a
:103184000cf05cfa08f016fe041cac494831b44853
:103194000bf098fb002800d18de0b54e14220021dd
:1031a40030000cf08df914220021b2480cf088f99b
:1031b400b149281c07f0a6fa0bf00efa03006427a5
:1031c40001907b4318000af083f8011c281c06f0c8
:1031d40047f90290a849201c07f094fa0bf0fcf977
:1031e4000500474338000af073f8011c201c06f060
:1031f40037f90390a149029807f084fa041c019856
:103204000af066f8011c201c06f0a4fa09f088fdf7
:1032140002000b00894f3c004c34210030000bf0bd
:10322400bbf99649039807f06dfa019028000af05b
:103234004ff8011c019806f08dfa09f071fd0200a7
:103244000b0021008b480bf0a7f939005431894b4e
:10325400320084a80bf0a0f984a80cf057f981b2cd
:1032640084a80cf0f0f98022920000217c480cf034
:1032740027f9834a744b5a8067e780231b069c46d0
:1032840065446e4e31004431754f38000bf01afb23
:1032940003300cf0d3f908f08dfd041c31004831e3
:1032a40038000bf00ffb002800d076e780231b06c4
:1032b4009c46644471e780231b069c4664446ce787
:1032c400614b70495a5c01325a5400225a80634b54
:1032d4001a7084ac594b7433220023cb23c203cb22
:1032e40003c21b78137020000cf010f981b2200087
:1032f4000cf0a9f9644b1033220003cb03c21b88e2
:1033040013804d4920000bf00dff20000cf0fef857
:1033140081b220000cf097f9514c20000cf0f6f823
:1033240081b220000cf08ff980229200002120004d
:103334000cf0c6f8fdf795ff802292000021484862
:103344000cf0bef8514a404b5a803f4b1b78022b7d
:1033540001d0fdf78cff35e13e495c313e480bf06e
:10336400b1fa002800d199e002223c4b1a703a4c81
:1033740020000cf0cbf80200210039480cf056f87c
:1033840080229200002120000cf09af80022354b94
:103394001a60324b1b78022b00d19de02f4b1b7817
:1033a400032b00d19de0294b1b68394a12689b1af4
:1033b400384a934201d8fdf75aff234b31495a5cee
:1033c40001325a54314a5a800022244b1a7084ac78
:1033d400314b3433220023cb23c223cb23c223cb50
:1033e40023c21b88138020000cf090f881b22000c7
:1033f4000cf029f9244b1033220003cb03c21b88a1
:1034040013800d4920000bf08dfe20000cf07ef897
:1034140081b220000cf017f9114c20000cf076f862
:1034240081b220000cf00ff98022920000212000cc
:103434000cf046f8fdf715ff3011002090610000f4
:10344400050b00005c2800207400002040280020a8
:10345400e8270020105b000030130020e40c00205b
:10346400301500202c280020fd0b0000fe0b00006e
:10347400b00c0020c40c00200000c84200007042c0
:10348400ff0b0000310c0000905b0000ff0c0000fb
:10349400f82700201027000010620000c44964319e
:1034a400c4480bf00ffa002800d172e70322c24b84
:1034b4001a70c04c20000cf029f802002100bf480b
:1034c4000bf0b4ff80229200002120000bf0f8ffe3
:1034d4000022bb4b1a605ce7ba4abb4b5a80fdf72b
:1034e400c6feba4ab84b5a80fdf7c1fe0021b84b5c
:1034f400b54ad154b14c20000cf008f881b2200038
:103504000cf0a1f8b34b1b88c022120193420dd0da
:103514000133ad4a5380802292000021a7480bf06a
:10352400cfff0022a44b1a70fdf79bfeaa4aa64bbc
:103534005a80f0e7a44ba6495a5c01325a54a64a71
:103544005a8000229c4b1a7084aca44b5c3322003a
:1035540023cb23c223cb23c219681160998891809d
:103564009b79937120000bf0d1ff81b220000cf005
:103574006af89b4b1033220003cb03c21b881380d1
:10358400984920000bf0cefd20000bf0bfff81b264
:1035940020000cf058f8894c20000bf0b7ff81b2e2
:1035a40020000cf050f880229200002120000bf043
:1035b40087fffdf756fe884b834a52889a4201d012
:1035c400fdf755fe804b9b88874a93425dd015d901
:1035d400864a934200d1cbe100d21de101329342ed
:1035e40001d0fdf744fe80229200002173480bf0c5
:1035f40067ff0022704b1a70fdf739fefc3a9342c4
:1036040025d00132934201d0fdf731fe754c0e22d4
:103614007749103120000bf009ff20000bf076fff2
:103624000100200008f0aaf8724a734b1a80fb329a
:10363400654b9a80714b1a68714b1a6020000bf02d
:1036440065ff81b220000bf0fefffdf710fe634919
:103654007c3158480bf036f9002801d1fdf707fefc
:103664000c30040062490c310bf02cf9002801d114
:10367400fdf7fdfd20000bf0bdff534b8a229200a5
:1036840098525c4a9a80fdf7f2fd49495c314948f9
:103694000bf018f9002863d00222474b1a70454cee
:1036a40020000bf033ff0200210044480bf0befe63
:1036b40080229200002120000bf002ff0022404be8
:1036c4001a603d4b1b78022b67d03b4b1b78032bb6
:1036d40068d04a4b1b684a4a12689b1a494a93426b
:1036e40001d8fdf7c4fd0022334b1a70364b46490e
:1036f4005a5c01325a54454a9a8084ac3c4b20337c
:10370400220023cb23c223cb23c21b881380200097
:103714000bf0fcfe81b220000bf095ff304b103310
:10372400220003cb03c21b8813802e4920000bf018
:10373400f9fc20000bf0eafe81b220000bf083ffbd
:103744001e4c20000bf0e2fe81b220000bf07bff48
:1037540080229200002120000bf0b2fefdf787fdcd
:103764001349643113480bf0adf80028a9d00322a3
:10377400114b1a700f4c20000bf0c8fe0200210000
:103784000e480bf053fe80229200002120000bf023
:1037940097fe00220a4b1a6093e71d4a0a4b9a804f
:1037a400fdf765fd1b4a084b9a80fdf760fdc04696
:1037b400105b000030130020e40c002030150020c2
:1037c4002c280020fd0c000074000020fe0c0000da
:1037d400310c000064280020ff0c0000106200007f
:1037e400905b000030110020fc800000fe8000008f
:1037f400906200000180ffff68280020402800201c
:103804000028002010270000320c00000080ffff79
:10381400fd80fffffe80ffff744c21003c31744d9e
:1038240028000bf04ff806002100443128000bf06b
:1038340049f8002e00d183e06e4b6f4a9a5c9b18c6
:103844006e4a9446634401221a70002808d0694bda
:10385400694a9a5c9b18694a9446634402221a7026
:10386400624c21004c31624e30000bf02bf8c51c29
:103874002100503130000bf025f807005d4c5e4efe
:10388400a05d40025e4b9c46604400198022920079
:1038940000210bf015fea05d4002594b9c4660448c
:1038a40000197a1b29000bf0c1fda35d0133dbb2c3
:1038b400042b48d84f498b554e4b0121514a9954fa
:1038c4000021514a995404aa484b583303cb03c2ec
:1038d4001b781370484b474ad35c0421002b01d05a
:1038e400013bd9b24902464b9c466144414bc9183d
:1038f40004a80bf017fc04a80bf008fe04ab9c46cc
:103904006044032239490c310bf090fd04a80bf0fc
:10391400fdfd81b204a80bf096fe3c4b1b883c4a8b
:10392400934215d00133334a9380802292000021c0
:103934002f480bf0c5fd0022364b1a70fdf797fc9b
:10394400002884d1bfe700212b4b2a4ad154b3e786
:1039540028498a2292008b5a013b9bb28b52002b3e
:1039640002d12d4a8a80e0e72c4a224b9a80dce778
:103974000022284b1a701f4b23495a5c01325a54b7
:10398400254a9a8084ac194b6433220023cb23c28a
:1039940003cb03c21b88138020000bf0b7fd81b258
:1039a40020000bf050fe1e4b1033220003cb03c249
:1039b4001b8813801b4920000bf0b4fb20000bf084
:1039c400a5fd81b220000bf03efe094c20000bf057
:1039d4009dfd81b220000bf036fe80229200002172
:1039e40020000bf06dfdfdf742fcc0469062000024
:1039f40030150020740000202f0200002a0200006d
:103a04003102000027020000320c00006828002068
:103a140001800000e40c00200080ffff0180ffff14
:083a2400905b0000301100204e
:020000040000fa
:103a2c00f0b5a5b007930023049007982093069156
:103a3c001a920bf043fe050000680bf063fd0026a4
:103a4c000027069b05901f931f9b1a780d2a39d8c7
:103a5c00092a3dd2002a44d00023129300221f9c35
:103a6c000c922378302b00d07ee06378582b02d058
:103a7c00782b00d06ee0079bb74a0293129b1fa9cc
:103a8c00019320ab0093049821ab04f075fc07253f
:103a9c000590054005d0062d2fd1002301341f942d
:103aac0012931a9b002b02d01a9b1f9a1a60129b1e
:103abc00002b1dd0802332001b06fb1810001900b0
:103acc0025b0f0bd2b2a05d02d2a14d0202ac3d125
:103adc000133b8e7002212925a1c1f925b78002b1c
:103aec00bcd1069b1f93002312931a9b002bdbd196
:103afc0032003b00e2e70122ede7209a002a07d0d2
:103b0c00352122a80af0bcff209904980af074fe13
:103b1c00681e042806d80bf041fc0c0317190c0086
:103b2c00229e239f059b1b07bbd580231b061f438f
:103b3c00b7e7239b894a8a491a40219b229e5b182e
:103b4c001b051a431700ede7864febe70126864f5e
:103b5c007642e7e71f9b5a1c1f925b78302bf9d0fb
:103b6c00002b9ed001230c931f9b0a22139300233e
:103b7c000b930a9308931f9804782300303bd9b217
:103b8c00092926d9059a29680bf0bcf9002832d0ee
:103b9c00002023008446089a0790059220221900e1
:103bac0091430a000021452a00d0a7e0059b0c9afe
:103bbc00034313438b4294d01f9b069301331f93f3
:103bcc00069b5b782b2b71d00c002d2b74d1012410
:103bdc006de00899082909dc0a9951435b180a938e
:103bec00089b0130013308931f90c4e70b99514394
:103bfc005b180b93f4e71f9a059b9446089a634451
:103c0c001f931b78002a49d11000302b28d01a00a2
:103c1c00313a082a46d8844600201f9a0590139200
:103c2c00303b421c002b0fd00a219444059a1018eb
:103c3c0082421bd1511c0591082a25dc0a220a99c3
:103c4c004a439b1800220a9310001f9b591c1f917a
:103c5c005b781a00303a092ae2d9012207929de7d3
:103c6c001f9b01305a1c1f925b78cee70132541e09
:103c7c00082c03dc0a9c4c430a94d9e7102ad7dca5
:103c8c000b9c4c430b94d3e7059900221029dbdce9
:103c9c000a210b9841435b180b93d5e7089a84468d
:103cac000592d6e7002294460592d6e70c00069bb7
:103cbc0002331f93069b9b781a00303a092a60d86e
:103ccc00302b43d01a00313a0021082a16d8303b49
:103cdc001f9d0e931f9b591c1f915b781a00303a45
:103cec00092a47d94a1b214d2900082a03dc0e99c1
:103cfc00a94200dd2900002c00d04942059a002a77
:103d0c0063d10c9a104300d0cbe6079a002a00d05e
:103d1c00e7e64e2b3ed038dc492b00d0e1e6144cc4
:103d2c001fa821000af07eff002800d1d9e61f9bb6
:103d3c00e11c013b1fa81f930af074ff002802d15d
:103d4c001f9b01331f93074f0026aae61f9b5a1c8b
:103d5c001f925b78b4e7c046d0f30000ffffefff83
:103d6c00330400000000f07fffffff7f1f4e0000b8
:103d7c0004f600000a220e994a43d218303a0e92e9
:103d8c00a8e7069a00211f92b8e7692bc7d06e2bc3
:103d9c0000d0a6e68b491fa809310af043ff002882
:103dac0000d19ee61f9b1b78282b0cd122aa86499a
:103dbc001fa807f095f9052805d1239b834a229e5d
:103dcc001a4317006de6824fbee76346cb1a079382
:103ddc00089b002b01d1059b0893059c102c00dd42
:103dec0010240a9809f000ff06000f00092c15ddbd
:103dfc002200784b093ad2009b181a685b6805f0d0
:103e0c0019f906000b980f0009f0eefe02000b00ea
:103e1c003000390003f04cf806000f00059b0f2b07
:103e2c0039dc079b002b00d13be626dd162b0bdc87
:103e3c006849db00c9183200086849683b0005f086
:103e4c00f9f806000f002ce62523059a9b1a079a11
:103e5c009a4220dc0f24059b5e4de41ae1006918a0
:103e6c003200086849683b0005f0e4f8079b1c1b0e
:103e7c00e4002c1922686368e1e7079b16330adb20
:103e8c00079b3000da00534b39009b1a1a685b68a9
:103e9c0003f098fdd5e7059b1c1b079be418002c31
:103eac006edd0f2323400ad04a49db00c9183200cb
:103ebc00086849683b0005f0bdf806000f000f23a9
:103ecc009c4348d02633ff339c4221dd00240594cb
:103edc000a94079422230026049a3c4f13600a9bf1
:103eec00b34200d1dde5209904980af085fc0799ce
:103efc0004980af081fc059904980af07dfc0a9953
:103f0c0004980af079fc210004980af075fcc8e5c5
:103f1c000023300039001d002411012c1edc002b65
:103f2c0001d006000f002c4bed00ff182b4b32007c
:103f3c005d19286869683b0005f07cf8234b0f007d
:103f4c000b40274906008b42c0d826498b4213d917
:103f5c000126254f76420023069373e0012214427a
:103f6c0007d01e4aeb009b181a685b6805f062f8d4
:103f7c00012301356410d0e7d4239b04ff18eae732
:103f8c00002ce8d00f23644223400ad0114adb00f6
:103f9c00d31830001a685b68390003f013fd060073
:103fac000f002411d7d01f2c20dd002405940a9477
:103fbc0007942223049a002613600a9b0027002be7
:103fcc0091d16ee504f60000e4f300000000f07ff0
:103fdc000000f8ffc0c500000000b0fc58ec000069
:103fec000000a07c0000907cffffef7f102323409b
:103ffc00069301d06a230693300039000023ca4d82
:10400c00002c00dd03e1002b01d006000f00069b05
:10401c00002b0fd06b237900490d3a005b1a002b53
:10402c0008dd1f2b00dc04e10026342b00dcf9e05a
:10403c00dc27bf04002200233000390009f00efbfe
:10404c000028b2d10a9b089a00931399059b0498f7
:10405c0009f0bcf90a90002800d137e7079b00242f
:10406c00da175b421a40079b1592db43079adb1762
:10407c001a40139205940a9b0498596809f076fc2f
:10408c000790002800d125e70a9b0a991b690c317f
:10409c009a1c92000c3008930bf0c4f922ab0193dc
:1040ac0021ab009332003b0004980e960f9708f05a
:1040bc00fbfb2090002800d10ce7012104980bf0a9
:1040cc00baf90590002800d104e7219b002b00daf7
:1040dc00b4e0159ad518139a94460699229a5b1a4d
:1040ec0036219b189148013b8a1a0121834200db3f
:1040fc00b0e0c01a121a1f2800dda4e08140002392
:10410c0014910c93ab1808931300069a6344d318bc
:10411c00089a0b932b00954200dd13000b9a9342e7
:10412c0000dd1300002b06dd089aed1ad21a089256
:10413c000b9ad21a0b92159b002b17d01a000599cb
:10414c00049808f0fbfc0590002800d1c2e60100a1
:10415c00209a049807f05bf81b90002800d1b9e670
:10416c00209904980af048fb1b9b2093089b002b7a
:10417c0073dc139b002b79d10b9b002b08dd1a00f1
:10418c000799049808f038fc0790002800d1a1e6a4
:10419c00002d08dd2a000599049808f02dfc0590e7
:1041ac00002800d196e6079a2099049808f09ef909
:1041bc00041e00d18ee60025c3680599c5600b93db
:1041cc000af033fba8425bda0b9bab421bd1ae422d
:1041dc0019d13b03ab4216d1d622554bd2043b40ee
:1041ec00934210d96369ab4202d12369012b0addda
:1041fc0021000122049808f0fffb059904000af045
:10420c0014fb00286cdc069b002b78d16be601229a
:10421c00144204d02a686b6804f00cff012364106c
:10422c000835ede60121203b494299400a40170030
:10423c0000e7012252429a401640fbe6139a159d64
:10424c00d21a944649e73b48c31a080098400c9090
:10425c00149157e700230c93fae7089a20990498d5
:10426c0008f0cafb2090002883d133e6139a0799f3
:10427c00049808f063fc0790002800d07ce729e63e
:10428c00002800d095e00b9a3b03002a24d02a4941
:10429c003a001b0b8b425ed1069b0138b4460100e1
:1042ac00002b0ad0d425224bed043b40ab4204d862
:1042bc006b211b0dcb1a0100994061454bd11f4b53
:1042cc009a4202d14b1c00d104e6194b00261a402d
:1042dc0080235b03d71896e7002b3cd1002e3ad1f4
:1042ec00069a134b002a2dd01a00d6213a40c90445
:1042fc008a4227dcdc239b049a4200dc59e6104bf3
:10430c0030001193002310933900109a119b04f084
:10431c0091fe06000f1e00d0e5e5002800d0e2e576
:10432c002223049a1360dee5e0eb000002fcffffa1
:10433c000000f07fe2fbffffffff0f00ffffef7fae
:10434c00000050390126a94a3b409b18a84a7642e6
:10435c001a43170057e70c9b002b13d03b4200d19c
:10436c0051e70b9b069a30003900002b0fd00af056
:10437c00bdfa02000b000e980f9902f099fd060091
:10438c000f0040e7149b334200d13ce7e9e70af009
:10439c00adfa02000b000e980f9902f0b1fa002250
:1043ac00002306000f0009f059f9002800d000e6a0
:1043bc0029e70599200009f0fbfd80230022db058d
:1043cc000890099109f05af9002875d00b9b002b25
:1043dc0043d00022874b0c920d93864b0893864b4f
:1043ec003b401493149a854b9a4200d0b1e00e9a3c
:1043fc000f9b10921193824b3000ff18390009f07b
:10440c004bfe02000b000c980d9904f013fe3200c9
:10441c003b0002f04dfd784a7a4b06000a409a4266
:10442c0062d9794b119a9a4203d1109a013200d178
:10443c0050e501261f007642209904980af0dcf919
:10444c00079904980af0d8f9059904980af0d4f958
:10445c00210004980af0d0f90de6002e1dd13b0383
:10446c0020d1089809990022624b09f0fdf8002828
:10447c001ed1089809990022644b04f0dbfd05005d
:10448c000891802212069446089b1c9563441d9348
:10449c001c9a1d9b0c920d93a1e7012e02d1002fab
:1044ac0000d186e500225a4b00250c920d9394e71f
:1044bc00564b0b9d0893e4e7544b0898099900223e
:1044cc0004f0b8fd0b9b05000891002b07d180234d
:1044dc001b06cb1816901793169a179bdae7020057
:1044ec00089b16921793f7e7d4239b04cf18069bcf
:1044fc00002ba1d1404b149a0c973b409a429bd174
:10450c000899280009f00afb09f086f90b00020053
:10451c000899280002f0f4f90b9b08900991002be4
:10452c0004d1002e02d10c9b1b0358d0089809997a
:10453c00384a394b09f098f8002800d0d3e4089891
:10454c000999364a314b09f0a3f8002800d173e7da
:10455c00c9e4069b002b2ad0d423149adb049a427c
:10456c0025d82f4a2f4b2800089909f087f80028e6
:10457c0016d0280008990af0bbf8002800d10120b9
:10458c0009f032fb0b9b05000891002b22d18023f4
:10459c001b06cb1818901993189a199b0c920d9313
:1045ac00d6220d9bd2049b18149a9b1a0d930e982d
:1045bc000f990c9e0d9f09f06ffd02000b0030004f
:1045cc00390004f037fd0e9a0f9b02f071fc0600c7
:1045dc000f008ce70200089b18921993dce70d4a38
:1045ec00114b0898099909f03ff8aee70000f0ff6d
:1045fc00ffff0f000000f03f0000f07f0000e07fa5
:10460c000000b0fcffff9f7cffffef7f0000e03f4e
:10461c000000f0bf9535a094ffffdf3f35e5af35c7
:0c462c000000c0ffffffdf41ffffcf3f99
:020000040000fa
:10463800f0b516001f00446a9db00490259d0696ab
:104648000797002c08d110200af0d2fe049b58626c
:10465800446084600460c460049b5b6a1968002934
:104668000bd05a68012393404a608b6004980af083
:10467800c5f80022049b5b6a1a60079b002b1cdab2
:1046880001232b607b005b080793079cba4b220031
:1046980019931a409a421cd1b84b249a1360069a6f
:1046a800b74b002a03d1240301d100f08cfd269ad0
:1046b800002a05d109330a9308e000232b60e4e7b8
:1046c8001a0009320a920c33269a13600a981db010
:1046d800f0bd069e079f002200233000390008f035
:1046e800bfff051e0ed00123249a1360a44b1a00a5
:1046f8000d320a92269a002ae8d01a0026990e321c
:104708000a60e3e71aab01931bab009332003b004e
:10471800049808f0cbf8630005905b0d00d17fe0aa
:104728003a03984c120b14432100974a300018950d
:104738009e180022954b02f0e5f8954a954b04f037
:104748007bfc954a954b02f0b5fb040030000d0048
:1047580009f064f8924a934b04f06efc02000b00d7
:104768002000290002f0a6fb04000d0009f0d8f98a
:104778000022039000232000290008f077ff00287a
:104788000ed0039809f04af80b0002002900200017
:1047980008f066ff030058425841039b1b1a039315
:1047a80001231693039b162b0fd87f49db00c918ea
:1047b80008684968069a079b08f06cff00284bd0e8
:1047c800039b013b0393002316931a9b9e1b002314
:1047d8000b933300013b0c9304d501239b1b0b93d4
:1047e80000230c93039b002b38db039a0c9b944605
:1047f80063440c9300230f920893229b0125092bf5
:1048080000d991e0052b02dd0025043b2293229b71
:10481800981e032800d991e00af0c2fd8284297607
:104828001a9b1b9a9e18614bf218202a0fdd203b19
:104838000698f318d84040239b1a9c40204309f05f
:10484800d5f901235a4c013e0919189371e7202321
:1048580006989b1a9840f2e71690b6e70b9b039ac6
:104868009b1a0b935342089300230f93c5e7012328
:104878000e93239b002b65dd1f000d93049a546a49
:104888000022626004221100143199425fd96168e4
:10489800049809f06df8049b20605b6a1b680a9312
:1048a8000e2f00d9fce0002d00d1f9e0069b079cf3
:1048b80014931594039b002b00dc7de01a000f2154
:1048c800394b0a40d2009b185c681b6810931194fe
:1048d800039b02241d11eb060ad5364b0d401a6abc
:1048e8005b6a1498159903f06ff8032406900791f2
:1048f800304e002d30d1109a119b0698079903f07d
:1049080063f80690079171e00123239a0e93944669
:10491800039b63445f1c0d933b1eafdc0123ade793
:104928000023a5e70023f0e700230e952293013b1f
:104938000d931f000022122323929fe701230e9359
:10494800023bf5e701230d931f001a00f4e76168a5
:1049580052000131616096e701231d4208d010988a
:104968001199e4183268736804f066fb109011918d
:104978006d100836bde7c0460000f07f0f27000025
:10498800e4f400000000f03f01fcffff0000f83fe6
:1049980061436f63a787d23fb3c8608b288ac63f3d
:1049a800fb799f501344d33fc0c500003204000078
:1049b800000010fe58ec0000039b0224002b15d0c9
:1049c800149815995d420f23c94a2b40db00d31870
:1049d8001a685b6804f030fb002306900791c54e07
:1049e8002d11002d00d08be0002b8ad1169b002bb7
:1049f80000d191e0069a079b109211931098119993
:104a08000022bd4b08f032fe002800d184e0002fc0
:104a180000d181e00d9b002b3edd10981199039b7e
:104a280000225e1eb54b04f007fb069007910d9d12
:104a38000134200008f0f2fe069a079b04f0fcfa05
:104a48000022af4b02f036fa12901391129b139c7e
:104a5800ac4a10931194139b9c181194002d5ed1ad
:104a6800069807990022a84b01f04cff109a2300e2
:104a78000690079108f00efe002800d000e3a34836
:104a88001399844661440b0006980799109a08f018
:104a9800edfd002800d0e7e2149b159c06930794cf
:104aa8001b9b002b00da56e1039a0e2a00dd52e127
:104ab8008f4bd2009b185c681b6808930994239b52
:104ac800002b00dbcee0002f00ddcbe000d0cee2f3
:104ad8000898099900228c4b04f0aefa069a079bb5
:104ae80008f0e2fd3e000897002800d0a3e20a9be8
:104af8000a9a5d1c31231370039b013303939ee2d2
:104b08000122154205d0a4183268736804f094fa9b
:104b180001236d10083664e7039e3d0089e70a9a71
:104b2800691e521917920e9a714bc900002a4ad071
:104b38005b181a685b680020754902f045ff109af7
:104b4800119b01f0dffe0a9b1090119112930698b9
:104b5800079908f0e5ff040008f060fe02000b006a
:104b68000698079901f0cefe129b30345d1c1c702c
:104b7800109a119b0690079108f078fd002865d1de
:104b8800069a079b00205c4901f0bcfe109a119b15
:104b980008f06cfd002800d0bde0179b9d4200d1b5
:104ba8007ae7109811990022544b04f045fa002234
:104bb8001090119106980799504b04f03dfa129500
:104bc80006900791c3e7591808684968109a119b1d
:104bd80004f032fa109011910a9c179d06980799d3
:104be80008f09eff129008f019fe02000b000698cc
:104bf800079901f087fe129b0690079130332370c6
:104c0800179b01340022a34224d1414b10981199db
:104c180002f050f902000b000698079908f03afdd7
:104c2800002800d077e0109a119b0020384901f045
:104c380069fe02000b000698079908f017fd002886
:104c480000d129e76b1e1a78302a01d003963fe07d
:104c58001d00f7e706980799284b04f0edf9069030
:104c68000791bbe70a9e089a099b0698079902f0e4
:104c7800abfe08f055ff040008f0d0fd089a099b28
:104c880004f0daf90b0002000698079901f03afee1
:104c98002300303333700a9b751ceb1a9f424bd1ab
:104ca80002000b0002f006f906000f0002000b00dc
:104cb8000898099908f0dafc00282bd10898099976
:104cc80032003b0008f0ccfc002801d0e30721d4d7
:104cd8000599049809f092fd00232b70039b249af0
:104ce80001331360269b002b00d1efe41d60ede437
:104cf800c0c5000058ec00000000f03f0000244050
:104d080000001c400000c0fc000014400000c07cf3
:104d18000000e03f039e6b1e1a78392a06d10a9ad2
:104d28009a4207d130231370130001361a780132e2
:104d38001a708be71d00eee70022cf4b04f07cf9d8
:104d480000220023069007912e0008f089fc002815
:104d580000d188e7bce70e9a002a00d187e0229aa2
:104d6800012a6edc189a002a67d0c44a9b18089d4d
:104d78000b9c0b9a0121d2180b920c9a0498d31809
:104d88000c930af05afb0600002c0edd0c9b002b3e
:104d98000bdd0c9a2300944200dd13000b9ae41af1
:104da800d21a0b920c9ad31a0c93089b002b1ed084
:104db8000e9b002b5fd0002d11dd31002a000498d6
:104dc80007f0befe059a01000600049806f021fad5
:104dd80005991090049809f011fd109b0593089b04
:104de8005a1b04d00599049807f0aafe05900121e2
:104df80004980af022fb0f9b0890002b3ddd1a0057
:104e08000100049807f09cfe229b08900025012bc6
:104e18003bdc0025069bab4233d1079b1b03ab420f
:104e28002fd1199b079a13422bd00b9b01250133d5
:104e38000b930c9b01330c9323e036231a9a9b1a8d
:104e480095e7089b7d1eab4206db5d1b002f0bda46
:104e58000b9bdc1b00238ce7089b0895ea1a0f9b29
:104e680000259b180f93f1e70b9c3b0081e7089df9
:104e78000b9c0e9e88e7089ab4e7229b0025012b1d
:104e8800c7dd0f9b0120002b0bd0089b089a1b69dc
:104e98000f9303339b00d318586809f07bfc202339
:104ea800181a0c9bc0181f23184000d1abe0202310
:104eb8001b1a042b00dc9be01c23181a0b9b2418dc
:104ec8001b180b930c9b1b180c930b9b002b05dddd
:104ed8001a000599049807f091fd05900c9b002b8a
:104ee80005dd1a000899049807f088fd0890169bbc
:104ef800002b00d189e00899059809f098fc002852
:104f080000db82e0039b0a22013b039305990023ff
:104f1800049808f0d3fb0e9b0590002b00d15be1b1
:104f2800002331000a22049808f0c8fb0d9b0600f4
:104f3800002b02dc229b022b6ddc002c05dd3100ee
:104f48002200049807f05afd06003000002d11d009
:104f58007168049808f00cfd3100040033690c31c5
:104f68009a1c92000c300af05ffa01222100049882
:104f780007f044fd0d9f0a9b013f0b93db19370097
:104f880006000f930899059806f00cfe39000d905d
:104f98000400059809f04bfc32000e90089904981b
:104fa80007f0a6fa01230c93c36830340500002be0
:104fb80004d10100059809f03afc0c9029000498e6
:104fc80009f01cfc0c9b229a134300d089e00123b2
:104fd800069a134200d084e0392c00d1a3e00e9b3e
:104fe800002b01dd0d9c31340b9b5d1c1c7027e0f0
:104ff800042b00d169e70b9a1c33d2180b920c9a38
:10500800e418d31860e70300f5e7002f3cdc229b87
:10501800022b39dd0d970d9b002b0cd10899052229
:10502800049808f04bfb08900100059809f0fffb75
:10503800002800dd5be5239b0a9ddb4303930027e3
:105048000899049809f0dafb002e00d140e6002ff9
:1050580005d0b74203d03900049809f0cffb3100de
:10506800049809f0cbfb33e608952e00e3e700230c
:1050780008931e00dfe7c046000024403304000008
:10508800039608952e0032e50e9b0d97002b00d055
:1050980053e70a9d0899059806f084fd0a9b30306d
:1050a8000d9a287001350400eb1a9a4278dc151e17
:1050b80000dc012500270a9b5d1905990122049847
:1050c80007f09cfc0899059009f0b1fb00282fdc3b
:1050d80001d1e3072cd46b1e1a78302ab0d11d00f9
:1050e800f9e70e9b002b07db1d00229b1d4326d1f1
:1050f8000123069a134222d10c9b002b00dc73e794
:1051080005990122049807f079fc0899059009f09f
:105118008efb002804dc00d066e7e30700d463e7d1
:10512800392c00d05ee70b9b0b9a5d1c392313705a
:105138006b1e1a78392a3bd001321a7080e70b9b14
:1051480001330d930c9b002b05dd392cebd00d9d05
:1051580001340b9b4ae70b9b0f9a0d9d1c709342e1
:10516800abd000230a220599049808f0a7fa002377
:1051780005900a2239000498b74206d108f09efa31
:10518800070006000d9b0b93fce608f097fa310028
:10519800070000230a22049808f090fa0600f1e7b5
:1051a80000230a220599049808f088fa059071e707
:1051b8000a9a9a4205d1039b013303933123137052
:1051c8003ee71d00b4e7269a0a930833002a01d067
:1051d800fff77afafff77afa0d9b002b00dd58e704
:0c51e800229b022b00dc54e715e7c046b8
:020000040000fa
:1051f400f0b5ce46474680b593b0042800d90de1fa
:105204008000ee4b1b589f46ed4d802292000021fa
:1052140028000af055f9eb4e0222310028000af06a
:1052240005f928000af072f92a00213a311d000418
:10523400000c2c00273c281809f0aef928000af0cd
:1052440065f9e14be35ce14aa25cfa21c9008c46b2
:105254006244310014310004000c27300019dc4f83
:10526400e75d0397db4fe75d0297db4fe75d01974f
:10527400da4fe75d009709f08ff928000af046f944
:105284000004000c2730001931003c3116220af0ca
:10529400cdf828000af03af90004000c2730001970
:1052a400310054310b220af0c1f828000af02ef91b
:1052b400310060310004000c27300019c84a09f09d
:1052c4006bf928000af022f9310074310004000c53
:1052d40027300019c34a09f05ff928000af016f9cb
:1052e400c14f3123fa5cc14e311d0004000c27303c
:1052f400001909f051f928000af008f93223fa5c80
:10530400310014310004000c2730001909f044f96d
:1053140028000af0fbf83323fa5c3100283100043a
:10532400000c2730001909f037f928000af0eef8cc
:10533400af4be318c5221201a21831003831000422
:10534400000c2730001909f027f928000af0def8cc
:105354000004000c2730001931004c310d220af0f2
:1053640065f828000af0d2f80004000c2730001970
:1053740008f006ff28000af0c9f80004000c2730e2
:10538400001907f07ff928000af0c0f80004000ca7
:105394002730001909f0e6f928000af0b7f80004ec
:1053a400000c2730001909f0d7fe28000af0aef8e7
:1053b4000004000c2730001909f0dafe28000af076
:1053c400a5f80004000c2730001909f0b1f92800f1
:1053d4000af09cf80004000c2730001909f038f991
:1053e40028000af093f80004000c2730001908f094
:1053f400ebfe28000af08af80004000c273000199c
:1054040008f006ff28000af081f80004000c273099
:10541400001931005c3107220af008f813b00cbc03
:1054240090469946f0bd664d8022920000212800e6
:105434000af046f8634b994602221900280009f045
:10544400f5ff28000af062f804003222002105a8c2
:105454000af036f8644b9846591c102205a809f046
:10546400e5ff624f390064312004000c2c00273c16
:10547400281805aa09f090f828000af047f8a21d98
:10548400390074310004000c2730001909f084f845
:1054940028000af03bf84c4be35c4c4aa25cfa212e
:1054a400c9008c466244494614310004000c27307c
:1054b4000019474ea65d0396464ea65d0296464edb
:1054c400a65d0196454ea65d009609f065f8280094
:1054d4000af01cf80004000c27300019454e311d59
:1054e400192209f0a3ff28000af010f80004000ca8
:1054f40027300019494654310b2209f097ff280040
:105504000af004f8494660310004000c2730001901
:10551400334a09f041f8280009f0f8ff494674318c
:105524000004000c273000192e4a09f035f8280031
:1055340009f0ecff31234246d25c391d0004000c13
:105544002730001909f028f8280009f0dfff32237a
:105554004246d25c390014310004000c2730001993
:1055640009f01af8280009f0d1ff33234246d25c2f
:10557400390028310004000c2730001909f00cf818
:10558400280009f0c3ff1a4be318c5221201a21820
:10559400310020310004000c2730001908f0fcff12
:1055a400280009f0b3ff0004000c27300019310073
:1055b4003431062209f03aff30e7c04690f2000089
:1055c4009b0000203c9a0000650c0000640c000065
:1055d400690c0000680c0000670c0000660c0000f9
:1055e400d4270020cc27002004000020bc9a00000f
:1055f4003c0c00003c9b0000c54d80229200002121
:10560400280009f05dff0222c249280009f00effbc
:10561400280009f07bff04003222002105a809f0cc
:105624004fffbd4e711c102205a809f0fffe200497
:10563400000c281805aab949643108f0adff280008
:1056440009f064ff81b23423f35c022b00d181e0c2
:10565400b34cb44be35cb44aa25cfa20c000844669
:10566400624427310819b149615c0391b049615c16
:105674000291b049615c0191af49615c0091a54917
:10568400143108f089ff2000273009f03fff34234c
:10569400a14ad35c012b6dd00004000c2730a04b31
:1056a400c0181b22a549583109f0c0fe984c2000af
:1056b40009f02cff0004000c2600273e20180b22c2
:1056c4009449543109f0b2fe200009f01fff924fb3
:1056d4003123fa5c914d291d0004000c27308019f8
:1056e40008f05aff200009f011ff3223fa5c290068
:1056f40014310004000c2730801908f04dff2000fd
:1057040009f004ff3323fa5c290028310004000c5b
:105714002730801908f040ff200009f0f7fe884b7d
:10572400f318c5221201b218844d29002031000457
:10573400000c2730801908f02fff200009f0e6fe46
:105744000004000c2730801929003431062209f0a6
:105754006dfe63e67b4a0004000c2730941f001999
:105764006e49743108f018ff2000273009f0cefe8e
:1057740081b26de70004000c2730694bc018192270
:105784006e493c3109f052fe90e7614d802292004f
:105794000021280009f094fe5e4f022239002800ff
:1057a40009f044fe280009f0b1fe04003222002171
:1057b40005a809f085fe584e711c102205a809f0b1
:1057c40035fe564b9846190064312004000c2c0019
:1057d400273c281805aa08f0dffe280009f096fee9
:1057e400a21d414674310004000c2730001908f052
:1057f400d3fe280009f08afe4a4be35c4a4aa25cc5
:10580400fa21c9008c466244390014310004000caa
:1058140027300019454fe75d0397454fe75d029731
:10582400444fe75d0197444fe45d009408f0b4fef3
:10583400280009f06bfe3523f35c012b5dd00004d6
:10584400000c2730364bc01819223f490c3109f09f
:10585400edfd2f4c200009f059fe0004000c260039
:10586400273e20180b222b49543109f0dffd20007c
:1058740009f04cfe284f3123fa5c284d291d000401
:10588400000c2730801908f087fe200009f03efe46
:105894003223fa5c290014310004000c27308019eb
:1058a40008f07afe200009f031fe3323fa5c290067
:1058b40028310004000c2730801908f06dfe200008
:1058c40009f024fe1e4bf318c5221201b2181b4d19
:1058d400290020310004000c2730801908f05cfef8
:1058e400200009f013fe0004000c27308019290061
:1058f4003431062209f09afd90e50004000c2730ab
:10590400074bc01817220d49743109f08ffda0e729
:105914009b0000203c9a000004000020bc9a000078
:1059240074000020650c0000640c0000690c000089
:10593400680c0000670c0000660c00003c9b000033
:105944003c0c00007a000020bc9b0000614d8022ca
:1059540092000021280009f0b3fd5f4f02223900b4
:10596400280009f063fd280009f0d0fd040032226c
:10597400002105a809f0a4fd584e711c102205a8a9
:1059840009f054fd564b9846190064312004000c6c
:105994002c00273c281805aa08f0fefd280009f071
:1059a400b5fda21d414674310004000c27300019d6
:1059b40008f0f2fd280009f0a9fd4a4be35c4a4acd
:1059c400a25cfa21c9008c466244390014310004f7
:1059d400000c27300019454fe75d0397444fe75dfe
:1059e4000297444fe75d0197434fe45d009408f04c
:1059f400d3fd280009f08afd3623f35c012b5dd02a
:105a04000004000c27303d4bc0181c223c49443193
:105a140009f00cfd2f4c200009f078fd0004000c67
:105a24002600273e20180b222b49543109f0fefc96
:105a3400200009f06bfd294f3123fa5c284d291d04
:105a44000004000c2730801908f0a6fd200009f09e
:105a54005dfd3223fa5c290014310004000c273068
:105a6400801908f099fd200009f050fd3323fa5cf9
:105a7400290028310004000c2730801908f08cfd1f
:105a8400200009f043fd1f4bf318c5221201b21880
:105a94001d4d290020310004000c2730801908f026
:105aa4007bfd200009f032fd0004000c2730801932
