:020000040000fa
:10000000f07f002025e400008fd500004fde0000c7
:1000100000000000000000000000000000000000e0
:10002000000000000000000000000000dfcb000026
:100030000000000000000000dfcb0000c5ee000063
:10004000dfcb0000dfcb0000dfcb0000dde30000f2
:10005000dfcb0000dfcb0000dfcb0000dfcb0000f8
:10006000dfcb000045a2000029a0000001aa00008b
:10007000dfcb0000000000000000000079880000d5
:1000800000000000dfcb0000dfcb0000dfcb000072
:10009000dfcb0000dfcb0000dfcb0000dfcb0000b8
:1000a000dfcb0000dfcb0000dfcb0000dfcb0000a8
:0c00b000dfcb0000dfcb0000dfcb000046
:020000040000fa
:1000bc00f8b5c046f8bc08bc9e4670479de20000ef
:1000cc00f8b5c046f8bc08bc9e46704775e2000007
:020000040000fa
:0800dc00ccc20000010000008d
:020000040000fa
:1000e400f0b5b44ca544b44b5b88b44a934201d1f7
:1000f40002f0d6f801d900f011fcb14a934201d1c3
:1001040001f094fc3dd9af4a934201d101f067fe5e
:1001140000d878e2ac4a934201d101f027ff00d91c
:10012400cae3043a934201d101f0bcfe00d999e339
:10013400023a934201d101f073fe01d901f091fe1c
:10014400a24c1522a249043120000ff00bfa200022
:100154000ff078fa010020000bf0acfb9d4a9e4b97
:100164001a80f932944b5a809c4b1a689c4b1a6043
:1001740020000ff067fa81b220000ff000fb01f0bd
:1001840070f8984a934201d101f00cfa00d947e182
:10019400fd3a934201d101f0d1f800d883e0924aac
:1001a400934201d101f0b4f900d9d9e0023a934263
:1001b40001d101f047f901d901f06ef9013a9342f6
:1001c40001d001f04ef889495c3189480ef016fce3
:1001d400002801d101f00cf90222864b1a70844cdc
:1001e40020000ff02ffa0200210083480ff0baf923
:1001f40080229200002120000ff0fef900227f4ba4
:100204001a607c4b1b78022b01d101f011f9794b58
:100214001b78032b01d101f010f9704b1b68784a4d
:1002240012689b1a774a934201d801f020f8624b76
:1002340075495a5c01325a5400225a806d4b1a7027
:1002440084ac6a4b6c33220023cb23c223cb23c25e
:1002540023cb23c220000ff0f5f981b220000ff068
:100264008efa6a4b1033220003cb03c21b8813801f
:10027400564920000ef0f2ff20000ff0e3f981b29e
:1002840020000ff07cfa5c4c20000ff0dbf981b207
:1002940020000ff074fa80229200002120000ff059
:1002a400abf900f0deff043a934201d100f0e3ff22
:1002b4002ad982225200934201d100f0fdff01d9d4
:1002c40001f01bf8414c0b224849243120000ff067
:1002d40049f920000ff0b6f9010020000bf0eafa0a
:1002e4000422ff324a4b1a80f932334b5a803b4b7b
:1002f4001a68434b1a6020000ff0a4f981b2200061
:100304000ff03dfa00f0adff023a934201d100f044
:1003140089ff0132934201d000f0a3ff2b4c072246
:100324003249083120000ff01df920000ff08af93e
:10033400010020000bf0befa0222ff32344b1a8077
:10034400fb321d4b5a80254b1a682d4b1a60200036
:100354000ff078f981b220000ff011fa00f081ff5c
:100364002c4a934201d101f0ddf801d901f0faf8e9
:10037400164c05221d4920000ff0f4f820000ff060
:1003840061f9010020000bf095fa80229200224bc3
:100394001a80fc32084b5a80104b1a681f4b1a60a3
:1003a40020000ff04ff981b220000ff0e8f900f0bf
:1003b40058ffc046ecfcffff740000200207000059
:1003c40003040000020600000a06000030110020a9
:1003d400cc5c0000030600006028002040280020b8
:1003e400f027002003020000ff0100004c5a000027
:1003f40030130020e40c0020301500202c280020ad
:100404000828002010270000310c0000cc5a0000fe
:100414006c28002001020000d2270020e0270020e1
:10042400ea4a934201d101f018fa00d883e0e84a7d
:10043400934201d101f0b2fa00d9bae0023a9342f0
:1004440001d101f052fa01d901f06dfa013a934257
:1004540001d000f006ffdf495c31df480ef0cefa30
:10046400002801d101f019fa0222dc4b1a70da4c8f
:1004740020000ff0e7f802002100d9480ff072f8cd
:1004840080229200002120000ff0b6f80022d54b04
:100494001a60d24b1b78022b01d101f01efacf4b0c
:1004a4001b78032b01d101f01cfacf4b1b68cf4af8
:1004b40012689b1ace4a934201d800f0d8fecd4b65
:1004c400cd495a5c01325a5400225a80c34b1a70e7
:1004d40084acca4b3033220023cb23c223cb23c2a8
:1004e40023cb23c220000ff0adf881b220000ff01f
:1004f40046f9c34b1033220003cb03c21b8813807d
:10050400c04920000ef0aafe20000ff09bf881b233
:1005140020000ff034f9b24c20000ff093f881b2b0
:1005240020000ff02cf980229200002120000ff00f
:1005340063f800f096fe043a934201d101f0e5f825
:1005440010d9c0229200934201d101f045f901d99a
:1005540001f063f9802292000021a1480ff04cf8c9
:1005640000f085fe023a934201d101f03bf80132da
:10057400934201d000f075fe994c20000ff062f810
:1005840081b220000ff0fbf88022920000212000ad
:100594000ff032f89c4b1b889c4a934201d101f026
:1005a400aff80133934a538000228c4b1a7000f049
:1005b40058fe974a934201d101f0f7f901d901f0ad
:1005c40014fa904c11228349103120000ef0caff16
:1005d40020000ff037f8010020000bf06bf98022a7
:1005e400d2008c4b1a80fc32824b5a807e4b1a68a4
:1005f400894b1a6020000ff025f881b220000ff01b
:10060400bef800f02efe043aff3a934201d101f005
:100614002ffb29d9814a934201d101f079fb00d9fa
:1006240004e1023a934201d101f02afb01d901f01d
:100634004bfb744c1e227a49503120000ef092ff7d
:1006440020000ef0ffff010020000bf033f9694a8f
:1006540053880133538020000ef0f4ff81b2200050
:100664000ff08df800f0fdfdf93a934201d101f04d
:100674001ffa00d87ee06b4a934201d101f063fa7d
:1006840001d901f0b9fa013a934201d000f0e9fd31
:1006940050495c3150480ef0b1f9002801d101f005
:1006a40028fa02224d4b1a704b4c20000ef0caff60
:1006b400020021004a480ef055ff802292000021da
:1006c40020000ef099ff0022464b1a60434b1b7822
:1006d400022b01d101f02dfa404b1b78032b01d1e1
:1006e40001f02cfa404b1b684b4a12689b1a404a93
:1006f400934201d800f0bbfd3e4b3f495a5c0132a6
:100704005a5400225a80354b1a7084ac444b14332b
:10071400220023cb23c223cb23c2196811609b88f8
:10072400938020000ef08eff81b220000ff027f896
:10073400334b1033220003cb03c21b88138031498f
:1007440020000ef08bfd20000ef07cff81b2200013
:100754000ff015f8224c20000ef074ff81b2200037
:100764000ff00df880229200002120000ef044ffcb
:1007740000f077fd023a934201d101f078f9013299
:10078400934201d000f06dfd1e4c10221b497431c0
:1007940020000ef0e7fe20000ef054ff01002000c0
:1007a4000bf088f8204a1b4b1a80f732114b5a8001
:1007b4000d4b1a68184b1a6020000ef043ff81b2eb
:1007c40020000ef0dcff00f04cfdc04602030000e8
:1007d400ff0300004c5a000030130020e40c0020fa
:1007e400301500202c28002040280020fc27002061
:1007f4008813000074000020310c00004c5b0000e2
:10080400cc5a000030110020d2270020030200003f
:10081400010400006a2800200428002003050000c9
:10082400cc5b0000fd04000005040000c022d200df
:10083400934201d101f08ffa01d901f0aefa023ae4
:10084400934201d000f00dfdd94b1b78012b01d050
:1008540000f00dfd0022d64b1a70d64ad64b5a80b2
:1008640000f005fdc122d200934201d101f03bfb0f
:1008740001d901f05afbd14c2622d1496031200024
:100884000ef070fe20000ef0ddfe010020000bf0e3
:1008940011f8cc4acc4b1a80f532c74b5a80cb4b5b
:1008a4001a68cb4b1a6020000ef0ccfe81b22000f7
:1008b4000ef065ff00f0d5fcc64a934201d101f069
:1008c4006dfc1ad8023a934201d101f09ffb01d981
:1008d40001f033fc013a934201d000f0c2fcb44b66
:1008e4001b78012b01d000f0c2fc0022b04b1a701f
:1008f400b94ab14b5a8000f0bafce022d2009342cc
:1009040001d101f08dfc01d901f0a6fc80229200f6
:100914000021b2480ef070fe00f0a9fcb04a9342e8
:1009240001d102f07df83fd9ae4a934201d102f0e1
:10093400e6fa00d814e2ac4a934201d102f0f5fb86
:1009440001d900f00dfcfa3a934201d102f024fbe4
:1009540000d959e3023a934201d102f0dbfa01d9fa
:1009640002f0f9fa954c0d22a049443120000ef012
:10097400f9fd20000ef066fe010020000af09aff47
:10098400b02212019a4b1a80fc328b4b5a808f4b47
:100994001a68984b1a6020000ef054fe81b22000b1
:1009a4000ef0edfe00f05dfc093aff3a934201d1ee
:1009b40001f001fe00d9c9e0f43aff3a934201d1b3
:1009c40001f050fd36d98c4a934201d101f0b6fdb5
:1009d40000d98ce0f33a934201d101f08bfd01d2ae
:1009e40001f064fd0132934201d000f03afc704bf7
:1009f4001b78012b01d000f03afc00226c4b1a70da
:100a04006e4c0e227d49343120000ef0abfd2000e7
:100a14000ef018fe010020000af04cff764a664be7
:100a24005a8020000ef00efe81b220000ef0a7fec8
:100a340000f017fc043a934201d101f079fc2bd960
:100a44006f4a934201d101f097fc01d901f0e6fc11
:100a5400574b1b78012b01d000f009fc0022544baa
:100a64001a70564c0f2256492c3120000ef07afd94
:100a740020000ef0e7fd010020000af01bff4e4aa3
:100a840053880133538020000ef0dcfd81b2200036
:100a94000ef075fe00f0e5fb023a934201d101f03d
:100aa40023fc0132934200d0dbe3414b1b78012b42
:100ab40000d0dce300223e4b1a70404c1e22514908
:100ac400083120000ef04efd20000ef0bbfd0100a9
:100ad40020000af0effe384a538801335380200087
:100ae4000ef0b0fd81b220000ef049feb9e3464a93
:100af400934201d101f030fdfa32934201d101f069
:100b04004cfdfb3a934200d0abe32c4c0f223d4901
:100b1400783120000ef026fd20000ef093fd010038
:100b240020000af0c7fe80221201384b1a80fc32e2
:100b3400214b5a80254b1a68354b1a6020000ef061
:100b440081fd81b220000ef01afe8ae3314a9342fd
:100b540001d101f065fe63d9a0221201934201d1b3
:100b640001f03cff00d9d3e0023a934201d101f0f5
:100b7400effe01d901f02aff184c20000ef062fdaf
:100b840081b220000ef0fbfd8022920000212000a3
:100b94000ef032fd204b1b88204a934201d101f014
:100ba400d2fe0133044a53800022014b1a7058e3e9
:100bb400e40c0020ff050000740000203011002028
:100bc400cc5c0000070600006028002040280020bc
:100bd400f0270020fe060000ff060000301500206c
:100be400040a0000ff0a0000fd0b00004c60000036
:100bf4005c280020e8270020fe0700004c5d000070
:100c0400070700004c5e0000010800006228002075
:100c1400f4270020fc090000da2700200109000065
:100c2400fd3a934201d101f07afd2bd9d74a934280
:100c340001d101f09efd01d201f079fd0132934210
:100c440000d00ee3d24c0e22d249503120000ef0d7
:100c540089fc20000ef0f6fc010020000af02afeb8
:100c6400cd4ace4b1a80fa32cd4b5a80cd4b1a68fe
:100c7400cd4b1a6020000ef0e5fc81b220000ef08e
:100c84007efdeee2023a934201d101f029fd0132e8
:100c9400934200d0e5e2c24bc4495a5c01325a5433
:100ca40000225a80c24b1a7084acc24b44332200d7
:100cb40023cb23c223cb23c223cb23c21b781370a1
:100cc40020000ef0bffc81b220000ef058fdb14ba5
:100cd4001033220003cb03c21b881380ac492000cd
:100ce4000ef0bcfa20000ef0adfc81b220000ef034
:100cf40046fdb14c20000ef0a5fc81b220000ef0a0
:100d04003efd80229200002120000ef075fca8e236
:100d1400aa4a934201d101f049ff01d901f0a4ff8d
:100d24009b4c0f22a649043120000ef01bfc20002e
:100d34000ef088fc010020000af0bcfda14aa24b81
:100d44001a80fb32964b5a80964b1a689f4b1a6056
:100d540020000ef077fc81b220000ef010fd80e23e
:100d6400f43a934201d101f000ff3bd9984a9342ef
:100d740001d102f01cf800d98be0023a934201d170
:100d840001f093ff01d901f0ccff814c0e2291496f
:100d9400343120000ef0e6fb20000ef053fc01007d
:100da40020000af087fd8c4a874b1a80f0327c4b76
:100db4005a807c4b1a68854b1a6020000ef042fc66
:100dc40081b220000ef0dbfc0ef056fb83480df0e0
:100dd4003ffc0ef051fbfa20c0000df039fc0ef080
:100de4004bfb3ee2043a934201d101f09dfe27d928
:100df4007b4a934201d101f034fe01d901f052fe45
:100e0400634c192277497c3120000ef0abfb2000a3
:100e14000ef018fc010020000af04cfd724a6a4be7
:100e24001a80f4325e4b5a805e4b1a68674b1a6024
:100e340020000ef007fc81b220000ef0a0fc10e2ae
:100e4400023a934201d101f04efe0132934200d0a6
:100e540007e24f4c19226349443120000ef082fb13
:100e640020000ef0effb010020000af023fd5f4a92
:100e7400554b1a80f6324a4b5a804a4b1a68534be8
:100e84001a6020000ef0defb81b220000ef077fc29
:100e9400e7e1574a934201d101f0d4ff01d901f0af
:100ea400f0ff013a934200d0dbe152495c315248f1
:100eb4000df0a4fd002801d101f09aff02223c4b61
:100ec4001a704d4c20000ef0bdfb020021003a4880
:100ed4000ef048fb80229200002120000ef08cfbd3
:100ee4000022464b1a60324b1b78022b01d101f0d1
:100ef4009fff2f4b1b78032b01d101f09eff294b41
:100f04001b68324a12689b1a3d4a934200d8aee1ec
:100f1400234b26495a5c01325a5400225a80244bee
:100f24001a7084ac374b6833220023cb23c223cb03
:100f340023c223cb23c223cb23c220000ef082fb87
:100f440081b220000ef01bfc124b1033220003cba5
:100f540003c21b8813800e4920000ef07ff9200085
:100f64000ef070fb81b220000ef009fc124c200040
:100f74000ef068fb81b220000ef001fc802292008a
:100f8400002120000ef038fb6be1c046010900008f
:100f940030110020cc5a000002090000da2700209a
:100fa4007400002040280020e4270020310c0000b9
:100fb400e40c0020cc5e000030150020020a000082
:100fc400cc5b0000010a00005e280020ec27002012
:100fd4000f0a00004c5d00000c0a0000b80b000072
:100fe400090a00004c5f0000080a0000060a00001d
:100ff400fd0a00004c5a0000301300202c28002069
:10100400204e0000cc5f0000dd4a934201d102f083
:1010140041f801d201f0e1fff732934200d020e120
:10102400d8495c31d8480df0e9fc002801d102f020
:1010340052f80222d54b1a70d34c20000ef002fb5a
:101044000200d34d210028000ef08cfa8022920079
:10105400002120000ef0d0fa0022ce4b1a60ce49b7
:10106400143128000df0cafc041e29d008300ef0fb
:101074005dfbca4dca4be85420000b300ef056fb02
:10108400c84be85420000e300ef050fbc64be85419
:10109400200011300ef04afbc44be85420001430f9
:1010a4000ef044fbc24be854200017300ef03efb18
:1010b400c04be854053be8180af0f0fabe4be85080
:1010c400b24b1b78022b01d102f025f8af4b1b78f1
:1010d400032b01d102f024f8b84b1b68b84a1268fc
:1010e4009b1ab84a934200d8bbe0ac4bb6495a5c51
:1010f40001325a5400225a80a44b1a7084aca64b75
:101104002033220023cb23c223cb23c21b781370aa
:1011140020000ef097fa81b220000ef030fbab4baa
:101124001033220003cb03c21b881380a84920007c
:101134000ef094f820000ef085fa81b220000ef033
:101144001efb934c20000ef07dfa81b220000ef0bd
:1011540016fb80229200002120000ef04dfa80e060
:101164009c4a934201d102f0f7f84bd8fd3a9342de
:1011740001d102f0e1f801d202f0a2f80132934267
:101184006fd1934c80229200002120000ef034fa9b
:10119400914e31000c311f2220000ef0e3f92000a3
:1011a4000ef050fa00197d4da91d20220ef0daf937
:1011b4003300f26a0492328e2c3304a98a809b791c
:1011c4008b7120000ef04af82900273120000ef020
:1011d40045f820000ef036fa010020000af06afb00
:1011e400c02212017d4b1a807a4b6b80734b1a68b4
:1011f4007b4b1a6020000ef025fa81b220000ef01d
:10120400befa2ee0774a934201d102f093f901d25b
:1012140002f06cf90132934223d100225b4b1a7025
:1012240002f093f86a4c0522564920000ef09af910
:1012340020000ef007fa010020000af03bfb802298
:101244005200694b1a80fc32544b5a805b4b1a682b
:10125400664b1a6020000ef0f5f981b220000ef002
:101264008efa4e4b1b78022b01d102f0a4f9c52350
:101274009b009d44f0bd564c112242491031200080
:101284000ef070f920000ef0ddf9010020000af0e4
:1012940011fb81225200544b1a80fa323f4b5a8080
:1012a400464b1a68514b1a6020000ef0cbf981b2fc
:1012b40020000ef064fad4e7454c0b22314930315a
:1012c40020000ef04ff920000ef0bcf901002000c0
:1012d4000af0f0fa82225200434b1a80f8322f4b64
:1012e4005a80364b1a68414b1a6020000ef0aaf956
:1012f40081b220000ef043fab3e7354c09222149ac
:101304003c3120000ef02ef920000ef09bf9010074
:1013140020000af0cffa0622ff32334b1a80f7324c
:101324001e4b5a80254b1a68304b1a6020000ef071
:1013340089f981b220000ef022fa92e7244c12229d
:101344001049483120000ef00df920000ef07af912
:10135400010020000af0aefa83225200224b1a80c8
:10136400f6320e4b5a80154b1a68204b1a60200037
:101374000ef068f981b220000ef001fa71e7c04660
:10138400050b00004c5a000030130020e40c002030
:10139400301500202c280020cc60000074000020b0
:1013a400640c0000650c0000660c0000670c000073
:1013b400680c0000690c00006c0c00004028002040
:1013c400e827002088130000310c0000cc5a0000ec
:1013d40030110020fc0c00004c6100006428002047
:1013e400f8270020fe0c00006c28002008280020ac
:1013f400e3496431e3480df001fb002801d1fef715
:1014040000ff0322e04b1a70de4c20000ef01af9a4
:1014140002002100dd480ef0a5f880229200002190
:1014240020000ef0e9f80022d94b1a60fef7e9fe1d
:10143400fe22ff32d74b5a8019e7ff225200d54bc8
:101444005a8014e7d14c20000ef0fcf881b2200041
:101454000ef095f9d04b1b888322520093420cd096
:101464000133cc4a5380802292000021c7480ef0f9
:10147400c3f80022c44b1a70f3e6c8491c31c348b0
:101484000df0bcfa0100c34ca01d053120220ef062
:1014940069f8c34b6380e6e7be4bc2495a5c01322c
:1014a4005a5400225a80b84b1a7084acbb4d2b009e
:1014b4002433220043cb43c243cb43c203cb03c2f6
:1014c40020000ef0bff881b220000ef058f92b0076
:1014d4001033220003cb03c21b881380b2492000bf
:1014e4000df0bcfe20000ef0adf881b220000ef02d
:1014f40046f9a64c20000ef0a5f881b220000ef0ab
:101504003ef980229200002120000ef075f8a8e632
:101514008022920000219d480ef06ef800229a4b22
:101524001a70a4e6a04c0c229c49443120000ef011
:1015340019f820000ef086f8010020000af0baf92c
:101544009a4a9b4b1a80fb32924b5a80994b1a68e9
:10155400994b1a6020000ef075f881b220000ef04d
:101564000ef97ee6904c0e228c49503120000df08d
:10157400f9ff20000ef066f8010020000af09af945
:101584008e4a8b4b1a80fa32824b5a80894b1a68e6
:10159400894b1a6020000ef055f881b220000ef03d
:1015a400eef85ee6804c0b227c49603120000df0a1
:1015b400d9ff20000ef046f8010020000af07af965
:1015c4007f4a7b4b1a80f932724b5a80794b1a68e6
:1015d400794b1a6020000ef035f881b220000ef02d
:1015e400cef83ee666495c3166480df007fa0028fd
:1015f40061d00222644b1a70624c20000ef022f873
:101604000200210061480df0adff8022920000210c
:1016140020000df0f1ff00225d4b1a605a4b1b783d
:10162400022b65d0584b1b78032b65d0614b1b688c
:10163400614a12689b1a634a934200d817e6554bd5
:1016440058495a5c01325a5400225a804e4b1a703f
:1016540084ac524d2b006c33220043cb43c243cbaa
:1016640043c243cb43c220000df0ecff81b2200003
:101674000ef085f82b001033220003cb03c21b8825
:101684001380494920000df0e9fd20000df0daff38
:1016940081b220000ef073f83c4c20000df0d2ff14
:1016a40081b220000ef06bf880229200002120000d
:1016b4000df0a2ffd5e53249643132480df09ef9b0
:1016c4000028abd00322304b1a702e4c20000df0b2
:1016d400b9ff020021002d480df044ff8022920042
:1016e400002120000df088ff0022294b1a6095e7a5
:1016f400354a284b5a80bae5344a264b5a80b6e517
:10170400334a244b5a80fef74fff224b25495a5c3b
:1017140001325a5400225a801b4b1a7084ac2d4b50
:101724001033220023cb23c223cb23c203cb03c217
:1017340020000df087ff81b220000ef020f8174b37
:101744001033220003cb03c21b88138016492000e8
:101754000df084fd20000df075ff81b220000ef025
:101764000ef80a4c20000df06dff81b220000ef03f
:1017740006f880229200002120000df03dff70e564
:101784004c5a000030130020e40c002030150020d7
:101794002c280020740000206c280020cc5a000063
:1017a400ff010000310c0000301100200102000094
:1017b400d227002040280020e02700200202000059
:1017c4000302000088130000fd020000fe02000076
:1017d400ff0200004c5b0000ea4c0b22ea49303166
:1017e40020000df0bffe20000df02cff01002000b2
:1017f4000af060f8c0229200e44b1a80fc32e44bf9
:101804005a80e44b1a68e44b1a6020000df01aff6a
:1018140081b220000df0b3ff23e5da4c0922da4946
:101824003c3120000df09efe20000df00bff010066
:1018340020000af03ff8d94ad44b1a80fb32d44b2b
:101844005a80d44b1a68d44b1a6020000df0fafe6b
:1018540081b220000df093ff03e5ca4c0c22d0495d
:10186400443120000df07efe20000df0ebfe01005f
:1018740020000af01ff8cb4ac44b1a80fa32c44b3a
:101884005a80c44b1a68c44b1a6020000df0dafe6b
:1018940081b220000df073ffe3e4bb496431c24818
:1018a4000df0acf8002801d1fef7f3fd0322bf4b85
:1018b4001a70bd4c20000df0c5fe02002100bc488a
:1018c4000df050fe80229200002120000df094fec5
:1018d4000022b84b1a60fef7dcfdb74aac4b5a80c5
:1018e400c5e4b64aaa4b5a80c1e4b14c20000df0bd
:1018f400a9fe81b220000df042ff80229200002157
:1019040020000df079fea14b1b88a64a934206d015
:1019140001339f4a53800022a44b1a70a1e4a84ac1
:101924009b4b5a80f7e79a4ba6495a5c01325a54aa
:1019340000225a809d4b1a7084aca34b543322006e
:1019440023cb23c223cb23c203cb03c220000df03d
:1019540079fe81b220000df012ff914b103322006a
:1019640003cb03c21b881380864920000df076fc4c
:1019740020000df067fe81b220000df000ff8c4cba
:1019840020000df05ffe81b220000df0f8fe8022f1
:101994009200002120000df02ffe62e480229200cc
:1019a400002183480df028fe61e4764c0b22764931
:1019b400243120000df0d6fd20000df043fe01007f
:1019c400200009f077ff814a814b1a80fb32704b6b
:1019d4005a80704b1a687f4b1a6020000df032fe5b
:1019e40081b220000df0cbfe3be4664c0b2266492d
:1019f400303120000df0b6fd20000df023fe010073
:101a0400200009f057ff744a714b1a80fa32604b78
:101a14005a80604b1a686f4b1a6020000df012fe5a
:101a240081b220000df0abfefff71bfc554c0922e0
:101a340055493c3120000df095fd20000df002fecb
:101a44000100200009f036ff644a614b1a80f93224
:101a54004f4b5a804f4b1a685e4b1a6020000df0b2
:101a6400f1fd81b220000df08afefff7fafb454c30
:101a74000c224b49443120000df074fd20000df080
:101a8400e1fd0100200009f015ff554a504b1a8072
:101a9400f8323f4b5a803f4b1a684e4b1a60200075
:101aa4000df0d0fd81b220000df069fefff7d9fbe7
:101ab400344c0f224b49043120000df053fd20001b
:101ac4000df0c0fd0100200009f0f4fe464a404b31
:101ad4001a80f6322e4b5a802e4b1a683d4b1a60f0
:101ae40020000df0affd81b220000df048fefff79d
:101af400b8fb254964312c480cf080ff002801d143
:101b0400fef7e4fd0322294b1a70274c20000df048
:101b140099fd0200210026480df024fd8022920048
:101b2400002120000df068fd0022224b1a60fef710
:101b3400cdfd2e4a164b5a80fff799fb2c4a144bc5
:101b44005a80fff794fb1a4c20000df07bfd81b204
:101b540020000df014fe80229200002120000df0e0
:101b64004bfd1b4b1b88204a934207d00133084a84
:101b7400538000220d4b1a70fff773fb1d4a044b70
:101b84005a80f6e7301100204c5a000066280020e5
:101b94007400002040280020fc27002001030000de
:101ba400cc5a00000203000030130020e40c002093
:101bb400301500202c280020fd030000fe03000047
:101bc400ff030000310c00004c5b00000104000026
:101bd4006a280020042800200204000003040000f6
:101be40004040000cc5b000006040000fd040000b7
:101bf400fe040000ff040000ed4bee495a5c013284
:101c04005a5400225a80ec4b1a7084aceb4b343398
:101c1400220023cb23c223cb23c21b8813802000a2
:101c24000df010fd81b220000df0a9fde44b10333e
:101c3400220003cb03c21b881380e24920000df06d
:101c44000dfb20000df0fefc81b220000df097fd8d
:101c5400dd4c20000df0f6fc81b220000df08ffd6c
:101c640080229200002120000df0c6fcfff7f9fa53
:101c7400802292000021d4480df0befcfff7f7fa51
:101c8400cd4b1b78012b01d0fff7f1fa0022ca4b90
:101c94001a70cc4c1e22c949703120000df062fc30
:101ca40020000df0cffc0100200009f003fec04a23
:101cb40053880133538020000df0c4fc81b220000e
:101cc4000df05dfdfff7cdfabb4b1b78012b01d066
:101cd400fff7cdfa0022b84b1a70ba4c1e22bb494a
:101ce400103120000df03efc20000df0abfc010093
:101cf400200009f0dffdae4a5388013353802000f1
:101d04000df0a0fc81b220000df039fdfff7a9fa17
:101d1400a94b1b78012b01d0fff7a9fa0022a64b8f
:101d24001a70a84c0f22a949303120000df01afc7a
:101d340020000df087fc0100200009f0bbfda44a3f
:101d44009b4b5a8020000df07dfc81b220000df0e9
:101d540016fdfff786fa9b4c12229e49483120005b
:101d64000df000fc20000df06dfc0100200009f0d6
:101d7400a1fdc022d200984b1a80fc328c4b5a80b1
:101d8400964b1a68964b1a6020000df05bfc81b2ea
:101d940020000df0f4fcfff764fa924d894c2a0000
:101da4008a49403120000cf093fc20000df04afcdd
:101db4000100200009f07efd8b4a874b1a80063d06
:101dc4008a4b6b80854b1a68854b1a6020000df096
:101dd40039fc81b220000df0d2fcfff742fa794cb5
:101de4002e227a49543120000df0bcfb20000df066
:101df40029fc0100200009f05dfd7d4a764b1a8024
:101e0400fa326b4b5a80754b1a68754b1a60200076
:101e14000df018fc81b220000df0b1fcfff721fa9f
:101e2400684c0f2273491c3120000df09bfb2000ed
:101e34000df008fc0100200009f03cfd6e4a664be1
:101e44001a80f8325a4b5a80644b1a68644b1a60f1
:101e540020000df0f7fb81b220000df090fcfff79d
:101e640000fa584c0f2263492c3120000df07afb04
:101e740020000df0e7fb0100200009f01bfd5f4a84
:101e8400554b1a80f7324a4b5a80544b1a68544bbc
:101e94001a6020000df0d6fb81b220000df06ffc1b
:101ea400fff7dff9474c212252493c3120000df065
:101eb40059fb20000df0c6fb0100200009f0fafcdc
:101ec4004f4a454b1a80f632394b5a80434b1a68b5
:101ed400434b1a6020000df0b5fb81b220000df0d9
:101ee4004efcfff7bef9374c162246490831200054
:101ef4000df038fb20000df0a5fb0100200009f0d7
:101f0400d9fcc122d200344b1a80f432284b5a80b7
:101f1400324b1a68324b1a6020000df093fb81b2e9
:101f240020000df02cfcfff79cf9264c12223549b9
:101f3400203120000df016fb20000df083fb010082
:101f4400200009f0b7fc304a234b1a80f332184bb7
:101f54005a80224b1a68224b1a6020000df072fb43
:101f640081b220000df00bfcfff77bf9154c0e221b
:101f74002449343120000df0f5fa20000df062fb05
:101f84000100200009f096fc174a134b1a80fb321b
:101f9400074b5a80114b1a68114b1a6020000df040
:101fa40051fb81b220000df0eafbfff75af9c0465d
:101fb40074000020310c0000e40c0020cc5b000015
:101fc400cc5a000030110020301500204c5c000079
:101fd400fe0500004c5a0000602800204028002024
:101fe400f02700207a00002001060000fc06000013
:101ff40002060000cc5c0000040600000506000098
:10200400060600004c5d000009060000ec495c3146
:10201400ec480cf0f3fc002868d00222ea4b1a705a
:10202400e84c20000df00efb02002100e7480df003
:1020340099fa80229200002120000df0ddfa00229e
:10204400e34b1a60e04b1b78022b6cd0de4b1b7801
:10205400032b6dd0df4b1b68df4a12689b1adf4ae3
:10206400934201d8fff703f9dd4bde495a5c013294
:102074005a5400225a80d44b1a7084acda4b44333d
:10208400220023cb23c223cb23c223cb23c203cbe3
:1020940003c2198811809b78937020000df0d2fa46
:1020a40081b220000df06bfbd04b1033220003cb28
:1020b40003c21b881380ce4920000df0cff8200006
:1020c4000df0c0fa81b220000df059fbbf4c200086
:1020d4000df0b8fa81b220000df051fb802292007d
:1020e400002120000df088fafff7bbf8b4496431f1
:1020f400b4480cf083fc0028a4d00322b24b1a701d
:10210400b04c20000df09efa02002100af480df003
:1021140029fa80229200002120000df06dfa00229d
:10212400ab4b1a608ee7b34aad4b5a80fff79ff86a
:10213400b14aab4b5a80fff79af8c023db00af4a91
:1021440012889a421ad0a14c20000df07bfa81b279
:1021540020000df014fb80229200002120000df0dd
:102164004bfaa64b1b88a64a934213d001339c4ad0
:1021740053800022944b1a70fff773f89b491c316b
:1021840092480cf03bfc411d2022954806300df08e
:10219400e9f9d8e79b4a924b5a80eae7904b914978
:1021a4005a5c01325a5400225a80874b1a7084ac0c
:1021b4008d4b7433220023cb23c223cb23c223cbe6
:1021c40023c219681160998891809b7993712000ca
:1021d4000df038fa81b220000df0d1fa834b1033a0
:1021e400220003cb03c21b881380814920000df019
:1021f40035f820000df026fa81b220000df0bffa68
:10220400724c20000df01efa81b220000df0b7fad6
:1022140080229200002120000df0eef9fff721f852
:10222400794d734c2a007949403120000cf050fa62
:1022340020000df007fa0100200009f03bfb063de9
:102244006b8801336b8020000df0fcf981b2200013
:102254000df095fafff705f85b4b1b78012b01d0c5
:10226400fff705f80022584b1a70614c1222684996
:10227400203120000df076f920000df0e3f9010083
:10228400200009f017fb564a53880133538020007d
:102294000df0d8f981b220000df071fafef7e1ffdc
:1022a400494b1b78012b01d0fef7e1ff0022464b7e
:1022b4001a704f4c2e225649343120000df052f939
:1022c40020000df0bff90100200009f0f3fa444aa0
:1022d40053880233538020000df0b4f981b22000fa
:1022e4000df04dfafef7bdff374b1b78012b01d0e3
:1022f400fef7bdff0022344b1a703d4c24224449a2
:10230400643120000df02ef920000df09bf901003e
:10231400200009f0cffa324a538801335380200059
:102324000df090f981b220000df029fafef799ff23
:10233400254b1b78012b01d0fef799ff0022224b7d
:102344001a702b4c0f2233491c3120000df00af96e
:1023540020000df077f90100200009f0abfa204ac3
:1023640053880133538020000df06cf981b22000b2
:102374000df005fafef775ff134b1b78012b01d006
:10238400fef775ff0022104b1a70194c3d222249aa
:10239400283120000df0e6f820000df053f901007b
:1023a400200009f087fa0e4a538801335380200035
:1023b4000df048f981b220000df0e1f9fef751ff6c
:1023c4004c5a000030130020e40c0020301500208b
:1023d4002c28002040280020f0270020881300002b
:1023e40074000020310c00004c5d0000cc5a000049
:1023f40030110020fd060000fe06000060280020c9
:1024040009060000ff0600007a0000204c5c000072
:10241400cc5d0000cc5c00004c5e0000e54b1b78fa
:10242400012b01d0fef723ff0022e24b1a70e24c8d
:102434002622e249603120000df094f820000df0ce
:1024440001f90100200009f035fadd4a538801330f
:10245400538020000df0f6f881b220000df08ff9c2
:10246400fef7fffed34b1b78012b01d0fef7fffed6
:102474000022d04b1a70d04c1622d24908312000c9
:102484000df070f820000df0ddf80100200009f0d7
:1024940011facb4a53880133538020000df0d2f84f
:1024a40081b220000df06bf9fef7dbfec14b1b7807
:1024b400012b01d0fef7dbfe0022be4b1a70be4c8e
:1024c4001022c149683120000df04cf820000df0b5
:1024d400b9f80100200009f0edf9b94a5388013335
:1024e400538020000df0aef881b220000df047f9c2
:1024f400fef7b7feaf4b1b78012b01d0fef7b7fefa
:102504000022ac4b1a70ac4c0f22af49783120003a
:102514000df028f820000df095f80100200009f0d6
:10252400c9f9a74a53880133538020000df08af873
:1025340081b220000df023f9fef793fe9d4b1b782a
:10254400012b01d0fef793fe00229a4b1a709f4a8a
:102554009b4b5a80fef78bfe974c0f229c49083107
:1025640020000cf0ffff20000df06cf801002000ab
:1025740009f0a0f9974a984b1a80fb32904b5a8085
:10258400964b1a68964b1a6020000df05bf881b2e6
:1025940020000df0f4f8fef764fe864b1b78012b47
:1025a40001d0fef764fe0022824b1a708d4a844be0
:1025b4005a80fef75cfe8c495c318c480cf01efaa4
:1025c400002866d002227b4b1a70884c20000df044
:1025d40039f80200210086480cf0c4ff80229200e2
:1025e400002120000df008f80022824b1a60714b84
:1025f4001b78022b6ad06f4b1b78032b6bd0774b65
:102604001b68774a12689b1a7b4a934201d8fef7eb
:102614002efe6b4b79495a5c01325a5400225a807f
:10262400644b1a7084ac6a4b1833220023cb23c248
:1026340023cb23c223cb23c2196811601b791371e6
:1026440020000cf0ffff81b220000df098f86c4bd5
:102654001033220003cb03c21b8813805649200089
:102664000cf0fcfd20000cf0edff81b220000df019
:1026740086f85f4c20000cf0e5ff81b220000df0dd
:102684007ef880229200002120000cf0b5fffef7b6
:10269400e8fd5549643155480cf0b0f90028a6d03e
:1026a4000322444b1a70514c20000cf0cbff020063
:1026b40021004f480cf056ff802292000021200098
:1026c4000cf09aff00224b4b1a6090e74d4a3c4baa
:1026d4005a80fef7ccfd4c4a394b5a80fef7c7fdb1
:1026e400434c20000cf0aeff81b220000df047f8ff
:1026f40080229200002120000cf07eff364b1b88c4
:10270400344a934207d001332d4a53800022294b87
:102714001a70fef7a6fd334a294b5a80f6e7802249
:102724009200002132480cf067fffef7a0fd224c16
:1027340010223649743120000cf014ff20000cf0f4
:1027440081ff0100200009f0b5f890221201304bfe
:102754001a80fc321a4b5a80204b1a682d4b1a608f
:1027640020000cf06fff81b220000df008f8fef796
:1027740078fd114c0f222849043120000cf0f2fea0
:1027840020000cf05fff0100200009f093f8234ab9
:102794001f4b1a80fb320a4b5a80104b1a681d4b90
:1027a4001a6020000cf04eff81b220000cf0e7ff0d
:1027b400fef757fde40c002030110020cc5c000033
:1027c400740000204c5d00004c5e0000ff07000018
:1027d400cc5e000001080000622800204028002090
:1027e400f4270020ff0800004c5a0000301300209a
:1027f400301500202c28002088130000310c000024
:10280400cc5a0000fd080000fe0800004c5b0000ec
:10281400da270020e4270020cc5b00000109000037
:10282400f3495c31f3480cf0e9f8002864d0022243
:10283400f14b1a70ef4c20000cf004ff0200210051
:10284400ee480cf08ffe80229200002120000cf054
:10285400d3fe0022ea4b1a60e74b1b78022b68d0a8
:10286400e54b1b78032b69d0e64b1b68e64a1268dc
:102874009b1ae64a934201d8fef7f9fce44be5497a
:102884005a5c01325a5400225a80db4b1a7084acd1
:10289400e14b6c33220023cb23c223cb23c203cbd3
:1028a40003c21b88138020000cf0ccfe81b22000f0
:1028b4000cf065ffd94b1033220003cb03c21b88f5
:1028c4001380d74920000cf0c9fc20000cf0bafe9c
:1028d40081b220000cf053ffc84c20000cf0b2fe73
:1028e40081b220000cf04bff8022920000212000d6
:1028f4000cf082fefef7b5fcbd496431bd480cf016
:102904007df80028a8d00322bb4b1a70b94c2000d4
:102914000cf098fe02002100b8480cf023fe80223f
:102924009200002120000cf067fe0022b44b1a60d4
:1029340092e7bc4ab64b5a80fef799fcba4ab44bac
:102944005a80fef794fcb94ab14b5a80fef72cf931
:10295400af4bb0495a5c01325a5400225a80a64bfc
:102964001a7084acb24b1033220023cb23c223cb86
:1029740023c2196811609b88938020000cf062feca
:1029840081b220000cf0fbfea44b1033220003cbd9
:1029940003c21b881380a24920000cf05ffc2000b6
:1029a4000cf050fe81b220000cf0e9fe934c2000a4
:1029b4000cf048fe81b220000cf0e1fe802292006f
:1029c400002120000cf018fefef74bfc8022920040
:1029d40000218a480cf010fefef749fc904c1022ae
:1029e4009449743120000cf0bdfd20000cf02afe47
:1029f4000100200008f05effa02212018e4b1a8015
:102a0400fc32834b5a807f4b1a688c4b1a6020002f
:102a14000cf018fe81b220000cf0b1fefef721fc90
:102a24007f4c0e227d49503120000cf09bfd20008c
:102a34000cf008fe0100200008f03cff804a7e4ba9
:102a44001a80f832724b5a806e4b1a687b4b1a60ac
:102a540020000cf0f7fd81b220000cf090fefef790
:102a640000fc6f4c0f227749783120000cf07afd7e
:102a740020000cf0e7fd0100200008f01bff724a63
:102a84006d4b1a80f332624b5a805e4b1a686b4b63
:102a94001a6020000cf0d6fd81b220000cf06ffe0d
:102aa400fef7dffb5e4c0f225b49083120000cf07f
:102ab40059fd20000cf0c6fd0100200008f0fafecc
:102ac400624a5d4b1a80f232514b5a804d4b1a6860
:102ad4005a4b1a6020000cf0b5fd81b220000cf0b6
:102ae4004efefef7befb4e4c1322514930312000fe
:102af4000cf038fd20000cf0a5fd0100200008f0ca
:102b0400d9fe534a4c4b1a80f732414b5a803d4b05
:102b14001a684a4b1a6020000cf094fd81b2200020
:102b24000cf02dfefef79dfb3d4c1922404960310f
:102b340020000cf017fd20000cf084fd01002000a3
:102b440008f0b8fe434a3c4b1a80f532304b5a80a9
:102b54002c4b1a68394b1a6020000cf073fd81b2bb
:102b640020000cf00cfefef77cfb2d4c0d223a49a4
:102b7400183120000cf0f6fc20000cf063fd01007d
:102b8400200008f097fe354a2b4b1a80f132204b77
:102b94005a801c4b1a68294b1a6020000cf052fd15
:102ba40081b220000cf0ebfdfef75bfb1c4c2e22e7
:102bb4002b49543120000cf0d5fc20000cf042fdd0
:102bc4000100200008f076fe264a1b4b1a80fa32d8
:102bd4000f4b5a800b4b1a68184b1a6020000cf0ec
:102be40031fd81b220000cf0cafdfef73afbc0466d
:102bf4004c5a000030130020e40c00203015002053
:102c04002c28002040280020e427002088130000fe
:102c140074000020310c0000cc5e0000cc5a00008f
:102c240030110020fd090000fe090000ff0900002a
:102c34004c5f00004c5b00005e280020ec27002065
:102c4400040a00004c5e0000090a00000a0a0000a1
:102c5400050a0000070a0000cc5f00000b0a000010
:102c64004c5c0000020a0000ec4c1222ec492031ba
:102c740020000cf077fc20000cf0e4fc01002000a4
:102c840008f018fee74ae84b1a80f932e74b5a80fd
:102c9400e74b1a68e74b1a6020000cf0d3fc81b2b2
:102ca40020000cf06cfdfef7dcfadc4ce24d290050
:102cb40028311a2220000cf055fc20000cf0c2fc34
:102cc4000019da4eb11d20220cf04cfc04a92b0093
:102cd40044330a0021cb21c21b78137020000cf06e
:102ce400bdfa20000cf0aefc0100200008f0e2fd6b
:102cf400d24acd4b1a80d24b7380cd4b1a68cd4b40
:102d04001a6020000cf09efc81b220000cf037fd0c
:102d14000cf0b2fbcb480bf09bfc0cf0adfbfef7c8
:102d2400a0fabe4c80229200002120000cf064fc2a
:102d340004ae6422002130000cf05efcbe4d29007c
:102d440028311a2220000cf00dfc20000cf07afc33
:102d54000019b64fb91d20220cf004fc2b0050338f
:102d6400320003cb03c2310020000cf077fa2000bc
:102d74000cf068fc0100200008f09cfdb24aaa4b4c
:102d84001a80af4b7b80aa4b1a68aa4b1a602000aa
:102d94000cf058fc81b220000cf0f1fc0cf06cfb40
:102da400a8480bf055fc0cf067fbfef75afa9b4c55
:102db4000e22a149583120000cf0d4fb20000cf065
:102dc40041fc0100200008f075fda04a964b1a80d2
:102dd400ed32964b5a80964b1a68964b1a60200037
:102de4000cf030fc81b220000cf0c9fcfef739fa7b
:102df4009749643197480bf001fe002801d1fef792
:102e040072f80322944b1a70924c20000cf01afcb6
:102e14000200210091480cf0a5fb802292000021c1
:102e240020000cf0e9fb00228d4b1a60fef75bf8e2
:102e34008c4a7e4b5a80fef71afa8b4a7b4b5a8097
:102e4400fef715fa854c20000cf0fcfb81b2200043
:102e54000cf095fc80229200002120000cf0ccfba9
:102e6400714b1b88784a934207d001336f4a5380d1
:102e74000022794b1a70fef7f4f97c4a6b4b5a80a6
:102e8400f6e76a4b7a495a5c01325a5400225a8056
:102e9400714b1a7084ac774b1833220023cb23c2b6
:102ea40023cb23c223cb23c203cb03c220000cf0c9
:102eb400c9fb81b220000cf062fc6f4b103322007e
:102ec40003cb03c21b881380544920000cf0c6f9bd
:102ed40020000cf0b7fb81b220000cf050fc5f4cda
:102ee40020000cf0affb81b220000cf048fc8022e3
:102ef4009200002120000cf07ffbfef7b2f90021c4
:102f04005b4b4a4ad1548022920054480cf074fb23
:102f1400fef7adf9414c0d225649543120000cf016
:102f240021fb20000cf08efb0100200008f0c2fc05
:102f3400524a534b1a80fb323c4b5a803c4b1a6822
:102f4400504b1a6020000cf07dfb81b220000cf085
:102f540016fcfef786f9314c1122464964312000f3
:102f64000cf000fb20000cf06dfb0100200008f0c9
:102f7400a1fc454a424b1a80fa322c4b5a802c4b06
:102f84001a68404b1a6020000cf05cfb81b22000f0
:102f94000cf0f5fbfef765f9204c0f22354978312a
:102fa40020000cf0dffa20000cf04cfb01002000a4
:102fb40008f080fc354a324b1a80f9321b4b5a8098
:102fc4001b4b1a682f4b1a6020000cf03bfb81b29c
:102fd40020000cf0d4fbfef744f9104c0b222649d8
:102fe400603120000cf0befa20000cf02bfb010035
:102ff400200008f05ffc264a214b1a80f8320b4b64
:103004005a800b4b1a681f4b1a6020000cf01afbf5
:1030140081b220000cf0b3fbfef723f9301100203d
:103024004c5d0000030a00005e28002074000020ac
:1030340040280020ec270020cc5f00000d0a00008f
:10304400fc0a0000b80b00000e0a00000f0a000082
:103054004c5a000030130020e40c002030150020ee
:103064002c280020fd0a0000fe0a0000ff0a0000d0
:10307400310c00004c600000cc5a0000010b000031
:103084005c280020e8270020020b0000030b00004e
:10309400040b0000e84c0c22e849083120000cf035
:1030a40061fa20000cf0cefa0100200008f002fcc6
:1030b400e34ae44b1a80f732e34b5a80e34b1a6835
:1030c400e34b1a6020000cf0bdfa81b220000cf032
:1030d40056fbfef7c6f8df496431df480bf08efc7f
:1030e400002801d1fdf7ecff0322dc4b1a70da4c07
:1030f40020000cf0a7fa02002100d9480cf032faa3
:1031040080229200002120000cf076fa0022d54b98
:103114001a60fdf7d5ffd44acb4b5a80fef7a7f8c7
:10312400d24ac94b5a80fef7a2f8cd4c20000cf0cd
:1031340089fa81b220000cf022fbc24b1b88c04ae2
:10314400934207d00133c04a53800022c34b1a7004
:10315400fef787f8b9493c31c1480bf04ffc002811
:1031640000d180e003300cf005fb08f0bffe051c25
:10317400b2494031ba480bf041fc00287dd00330fd
:103184000cf0f8fa08f0b2fe041cac494831b4481b
:103194000bf034fc002800d18de0b54e1422002140
:1031a40030000cf029fa14220021b2480cf024fa61
:1031b400b149281c07f042fb0bf0aafa030064276c
:1031c40001907b4318000af01ff9011c281c06f02b
:1031d40017fb0290a849201c07f030fb0bf098fa6b
:1031e4000500474338000af00ff9011c201c06f0c3
:1031f40007fb0390a149029807f020fb041c0198e7
:103204000af002f9011c201c06f074fc09f024feeb
:1032140002000b00894f3c004c34210030000bf0bd
:1032240057fa9649039807f009fb019028000af021
:10323400ebf8011c019806f05dfc09f00dfe02009c
:103244000b0021008b480bf043fa39005431894bb1
:10325400320084a80bf03cfa84a80cf0f3f981b294
:1032640084a80cf08cfa8022920000217c480cf097
:10327400c3f9834a744b5a8067e780231b069c4634
:1032840065446e4e31004431754f38000bf0b6fb87
:1032940003300cf06ffa08f029fe041c31004831a9
:1032a40038000bf0abfb002800d076e780231b0628
:1032b4009c46644471e780231b069c4664446ce787
:1032c400614b70495a5c01325a5400225a80634b54
:1032d4001a7084ac594b7433220023cb23c203cb22
:1032e40003c21b78137020000cf0acf981b22000eb
:1032f4000cf045fa644b1033220003cb03c21b8845
:1033040013804d4920000bf0a9ff20000cf09af91e
:1033140081b220000cf033fa514c20000cf092f9e9
:1033240081b220000cf02bfa8022920000212000b0
:103334000cf062f9fdf795ff8022920000214848c5
:103344000cf05af9514a404b5a803f4b1b78022be0
:1033540001d0fdf78cff35e13e495c313e480bf06e
:103364004dfb002800d199e002223c4b1a703a4ce4
:1033740020000cf067f90200210039480cf0f2f843
:1033840080229200002120000cf036f90022354bf7
:103394001a60324b1b78022b00d19de02f4b1b7817
:1033a400032b00d19de0294b1b68394a12689b1af4
:1033b400384a934201d8fdf75aff234b31495a5cee
:1033c40001325a54314a5a800022244b1a7084ac78
:1033d400314b3433220023cb23c223cb23c223cb50
:1033e40023c21b88138020000cf02cf981b220002a
:1033f4000cf0c5f9244b1033220003cb03c21b8805
:1034040013800d4920000bf029ff20000cf01af95d
:1034140081b220000cf0b3f9114c20000cf012f929
:1034240081b220000cf0abf9802292000021200030
:103434000cf0e2f8fdf715ff30110020cc6000001d
:10344400050b00005c2800207400002040280020a8
:10345400e82700204c5a000030130020e40c002020
:10346400301500202c280020fd0b0000fe0b00006e
:10347400b00c0020c40c00200000c84200007042c0
:10348400ff0b0000310c0000cc5a0000ff0c0000c0
:10349400f8270020102700004c610000c449643163
:1034a400c4480bf0abfa002800d172e70322c24be8
:1034b4001a70c04c20000cf0c5f802002100bf486f
:1034c4000cf050f880229200002120000cf094f8b7
:1034d4000022bb4b1a605ce7ba4abb4b5a80fdf72b
:1034e400c6feba4ab84b5a80fdf7c1fe0021b84b5c
:1034f400b54ad154b14c20000cf0a4f881b220009c
:103504000cf03df9b34b1b88c022120193420dd03d
:103514000133ad4a5380802292000021a7480cf069
:103524006bf80022a44b1a70fdf79bfeaa4aa64b27
:103534005a80f0e7a44ba6495a5c01325a54a64a71
:103544005a8000229c4b1a7084aca44b5c3322003a
:1035540023cb23c223cb23c219681160998891809d
:103564009b79937120000cf06df881b220000cf06f
:1035740006f99b4b1033220003cb03c21b88138034
:10358400984920000bf06afe20000cf05bf881b231
:1035940020000cf0f4f8894c20000cf053f881b2b0
:1035a40020000cf0ecf880229200002120000cf0a6
:1035b40023f8fdf756fe884b834a52889a4201d07d
:1035c400fdf755fe804b9b88874a93425dd015d901
:1035d400864a934200d1cbe100d21de101329342ed
:1035e40001d0fdf744fe80229200002173480cf0c4
:1035f40003f80022704b1a70fdf739fefc3a93422f
:1036040025d00132934201d0fdf731fe754c0e22d4
:103614007749103120000bf0a5ff20000cf012f8c0
:103624000100200008f046f9724a734b1a80fb32fd
:10363400654b9a80714b1a68714b1a6020000cf02c
:1036440001f881b220000cf09af8fdf710fe6349ee
:103654007c3158480bf0d2f9002801d1fdf707fe60
:103664000c30040062490c310bf0c8f9002801d178
:10367400fdf7fdfd20000cf059f8534b8a2292000f
:1036840098525c4a9a80fdf7f2fd49495c314948f9
:103694000bf0b4f9002863d00222474b1a70454c52
:1036a40020000bf0cfff0200210044480bf05aff2a
:1036b40080229200002120000bf09eff0022404b4c
:1036c4001a603d4b1b78022b67d03b4b1b78032bb6
:1036d40068d04a4b1b684a4a12689b1a494a93426b
:1036e40001d8fdf7c4fd0022334b1a70364b46490e
:1036f4005a5c01325a54454a9a8084ac3c4b20337c
:10370400220023cb23c223cb23c21b881380200097
:103714000bf098ff81b220000cf031f8304b1033dd
:10372400220003cb03c21b8813802e4920000bf018
:1037340095fd20000bf086ff81b220000cf01ff8ed
:103744001e4c20000bf07eff81b220000cf017f815
:1037540080229200002120000bf04efffdf787fd30
:103764001349643113480bf049f90028a9d0032206
:10377400114b1a700f4c20000bf064ff0200210063
:103784000e480bf0effe80229200002120000bf087
:1037940033ff00220a4b1a6093e71d4a0a4b9a80b2
:1037a400fdf765fd1b4a084b9a80fdf760fdc04696
:1037b4004c5a000030130020e40c00203015002087
:1037c4002c280020fd0c000074000020fe0c0000da
:1037d400310c000064280020ff0c00004c61000044
:1037e400cc5a000030110020fc800000fe80000054
:1037f400cc6100000180ffff6828002040280020e1
:103804000028002010270000320c00000080ffff79
:10381400fd80fffffe80ffff744c21003c31744d9e
:1038240028000bf0ebf806002100443128000bf0cf
:10383400e5f8002e00d183e06e4b6f4a9a5c9b182a
:103844006e4a9446634401221a70002808d0694bda
:10385400694a9a5c9b18694a9446634402221a7026
:10386400624c21004c31624e30000bf0c7f8c51c8d
:103874002100503130000bf0c1f807005d4c5e4e62
:10388400a05d40025e4b9c46604400198022920079
:1038940000210bf0b1fea05d4002594b9c466044f0
:1038a40000197a1b29000bf05dfea35d0133dbb226
:1038b400042b48d84f498b554e4b0121514a9954fa
:1038c4000021514a995404aa484b583303cb03c2ec
:1038d4001b781370484b474ad35c0421002b01d05a
:1038e400013bd9b24902464b9c466144414bc9183d
:1038f40004a80bf0b3fc04a80bf0a4fe04ab9c4694
:103904006044032239490c310bf02cfe04a80bf05f
:1039140099fe81b204a80bf032ff3c4b1b883c4a51
:10392400934215d00133334a9380802292000021c0
:103934002f480bf061fe0022364b1a70fdf797fcfe
:10394400002884d1bfe700212b4b2a4ad154b3e786
:1039540028498a2292008b5a013b9bb28b52002b3e
:1039640002d12d4a8a80e0e72c4a224b9a80dce778
:103974000022284b1a701f4b23495a5c01325a54b7
:10398400254a9a8084ac194b6433220023cb23c28a
:1039940003cb03c21b88138020000bf053fe81b2bb
:1039a40020000bf0ecfe1e4b1033220003cb03c2ad
:1039b4001b8813801b4920000bf050fc20000bf0e7
:1039c40041fe81b220000bf0dafe094c20000bf01e
:1039d40039fe81b220000bf0d2fe80229200002139
:1039e40020000bf009fefdf742fcc046cc6100004c
:1039f40030150020740000202f0200002a0200006d
:103a04003102000027020000320c00006828002068
:103a140001800000e40c00200080ffff0180ffff14
:083a2400cc5a00003011002013
:020000040000fa
:103a2c00f0b5a5b007930023049007982093069156
:103a3c001a920bf0dffe050000680bf0fffd00266c
:103a4c000027069b05901f931f9b1a780d2a39d8c7
:103a5c00092a3dd2002a44d00023129300221f9c35
:103a6c000c922378302b00d07ee06378582b02d058
:103a7c00782b00d06ee0079bb74a0293129b1fa9cc
:103a8c00019320ab0093049821ab04f0c7fc0725ed
:103a9c000590054005d0062d2fd1002301341f942d
:103aac0012931a9b002b02d01a9b1f9a1a60129b1e
:103abc00002b1dd0802332001b06fb1810001900b0
:103acc0025b0f0bd2b2a05d02d2a14d0202ac3d125
:103adc000133b8e7002212925a1c1f925b78002b1c
:103aec00bcd1069b1f93002312931a9b002bdbd196
:103afc0032003b00e2e70122ede7209a002a07d0d2
:103b0c00352122a80bf058f8209904980af010ffe0
:103b1c00681e042806d80bf0ddfc0c0317190c00ea
:103b2c00229e239f059b1b07bbd580231b061f438f
:103b3c00b7e7239b894a8a491a40219b229e5b182e
:103b4c001b051a431700ede7864febe70126864f5e
:103b5c007642e7e71f9b5a1c1f925b78302bf9d0fb
:103b6c00002b9ed001230c931f9b0a22139300233e
:103b7c000b930a9308931f9804782300303bd9b217
:103b8c00092926d9059a29680bf058fa002832d051
:103b9c00002023008446089a0790059220221900e1
:103bac0091430a000021452a00d0a7e0059b0c9afe
:103bbc00034313438b4294d01f9b069301331f93f3
:103bcc00069b5b782b2b71d00c002d2b74d1012410
:103bdc006de00899082909dc0a9951435b180a938e
:103bec00089b0130013308931f90c4e70b99514394
:103bfc005b180b93f4e71f9a059b9446089a634451
:103c0c001f931b78002a49d11000302b28d01a00a2
:103c1c00313a082a46d8844600201f9a0590139200
:103c2c00303b421c002b0fd00a219444059a1018eb
:103c3c0082421bd1511c0591082a25dc0a220a99c3
:103c4c004a439b1800220a9310001f9b591c1f917a
:103c5c005b781a00303a092ae2d9012207929de7d3
:103c6c001f9b01305a1c1f925b78cee70132541e09
:103c7c00082c03dc0a9c4c430a94d9e7102ad7dca5
:103c8c000b9c4c430b94d3e7059900221029dbdce9
:103c9c000a210b9841435b180b93d5e7089a84468d
:103cac000592d6e7002294460592d6e70c00069bb7
:103cbc0002331f93069b9b781a00303a092a60d86e
:103ccc00302b43d01a00313a0021082a16d8303b49
:103cdc001f9d0e931f9b591c1f915b781a00303a45
:103cec00092a47d94a1b214d2900082a03dc0e99c1
:103cfc00a94200dd2900002c00d04942059a002a77
:103d0c0063d10c9a104300d0cbe6079a002a00d05e
:103d1c00e7e64e2b3ed038dc492b00d0e1e6144cc4
:103d2c001fa821000bf01af8002800d1d9e61f9b20
:103d3c00e11c013b1fa81f930bf010f8002802d1c7
:103d4c001f9b01331f93074f0026aae61f9b5a1c8b
:103d5c001f925b78b4e7c04608f50000ffffefff49
:103d6c00330400000000f07fffffff7f1f4e0000b8
:103d7c003cf700000a220e994a43d218303a0e92b0
:103d8c00a8e7069a00211f92b8e7692bc7d06e2bc3
:103d9c0000d0a6e68b491fa809310af0dfff0028e6
:103dac0000d19ee61f9b1b78282b0cd122aa86499a
:103dbc001fa807f031fa052805d1239b834a229ec0
:103dcc001a4317006de6824fbee76346cb1a079382
:103ddc00089b002b01d1059b0893059c102c00dd42
:103dec0010240a9809f09cff06000f00092c15dd21
:103dfc002200784b093ad2009b181a685b6805f0d0
:103e0c006bf906000b980f0009f08aff02000b00fb
:103e1c003000390003f0d6fa06000f00059b0f2b7b
:103e2c0039dc079b002b00d13be626dd162b0bdc87
:103e3c006849db00c9183200086849683b0005f086
:103e4c004bf906000f002ce62523059a9b1a079abe
:103e5c009a4220dc0f24059b5e4de41ae1006918a0
:103e6c003200086849683b0005f036f9079b1c1bbb
:103e7c00e4002c1922686368e1e7079b16330adb20
:103e8c00079b3000da00534b39009b1a1a685b68a9
:103e9c0004f022f8d5e7059b1c1b079be418002cab
:103eac006edd0f2323400ad04a49db00c9183200cb
:103ebc00086849683b0005f00ff906000f000f2356
:103ecc009c4348d02633ff339c4221dd00240594cb
:103edc000a94079422230026049a3c4f13600a9bf1
:103eec00b34200d1dde5209904980af021fd079931
:103efc0004980af01dfd059904980af019fd0a9919
:103f0c0004980af015fd210004980af011fdc8e58b
:103f1c000023300039001d002411012c1edc002b65
:103f2c0001d006000f002c4bed00ff182b4b32007c
:103f3c005d19286869683b0005f0cef8234b0f002b
:103f4c000b40274906008b42c0d826498b4213d917
:103f5c000126254f76420023069373e0012214427a
:103f6c0007d01e4aeb009b181a685b6805f0b4f882
:103f7c00012301356410d0e7d4239b04ff18eae732
:103f8c00002ce8d00f23644223400ad0114adb00f6
:103f9c00d31830001a685b68390003f09dff0600e7
:103fac000f002411d7d01f2c20dd002405940a9477
:103fbc0007942223049a002613600a9b0027002be7
:103fcc0091d16ee53cf700001cf500000000f07f7d
:103fdc000000f8fff8c600000000b0fc90ed0000f7
:103fec000000a07c0000907cffffef7f102323409b
:103ffc00069301d06a230693300039000023ca4d82
:10400c00002c00dd03e1002b01d006000f00069b05
:10401c00002b0fd06b237900490d3a005b1a002b53
:10402c0008dd1f2b00dc04e10026342b00dcf9e05a
:10403c00dc27bf04002200233000390009f0aafb62
:10404c000028b2d10a9b089a00931399059b0498f7
:10405c0009f058fa0a90002800d137e7079b002492
:10406c00da175b421a40079b1592db43079adb1762
:10407c001a40139205940a9b0498596809f012fd92
:10408c000790002800d125e70a9b0a991b690c317f
:10409c009a1c92000c3008930bf060fa22ab01933f
:1040ac0021ab009332003b0004980e960f9708f05a
:1040bc0097fc2090002800d10ce7012104980bf00c
:1040cc0056fa0590002800d104e7219b002b00da5a
:1040dc00b4e0159ad518139a94460699229a5b1a4d
:1040ec0036219b189148013b8a1a0121834200db3f
:1040fc00b0e0c01a121a1f2800dda4e08140002392
:10410c0014910c93ab1808931300069a6344d318bc
:10411c00089a0b932b00954200dd13000b9a9342e7
:10412c0000dd1300002b06dd089aed1ad21a089256
:10413c000b9ad21a0b92159b002b17d01a000599cb
:10414c00049808f097fd0590002800d1c2e6010004
:10415c00209a049807f0f7f81b90002800d1b9e6d4
:10416c00209904980af0e4fb1b9b2093089b002bde
:10417c0073dc139b002b79d10b9b002b08dd1a00f1
:10418c000799049808f0d4fc0790002800d1a1e608
:10419c00002d08dd2a000599049808f0c9fc05904b
:1041ac00002800d196e6079a2099049808f03afa6c
:1041bc00041e00d18ee60025c3680599c5600b93db
:1041cc000af0cffba8425bda0b9bab421bd1ae4291
:1041dc0019d13b03ab4216d1d622554bd2043b40ee
:1041ec00934210d96369ab4202d12369012b0addda
:1041fc0021000122049808f09bfc059904000af0a8
:10420c00b0fb00286cdc069b002b78d16be60122fe
:10421c00144204d02a686b6804f05eff012364101a
:10422c000835ede60121203b494299400a40170030
:10423c0000e7012252429a401640fbe6139a159d64
:10424c00d21a944649e73b48c31a080098400c9090
:10425c00149157e700230c93fae7089a20990498d5
:10426c0008f066fc2090002883d133e6139a079956
:10427c00049808f0fffc0790002800d07ce729e6a2
:10428c00002800d095e00b9a3b03002a24d02a4941
:10429c003a001b0b8b425ed1069b0138b4460100e1
:1042ac00002b0ad0d425224bed043b40ab4204d862
:1042bc006b211b0dcb1a0100994061454bd11f4b53
:1042cc009a4202d14b1c00d104e6194b00261a402d
:1042dc0080235b03d71896e7002b3cd1002e3ad1f4
:1042ec00069a134b002a2dd01a00d6213a40c90445
:1042fc008a4227dcdc239b049a4200dc59e6104bf3
:10430c0030001193002310933900109a119b04f084
:10431c00e3fe06000f1e00d0e5e5002800d0e2e524
:10432c002223049a1360dee518ed000002fcffff67
:10433c000000f07fe2fbffffffff0f00ffffef7fae
:10434c00000050390126a94a3b409b18a84a7642e6
:10435c001a43170057e70c9b002b13d03b4200d19c
:10436c0051e70b9b069a30003900002b0fd00af056
:10437c0059fb02000b000e980f9903f023f806006e
:10438c000f0040e7149b334200d13ce7e9e70af009
:10439c0049fb02000b000e980f9902f03bfd002226
:1043ac00002306000f0009f0f5f9002800d000e604
:1043bc0029e70599200009f097fe80230022db05f0
:1043cc000890099109f0f6f9002875d00b9b002b89
:1043dc0043d00022874b0c920d93864b0893864b4f
:1043ec003b401493149a854b9a4200d0b1e00e9a3c
:1043fc000f9b10921193824b3000ff18390009f07b
:10440c00e7fe02000b000c980d9904f065fe3200db
:10441c003b0002f0d7ff784a7a4b06000a409a42da
:10442c0062d9794b119a9a4203d1109a013200d178
:10443c0050e501261f007642209904980af078fa7c
:10444c00079904980af074fa059904980af070fa1e
:10445c00210004980af06cfa0de6002e1dd13b03e6
:10446c0020d1089809990022624b09f099f900288b
:10447c001ed1089809990022644b04f02dfe05000a
:10448c000891802212069446089b1c9563441d9348
:10449c001c9a1d9b0c920d93a1e7012e02d1002fab
:1044ac0000d186e500225a4b00250c920d9394e71f
:1044bc00564b0b9d0893e4e7544b0898099900223e
:1044cc0004f00afe0b9b05000891002b07d18023fa
:1044dc001b06cb1816901793169a179bdae7020057
:1044ec00089b16921793f7e7d4239b04cf18069bcf
:1044fc00002ba1d1404b149a0c973b409a429bd174
:10450c000899280009f0a6fb09f022fa0b0002001a
:10451c000899280002f07efc0b9b08900991002b57
:10452c0004d1002e02d10c9b1b0358d0089809997a
:10453c00384a394b09f034f9002800d0d3e40898f4
:10454c000999364a314b09f03ff9002800d173e73d
:10455c00c9e4069b002b2ad0d423149adb049a427c
:10456c0025d82f4a2f4b2800089909f023f9002849
:10457c0016d0280008990af057f9002800d101201c
:10458c0009f0cefb0b9b05000891002b22d1802358
:10459c001b06cb1818901993189a199b0c920d9313
:1045ac00d6220d9bd2049b18149a9b1a0d930e982d
:1045bc000f990c9e0d9f09f00bfe02000b003000b2
:1045cc00390004f089fd0e9a0f9b02f0fbfe0600e9
:1045dc000f008ce70200089b18921993dce70d4a38
:1045ec00114b0898099909f0dbf8aee70000f0ffd1
:1045fc00ffff0f000000f03f0000f07f0000e07fa5
:10460c000000b0fcffff9f7cffffef7f0000e03f4e
:10461c000000f0bf9535a094ffffdf3f35e5af35c7
:0c462c000000c0ffffffdf41ffffcf3f99
:020000040000fa
:10463800f0b516001f00446a9db00490259d0696ab
:104648000797002c08d110200af06eff049b5862cf
:10465800446084600460c460049b5b6a1968002934
:104668000bd05a68012393404a608b6004980af083
:1046780061f90022049b5b6a1a60079b002b1cda15
:1046880001232b607b005b080793079cba4b220031
:1046980019931a409a421cd1b84b249a1360069a6f
:1046a800b74b002a03d1240301d100f08cfd269ad0
:1046b800002a05d109330a9308e000232b60e4e7b8
:1046c8001a0009320a920c33269a13600a981db010
:1046d800f0bd069e079f002200233000390009f034
:1046e8005bf8051e0ed00123249a1360a44b1a0010
:1046f8000d320a92269a002ae8d01a0026990e321c
:104708000a60e3e71aab01931bab009332003b004e
:10471800049808f067f9630005905b0d00d17fe00d
:104728003a03984c120b14432100974a300018950d
:104738009e180022954b02f06ffb954a954b04f0aa
:10474800cdfc954a954b02f03ffe040030000d0069
:1047580009f000f9924a934b04f0c0fc02000b00e8
:104768002000290002f030fe04000d0009f074fa60
:104778000022039000232000290009f013f80028e4
:104788000ed0039809f0e6f80b000200290020007b
:1047980009f002f8030058425841039b1b1a03937f
:1047a80001231693039b162b0fd87f49db00c918ea
:1047b80008684968069a079b09f008f800284bd052
:1047c800039b013b0393002316931a9b9e1b002314
:1047d8000b933300013b0c9304d501239b1b0b93d4
:1047e80000230c93039b002b38db039a0c9b944605
:1047f80063440c9300230f920893229b0125092bf5
:1048080000d991e0052b02dd0025043b2293229b71
:10481800981e032800d991e00af05efe828429766a
:104828001a9b1b9a9e18614bf218202a0fdd203b19
:104838000698f318d84040239b1a9c40204309f05f
:1048480071fa01235a4c013e0919189371e7202384
:1048580006989b1a9840f2e71690b6e70b9b039ac6
:104868009b1a0b935342089300230f93c5e7012328
:104878000e93239b002b65dd1f000d93049a546a49
:104888000022626004221100143199425fd96168e4
:10489800049809f009f9049b20605b6a1b680a9375
:1048a8000e2f00d9fce0002d00d1f9e0069b079cf3
:1048b80014931594039b002b00dc7de01a000f2154
:1048c800394b0a40d2009b185c681b6810931194fe
:1048d800039b02241d11eb060ad5364b0d401a6abc
:1048e8005b6a1498159903f0f9fa03240690079166
:1048f800304e002d30d1109a119b0698079903f07d
:10490800edfa0690079171e00123239a0e939446dd
:10491800039b63445f1c0d933b1eafdc0123ade793
:104928000023a5e70023f0e700230e952293013b1f
:104938000d931f000022122323929fe701230e9359
:10494800023bf5e701230d931f001a00f4e76168a5
:1049580052000131616096e701231d4208d010988a
:104968001199e4183268736804f0b8fb109011913b
:104978006d100836bde7c0460000f07f0f27000025
:104988001cf600000000f03f01fcffff0000f83fac
:1049980061436f63a787d23fb3c8608b288ac63f3d
:1049a800fb799f501344d33ff8c60000320400003f
:1049b800000010fe90ed0000039b0224002b15d090
:1049c800149815995d420f23c94a2b40db00d31870
:1049d8001a685b6804f082fb002306900791c54eb5
:1049e8002d11002d00d08be0002b8ad1169b002bb7
:1049f80000d191e0069a079b109211931098119993
:104a08000022bd4b08f0cefe002800d184e0002f24
:104a180000d181e00d9b002b3edd10981199039b7e
:104a280000225e1eb54b04f059fb069007910d9dc0
:104a38000134200008f08eff069a079b04f04efb15
:104a48000022af4b02f0c0fc12901391129b139cf2
:104a5800ac4a10931194139b9c181194002d5ed1ad
:104a6800069807990022a84b02f0d6f9109a23005d
:104a78000690079108f0aafe002800d000e3a3489a
:104a88001399844661440b0006980799109a08f018
:104a980089fe002800d0e7e2149b159c0693079432
:104aa8001b9b002b00da56e1039a0e2a00dd52e127
:104ab8008f4bd2009b185c681b6808930994239b52
:104ac800002b00dbcee0002f00ddcbe000d0cee2f3
:104ad8000898099900228c4b04f000fb069a079b62
:104ae80008f07efe3e000897002800d0a3e20a9b4b
:104af8000a9a5d1c31231370039b013303939ee2d2
:104b08000122154205d0a4183268736804f0e6fa49
:104b180001236d10083664e7039e3d0089e70a9a71
:104b2800691e521917920e9a714bc900002a4ad071
:104b38005b181a685b680020754903f0cff9109a72
:104b4800119b02f069f90a9b109011911293069833
:104b5800079909f081f8040008f0fcfe02000b0038
:104b68000698079902f058f9129b30345d1c1c70a6
:104b7800109a119b0690079108f014fe002865d141
:104b8800069a079b00205c4902f046f9109a119b8f
:104b980008f008fe002800d0bde0179b9d4200d118
:104ba8007ae7109811990022544b04f097fa0022e2
:104bb8001090119106980799504b04f08ffa1295ae
:104bc80006900791c3e7591808684968109a119b1d
:104bd80004f084fa109011910a9c179d0698079981
:104be80009f03af8129008f0b5fe02000b0006989a
:104bf800079902f011f9129b069007913033237040
:104c0800179b01340022a34224d1414b10981199db
:104c180002f0dafb02000b000698079908f0d6fdaf
:104c2800002800d077e0109a119b0020384902f044
:104c3800f3f802000b000698079908f0b3fd002866
:104c480000d129e76b1e1a78302a01d003963fe07d
:104c58001d00f7e706980799284b04f03ffa0690dd
:104c68000791bbe70a9e089a099b0698079903f0e3
:104c780035f908f0f1ff040008f06cfe089a099b6a
:104c880004f02cfa0b0002000698079902f0c4f809
:104c98002300303333700a9b751ceb1a9f424bd1ab
:104ca80002000b0002f090fb06000f0002000b0050
:104cb8000898099908f076fd00282bd108980999d9
:104cc80032003b0008f068fd002801d0e30721d43a
:104cd8000599049809f02efe00232b70039b249a53
:104ce80001331360269b002b00d1efe41d60ede437
:104cf800f8c6000090ed00000000f03f00002440de
:104d080000001c400000c0fc000014400000c07cf3
:104d18000000e03f039e6b1e1a78392a06d10a9ad2
:104d28009a4207d130231370130001361a780132e2
:104d38001a708be71d00eee70022cf4b04f0cef986
:104d480000220023069007912e0008f025fd002878
:104d580000d188e7bce70e9a002a00d187e0229aa2
:104d6800012a6edc189a002a67d0c44a9b18089d4d
:104d78000b9c0b9a0121d2180b920c9a0498d31809
:104d88000c930af0f6fb0600002c0edd0c9b002ba2
:104d98000bdd0c9a2300944200dd13000b9ae41af1
:104da800d21a0b920c9ad31a0c93089b002b1ed084
:104db8000e9b002b5fd0002d11dd31002a000498d6
:104dc80007f05aff059a01000600049806f0bdfa9c
:104dd80005991090049809f0adfd109b0593089b68
:104de8005a1b04d00599049807f046ff0590012145
:104df80004980af0befb0f9b0890002b3ddd1a00bb
:104e08000100049807f038ff229b08900025012b29
:104e18003bdc0025069bab4233d1079b1b03ab420f
:104e28002fd1199b079a13422bd00b9b01250133d5
:104e38000b930c9b01330c9323e036231a9a9b1a8d
:104e480095e7089b7d1eab4206db5d1b002f0bda46
:104e58000b9bdc1b00238ce7089b0895ea1a0f9b29
:104e680000259b180f93f1e70b9c3b0081e7089df9
:104e78000b9c0e9e88e7089ab4e7229b0025012b1d
:104e8800c7dd0f9b0120002b0bd0089b089a1b69dc
:104e98000f9303339b00d318586809f017fd20239c
:104ea800181a0c9bc0181f23184000d1abe0202310
:104eb8001b1a042b00dc9be01c23181a0b9b2418dc
:104ec8001b180b930c9b1b180c930b9b002b05dddd
:104ed8001a000599049807f02dfe05900c9b002bed
:104ee80005dd1a000899049807f024fe0890169b1f
:104ef800002b00d189e00899059809f034fd0028b5
:104f080000db82e0039b0a22013b039305990023ff
:104f1800049808f06ffc0e9b0590002b00d15be114
:104f2800002331000a22049808f064fc0d9b060057
:104f3800002b02dc229b022b6ddc002c05dd3100ee
:104f48002200049807f0f6fd06003000002d11d06d
:104f58007168049808f0a8fd3100040033690c3129
:104f68009a1c92000c300af0fbfa012221000498e6
:104f780007f0e0fd0d9f0a9b013f0b93db193700fb
:104f880006000f930899059806f0a8fe39000d90c1
:104f98000400059809f0e7fc32000e90089904987f
:104fa80007f042fb01230c93c36830340500002b43
:104fb80004d10100059809f0d6fc0c90290004984a
:104fc80009f0b8fc0c9b229a134300d089e0012316
:104fd800069a134200d084e0392c00d1a3e00e9b3e
:104fe800002b01dd0d9c31340b9b5d1c1c7027e0f0
:104ff800042b00d169e70b9a1c33d2180b920c9a38
:10500800e418d31860e70300f5e7002f3cdc229b87
:10501800022b39dd0d970d9b002b0cd10899052229
:10502800049808f0e7fb08900100059809f09bfc3c
:10503800002800dd5be5239b0a9ddb4303930027e3
:105048000899049809f076fc002e00d140e6002f5c
:1050580005d0b74203d03900049809f06bfc310041
:10506800049809f067fc33e608952e00e3e700236f
:1050780008931e00dfe7c046000024403304000008
:10508800039608952e0032e50e9b0d97002b00d055
:1050980053e70a9d0899059806f020fe0a9b3030d0
:1050a8000d9a287001350400eb1a9a4278dc151e17
:1050b80000dc012500270a9b5d1905990122049847
:1050c80007f038fd0899059009f04dfc00282fdc01
:1050d80001d1e3072cd46b1e1a78302ab0d11d00f9
:1050e800f9e70e9b002b07db1d00229b1d4326d1f1
:1050f8000123069a134222d10c9b002b00dc73e794
:1051080005990122049807f015fd0899059009f002
:105118002afc002804dc00d066e7e30700d463e734
:10512800392c00d05ee70b9b0b9a5d1c392313705a
:105138006b1e1a78392a3bd001321a7080e70b9b14
:1051480001330d930c9b002b05dd392cebd00d9d05
:1051580001340b9b4ae70b9b0f9a0d9d1c709342e1
:10516800abd000230a220599049808f043fb0023da
:1051780005900a2239000498b74206d108f03afb94
:10518800070006000d9b0b93fce608f033fb31008b
:10519800070000230a22049808f02cfb0600f1e718
:1051a80000230a220599049808f024fb059071e76a
:1051b8000a9a9a4205d1039b013303933123137052
:1051c8003ee71d00b4e7269a0a930833002a01d067
:1051d800fff77afafff77afa0d9b002b00dd58e704
:0c51e800229b022b00dc54e715e7c046b8
:020000040000fa
:1051f400f0b5c64600b584b0042800d90de180009e
:10520400e14b1b589f46e14d80229200002128006b
:105214000af0f2f9de4e0222310028000af0a2f967
:1052240028000af00ffa2a00213a311d0004000c6c
:105234002c00273c281809f04bfa28000af002fa3f
:10524400d44be35cd44aa25cfa21c9008c46624484
:10525400310014310004000c27300019cf4fe75df2
:105264000397cf4fe75d0297ce4fe75d0197ce4f8f
:10527400e75d009709f02cfa28000af0e3f900042e
:10528400000c2730001931003c3116220af06af96b
:1052940028000af0d7f90004000c27300019310067
:1052a40054310b220af05ef928000af0cbf93100e0
:1052b40060310004000c27300019bc4a09f008fad8
:1052c40028000af0bff9310074310004000c2730c3
:1052d4000019b74a09f0fcf928000af0b3f9b54ff0
:1052e4003123fa5cb44e311d0004000c2730001940
:1052f40009f0eef928000af0a5f93223fa5c31002e
:1053040014310004000c2730001909f0e1f92800d9
:105314000af098f93323fa5c310028310004000cb8
:105324002730001909f0d4f928000af08bf9a34baf
:10533400e318c5221201a218310038310004000c10
:105344002730001909f0c4f928000af07bf9000499
:10535400000c2730001931004c310d220af002f9fb
:1053640028000af06ff90004000c2730001908f037
:10537400a3ff28000af066f90004000c2730001986
:1053840007f01cfa28000af05df90004000c27302d
:10539400001909f083fa28000af054f90004000cfb
:1053a4002730001909f074ff28000af04bf90004b3
:1053b400000c2730001909f077ff28000af042f9a1
:1053c4000004000c2730001909f04efa28000af0f6
:1053d40039f90004000c2730001909f0d5f9280028
:1053e4000af030f90004000c2730001908f088ff97
:1053f40028000af027f90004000c2730001908f0ef
:10540400a3ff28000af01ef90004000c273000193d
:1054140031005c3107220af0a5f804b004bc9046c0
:10542400f0bd5a4d80229200002128000af0e4f8d1
:10543400574f0222390028000af094f828000af095
:1054440001f92a00213a5c4e310064310004000c59
:105454002c00273c281809f03bf928000af0f2f840
:105464004c4be35c4c4aa25cfa21c9008c46624472
:105474003900143188460004000c273000194749cc
:10548400615c03914649615c02914649615c01910a
:105494004549615c0091414609f01af928000af077
:1054a400d1f80004000c273000193100743119229e
:1054b4000af058f828000af0c5f80004000c273058
:1054c4000019390054310b220af04cf828000af074
:1054d400b9f8390060310004000c27300019334a50
:1054e40009f0f6f828000af0adf839007431000428
:1054f400000c273000192e4a09f0eaf828000af0b7
:10550400a1f82c4f3123fa5c311d0004000c273024
:10551400001909f0ddf828000af094f83223fa5c47
:10552400310014310004000c2730001909f0d0f8c0
:1055340028000af087f83323fa5c3100283100048c
:10554400000c2730001909f0c3f828000af07af893
:105554001a4be318c5221201a218194e310010315a
:105564000004000c2730001909f0b2f828000af0f2
:1055740069f80004000c2730001931002431062298
:1055840009f0f0ff49e7c046c8f300009b00002083
:1055940008950000650c0000640c0000690c000014
:1055a400680c0000670c0000660c0000d427002083
:1055b400cc27002004000020889500003c0c00004b
:1055c40008960000ae4c80229200002120000af0d0
:1055d40013f80222ab49200009f0c4ff20000af0ae
:1055e40031f881b23423a84ad35c022b00d181e084
:1055f400a64ca74be35ca74aa25cfa20c0008446f1
:10560400624427310819a449615c0391a349615c90
:105614000291a349615c0191a249615c009199499d
:10562400143109f055f8200027300af00bf8342320
:10563400954ad35c012b6dd00004000c2730934baa
:10564400c0181b229849483109f08cff8c4c20006b
:1056540009f0f8ff0004000c2600273e20180b2256
:105664008849543109f07eff200009f0ebff864f92
:105674003123fa5c8d4d291d0004000c273080195c
:1056840009f026f8200009f0ddff3223fa5c290036
:1056940014310004000c2730801909f019f8200097
:1056a40009f0d0ff3323fa5c290028310004000cf0
:1056b4002730801909f00cf8200009f0c3ff7c4b57
:1056c400f318c5221201b218774d290010310004d5
:1056d400000c2730801908f0fbff200009f0b2ff0e
:1056e4000004000c2730801929002431062209f017
:1056f40039ff92e66f4a0004000c2730941f00190a
:105704006a49643108f0e4ff2000273009f09aff69
:1057140081b26de70004000c27305c4bc0181922dd
:1057240061492c3109f01eff90e7554c802292000c
:105734000021200009f060ff524e022231002000b7
:1057440009f010ff200009f07dff2200213a000437
:10575400000c2500273d20185449643108f0b8ff97
:10576400200009f06fff4a4beb5c4a4aaa5cfa211d
:10577400c9008c466244310014310004000c273007
:105784004019454eae5d0396444eae5d0296444ebe
:10579400ae5d0196434ead5d009508f099ff200083
:1057a40009f050ff3523384ad35c012b5dd0000447
:1057b400000c2730354bc01819223b497c3109f0c5
:1057c400d1fe2f4c200009f03dff0004000c260000
:1057d400273e20180b222b49543109f0c3fe200028
:1057e40009f030ff284f3123fa5c304d291d0004a5
:1057f400000c2730801908f06bff200009f022ff0d
:105804003223fa5c290014310004000c273080197b
:1058140008f05eff200009f015ff3323fa5c29002d
:1058240028310004000c2730801908f051ff2000b3
:1058340009f008ff1e4bf318c5221201b2181a4dc5
:10584400290010310004000c2730801908f040ffb3
:10585400200009f0f7fe0004000c2730801929000d
:105864002431062209f07efed7e50004000c27301f
:10587400064bc01817220c49643109f073fea0e7e7
:105884009b00002008950000040000207400002004
:10589400650c0000640c0000690c0000680c00003a
:1058a400670c0000660c0000089600008895000054
:1058b4003c0c00007a000020554c8022920000210c
:1058c400200009f099fe534e02223100200009f015
:1058d40049fe200009f0b6fe2200213a0004000c23
:1058e4002500273d20184c49643108f0f1fe2000c2
:1058f40009f0a8fe494beb5c494aaa5cfa21c900ad
:105904008c466244310014310004000c27304019e5
:10591400444eae5d0396444eae5d0296434eae5d7c
:105924000196434ead5d009508f0d2fe200009f0cb
:1059340089fe36233f4ad35c012b5dd00004000c62
:1059440027303d4bc0181c223c49343109f00afe73
:105954002f4c200009f076fe0004000c2600273ea0
:1059640020180b222b49543109f0fcfd200009f0ca
:1059740069fe304f3123fa5c274d291d0004000cc9
:105984002730801908f0a4fe200009f05bfe3223c2
:10599400fa5c290014310004000c2730801908f047
:1059a40097fe200009f04efe3323fa5c29002831cb
:1059b4000004000c2730801908f08afe200009f04a
:1059c40041fe1f4bf318c5221201b2181d4d2900c8
:1059d40010310004000c2730801908f079fe2000f3
:1059e40009f030fe0004000c27308019290024310e
:1059f400062209f0b7fd10e50004000c27300e4b19
:105a0400c0181a220d49183109f0acfda0e7c046b0
:105a14009b0000200895000088950000650c00009c
:105a2400640c0000690c0000680c0000670c0000a6
:105a3400660c00000400002074000020889600001a
:085a44003c0c00000896000074
:020000040000fa
:105a4c0041540d0a00000000415445300d0a00007d
:105a5c0041542b434c434b3d225343222c320d0ad1
:105a6c000000000041542b4350494e3f0d0a0000ea
:105a7c0041542b434f50533f0d0a000041542b43cc
:105a8c0053510d0a0000000041542b555244464915
:105a9c004c453d225030220d0a0000004f4b0d0aa0
