:020000040000fa
:10000000f07f0020bde30000b7d5000093dd0000c5
:1000100000000000000000000000000000000000e0
:1000200000000000000000000000000077cb00008e
:10003000000000000000000077cb000085ee00000b
:1000400077cb000077cb000077cb000075e3000092
:1000500077cb000077cb000077cb000077cb000098
:1000600077cb0000e5a20000c9a00000a1aa000013
:1000700077cb00000000000000000000198900009c
:100080000000000077cb000077cb000077cb0000aa
:1000900077cb000077cb000077cb000077cb000058
:1000a00077cb000077cb000077cb000077cb000048
:0c00b00077cb000077cb000077cb00007e
:020000040000fa
:1000bc00f8b5c046f8bc08bc9e46704735e2000057
:1000cc00f8b5c046f8bc08bc9e4670470de200006f
:020000040000fa
:0800dc0060c2000001000000f9
:020000040000fa
:1000e400f0b5b44ca544b44b5b88b44a934201d1f7
:1000f40002f0c9f801d900f011fcb14a934201d1d0
:1001040001f08efc3dd9af4a934201d101f060fe6b
:1001140000d878e2ac4a934201d101f020ff00d923
:10012400cae3043a934201d101f0b5fe00d999e340
:10013400023a934201d101f06cfe01d901f08afe2a
:10014400a24c1522a249203120000ff0e7f920002b
:100154000ff054fa010020000bf076fb9d4a9e4bf1
:100164001a80f932944b5a809c4b1a689c4b1a6043
:1001740020000ff043fa81b220000ff0dcfa01f006
:100184006af8984a934201d101f006fa00d947e18e
:10019400fd3a934201d101f0cbf800d883e0924ab2
:1001a400934201d101f0aef900d9d9e0023a934269
:1001b40001d101f041f901d901f068f9013a934202
:1001c40001d001f048f889495c3189480ef0e2fb1e
:1001d400002801d101f006f90222864b1a70844ce2
:1001e40020000ff00bfa0200210083480ff096f96b
:1001f40080229200002120000ff0daf900227f4bc8
:100204001a607c4b1b78022b01d101f00bf9794b5e
:100214001b78032b01d101f00af9704b1b68784a53
:1002240012689b1a774a934201d801f01af8624b7c
:1002340075495a5c01325a5400225a806d4b1a7027
:1002440084ac6a4b6c33220023cb23c223cb23c25e
:1002540023cb23c220000ff0d1f981b220000ff08c
:100264006afa6a4b1033220003cb03c21b88138043
:10027400564920000ef0ceff20000ff0bff981b2e6
:1002840020000ff058fa5c4c20000ff0b7f981b24f
:1002940020000ff050fa80229200002120000ff07d
:1002a40087f900f0d8ff043a934201d100f0ddff52
:1002b4002ad982225200934201d100f0f7ff01d9da
:1002c40001f015f8414c0b224849243120000ff06d
:1002d40025f920000ff092f9010020000bf0b4fa88
:1002e4000422ff324a4b1a80f932334b5a803b4b7b
:1002f4001a68434b1a6020000ff080f981b2200085
:100304000ff019fa00f0a7ff023a934201d100f06e
:1003140083ff0132934201d000f09dff2b4c072252
:100324003249083120000ff0f9f820000ff066f987
:10033400010020000bf088fa0222ff32344b1a80ad
:10034400fb321d4b5a80254b1a682d4b1a60200036
:100354000ff054f981b220000ff0edf900f07bffab
:100364002c4a934201d101f0d7f801d901f0f4f8f5
:10037400164c05221d4920000ff0d0f820000ff084
:100384003df9010020000bf05ffa80229200224b1d
:100394001a80fc32084b5a80104b1a681f4b1a60a3
:1003a40020000ff02bf981b220000ff0c4f900f007
:1003b40052ffc046ecfcffff74000020020700005f
:1003c40003040000020600000a06000030110020a9
:1003d400285d00000306000060280020402800205b
:1003e400f027002003020000ff010000a85a0000cb
:1003f40030130020e40c0020301500202c280020ad
:100404000828002010270000310c0000285b0000a1
:100414006c28002001020000d2270020e0270020e1
:10042400ea4a934201d101f012fa00d883e0e84a83
:10043400934201d101f0acfa00d9bae0023a9342f6
:1004440001d101f04cfa01d901f067fa013a934263
:1004540001d000f000ffdf495c31df480ef09afa6a
:10046400002801d101f013fa0222dc4b1a70da4c95
:1004740020000ff0c3f802002100d9480ff04ef815
:1004840080229200002120000ff092f80022d54b28
:100494001a60d24b1b78022b01d101f018facf4b12
:1004a4001b78032b01d101f016facf4b1b68cf4afe
:1004b40012689b1ace4a934201d800f0d2fecd4b6b
:1004c400cd495a5c01325a5400225a80c34b1a70e7
:1004d40084acca4b3033220023cb23c223cb23c2a8
:1004e40023cb23c220000ff089f881b220000ff043
:1004f40022f9c34b1033220003cb03c21b881380a1
:10050400c04920000ef086fe20000ff077f881b27b
:1005140020000ff010f9b24c20000ff06ff881b2f8
:1005240020000ff008f980229200002120000ff033
:100534003ff800f090fe043a934201d101f0dff855
:1005440010d9c0229200934201d101f03ff901d9a0
:1005540001f05df9802292000021a1480ff028f8f3
:1005640000f07ffe023a934201d101f035f80132e6
:10057400934201d000f06ffe994c20000ff03ef83a
:1005840081b220000ff0d7f88022920000212000d1
:100594000ff00ef89c4b1b889c4a934201d101f04a
:1005a400a9f80133934a538000228c4b1a7000f04f
:1005b40052fe974a934201d101f0f1f901d901f0b9
:1005c4000efa904c11228349103120000ef0a6ff40
:1005d40020000ff013f8010020000bf035f9802201
:1005e400d2008c4b1a80fc32824b5a807e4b1a68a4
:1005f400894b1a6020000ff001f881b220000ff03f
:100604009af800f028fe043aff3a934201d101f02f
:1006140029fb29d9814a934201d101f073fb00d906
:1006240004e1023a934201d101f024fb01d901f023
:1006340045fb744c1e227a49503120000ef06effa7
:1006440020000ef0dbff010020000bf0fdf8694aea
:1006540053880133538020000ef0d0ff81b2200074
:100664000ff069f800f0f7fdf93a934201d101f077
:1006740019fa00d87ee06b4a934201d101f05dfa89
:1006840001d901f0b3fa013a934201d000f0e3fd3d
:1006940050495c3150480ef07df9002801d101f039
:1006a40022fa02224d4b1a704b4c20000ef0a6ff8a
:1006b400020021004a480ef031ff802292000021fe
:1006c40020000ef075ff0022464b1a60434b1b7846
:1006d400022b01d101f027fa404b1b78032b01d1e7
:1006e40001f026fa404b1b684b4a12689b1a404a99
:1006f400934201d800f0b5fd3e4b3f495a5c0132ac
:100704005a5400225a80354b1a7084ac444b14332b
:10071400220023cb23c223cb23c2196811609b88f8
:10072400938020000ef06aff81b220000ff003f8de
:10073400334b1033220003cb03c21b88138031498f
:1007440020000ef067fd20000ef058ff81b220005b
:100754000ef0f1ff224c20000ef050ff81b2200079
:100764000ef0e9ff80229200002120000ef020ff0d
:1007740000f071fd023a934201d101f072f90132a5
:10078400934201d000f067fd1e4c10221b497431c6
:1007940020000ef0c3fe20000ef030ff0100200008
:1007a4000bf052f8204a1b4b1a80f732114b5a8037
:1007b4000d4b1a68184b1a6020000ef01fff81b20f
:1007c40020000ef0b8ff00f046fdc0460203000012
:1007d400ff030000a85a000030130020e40c00209e
:1007e400301500202c28002040280020fc27002061
:1007f4008813000074000020310c0000a85b000086
:10080400285b000030110020d227002003020000e2
:10081400010400006a2800200428002003050000c9
:10082400285c0000fd04000005040000c022d20082
:10083400934201d101f089fa01d901f0a8fa023af0
:10084400934201d000f007fdd94b1b78012b01d056
:1008540000f007fd0022d64b1a70d64ad64b5a80b8
:1008640000f0fffcc122d200934201d101f034fb1d
:1008740001d901f053fbd14c2622d1497c3120000f
:100884000ef04cfe20000ef0b9fe010020000af02c
:10089400dbffcc4acc4b1a80f532c74b5a80cb4b8a
:1008a4001a68cb4b1a6020000ef0a8fe81b220001b
:1008b4000ef041ff00f0cffcc64a934201d101f093
:1008c40061fc1ad8023a934201d101f093fb01d999
:1008d40001f027fc013a934201d000f0bcfcb44b78
:1008e4001b78012b01d000f0bcfc0022b04b1a7025
:1008f400b94ab14b5a8000f0b4fce022d2009342d2
:1009040001d101f081fc01d901f099fc802292000f
:100914000021b2480ef04cfe00f0a3fcb04a934212
:1009240001d102f06bf83fd9ae4a934201d102f0f3
:10093400cafa00d816e2ac4a934201d102f0dcfbb9
:1009440001d900f007fcfa3a934201d102f007fb07
:1009540000d953e3023a934201d102f0bffa01d91c
:1009640002f0ddfa954c0d22a049603120000ef012
:10097400d5fd20000ef042fe010020000af064ffc5
:10098400b02212019a4b1a80fc328b4b5a808f4b47
:100994001a68984b1a6020000ef030fe81b22000d5
:1009a4000ef0c9fe00f057fc093aff3a934201d118
:1009b40001f0f1fd00d9c8e0f43aff3a934201d1c5
:1009c40001f040fd36d98c4a934201d101f0a6fdd5
:1009d40000d98be0f33a934201d101f07bfd01d2bf
:1009e40001f054fd0132934201d000f034fc704b0d
:1009f4001b78012b01d000f034fc00226c4b1a70e0
:100a04006e4c0e227d49503120000ef087fd2000ef
:100a14000ef0f4fd010020000af016ff764a664b42
:100a24005a8020000ef0eafd81b220000ef083fe11
:100a340000f011fc043a934201d101f06bfc2ad975
:100a44006f4a934201d101f089fc01d901f0d6fc2f
:100a5400574b1b78012b01d000f003fc0022544bb0
:100a64001a70564c0f225649483120000ef056fd9c
:100a740020000ef0c3fd010020000af0e5fe4e4afe
:100a840053880133538020000ef0b8fd81b220005a
:100a94000ef051fedfe3023a934201d101f017fc5c
:100aa4000132934200d0d6e3414b1b78012b00d096
:100ab400d7e300223e4b1a70404c1e225149243188
:100ac40020000ef02bfd20000ef098fd0100200008
:100ad4000af0bafe384a53880133538020000ef0de
:100ae4008dfd81b220000ef026feb4e3464a934207
:100af40001d101f021fdfa32934201d101f03dfd13
:100b0400fb3a934200d0a6e32c4c0f223f49143108
:100b140020000ef003fd20000ef070fd0100200007
:100b24000af092fe80221201394b1a80fc32224bc9
:100b34005a80264b1a68374b1a6020000ef05efd6f
:100b440081b220000ef0f7fd85e3334a934201d1d0
:100b540001f054fe66d9a0221201934201d101f0a2
:100b64002bff00d9d6e0023a934201d101f0defe18
:100b740001d901f019ff194c20000ef03ffd81b29c
:100b840020000ef0d8fd80229200002120000ef0fb
:100b94000ffd224b1b88224a934201d101f0c1fe72
:100ba4000133054a53800022014b1a7053e3c046b7
:100bb400e40c0020ff050000740000203011002028
:100bc400285d00000706000060280020402800205f
:100bd400f0270020fe060000ff060000301500206c
:100be400040a0000ff0a0000fd0b0000a8600000da
:100bf4005c280020e8270020fe070000a85d000014
:100c040007070000a85e000001080000285f00003c
:100c140062280020f4270020fc090000da270020c5
:100c240001090000fd3a934201d101f068fd2bd97e
:100c3400d24a934201d101f08cfd01d201f067fd4b
:100c44000132934200d006e3cd4c0e22cd495031ff
:100c540020000ef063fc20000ef0d0fc0100200008
:100c64000af0f2fdc84ac94b1a80fa32c84b5a80be
:100c7400c84b1a68c84b1a6020000ef0bffc81b242
:100c840020000ef058fde6e2023a934201d101f051
:100c940017fd0132934200d0dde2bd4bbf495a5cdf
:100ca40001325a5400225a80bd4b1a7084acbd4b99
:100cb4006033220023cb23c223cb23c223cb23c202
:100cc4001b78137020000ef099fc81b220000ef006
:100cd40032fdac4b1033220003cb03c21b881380bc
:100ce400a74920000ef096fa20000ef087fc81b28e
:100cf40020000ef020fdac4c20000ef07ffc81b2f1
:100d040020000ef018fd80229200002120000ef039
:100d14004ffca0e2a54a934201d101f035ff01d96d
:100d240001f08eff964c0f22a149043120000ef0f1
:100d3400f5fb20000ef062fc010020000af084fda7
:100d44009c4a9d4b1a80fb32914b5a80914b1a68f6
:100d54009a4b1a6020000ef051fc81b220000ef074
:100d6400eafc78e2f43a934201d101f0ecfe31d985
:100d7400934a934201d101f0feff00d981e0023a87
:100d8400934201d101f07dff01d901f0b2ff7c4c07
:100d94000e228c49503120000ef0c0fb20000ef0d2
:100da4002dfc010020000af04ffd874a824b1a8077
:100db400f032774b5a80774b1a68804b1a602000c8
:100dc4000ef01cfc81b220000ef0b5fc7f480df043
:100dd4000bfc40e2043a934201d101f093fe27d97f
:100de4007b4a934201d101f02afe01d901f048fe69
:100df400634c19227749183120000ef08ffb200034
:100e04000ef0fcfb010020000af01efd724a6a4b42
:100e14001a80f4325e4b5a805e4b1a68674b1a6034
:100e240020000ef0ebfb81b220000ef084fc12e2f5
:100e3400023a934201d101f044fe0132934200d0c0
:100e440009e24f4c19226549603120000ef066fb1f
:100e540020000ef0d3fb010020000af0f5fc604aec
:100e6400554b1a80f6324a4b5a804a4b1a68534bf8
:100e74001a6020000ef0c2fb81b220000ef05bfc71
:100e8400e9e1584a934201d101f0c0ff01d901f0d0
:100e9400dcff013a934200d0dde153495c31534811
:100ea4000df078fd002801d101f086ff02223c4bb1
:100eb4001a704e4c20000ef0a1fb020021003a48ab
:100ec4000ef02cfb80229200002120000ef070fb1b
:100ed4000022474b1a60324b1b78022b01d101f0e0
:100ee4008bff2f4b1b78032b01d101f08aff294b79
:100ef4001b68324a12689b1a3e4a934200d8b0e1fa
:100f0400234b26495a5c01325a5400225a80244bfe
:100f14001a7084ac384b0433220023cb23c223cb76
:100f240023c223cb23c223cb23c220000ef066fbb3
:100f340081b220000ef0fffb124b1033220003cbd2
:100f440003c21b8813800e4920000ef063f92000b1
:100f54000ef054fb81b220000ef0edfb124c200089
:100f64000ef04cfb81b220000ef0e5fb80229200d3
:100f7400002120000ef01cfb6de1c04601090000b9
:100f840030110020285b000002090000da2700204d
:100f94007400002040280020e4270020310c0000c9
:100fa400e40c0020285f000030150020020a000035
:100fb400285c0000010a00005e280020ec270020c5
:100fc4000f0a0000a85d00000c0a0000881300004e
:100fd400090a000028600000080a0000a85f000059
:100fe400060a0000fd0a0000a85a00003013002081
:100ff4002c280020204e0000a8600000dd4a934207
:1010040001d101f0eeff01d201f0cafff7329342a1
:1010140000d020e1d8495c31d8480df0bbfc002851
:1010240001d102f03ff80222d54b1a70d34c2000b4
:101034000ef0e4fa0200d34d210028000ef06efaff
:1010440080229200002120000ef0b2fa0022ce4b42
:101054001a60ce49303128000df09cfc041e29d0c2
:1010640008300ef03ffbca4dca4be85420000b3049
:101074000ef038fbc84be85420000e300ef032fb63
:10108400c64be854200011300ef02cfbc44be8543e
:10109400200014300ef026fbc24be8542000173019
:1010a4000ef020fbc04be854053be8180cf016f892
:1010b400be4be850b24b1b78022b01d102f012f860
:1010c400af4b1b78032b01d102f011f8b84b1b680e
:1010d400b84a12689b1ab84a934200d8bbe0ac4b9a
:1010e400b6495a5c01325a5400225a80a44b1a70f1
:1010f40084aca64b3c33220023cb23c223cb23c294
:101104001b78137020000ef079fa81b220000ef0e3
:1011140012fbab4b1033220003cb03c21b8813809a
:10112400a84920000ef076f820000ef067fa81b28c
:1011340020000ef000fb934c20000ef05ffa81b209
:1011440020000ef0f8fa80229200002120000ef018
:101154002ffa80e09c4a934201d102f0e4f84bd884
:10116400fd3a934201d102f0cef801d202f08ff899
:10117400013293426fd1934c8022920000212000cf
:101184000ef016fa914e310028311f2220000ef085
:10119400c5f920000ef032fa00197d4da91d202258
:1011a4000ef0bcf933004833b26c04929a8804a957
:1011b4008a809b798b7120000ef02cf8290027314e
:1011c40020000ef027f820000ef018fa010020008d
:1011d4000af03afbc02212017d4b1a807a4b6b80d5
:1011e400734b1a687b4b1a6020000ef007fa81b229
:1011f40020000ef0a0fa2ee0774a934201d102f0cb
:101204007ff901d202f058f90132934223d100222e
:101214005b4b1a7002f080f86a4c05225649200094
:101224000ef07cf920000ef0e9f9010020000af02c
:101234000bfb80225200694b1a80fc32544b5a80bb
:101244005b4b1a68664b1a6020000ef0d7f981b226
:1012540020000ef070fa4e4b1b78022b01d102f0e5
:1012640090f9c5239b009d44f0bd564c1122424980
:10127400103120000ef052f920000ef0bff90100e9
:1012840020000af0e1fa81225200544b1a80fa320b
:101294003f4b5a80464b1a68514b1a6020000ef09f
:1012a400adf981b220000ef046fad4e7454c0b228a
:1012b4003149303120000ef031f920000ef09ef952
:1012c400010020000af0c0fa82225200434b1a8027
:1012d400f8322f4b5a80364b1a68414b1a60200063
:1012e4000ef08cf981b220000ef025fab3e7354cec
:1012f400092221493c3120000ef010f920000ef0a3
:101304007df9010020000af09ffa0622ff32334bd8
:101314001a80f7321e4b5a80254b1a68304b1a60dc
:1013240020000ef06bf981b220000ef004fa92e76f
:10133400244c12221049483120000ef0eff820000e
:101344000ef05cf9010020000af07efa83225200bc
:10135400224b1a80f6320e4b5a80154b1a68204bda
:101364001a6020000ef04af981b220000ef0e3f971
:1013740071e7c046050b0000a85a00003013002096
:10138400e40c0020301500202c28002028610000e7
:1013940074000020640c0000650c0000660c000062
:1013a400670c0000680c0000690c00006c0c000065
:1013b40040280020e827002088130000310c00009a
:1013c400285b000030110020fc0c0000a861000024
:1013d40064280020f8270020fe0c00006c28002060
:1013e40008280020e3496431e3480df0d3fa0028cb
:1013f40001d1fef706ff0322e04b1a70de4c2000f9
:101404000ef0fcf802002100dd480ef087f880227f
:101414009200002120000ef0cbf80022d94b1a6074
:10142400fef7effefe22ff32d74b5a8019e7ff2268
:101434005200d54b5a8014e7d14c20000ef0def850
:1014440081b220000ef077f9d04b1b888322520022
:1014540093420cd00133cc4a538080229200002165
:10146400c7480ef0a5f80022c44b1a70f3e6c84929
:101474001c31c3480df08efa0100c34ca01d053188
:1014840020220ef04bf8c34b6380e6e7be4bc24903
:101494005a5c01325a5400225a80b84b1a7084acf8
:1014a400bb4d2b002433220043cb43c243cb43c266
:1014b40003cb03c220000ef0a1f881b220000ef08d
:1014c4003af92b001033220003cb03c21b8813808c
:1014d400b24920000df09efe20000ef08ff881b27c
:1014e40020000ef028f9a64c20000ef087f881b2f7
:1014f40020000ef020f980229200002120000ef03e
:1015040057f8a8e68022920000219d480ef050f87a
:1015140000229a4b1a70a4e6a04c0c229c49443138
:1015240020000df0fbff20000ef068f80100200001
:101534000af08af99a4a9b4b1a80fb32924b5a80e2
:10154400994b1a68994b1a6020000ef057f881b233
:1015540020000ef0f0f87ee6904c0e228c495031bb
:1015640020000df0dbff20000ef048f80100200001
:101574000af06af98e4a8b4b1a80fa32824b5a80ef
:10158400894b1a68894b1a6020000ef037f881b233
:1015940020000ef0d0f85ee6804c0b227c496031ce
:1015a40020000df0bbff20000ef028f80100200001
:1015b4000af04af97f4a7b4b1a80f932724b5a80ff
:1015c400794b1a68794b1a6020000ef017f881b233
:1015d40020000ef0b0f83ee666495c3166480df036
:1015e400d9f9002861d00222644b1a70624c2000a1
:1015f4000ef004f80200210061480df08fff8022f4
:101604009200002120000df0d3ff00225d4b1a60f0
:101614005a4b1b78022b65d0584b1b78032b65d093
:10162400614b1b68614a12689b1a634a934200d853
:1016340017e6554b58495a5c01325a5400225a80d5
:101644004e4b1a7084ac524d2b006c33220043cbaa
:1016540043c243cb43c243cb43c220000df0ceff71
:1016640081b220000ef067f82b001033220003cb68
:1016740003c21b881380494920000df0cbfd2000d4
:101684000df0bcff81b220000ef055f83c4c200058
:101694000df0b4ff81b220000ef04df880229200cc
:1016a400002120000df084ffd5e532496431324831
:1016b4000df070f90028abd00322304b1a702e4c79
:1016c40020000df09bff020021002d480df026ffa5
:1016d40080229200002120000df06aff0022294b95
:1016e4001a6095e7354a284b5a80bae5344a264ba6
:1016f4005a80b6e5334a244b5a80fef755ff224bf5
:1017040025495a5c01325a5400225a801b4b1a70e4
:1017140084ac2d4b1033220023cb23c223cb23c212
:1017240003cb03c220000df069ff81b220000ef04c
:1017340002f8174b1033220003cb03c21b8813801b
:10174400164920000df066fd20000df057ff81b210
:1017540020000df0f0ff0a4c20000df04fff81b285
:1017640020000df0e8ff80229200002120000df0ff
:101774001fff70e5a85a000030130020e40c00207d
:10178400301500202c280020740000206c28002034
:10179400285b0000ff010000310c00003011002024
:1017a40001020000d227002040280020e02700206a
:1017b400020200000302000088130000fd02000082
:1017c400fe020000ff020000a85b0000ea4c0b22ae
:1017d400ea49303120000df0a1fe20000df00eff8b
:1017e400010020000af030f8c0229200e44b1a8075
:1017f400fc32e44b5a80e44b1a68e44b1a60200034
:101804000df0fcfe81b220000df095ff23e5da4ccb
:101814000922da493c3120000df080fe20000df051
:10182400edfe010020000af00ff8d94ad44b1a80cb
:10183400fb32d44b5a80d44b1a68d44b1a60200024
:101844000df0dcfe81b220000df075ff03e5ca4cfb
:101854000c22d049443120000df060fe20000df030
:10186400cdfe0100200009f0efffcb4ac44b1a80e3
:10187400fa32c44b5a80c44b1a68c44b1a60200015
:101884000df0bcfe81b220000df055ffe3e4bb492e
:101894006431c2480df07ef8002801d1fef7f9fd4d
:1018a4000322bf4b1a70bd4c20000df0a7fe0200ae
:1018b4002100bc480df032fe80229200002120005d
:1018c4000df076fe0022b84b1a60fef7e2fdb74a2f
:1018d400ac4b5a80c5e4b64aaa4b5a80c1e4b14c19
:1018e40020000df08bfe81b220000df024ff802239
:1018f4009200002120000df05bfea14b1b88a64a3c
:10190400934206d001339f4a53800022a44b1a709d
:10191400a1e4a84a9b4b5a80f7e79a4ba6495a5c24
:1019240001325a5400225a809d4b1a7084aca34b46
:101934005433220023cb23c223cb23c203cb03c2c1
:1019440020000df05bfe81b220000df0f4fe914bff
:101954001033220003cb03c21b8813808649200066
:101964000df058fc20000df049fe81b220000df06e
:10197400e2fe8c4c20000df041fe81b220000df0ff
:10198400dafe80229200002120000df011fe62e4b4
:1019940080229200002183480df00afe61e4764c17
:1019a4000b227649243120000df0b8fd20000df003
:1019b40025fe0100200009f047ff814a814b1a806f
:1019c400fb32704b5a80704b1a687f4b1a602000b0
:1019d4000df014fe81b220000df0adfe3be4664c28
:1019e4000b226649303120000df098fd20000df0e7
:1019f40005fe0100200009f027ff744a714b1a808c
:101a0400fa32604b5a80604b1a686f4b1a602000a0
:101a14000df0f4fd81b220000df08dfefff71bfcec
:101a2400554c092255493c3120000df077fd20002a
:101a34000df0e4fd0100200009f006ff644a614b4b
:101a44001a80f9324f4b5a804f4b1a685e4b1a601a
:101a540020000df0d3fd81b220000df06cfefff7e5
:101a6400fafb454c0c224b49443120000df056fd45
:101a740020000df0c3fd0100200009f0e5fe554ae9
:101a8400504b1a80f8323f4b5a803f4b1a684e4bea
:101a94001a6020000df0b2fd81b220000df04bfe63
:101aa400fff7d9fb344c0f224b49043120000df0d1
:101ab40035fd20000df0a2fd0100200009f0c4fe58
:101ac400464a404b1a80f6322e4b5a802e4b1a68e7
:101ad4003d4b1a6020000df091fd81b220000df005
:101ae4002afefff7b8fb254964312c480cf052ff5d
:101af400002801d1fef7eafd0322294b1a70274c76
:101b040020000df07bfd0200210026480df006fdab
:101b140080229200002120000df04afd0022224b79
:101b24001a60fef7d3fd2e4a164b5a80fff799fb35
:101b34002c4a144b5a80fff794fb1a4c20000df0ea
:101b44005dfd81b220000df0f6fd8022920000219f
:101b540020000df02dfd1b4b1b88204a934207d01b
:101b64000133084a538000220d4b1a70fff773fbb0
:101b74001d4a044b5a80f6e730110020a85a000091
:101b8400662800207400002040280020fc27002044
:101b940001030000285b0000020300003013002052
:101ba400e40c0020301500202c280020fd03000048
:101bb400fe030000ff030000310c0000a85b0000de
:101bc400010400006a280020042800200204000008
:101bd4000304000004040000285c00000604000064
:101be400fd040000fe040000ff040000ec4bed497e
:101bf4005a5c01325a5400225a80eb4b1a7084ac5e
:101c0400ea4b3433220023cb23c223cb23c21b88c9
:101c1400138020000df0f2fc81b220000df08bfd4a
:101c2400e34b1033220003cb03c21b881380e1492a
:101c340020000df0effa20000df0e0fc81b220004e
:101c44000df079fddc4c20000df0d8fc81b22000b1
:101c54000df071fd80229200002120000df0a8fcff
:101c6400fff7f9fa802292000021d3480df0a0fc7e
:101c7400fff7f7facc4b1b78012b01d0fff7f1faf1
:101c84000022c94b1a70cb4c1e22c8497031200067
:101c94000df044fc20000df0b1fc0100200009f01f
:101ca400d3fdbf4a53880133538020000df0a6fcb6
:101cb40081b220000df03ffdfff7cdfaba4b1b783f
:101cc400012b01d0fff7cdfa0022b74b1a70b94ca3
:101cd4001e22ba49103120000df020fc20000df026
:101ce4008dfc0100200009f0affdad4a538801339b
:101cf400538020000df082fc81b220000df01bfd0a
:101d0400fff7a9faa84b1b78012b01d0fff7a9fa1a
:101d14000022a54b1a70a74c0f22a849303120008d
:101d24000df0fcfb20000df069fc0100200009f01f
:101d34008bfda34a9a4b5a8020000df05ffc81b2c0
:101d440020000df0f8fcfff786fa9a4c12229d4908
:101d5400483120000df0e2fb20000df04ffc0100a3
:101d6400200009f071fdc022d200974b1a80fc328a
:101d74008b4b5a80954b1a68954b1a6020000df0d6
:101d84003dfc81b220000df0d6fcfff764fa894ccb
:101d940030228a49403120000df0c0fb20000df0b4
:101da4002dfc0100200009f04ffd8a4a864b1a8061
:101db400fb327b4b5a80854b1a68854b1a60200096
:101dc4000df01cfc81b220000df0b5fcfff743fac6
:101dd400784c2e227949703120000df09ffb2000b1
:101de4000df00cfc0100200009f02efd7a4a764b20
:101df4001a80fa326a4b5a80744b1a68744b1a6010
:101e040020000df0fbfb81b220000df094fcfff7e5
:101e140022fa684c0f227149383120000df07efb04
:101e240020000df0ebfb0100200009f00dfd6c4ad1
:101e3400654b1a80f8325a4b5a80644b1a68644bcb
:101e44001a6020000df0dafb81b220000df073fc63
:101e5400fff701fa574c0f226049483120000df07a
:101e64005dfb20000df0cafb0100200009f0ecfc32
:101e74005c4a554b1a80f732494b5a80534b1a68c7
:101e8400534b1a6020000df0b9fb81b220000df015
:101e940052fcfff7e0f9474c212250495831200009
:101ea4000df03cfb20000df0a9fb0100200009f01f
:101eb400cbfc4d4a444b1a80f632394b5a80434b83
:101ec4001a68434b1a6020000df098fb81b2200081
:101ed4000df031fcfff7bff9364c1622434924318b
:101ee40020000df01bfb20000df088fb01002000fa
:101ef40009f0aafcc122d200334b1a80f432284bd9
:101f04005a80324b1a68324b1a6020000df076fb6f
:101f140081b220000df00ffcfff79df9254c122231
:101f240032493c3120000df0f9fa20000df066fb37
:101f34000100200009f088fc2d4a234b1a80f3325b
:101f4400174b5a80214b1a68214b1a6020000df060
:101f540055fb81b220000df0eefbfff77cf9154c28
:101f64000e222249503120000df0d8fa20000df045
:101f740045fb0100200009f067fc164a124b1a8049
:101f8400fb32074b5a80114b1a68114b1a60200020
:101f94000df034fb81b220000df0cdfbfff75bf9af
:101fa40074000020310c0000e40c0020285c0000c8
:101fb400285b00003011002030150020a85c0000d0
:101fc400fe050000a85a00006028002040280020d8
:101fd400f02700200106000002060000285d000032
:101fe400040600000506000006060000a85d0000c7
:101ff40009060000eb495c31eb480cf0cbfc0028ef
:1020040068d00222e94b1a70e74c20000df0f6fa72
:1020140002002100e6480df081fa8022920000219e
:1020240020000df0c5fa0022e24b1a60df4b1b784a
:10203400022b6cd0dd4b1b78032b6dd0de4b1b6861
:10204400de4a12689b1ade4a934201d8fff709f967
:10205400dc4bdd495a5c01325a5400225a80d34b7e
:102064001a7084acd94b6033220023cb23c223cb18
:1020740023c223cb23c203cb03c2198811809b78cc
:10208400937020000df0bafa81b220000df053fbda
:10209400cf4b1033220003cb03c21b881380cd49de
:1020a40020000df0b7f820000df0a8fa81b220004e
:1020b4000df041fbbe4c20000df0a0fa81b22000cf
:1020c4000df039fb80229200002120000df070faff
:1020d400fff7c1f8b3496431b3480cf05bfc002846
:1020e400a4d00322b14b1a70af4c20000df086fa35
:1020f40002002100ae480df011fa80229200002166
:1021040020000df055fa0022aa4b1a608ee7b24a5d
:10211400ac4b5a80fff7a5f8b04aaa4b5a80fff798
:10212400a0f8c023db00ae4a12889a421ad0a04c11
:1021340020000df063fa81b220000df0fcfa802239
:102144009200002120000df033faa54b1b88a54a0c
:10215400934213d001339b4a53800022934b1a704d
:10216400fff779f89a491c3191480cf013fc411d92
:102174002022944806300df0d1f9d8e79a4a914bc1
:102184005a80eae78f4b90495a5c01325a54002234
:102194005a80864b1a7084ac944b1033220023cba4
:1021a40023c223cb23c223cb23c21968116099888d
:1021b40091809b79937120000df020fa81b2200068
:1021c4000df0b9fa824b1033220003cb03c21b88f3
:1021d4001380804920000df01df820000df00efa48
:1021e40081b220000df0a7fa714c20000df006fa20
:1021f40081b220000df09ffa80229200002120007d
:102204000df0d6f9fff727f8724c302278494031a7
:1022140020000df083f920000df0f0f901002000fa
:1022240009f012fb674a53880133538020000df0f4
:10223400e5f981b220000df07efafff70cf85b4b54
:102244001b78012b01d0fff70cf80022574b1a70b2
:10225400604c122265493c3120000df05ff92000ea
:102264000df0ccf90100200009f0eefa554a53882c
:102274000133538020000df0c1f981b220000df02c
:102284005afafef7e8ff494b1b78012b01d0fef701
:10229400e8ff0022454b1a704e4c2e225349503110
:1022a40020000df03bf920000df0a8f901002000fa
:1022b40009f0cafa434a53880233538020000df0d0
:1022c4009df981b220000df036fafef7c4ff374bba
:1022d4001b78012b01d0fef7c4ff0022334b1a7088
:1022e4003c4c2422434920000df018f920000df045
:1022f40085f90100200009f0a7fa324a5388013316
:10230400538020000df07af981b220000df013fa09
:10231400fef7a1ff254b1b78012b01d0fef7a1ff8f
:102324000022224b1a702b4c0f22334938312000e3
:102334000df0f4f820000df061f90100200009f01f
:1023440083fa204a53880133538020000df056f954
:1023540081b220000df0eff9fef77dff134b1b78df
:10236400012b01d0fef77dff0022104b1a70194c8f
:102374003d222049443120000df0d0f820000df01a
:102384003df90100200009f05ffa0e4a5388013339
:10239400538020000df032f981b220000df0cbf90a
:1023a400fef759ffa85a000030130020e40c002067
:1023b400301500202c28002040280020f027002081
:1023c4008813000074000020310c0000a85d000098
:1023d400285b000030110020fd060000fe0600000e
:1023e4006028002009060000ff060000285e0000a7
:1023f400a85c0000a85e0000285d0000e54b1b7887
:10240400012b01d0fef72dff0022e24b1a70e24ca3
:102414002622e2497c3120000df080f820000df0e6
:10242400edf80100200009f00ffadd4a538801336a
:10243400538020000df0e2f881b220000df07bf90a
:10244400fef709ffd34b1b78012b01d0fef709ffe0
:102454000022d04b1a70d04c1622d24924312000cd
:102464000df05cf820000df0c9f80100200009f01f
:10247400ebf9cb4a53880133538020000df0bef8aa
:1024840081b220000df057f9fef7e5fec14b1b7831
:10249400012b01d0fef7e5fe0022be4b1a70be4ca4
:1024a4001022c149043120000df038f820000df04d
:1024b400a5f80100200009f0c7f9b94a538801338f
:1024c400538020000df09af881b220000df033f90a
:1024d400fef7c1feaf4b1b78012b01d0fef7c1fe06
:1024e4000022ac4b1a70ac4c0f22af4914312000bf
:1024f4000df014f820000df081f80100200009f01f
:10250400a3f9a74a53880133538020000df076f8cd
:1025140081b220000df00ff9fef79dfe9d4b1b7854
:10252400012b01d0fef79dfe00229a4b1a709f4aa0
:102534009b4b5a80fef795fe974c0f229a49243103
:1025440020000cf0ebff20000df058f801002000f3
:1025540009f07af9964a974b1a80fb32904b5a80cd
:10256400954b1a68954b1a6020000df047f881b21c
:1025740020000df0e0f8fef76efe864b1b78012b71
:1025840001d0fef76efe0022824b1a708c4a844bf7
:102594005a80fef766fe8b495c318b480cf0faf9e1
:1025a400002866d002227b4b1a70874c20000df065
:1025b40025f80200210085480cf0b0ff802292002b
:1025c400002120000cf0f4ff0022814b1a60714bb3
:1025d4001b78022b6ad06f4b1b78032b6bd0764b86
:1025e4001b68764a12689b1a7a4a934201d8fef70e
:1025f40038fe6b4b78495a5c01325a5400225a8097
:10260400644b1a7084ac684b3433220023cb23c24e
:1026140023cb23c223cb23c2196811601b79137106
:1026240020000cf0ebff81b220000df084f86b4b1e
:102634001033220003cb03c21b88138056492000a9
:102644000cf0e8fd20000cf0d9ff81b220000df061
:1026540072f85e4c20000cf0d1ff81b220000df026
:102664006af880229200002120000cf0a1fffef7fe
:10267400f2fd5449643154480cf08cf90028a6d07a
:102684000322444b1a70504c20000cf0b7ff020098
:1026940021004e480cf042ff8022920000212000cd
:1026a4000cf086ff00224a4b1a6090e74c4a3c4be0
:1026b4005a80fef7d6fd4b4a394b5a80fef7d1fdbe
:1026c400424c20000cf09aff81b220000df033f848
:1026d40080229200002120000cf06aff354b1b88f9
:1026e400334a934207d001332d4a53800022294ba9
:1026f4001a70fef7b0fd324a294b5a80f6e7802261
:102704009200002131480cf053fffef7aafd224c41
:1027140010223549743120000cf000ff20000cf029
:102724006dff0100200009f08ff8902212012f4b59
:102734001a80fc321a4b5a801f4b1a682c4b1a60b1
:1027440020000cf05bff81b220000cf0f4fffef7d8
:1027540082fd114c0f222749043120000cf0defecb
:1027640020000cf04bff0100200009f06df8224a14
:102774001e4b1a80fb320a4b5a800f4b1a681c4bb3
:102784001a6020000cf03aff81b220000cf0d3ff55
:10279400fef761fde40c002030110020285d0000ec
:1027a40074000020a85d0000285f0000ff070000ff
:1027b400010800006228002040280020f42700209f
:1027c400ff080000a85a0000301300203015002034
:1027d4002c28002088130000310c0000285b000026
:1027e400fd080000fe080000a85b0000da270020b6
:1027f400e4270020285c000001090000f3495c3153
:10280400f3480cf0c7f8002864d00222f14b1a7088
:10281400ef4c20000cf0f2fe02002100ee480cf018
:102824007dfe80229200002120000cf0c1fe0022d7
:10283400ea4b1a60e74b1b78022b68d0e54b1b78f8
:10284400032b69d0e64b1b68e64a12689b1ae64ada
:10285400934201d8fef705fde44be5495a5c013289
:102864005a5400225a80db4b1a7084ace14b083373
:10287400220023cb23c223cb23c203cb03c21b8856
:10288400138020000cf0bafe81b220000cf053ff3c
:10289400d94b1033220003cb03c21b881380d749c2
:1028a40020000cf0b7fc20000cf0a8fe81b2200040
:1028b4000cf041ffc84c20000cf0a0fe81b22000b7
:1028c4000cf039ff80229200002120000cf070fef1
:1028d400fef7c1fcbd496431bd480cf05bf800282b
:1028e400a8d00322bb4b1a70b94c20000cf086fe12
:1028f40002002100b8480cf011fe80229200002151
:1029040020000cf055fe0022b44b1a6092e7bc4a3a
:10291400b64b5a80fef7a5fcba4ab44b5a80fef770
:10292400a0fcb94ab14b5a80fef73df9af4bb04910
:102934005a5c01325a5400225a80a64b1a7084ac55
:10294400ac4b2c33220023cb23c223cb23c21968e4
:1029540011609b88938020000cf050fe81b220000f
:102964000cf0e9fea44b1033220003cb03c21b88f6
:102974001380a24920000cf04dfc20000cf03efe18
:1029840081b220000cf0d7fe934c20000cf036fef0
:1029940081b220000cf0cffe8022920000212000a2
:1029a4000cf006fefef757fc8022920000218a48b4
:1029b4000cf0fefdfef755fc904c10229349743147
:1029c40020000cf0abfd20000cf018fe01002000ec
:1029d40008f03affa02212018d4b1a80fc32834b7f
:1029e4005a807f4b1a688b4b1a6020000cf006fe4d
:1029f40081b220000cf09ffefef72dfc7f4c0e22ce
:102a04007d49503120000cf089fd20000cf0f6fdca
:102a14000100200008f018ff7f4a7d4b1a80f8322d
:102a2400724b5a806e4b1a687a4b1a6020000cf075
:102a3400e5fd81b220000cf07efefef70cfc6f4c2d
:102a44000f227649143120000cf068fd20000cf0b0
:102a5400d5fd0100200008f0f7fe714a6c4b1a8086
:102a6400f332624b5a805e4b1a686a4b1a6020003c
:102a74000cf0c4fd81b220000cf05dfefef7ebfb10
:102a84005e4c0f226549243120000cf047fd2000e4
:102a94000cf0b4fd0100200008f0d6fe614a5c4b46
:102aa4001a80f232514b5a804d4b1a68594b1a60b6
:102ab40020000cf0a3fd81b220000cf03cfefef7d8
:102ac400cafb4e4c13224b494c3120000cf026fd1e
:102ad40020000cf093fd0100200008f0b5fe524ade
:102ae4004b4b1a80f732414b5a803d4b1a68494b85
:102af4001a6020000cf082fd81b220000cf01bfe55
:102b0400fef7a9fb3d4c19223a497c3120000cf018
:102b140005fd20000cf072fd0100200008f094fe79
:102b2400424a3b4b1a80f532304b5a802c4b1a6880
:102b3400384b1a6020000cf061fd81b220000cf0cb
:102b4400fafdfef788fb2d4c0d2239493431200063
:102b54000cf0e4fc20000cf051fd0100200008f012
:102b640073fe344a2a4b1a80f132204b5a801c4b94
:102b74001a68284b1a6020000cf040fd81b2200036
:102b84000cf0d9fdfef767fb1c4c2e222a4970314c
:102b940020000cf0c3fc20000cf030fd01002000ec
:102ba40008f052fe254a1a4b1a80fa320f4b5a800b
:102bb4000b4b1a68174b1a6020000cf01ffd81b2f2
:102bc40020000cf0b8fdfef746fbc046a85a0000f2
:102bd40030130020e40c0020301500202c280020a5
:102be40040280020e42700208813000074000020ff
:102bf400310c0000a85f0000285b000030110020a9
:102c0400fd090000fe090000ff090000a85b0000a8
:102c14005e280020ec270020040a0000285f000042
:102c2400090a00000a0a0000050a0000070a000059
:102c3400286000000b0a0000a85c0000020a0000e3
:102c4400f84c1222f8493c3120000cf067fc2000bb
:102c54000cf0d4fc0100200008f0f6fdf34af44b1c
:102c64001a80f932f34b5a80f34b1a68f34b1a600b
:102c740020000cf0c3fc81b220000cf05cfdfef7d8
:102c8400eafae84cee4d290044311a2220000cf0f7
:102c940045fc20000cf0b2fc0019e64eb11d2022c8
:102ca4000cf03cfc04a92b0060330a0021cb21c2a8
:102cb4001b78137020000cf0adfa20000cf09efc81
:102cc4000100200008f0c0fdde4ad94b1a80de4b1b
:102cd4007380d94b1a68d94b1a6020000cf08efc13
:102ce40081b220000cf027fdd8480bf07dfcfef7e4
:102cf400b2facc4c80229200002120000cf058fc47
:102d040004ae6422002130000cf052fccc4d2900aa
:102d140044311a2220000cf001fc20000cf06efc5f
:102d24000019c44fb91d20220cf0f8fb2b006c33a2
:102d3400320003cb03c2310020000cf06bfa2000f8
:102d44000cf05cfc0100200008f07efdc04ab84b8a
:102d54001a80bd4b7b80b84b1a68b84b1a602000b0
:102d64000cf04cfc81b220000cf0e5fcb7480bf0f1
:102d74003bfcfef770faab4c0e22b14974312000d3
:102d84000cf0ccfb20000cf039fc0100200008f012
:102d94005bfdb04aa64b1a80ed32a64b5a80a64b77
:102da4001a68a64b1a6020000cf028fc81b220009f
:102db4000cf0c1fcfef74ffaa7496431a7480bf0a9
:102dc400e9fd002801d1fef786f80322a44b1a700e
:102dd400a24c20000cf012fc02002100a1480cf0cf
:102de4009dfb80229200002120000cf0e1fb0022d8
:102df4009d4b1a60fef76ff89c4a8e4b5a80fef783
:102e040030fa9b4a8b4b5a80fef72bfa954c2000e4
:102e14000cf0f4fb81b220000cf08dfc80229200b7
:102e2400002120000cf0c4fb814b1b88884a93428c
:102e340007d001337f4a53800022894b1a70fef772
:102e44000afa8c4a7b4b5a80f6e77a4b8a495a5cd9
:102e540001325a5400225a80814b1a7084ac874b39
:102e64003433220023cb23c223cb23c223cb23c25c
:102e740003cb03c220000cf0c1fb81b220000cf094
:102e84005afc7f4b1033220003cb03c21b881380f0
:102e9400644920000cf0bef920000cf0affb81b2b5
:102ea40020000cf048fc6f4c20000cf0a7fb81b212
:102eb40020000cf040fc80229200002120000cf045
:102ec40077fbfef7c8f900216b4b5a4ad154802294
:102ed400920064480cf06cfbfef7c3f9514c0d22d0
:102ee4006649703120000cf019fb20000cf086fbc1
:102ef4000100200008f0a8fc624a634b1a80fb32f0
:102f04004c4b5a804c4b1a68604b1a6020000cf0f2
:102f140075fb81b220000cf00efcfef79cf9414ccd
:102f240011225b4920000cf0f9fa20000cf066fb3a
:102f34000100200008f088fc564a534b1a80fa32ec
:102f44003c4b5a803c4b1a68504b1a6020000cf0e2
:102f540055fb81b220000cf0eefbfef77cf9314cfe
:102f64000f224b49143120000cf0d8fa20000cf049
:102f740045fb0100200008f067fc474a424b1a80d9
:102f8400f9322c4b5a802c4b1a68404b1a602000a3
:102f94000cf034fb81b220000cf0cdfbfef75bf9a2
:102fa400204c0b223649603120000cf0b7fa200087
:102fb4000cf024fb0100200008f046fc374a324b99
:102fc4001a80f8321b4b5a801b4b1a682f4b1a601d
:102fd40020000cf013fb81b220000cf0acfbfef7d8
:102fe4003af9104c0c222a49243120000cf096faac
:102ff40020000cf003fb0100200008f025fc284a07
:10300400214b1a80f7320b4b5a800b4b1a681f4b1b
:103014001a6020000cf0f2fa81b220000cf08bfb55
:10302400fef719f930110020a85d0000030a000022
:103034005e2800207400002040280020ec27002097
:10304400286000000d0a0000fc0a0000b80b000014
:103054000e0a00000f0a0000a85a000030130020d6
:10306400e40c0020301500202c280020fd0a00006c
:10307400fe0a0000ff0a0000310c0000a8600000f6
:10308400285b0000010b00005c280020e8270020da
:1030940028610000020b0000030b0000040b000079
:1030a400050b0000ea496431ea480bf073fc002880
:1030b40001d1fdf7ffff0322e74b1a70e54c200016
:1030c4000cf09cfa02002100e4480cf027fa80225c
:1030d4009200002120000cf06bfa0022e04b1a60f1
:1030e400fdf7e8ffdf4ae04b5a80fef7baf8df4a03
:1030f400dd4b5a80fef7b5f8d84c20000cf07efa70
:1031040081b220000cf017fbd94b1b88d94a93429b
:1031140007d00133d44a53800022cf4b1a70fef7f4
:103124009af8d5495831cd480bf034fc002800d129
:1031340080e003300cf0fafa08f0a2fe051cce4938
:103144005c31c6480bf026fc00287dd003300cf01f
:10315400edfa08f095fe041cc7496431bf480bf032
:1031640019fc002800d18de0c44e14220021300047
:103174000cf01efa14220021c1480cf019fac149be
:10318400281c07f0abfb0bf08ffa030064270190b7
:103194007b4318000af04cf9011c281c06f080fb44
:1031a4000290b849201c07f099fb0bf07dfa05004a
:1031b400474338000af03cf9011c201c06f070fb60
:1031c4000390b149029807f089fb041c01980af0a6
:1031d4002ff9011c201c06f0ddfc09f009fe020099
:1031e4000b00a54f3c006834210030000bf03cfa82
:1031f400a549039807f072fb019028000af018f91a
:10320400011c019806f0c6fc09f0f2fd02000b0057
:1032140021009b480bf028fa39007031984b32009a
:1032240084a80bf021fa84a80cf0e8f981b284a8f0
:103234000cf081fa80229200002188480cf0b8f941
:10324400924a894b5a8067e780231b069c46654453
:10325400894e31006031814f38000bf09bfb033005
:103264000cf064fa08f00cfe041c310064313800e0
:103274000bf090fb002800d076e780231b069c46c9
:10328400644471e780231b069c4664446ce7764bd8
:103294007f495a5c01325a5400225a806e4b1a708c
:1032a40084ac7c4b1033220023cb23c203cb03c258
:1032b4001b78137020000cf0a1f981b220000cf0ef
:1032c4003afa754b1033220003cb03c21b881380d8
:1032d400724920000bf09eff20000cf08ff981b2a0
:1032e40020000cf028fa5d4c20000cf087f981b224
:1032f40020000cf020fa80229200002120000cf023
:1033040057f9fdf7a8ff80229200002153480cf0e2
:103314004ff9634a544b5a80534b1b78022b01d00c
:10332400fdf79fff34e14a495c314a480bf032fb18
:10333400002865d00222484b1a70464c20000cf03d
:103344005df90200210045480cf0e8f88022920063
:10335400002120000cf02cf90022414b1a603e4b56
:103364001b78022b69d03c4b1b78032b6ad04d4b46
:103374001b684d4a12689b1a4c4a934201d8fdf7c8
:1033840070ff394b42495a5c01325a54444a5a80bc
:103394000022314b1a7084ac3e4b5033220023cbb5
:1033a40023c223cb23c223cb23c21b881380200038
:1033b4000cf024f981b220000cf0bdf9364b103327
:1033c400220003cb03c21b881380344920000bf076
:1033d40021ff20000cf012f981b220000cf0abf9af
:1033e4001e4c20000cf00af981b220000cf0a3f965
:1033f40080229200002120000cf0daf8fdf72bff68
:103404001349643113480bf0c5fa0028a7d00322ee
:10341400114b1a700f4c20000cf0f0f80200210040
:103424000e480cf07bf880229200002120000cf062
:10343400bff800220a4b1a6091e71d4a0a4b5a80d2
:10344400fdf70fff1b4a084b5a80fdf70affc046e1
:10345400a85a000030130020e40c0020301500208e
:103464002c280020fd0b000074000020fe0b00003f
:103474005c280020050b000028610000b00c00202f
:10348400c40c00200000c84200007042ff0b000082
:10349400310c0000a8610000285b000030110020fe
:1034a400ff0c000040280020f8270020102700000f
:1034b400fd0c0000fe0c00000021b04bb04ad154ba
:1034c400b04c20000cf09af881b220000cf033f9d3
:1034d400ad4b1b88c022120193420dd00133a84a80
:1034e4005380802292000021a6480cf061f800224b
:1034f400a64b1a70fdf7affea54aa14b5a80f0e720
:103504009f4b9e495a5c01325a54a14a5a80002268
:103514009e4b1a7084ac9f4b7833220023cb23c27a
:1035240023cb23c219681160998891809b79937188
:1035340020000cf063f881b220000cf0fcf8964bec
:103544001033220003cb03c21b881380934920004d
:103554000bf060fe20000cf051f881b220000cf05a
:10356400eaf8884c20000cf049f881b220000cf0f5
:10357400e2f880229200002120000cf019f8fdf7f7
:103584006afe834b7e4a52889a4201d0fdf769fe57
:103594007b4b9b88824a93425dd015d9814a9342e2
:1035a40000d1bbe100d219e10132934201d0fdf711
:1035b40058fe80229200002172480bf0f9ff00228d
:1035c400724b1a70fdf74dfefc3a934225d001323e
:1035d400934201d0fdf745fe704c0e2272492c3106
:1035e40020000bf09bff20000cf008f801002000e5
:1035f40008f02af96d4a6e4b1a80fb32604b9a80b0
:103604006c4b1a686c4b1a6020000bf0f7ff81b208
:1036140020000cf090f8fdf724fe63491831674848
:103624000bf0b8f9002801d1fdf71bfe0c300400a3
:103634005d4928310bf0aef9002801d1fdf711fee8
:1036440020000cf04ff84e4b8a2292009852574ab1
:103654009a80fdf706fe5a495c3158480bf09af9f6
:10366400002863d00222494b1a70544c20000bf0fe
:10367400c5ff0200210043480bf050ff8022920056
:10368400002120000bf094ff00224e4b1a603f4ba8
:103694001b78022b67d03d4b1b78032b68d0454b1e
:1036a4001b68454a12689b1a474a934201d8fdf7a2
:1036b400d8fd0022354b1a70314b44495a5c013213
:1036c4005a54434a9a8084ac374b3c33220023cb70
:1036d40023c223cb23c21b88138020000bf08eff50
:1036e40081b220000cf027f82b4b1033220003cbbf
:1036f40003c21b881380294920000bf08bfd200096
:103704000bf07cff81b220000cf015f81d4c20005a
:103714000bf074ff81b220000cf00df880229200af
:10372400002120000bf044fffdf79bfd2449643188
:1037340022480bf02ff90028a9d00322134b1a704a
:103744001e4c20000bf05aff020021000d480bf024
:10375400e5fe80229200002120000bf029ff0022c8
:10376400184b1a6093e71b4a054b9a80fdf779fdc5
:10377400194a034b9a80fdf774fdc046310c0000d2
:10378400740000203015002064280020e40c002080
:10379400ff0c0000a8610000285b0000301100202d
:1037a400fc800000fe800000286200000180ffff12
:1037b4006828002040280020002800203013002022
:1037c400a85a00002c28002010270000320c00000a
:1037d4000080fffffd80fffffe80ffff6d4c210096
:1037e40058316d4d28000bf0d5f8060021006031ea
:1037f40028000bf0cff8002e78d0684b684a9a5c0a
:103804009b18684a9446634401221a70002808d021
:10381400624b634a9a5c9b18624a94466344022250
:103824001a705c4d290068315b4e30000bf0b2f821
:10383400c41c29006c3130000bf0acf8574d584ec5
:10384400ab5d5b02584a944663445b19021b21003a
:1038540018000bf063feab5d0133dbb2042b48d8d8
:103864004e498b554d4b0121504a99540021504ae1
:10387400995404aa474b743303cb03c21b781370c7
:10388400474b464ad35c0421002b01d0013bd9b2fb
:103894004902454b9c466144404bc91804a80bf0af
:1038a400b9fc04a80bf0aafe04ab9c4660440322b6
:1038b400384928310bf032fe04a80bf09ffe81b288
:1038c40004a80bf038ff3b4b1b883b4a934215d0ae
:1038d4000133324a93808022920000212e480bf05b
:1038e40067fe0022354b1a70fdf7bbfc00288fd110
:1038f400bfe700212a4b294ad154b3e727498a223a
:1039040092008b5a013b9bb28b52002b02d12c4a62
:103914008a80e0e72b4a214b9a80dce70022274b80
:103924001a701e4b22495a5c01325a54244a9a8016
:1039340084ac254b220023cb23c203cb03c21b88b8
:10394400138020000bf05afe81b220000bf0f3fe2e
:103954001e4b1033220003cb03c21b8813801c4967
:1039640020000bf057fc20000bf048fe81b2200031
:103974000bf0e1fe084c20000bf040fe81b2200069
:103984000bf0d9fe80229200002120000bf010fee3
:10399400fdf767fc28620000301500207400002049
:1039a4002f0200002a02000031020000270200005a
:1039b400320c00006828002001800000e40c002084
:1039c4000080ffff0180ffffa8620000285b000069
:0439d400301100208e
:020000040000fa
:1039d800f0b5a5b0079300230490079820930691ab
:1039e8001a920bf0e3fe050000680bf005fe0026b6
:1039f8000027069b05901f931f9b1a780d2a39d81c
:103a0800092a3dd2002a44d00023129300221f9c89
:103a18000c922378302b00d07ee06378582b02d0ac
:103a2800782b00d06ee0079bb74a0293129b1fa920
:103a3800019320ab0093049821ab04f041fd0725c6
:103a48000590054005d0062d2fd1002301341f9481
:103a580012931a9b002b02d01a9b1f9a1a60129b72
:103a6800002b1dd0802332001b06fb181000190004
:103a780025b0f0bd2b2a05d02d2a14d0202ac3d179
:103a88000133b8e7002212925a1c1f925b78002b70
:103a9800bcd1069b1f93002312931a9b002bdbd1ea
:103aa80032003b00e2e70122ede7209a002a07d026
:103ab800352122a80bf04ef8209904980af006ff49
:103ac800681e042806d80bf0e3fc0c0317190c0039
:103ad800229e239f059b1b07bbd580231b061f43e4
:103ae800b7e7239b894a8a491a40219b229e5b1883
:103af8001b051a431700ede7864febe70126864fb3
:103b08007642e7e71f9b5a1c1f925b78302bf9d04f
:103b1800002b9ed001230c931f9b0a221393002392
:103b28000b930a9308931f9804782300303bd9b26b
:103b3800092926d9059a29680bf051fa002832d0ac
:103b4800002023008446089a079005922022190035
:103b580091430a000021452a00d0a7e0059b0c9a52
:103b6800034313438b4294d01f9b069301331f9347
:103b7800069b5b782b2b71d00c002d2b74d1012464
:103b88006de00899082909dc0a9951435b180a93e2
:103b9800089b0130013308931f90c4e70b995143e8
:103ba8005b180b93f4e71f9a059b9446089a6344a5
:103bb8001f931b78002a49d11000302b28d01a00f7
:103bc800313a082a46d8844600201f9a0590139255
:103bd800303b421c002b0fd00a219444059a101840
:103be80082421bd1511c0591082a25dc0a220a9918
:103bf8004a439b1800220a9310001f9b591c1f91cf
:103c08005b781a00303a092ae2d9012207929de727
:103c18001f9b01305a1c1f925b78cee70132541e5d
:103c2800082c03dc0a9c4c430a94d9e7102ad7dcf9
:103c38000b9c4c430b94d3e7059900221029dbdc3d
:103c48000a210b9841435b180b93d5e7089a8446e1
:103c58000592d6e7002294460592d6e70c00069b0b
:103c680002331f93069b9b781a00303a092a60d8c2
:103c7800302b43d01a00313a0021082a16d8303b9d
:103c88001f9d0e931f9b591c1f915b781a00303a99
:103c9800092a47d94a1b214d2900082a03dc0e9915
:103ca800a94200dd2900002c00d04942059a002acb
:103cb80063d10c9a104300d0cbe6079a002a00d0b3
:103cc800e7e64e2b3ed038dc492b00d0e1e6144c19
:103cd8001fa821000bf024f8002800d1d9e61f9b6b
:103ce800e11c013b1fa81f930bf01af8002802d112
:103cf8001f9b01331f93074f0026aae61f9b5a1ce0
:103d08001f925b78b4e7c046c0f40000ffffefffe6
:103d1800330400000000f07fffffff7f1f4e00000c
:103d2800f4f600000a220e994a43d218303a0e924d
:103d3800a8e7069a00211f92b8e7692bc7d06e2b17
:103d480000d0a6e68b491fa809310af0e9ff002830
:103d580000d19ee61f9b1b78282b0cd122aa8649ee
:103d68001fa807f0abfa052805d1239b834a229e9a
:103d78001a4317006de6824fbee76346cb1a0793d6
:103d8800089b002b01d1059b0893059c102c00dd96
:103d980010240a9809f068ff06000f00092c15dda9
:103da8002200784b093ad2009b181a685b6805f024
:103db800e5f906000b980f0009f056ff02000b000a
:103dc8003000390003f050fb06000f00059b0f2b55
:103dd80039dc079b002b00d13be626dd162b0bdcdc
:103de8006849db00c9183200086849683b0005f0db
:103df800c5f906000f002ce62523059a9b1a079a99
:103e08009a4220dc0f24059b5e4de41ae1006918f4
:103e18003200086849683b0005f0b0f9079b1c1b95
:103e2800e4002c1922686368e1e7079b16330adb74
:103e3800079b3000da00534b39009b1a1a685b68fd
:103e480004f09cf8d5e7059b1c1b079be418002c85
:103e58006edd0f2323400ad04a49db00c91832001f
:103e6800086849683b0005f089f906000f000f2330
:103e78009c4348d02633ff339c4221dd002405941f
:103e88000a94079422230026049a3c4f13600a9b45
:103e9800b34200d1dde5209904980af017fd07998f
:103ea80004980af013fd059904980af00ffd0a9981
:103eb80004980af00bfd210004980af007fdc8e5f4
:103ec8000023300039001d002411012c1edc002bba
:103ed80001d006000f002c4bed00ff182b4b3200d1
:103ee8005d19286869683b0005f048f9234b0f0005
:103ef8000b40274906008b42c0d826498b4213d96c
:103f08000126254f76420023069373e001221442ce
:103f180007d01e4aeb009b181a685b6805f02ef95b
:103f2800012301356410d0e7d4239b04ff18eae786
:103f3800002ce8d00f23644223400ad0114adb004a
:103f4800d31830001a685b68390004f017f80600c7
:103f58000f002411d7d01f2c20dd002405940a94cb
:103f680007942223049a002613600a9b0027002b3b
:103f780091d16ee5f4f60000d4f400000000f07f63
:103f88000000f8ff90c600000000b0fc50ed0000f3
:103f98000000a07c0000907cffffef7f10232340ef
:103fa800069301d06a230693300039000023ca4dd6
:103fb800002c00dd03e1002b01d006000f00069b5a
:103fc800002b0fd06b237900490d3a005b1a002ba8
:103fd80008dd1f2b00dc04e10026342b00dcf9e0af
:103fe800dc27bf04002200233000390009f0e8fb79
:103ff8000028b2d10a9b089a00931399059b04984c
:1040080009f096fa0a90002800d137e7079b0024a8
:10401800da175b421a40079b1592db43079adb17b6
:104028001a40139205940a9b0498596809f0defc1b
:104038000790002800d125e70a9b0a991b690c31d3
:104048009a1c92000c3008930bf066fa22ab01938d
:1040580021ab009332003b0004980e960f9708f0ae
:104068008dfc2090002800d10ce7012104980bf06a
:104078005cfa0590002800d104e7219b002b00daa8
:10408800b4e0159ad518139a94460699229a5b1aa1
:1040980036219b189148013b8a1a0121834200db93
:1040a800b0e0c01a121a1f2800dda4e081400023e6
:1040b80014910c93ab1808931300069a6344d31811
:1040c800089a0b932b00954200dd13000b9a93423c
:1040d80000dd1300002b06dd089aed1ad21a0892ab
:1040e8000b9ad21a0b92159b002b17d01a00059920
:1040f800049808f08dfd0590002800d1c2e6010063
:10410800209a049807f071f91b90002800d1b9e6ad
:10411800209904980af0dafb1b9b2093089b002b3c
:1041280073dc139b002b79d10b9b002b08dd1a0045
:104138000799049808f0cafc0790002800d1a1e666
:10414800002d08dd2a000599049808f0bffc0590a9
:10415800002800d196e6079a2099049808f02efacc
:10416800041e00d18ee60025c3680599c5600b932f
:104178000af0c5fba8425bda0b9bab421bd1ae42ef
:1041880019d13b03ab4216d1d622554bd2043b4042
:10419800934210d96369ab4202d12369012b0add2e
:1041a80021000122049808f091fc059904000af006
:1041b800a6fb00286cdc069b002b78d16be601225d
:1041c800144204d02a686b6804f0d8ff01236410f5
:1041d8000835ede60121203b494299400a40170085
:1041e80000e7012252429a401640fbe6139a159db9
:1041f800d21a944649e73b48c31a080098400c90e5
:10420800149157e700230c93fae7089a2099049829
:1042180008f05cfc2090002883d133e6139a0799b4
:10422800049808f0f5fc0790002800d07ce729e600
:10423800002800d095e00b9a3b03002a24d02a4995
:104248003a001b0b8b425ed1069b0138b446010035
:10425800002b0ad0d425224bed043b40ab4204d8b6
:104268006b211b0dcb1a0100994061454bd11f4ba7
:104278009a4202d14b1c00d104e6194b00261a4081
:1042880080235b03d71896e7002b3cd1002e3ad148
:10429800069a134b002a2dd01a00d6213a40c90499
:1042a8008a4227dcdc239b049a4200dc59e6104b47
:1042b80030001193002310933900109a119b04f0d9
:1042c8005dff06000f1e00d0e5e5002800d0e2e5fe
:1042d8002223049a1360dee5d8ec000002fcfffffd
:1042e8000000f07fe2fbffffffff0f00ffffef7f03
:1042f800000050390126a94a3b409b18a84a76423b
:104308001a43170057e70c9b002b13d03b4200d1f0
:1043180051e70b9b069a30003900002b0fd00af0aa
:104328004ffb02000b000e980f9903f09df8060052
:104338000f0040e7149b334200d13ce7e9e70af05d
:104348003ffb02000b000e980f9902f0b5fd00220a
:10435800002306000f0009f033fa002800d000e619
:1043680029e70599200009f08dfe80230022db054e
:104378000890099109f034fa002875d00b9b002b9e
:1043880043d00022874b0c920d93864b0893864ba3
:104398003b401493149a854b9a4200d0b1e00e9a90
:1043a8000f9b10921193824b3000ff18390009f0cf
:1043b800ddfe02000b000c980d9904f0dffe3200c0
:1043c8003b0003f051f8784a7a4b06000a409a42bb
:1043d80062d9794b119a9a4203d1109a013200d1cd
:1043e80050e501261f007642209904980af06efadb
:1043f800079904980af06afa059904980af066fa87
:10440800210004980af062fa0de6002e1dd13b0344
:1044180020d1089809990022624b09f0d7f90028a1
:104428001ed1089809990022644b04f0a7fe0500e4
:104438000891802212069446089b1c9563441d939c
:104448001c9a1d9b0c920d93a1e7012e02d1002fff
:1044580000d186e500225a4b00250c920d9394e773
:10446800564b0b9d0893e4e7544b08980999002292
:1044780004f084fe0b9b05000891002b07d18023d4
:104488001b06cb1816901793169a179bdae70200ab
:10449800089b16921793f7e7d4239b04cf18069b23
:1044a800002ba1d1404b149a0c973b409a429bd1c8
:1044b8000899280009f072fb09f026fa0b0002009f
:1044c8000899280002f0f8fc0b9b08900991002b32
:1044d80004d1002e02d10c9b1b0358d008980999cf
:1044e800384a394b09f072f9002800d0d3e408980b
:1044f8000999364a314b09f07df9002800d173e754
:10450800c9e4069b002b2ad0d423149adb049a42d0
:1045180025d82f4a2f4b2800089909f061f900285f
:1045280016d0280008990af04df9002800d101207a
:1045380009f09afb0b9b05000891002b22d18023e0
:104548001b06cb1818901993189a199b0c920d9367
:10455800d6220d9bd2049b18149a9b1a0d930e9881
:104568000f990c9e0d9f09f001fe02000b00300010
:10457800390004f003fe0e9a0f9b02f075ff060047
:104588000f008ce70200089b18921993dce70d4a8c
:10459800114b0898099909f019f9aee70000f0ffe6
:1045a800ffff0f000000f03f0000f07f0000e07ff9
:1045b8000000b0fcffff9f7cffffef7f0000e03fa3
:1045c8000000f0bf9535a094ffffdf3f35e5af351c
:0c45d8000000c0ffffffdf41ffffcf3fee
:020000040000fa
:1045e400f0b516001f00446a9db00490259d069600
:1045f4000797002c08d110200af074ff049b58621e
:10460400446084600460c460049b5b6a1968002988
:104614000bd05a68012393404a608b6004980af0d7
:1046240057f90022049b5b6a1a60079b002b1cda73
:1046340001232b607b005b080793079cba4b220085
:1046440019931a409a421cd1b84b249a1360069ac3
:10465400b74b002a03d1240301d100f08cfd269a24
:10466400002a05d109330a9308e000232b60e4e70c
:104674001a0009320a920c33269a13600a981db064
:10468400f0bd069e079f002200233000390009f088
:1046940099f8051e0ed00123249a1360a44b1a0026
:1046a4000d320a92269a002ae8d01a0026990e3270
:1046b4000a60e3e71aab01931bab009332003b00a3
:1046c400049808f05df9630005905b0d00d17fe06c
:1046d4003a03984c120b14432100974a3000189562
:1046e4009e180022954b02f0e9fb954a954b04f085
:1046f40047fd954a954b02f0b9fe040030000d00c9
:1047040009f004f9924a934b04f03afd02000b00bd
:104714002000290002f0aafe04000d0009f040fa6e
:104724000022039000232000290009f051f80028fa
:104734000ed0039809f0eaf80b00020029002000cb
:1047440009f040f8030058425841039b1b1a039395
:1047540001231693039b162b0fd87f49db00c9183e
:1047640008684968069a079b09f046f800284bd068
:10477400039b013b0393002316931a9b9e1b002368
:104784000b933300013b0c9304d501239b1b0b9328
:1047940000230c93039b002b38db039a0c9b944659
:1047a40063440c9300230f920893229b0125092b49
:1047b40000d991e0052b02dd0025043b2293229bc6
:1047c400981e032800d991e00af064fe82842976b9
:1047d4001a9b1b9a9e18614bf218202a0fdd203b6e
:1047e4000698f318d84040239b1a9c40204309f0b4
:1047f4003dfa01235a4c013e0919189371e720230d
:1048040006989b1a9840f2e71690b6e70b9b039a1a
:104814009b1a0b935342089300230f93c5e701237c
:104824000e93239b002b65dd1f000d93049a546a9d
:104834000022626004221100143199425fd9616838
:10484400049809f0d5f8049b20605b6a1b680a93fe
:104854000e2f00d9fce0002d00d1f9e0069b079c47
:1048640014931594039b002b00dc7de01a000f21a8
:10487400394b0a40d2009b185c681b681093119452
:10488400039b02241d11eb060ad5364b0d401a6a10
:104894005b6a1498159903f073fb0324069007913f
:1048a400304e002d30d1109a119b0698079903f0d1
:1048b40067fb0690079171e00123239a0e939446b7
:1048c400039b63445f1c0d933b1eafdc0123ade7e8
:1048d4000023a5e70023f0e700230e952293013b74
:1048e4000d931f000022122323929fe701230e93ae
:1048f400023bf5e701230d931f001a00f4e76168fa
:1049040052000131616096e701231d4208d01098de
:104914001199e4183268736804f032fc1090119114
:104924006d100836bde7c0460000f07f0f27000079
:10493400d4f500000000f03f01fcffff0000f83f49
:1049440061436f63a787d23fb3c8608b288ac63f91
:10495400fb799f501344d33f90c6000032040000fb
:10496400000010fe50ed0000039b0224002b15d024
:10497400149815995d420f23c94a2b40db00d318c4
:104984001a685b6804f0fcfb002306900791c54e8f
:104994002d11002d00d08be0002b8ad1169b002b0b
:1049a40000d191e0069a079b1092119310981199e7
:1049b4000022bd4b08f00cff002800d184e0002f3a
:1049c40000d181e00d9b002b3edd10981199039bd3
:1049d40000225e1eb54b04f0d3fb069007910d9d9b
:1049e4000134200008f092ff069a079b04f0c8fbec
:1049f4000022af4b02f03afd12901391129b139ccc
:104a0400ac4a10931194139b9c181194002d5ed101
:104a1400069807990022a84b02f050fa109a230036
:104a24000690079108f0e8fe002800d000e3a348b0
:104a34001399844661440b0006980799109a08f06c
:104a4400c7fe002800d0e7e2149b159c0693079448
:104a54001b9b002b00da56e1039a0e2a00dd52e17b
:104a64008f4bd2009b185c681b6808930994239ba6
:104a7400002b00dbcee0002f00ddcbe000d0cee247
:104a84000898099900228c4b04f07afb069a079b3c
:104a940008f0bcfe3e000897002800d0a3e20a9b61
:104aa4000a9a5d1c31231370039b013303939ee226
:104ab4000122154205d0a4183268736804f060fb23
:104ac40001236d10083664e7039e3d0089e70a9ac6
:104ad400691e521917920e9a714bc900002a4ad0c6
:104ae4005b181a685b680020754903f049fa109a4c
:104af400119b02f0e3f90a9b10901191129306980e
:104b0400079909f04df8040008f000ff02000b00bb
:104b14000698079902f0d2f9129b30345d1c1c7080
:104b2400109a119b0690079108f052fe002865d157
:104b3400069a079b00205c4902f0c0f9109a119b69
:104b440008f046fe002800d0bde0179b9d4200d12e
:104b54007ae7109811990022544b04f011fb0022bb
:104b64001090119106980799504b04f009fb129587
:104b740006900791c3e7591808684968109a119b71
:104b840004f0fefa109011910a9c179d069807995b
:104b940009f006f8129008f0b9fe02000b0006981e
:104ba400079902f08bf9129b06900791303323701a
:104bb400179b01340022a34224d1414b1098119930
:104bc40002f054fc02000b000698079908f014fe4a
:104bd400002800d077e0109a119b0020384902f099
:104be4006df902000b000698079908f0f1fd002802
:104bf40000d129e76b1e1a78302a01d003963fe0d2
:104c04001d00f7e706980799284b04f0b9fa0690b7
:104c14000791bbe70a9e089a099b0698079903f037
:104c2400aff908f0bdff040008f070fe089a099b74
:104c340004f0a6fa0b0002000698079902f03ef968
:104c44002300303333700a9b751ceb1a9f424bd1ff
:104c540002000b0002f00afc06000f0002000b0029
:104c64000898099908f0b4fd00282bd108980999ef
:104c740032003b0008f0a6fd002801d0e30721d450
:104c84000599049809f024fe00232b70039b249ab1
:104c940001331360269b002b00d1efe41d60ede48b
:104ca40090c6000050ed00000000f03f00002440da
:104cb40000001c400000c0fc000014400000c07c48
:104cc4000000e03f039e6b1e1a78392a06d10a9a27
:104cd4009a4207d130231370130001361a78013237
:104ce4001a708be71d00eee70022cf4b04f048fa60
:104cf40000220023069007912e0008f063fd00288f
:104d040000d188e7bce70e9a002a00d187e0229af6
:104d1400012a6edc189a002a67d0c44a9b18089da1
:104d24000b9c0b9a0121d2180b920c9a0498d3185d
:104d34000c930af0fcfb0600002c0edd0c9b002bf0
:104d44000bdd0c9a2300944200dd13000b9ae41a45
:104d5400d21a0b920c9ad31a0c93089b002b1ed0d8
:104d64000e9b002b5fd0002d11dd31002a0004982a
:104d740007f050ff059a01000600049806f037fb7f
:104d840005991090049809f0a3fd109b0593089bc6
:104d94005a1b04d00599049807f03cff05900121a3
:104da40004980af0c4fb0f9b0890002b3ddd1a0009
:104db4000100049807f02eff229b08900025012b88
:104dc4003bdc0025069bab4233d1079b1b03ab4264
:104dd4002fd1199b079a13422bd00b9b012501332a
:104de4000b930c9b01330c9323e036231a9a9b1ae2
:104df40095e7089b7d1eab4206db5d1b002f0bda9b
:104e04000b9bdc1b00238ce7089b0895ea1a0f9b7d
:104e140000259b180f93f1e70b9c3b0081e7089d4d
:104e24000b9c0e9e88e7089ab4e7229b0025012b71
:104e3400c7dd0f9b0120002b0bd0089b089a1b6930
:104e44000f9303339b00d318586809f00dfd2023fa
:104e5400181a0c9bc0181f23184000d1abe0202364
:104e64001b1a042b00dc9be01c23181a0b9b241830
:104e74001b180b930c9b1b180c930b9b002b05dd31
:104e84001a000599049807f023fe05900c9b002b4b
:104e940005dd1a000899049807f01afe0890169b7d
:104ea400002b00d189e00899059809f02afd002813
:104eb40000db82e0039b0a22013b03930599002354
:104ec400049808f0adfc0e9b0590002b00d15be12b
:104ed400002331000a22049808f0a2fc0d9b06006e
:104ee400002b02dc229b022b6ddc002c05dd310043
:104ef4002200049807f0ecfd06003000002d11d0cc
:104f04007168049808f074fd3100040033690c31b1
:104f14009a1c92000c300af001fb01222100049833
:104f240007f0d6fd0d9f0a9b013f0b93db19370059
:104f340006000f930899059806f09cfe39000d9021
:104f44000400059809f0ddfc32000e9008990498dd
:104f540007f036fb01230c93c36830340500002ba3
:104f640004d10100059809f0ccfc0c9029000498a8
:104f740009f0aefc0c9b229a134300d089e0012374
:104f8400069a134200d084e0392c00d1a3e00e9b92
:104f9400002b01dd0d9c31340b9b5d1c1c7027e044
:104fa400042b00d169e70b9a1c33d2180b920c9a8c
:104fb400e418d31860e70300f5e7002f3cdc229bdc
:104fc400022b39dd0d970d9b002b0cd1089905227e
:104fd400049808f025fc08900100059809f091fc5c
:104fe400002800dd5be5239b0a9ddb430393002738
:104ff4000899049809f06cfc002e00d140e6002fbb
:1050040005d0b74203d03900049809f061fc31009f
:10501400049809f05dfc33e608952e00e3e70023cd
:1050240008931e00dfe7c04600002440330400005c
:10503400039608952e0032e50e9b0d97002b00d0a9
:1050440053e70a9d0899059806f014fe0a9b303030
:105054000d9a287001350400eb1a9a4278dc151e6b
:1050640000dc012500270a9b5d190599012204989b
:1050740007f02efd0899059009f043fc00282fdc69
:1050840001d1e3072cd46b1e1a78302ab0d11d004d
:10509400f9e70e9b002b07db1d00229b1d4326d145
:1050a4000123069a134222d10c9b002b00dc73e7e8
:1050b40005990122049807f00bfd0899059009f061
:1050c40020fc002804dc00d066e7e30700d463e793
:1050d400392c00d05ee70b9b0b9a5d1c39231370af
:1050e4006b1e1a78392a3bd001321a7080e70b9b69
:1050f40001330d930c9b002b05dd392cebd00d9d5a
:1051040001340b9b4ae70b9b0f9a0d9d1c70934235
:10511400abd000230a220599049808f081fb0023f0
:1051240005900a2239000498b74206d108f078fbaa
:10513400070006000d9b0b93fce608f071fb3100a1
:10514400070000230a22049808f06afb0600f1e72e
:1051540000230a220599049808f062fb059071e780
:105164000a9a9a4205d1039b0133039331231370a6
:105174003ee71d00b4e7269a0a930833002a01d0bb
:10518400fff77afafff77afa0d9b002b00dd58e758
:0c519400229b022b00dc54e715e7c0460c
:020000040000fa
:1051a000f0b5c64600b592b0042800d909e18000e8
:1051b000e94b1b589f46e94d8022920000212800b0
:1051c0000af0f8f9e64e0222310028000af0a8f9a8
:1051d00028000af015fa2a00213a311d0004000cbb
:1051e0002c00273c281809f041fa28000af008fa98
:1051f000dc4be35cdc4aa25cfa21c9008c466244c9
:10520000310014310004000c27300019d74fe75d3e
:105210000397d74fe75d0297d64fe75d0197d64fcb
:10522000e75d009709f022fa28000af0e9f9000486
:10523000000c2730001931003c3116220af070f9b9
:1052400028000af0ddf90004000c273000193100b5
:1052500054310b220af064f928000af0d1f9310028
:1052600060310004000c27300019c44a09f0fef92f
:1052700028000af0c5f9310074310004000c273011
:105280000019bf4a09f0f2f928000af0b9f9000440
:10529000000c27300019bb4e311d10220af040f9d6
:1052a00028000af0adf90004000c27300019310085
:1052b000143111220af034f928000af0a1f900048f
:1052c000000c27300019310028310c220af028f98f
:1052d00028000af095f9ac4be318c5221201a21878
:1052e000310034310004000c2730001909f0bef9f8
:1052f00028000af085f90004000c2730001931005d
:1053000048310d220af00cf928000af079f900045e
:10531000000c2730001908f09dff28000af070f9f2
:105320000004000c2730001907f016fa28000af0d4
:1053300067f90004000c2730001909f07dfa2800f5
:105340000af05ef90004000c2730001909f07eff16
:1053500028000af055f90004000c2730001909f064
:1053600081ff28000af04cf90004000c27300019d6
:1053700009f048fa28000af043f90004000c27302d
:10538000001909f0cff928000af03af90004000cde
:105390002730001908f082ff28000af031f90004d4
:1053a000000c2730001908f09dff28000af028f9aa
:1053b0000004000c273000193100583107220af090
:1053c000aff812b004bc9046f0bd644d802292004c
:1053d000002128000af0eef8614b984602221900dd
:1053e00028000af09df828000af00af90400322289
:1053f000002105a80af0def8644f791c102205a8e8
:105400000af08ef85f4e310060312004000c2c0051
:10541000273c281805aa09f029f928000af0f0f815
:10542000a21d310070310004000c2730001909f072
:105430001df928000af0e4f84a4be35c4a4aa25cf2
:10544000fa21c9008c466244414614310004000c24
:1054500027300019454ea65d0396454ea65d02967f
:10546000444ea65d0196444ea65d009609f0fef8f6
:1054700028000af0c5f80004000c27300019444e3b
:10548000192231000af04cf828000af0b9f800049b
:10549000000c27300019414654310b220af040f825
:1054a00028000af0adf8414660310004000c2730b6
:1054b0000019324a09f0daf828000af0a1f841464a
:1054c00074310004000c273000192d4a09f0cef881
:1054d00028000af095f83123fa5c31001c310004f1
:1054e000000c2730001909f0c1f828000af088f8ec
:1054f0003223fa5c31002c310004000c27300019f3
:1055000009f0b4f828000af07bf83323fa5c310084
:1055100040310004000c2730001909f0a7f82800da
:105520000af06ef8184be318c5221201a2183100d8
:1055300050310004000c2730001909f097f82800ba
:105540000af05ef80004000c2730001931006431c5
:10555000062209f0e5ff34e780f300009b000020fd
:10556000a8950000650c0000640c0000690c0000a8
:10557000680c0000670c0000660c0000d4270020b7
:10558000cc270020289600003c0c000004000020de
:10559000a8960000c54d80229200002128000af044
:1055a00009f80222c249280009f0baff28000af0cf
:1055b00027f804003222002105a809f0fbffbd4ea8
:1055c000711c102205a809f0abff2004000c28185c
:1055d00005aab949603109f049f828000af010f825
:1055e00081b23423f35c022b00d181e0b34cb44b85
:1055f000e35cb44aa25cfa20c000844662442731ce
:105600000819b149615c0391b049615c0291b049ec
:10561000615c0191af49615c0091a549143109f0c9
:1056200025f82000273009f0ebff3423a14ad35c92
:10563000012b6dd00004000c2730a04bc0181b229a
:10564000a549083109f06cff984c200009f0d8fffb
:105650000004000c2600273e20180b2294495431e8
:1056600009f05eff200009f0cbff924f3123fa5c76
:105670009a4d29001c310004000c2730801908f0d5
:10568000f5ff200009f0bcff3223fa5c29002c3121
:105690000004000c2730801908f0e8ff200009f012
:1056a000afff3323fa5c290040310004000c27309f
:1056b000801908f0dbff200009f0a2ff884bf318e7
:1056c000c5221201b218290050310004000c273005
:1056d000801908f0cbff200009f092ff0004000cb5
:1056e0002730801929006431062209f019ff68e685
:1056f0007c4a0004000c2730941f00196e49703159
:1057000008f0b4ff2000273009f07aff81b26de77e
:105710000004000c2730694bc01819226f496c3106
:1057200009f0fefe90e7614d8022920000212800e2
:1057300009f040ff5e4f02223900280009f0f0fe18
:10574000280009f05dff04003222002105a809f0bd
:1057500031ff584e711c102205a809f0e1fe564b8e
:105760009846190060312004000c2c00273c2818b2
:1057700005aa08f07bff280009f042ffa21d414660
:1057800070310004000c2730001908f06fff28006a
:1057900009f036ff4a4be35c4a4aa25cfa21c90091
:1057a0008c466244390014310004000c2730001983
:1057b000454fe75d0397454fe75d0297444fe75d2f
:1057c0000197444fe45d009408f050ff280009f071
:1057d00017ff3523f35c012b5dd00004000c27304c
:1057e000364bc01819223c493c3109f099fe2f4c28
:1057f000200009f005ff0004000c2600273e2018b9
:105800000b222b49543109f08bfe200009f0f8fee1
:10581000284f3123fa5c314d29001c310004000c63
:105820002730801908f022ff200009f0e9fe32231a
:10583000fa5c29002c310004000c2730801908f094
:1058400015ff200009f0dcfe3323fa5c290040310b
:105850000004000c2730801908f008ff200009f030
:10586000cffe1f4bf318c5221201b2182900503188
:105870000004000c2730801908f0f8fe200009f021
:10588000bffe0004000c2730801929006431062275
:1058900009f046fe95e50004000c2730074bc018c0
:1058a00017220d49243109f03bfea0e79b000020a0
:1058b000a895000004000020289600007400002035
:1058c000650c0000640c0000690c0000680c00000e
:1058d000670c0000660c000028970000a8960000e6
:1058e0003c0c00007a000020614d802292000021d3
:1058f000280009f05ffe5f4f02223900280009f0fe
:105900000ffe280009f07cfe04003222002105a8c9
:1059100009f050fe584e711c102205a809f000fe37
:10592000564b9846190060312004000c2c00273c8f
:10593000281805aa08f09afe280009f061fea21da9
:10594000414670310004000c2730001908f08efe2b
:10595000280009f055fe4a4be35c4a4aa25cfa2152
:10596000c9008c466244390014310004000c273011
:105970000019454fe75d0397444fe75d0297444f99
:10598000e75d0197434fe45d009408f06ffe280047
:1059900009f036fe3623f35c012b5dd00004000cc9
:1059a00027303d4bc0181c223c49743109f0b8fd2a
:1059b0002f4c200009f024fe0004000c2600273e96
:1059c00020180b222b49543109f0aafd200009f0c0
:1059d00017fe294f3123fa5c314d29001c31000498
:1059e000000c2730801908f041fe200009f008fe65
:1059f0003223fa5c29002c310004000c2730801976
:105a000008f034fe200009f0fbfd3323fa5c290086
:105a100040310004000c2730801908f027fe2000d8
:105a200009f0eefd1f4bf318c5221201b218290030
:105a300050310004000c2730801908f017fe2000b8
:105a400009f0defd0004000c2730801929006431c4
:105a5000062209f065fdb4e40004000c27300e4b6b
:105a6000c0181a220d49583109f05afda0e7c04666
:105a70009b000020a895000004000020289600004c
:105a8000650c0000640c0000690c0000680c00004c
:105a9000670c0000660c00007400002028970000ce
:085aa000a89600003c0c000078
:020000040000fa
